S015000077657474657273746174696F6E2E7372656372
S113000091C1000004C600002DC6000056C60000C1
S11300107FC60000A8C60000D1C60000FAC60000D2
S113002023C70000AFC10000ADC10000ABC1000098
S1130030A9C10000A7C10000A5C10000A3C1000020
S1130040A1C100009FC100009DC100009BC1000030
S113005099C1000097C1000095C1000030C700009D
S113006091C10000BCC40000F0C400008BC10000BA
S113007089C1000087C1000085C1000083C1000060
S113008081C100007FC100007DC100007BC1000070
S113009079C1000077C1000075C1000073C1000080
S11300A071C100006FC100006DC100006BC1000090
S11300B069C1000067C1000065C1000063C10000A0
S11300C061C100005FC100005DC100005BC10000B0
S11300D059C1000057C1000055C1000053C10000C0
S11300E051C1000032083508240828082E086C087D
S11300F039083D08430847084B0851085508590872
S11301006C085F086308670800407A10F35A00A07F
S1130110724E18090010A5D4E80000E876481700CC
S113012000E40B54020000CA9A3B000000E1F5050C
S1130130000080969800000040420F000000A08656
S113014001000000102700000000E8030000000088
S11301506400000000000A0000000000010000002C
S113016000002C76D888DC674F0823DFC1DFAE5946
S1130170E1B1B796E5E3E453C63AE651997696E8D9
S1130180E6C28426EB898C9B62ED407C6FFCEFBC5D
S11301909C9F40F2BAA56FA5F490055A2AF75C9388
S11301A06B6CF9676DC11BFCE0E40D47FEF520E6BE
S11301B0B500D0ED902E0300943577050080841EA1
S11301C0080000204E0A000000C80C333333330FFC
S11301D0986E12831141EF8D2114893BE65516CF99
S11301E0FEE6DB18D1844B381BF77C1D901DA4BBA5
S11301F0E424203284725E228100C9F124ECA1E55A
S11302003D2700000A0B02090C0D0E080703040128
S113021000000000000000000000000000000000DA
S113022000000000000000000000000000001211A7
S113023010000000000000000000000000000000AA
S11302400000000000000000010210202008081037
S11302502040102040800201020108040201010232
S1130260040810204080804020100804020180040B
S11302700201804020100804020108040201010266
S11302800408102040800102040810204080050565
S11302900505070508080808020202020A0A0808F8
S11302A00404040401010101010101010303030326
S11302B003030303040707070C0C0C0C0C0C0C0CB5
S11302C00202020206060606060606060B0B0B0BC6
S11302D00B0B0B0B00002200250028002B002E0026
S11302E03100340002010000050108010B01000087
S11302F02100240027002A002D00300033000101D2
S11303000000040107010A017C3C3E5E2B3D3F2FA7
S11303105B5D3B2C2A225C00CD0136035705D10CD2
S11303201B10E60111241FBECFEFD1E2DEBFCDBF0B
S113033000E00CBF15E0A0E0B2E0E4EDF1E400E081
S11303400BBF02C007900D92A23EB107D9F729E076
S1130350A2EEB5E001C01D92A936B207E1F711E0A3
S1130360C1E9D1E000E006C021970109802FFE0118
S11303700E940A1CCC38D10780E00807A9F7C5D32E
S11303800C94D9203DCEE5D56093E2057093E30546
S11303908093E4059093E50508956AE172E08EEF99
S11303A095E070D760E272E088EF95E06BD768E281
S11303B072E082EF95E066D76EE272E08CEE95E033
S11303C061D764E372E086EE95E05CC786EE95E063
S11303D0EED68CEE95E0EBD682EF95E0E8D688EF8A
S11303E095E0E5D68EEF95E0E2C6AF92BF92CF924C
S11303F0DF92EF92FF920F931F93CF93DF93CDB7CA
S1130400DEB7C456D1090FB6F894DEBF0FBECDBF18
S11304106C016EE386E696E0CFD3CE0101967C01B3
S113042000E010E05C0186E696E068D1892BD9F300
S113043086E696E07DD1F70181937F018D3041F40A
S1130440FE01E00FF11F128286E696E0BCD309C0DC
S1130450682F86E696E0B0D30F5F1F4F0436110570
S113046011F7B501C6010ED7C601CC59DF4F0FB63F
S1130470F894DEBF0FBECDBFDF91CF911F910F91D6
S1130480FF90EF90DF90CF90BF90AF9008950F93BF
S11304901F93CF93DF9300D000D0CDB7DEB76AE4CB
S11304A072E086E696E0A2D364E672E086E696E021
S11304B09DD36AE472E086E696E098D305E010E006
S11304C086E696E080D301501109D1F76EE772E019
S11304D086E696E08BD3CE01019687DF68E872E06A
S11304E0CE01019665D7882359F06EE872E086E65E
S11304F096E07CD3CE0101965AD605E010E009C0FF
S113050067EA72E086E696E071D3CE0101964FD693
S1130510DDCF86E696E057D301501109D1F7269630
S11305200FB6F894DEBF0FBECDBFDF91CF911F9100
S11305300F910895CF93DF93FB0122813381DC0176
S113054013963C932E93129744815581668177814B
S113055014964D935D936D937C93179740855185C5
S11305606285738518964D935D936D937C931B9769
S11305701C96EF012C969C01275E3F4F49914D93A9
S1130580A217B307D9F7218D328DFC01328F218F49
S1130590DF91CF910895CF92DF92EF92FF920F9364
S11305A01F93CF93DF93CDB7DEB76B970FB6F89455
S11305B0DEBF0FBECDBF6B017C018A0161E085E324
S11305C08CD565E38CE097E00E94470B811106C04F
S11305D065E375E086E696E009D339C0F801408109
S11305E0518127E16CE077E0CE0101960E94620C14
S11305F0BE016F5F7F4F8BE496E09CDF8BE496E057
S11306000E94200B882399F022E0B701A601CE01B5
S1130610019661D6BE016F5F7F4F8BE496E0D6D220
S1130620CE010196C4D58BE496E0F8D710C06CE4F3
S113063075E0CE01019626D6B801CE010196A7D663
S1130640BC0186E696E0C2D2CE010196B0D56B9687
S11306500FB6F894DEBF0FBECDBFDF91CF911F91CF
S11306600F91FF90EF90DF90CF9008958BE496E088
S113067075D7EFE3F6E01582168211861386E1E260
S1130680F6E082E090E0A0E0B0E080839183A28372
S1130690B383178AE4E0F6E01382128289ED95E0D1
S11306A09183808315820895CF93DF9300D000D087
S11306B0CDB7DEB726E040E855E260E070E086E6BC
S11306C096E024D160DEE3DE6FE373E0CE010196B1
S11306D0D9D5AE014F5F5F4F60E070E288EA94E4E1
S11306E05ADFCE01019663D526960FB6F894DEBF85
S11306F00FBECDBFDF91CF9108950895FC01918D78
S1130700228D892F90E0805C9F4F821B91098F730B
S113071099270895FC01918D828D981731F0828D6F
S1130720E80FF11D858D90E008958FEF9FEF0895F8
S1130730FC01918D828D981761F0828DDF01A80FE5
S1130740B11D5D968C91928D9F5F9F73928F90E007
S113075008958FEF9FEF0895FC01538D448D252F4D
S113076030E0842F90E0821B930B541710F0CF9647
S11307700895019708958EE495E0892B39F080E07F
S113078090E0892B19F08AD1811125C080E090E096
S1130790892B41F080E090E0892B21F00E94000039
S11307A081111CC080E090E0892B41F080E090E052
S11307B0892B21F00E940000811113C080E090E099
S11307C0892BA1F080E090E0892B81F00E94000049
S11307D081110AC008950E940000D8CF0E94000031
S11307E0E1CF0E940000EACF0C9400000895FC01C0
S11307F0848DDF01A80FB11DA35ABF4F2C91848DA6
S113080090E001968F739927848FA689B7892C93DA
S1130810A089B1898C91837080648C93938D848D2D
S1130820981306C00288F389E02D80818F7D808330
S11308300895EF92FF920F931F93CF93DF93EC01F0
S113084081E0888F9B8D8C8D981305C0E889F98988
S1130850808185FD25C0F62E0B8D10E00F5F1F4FA4
S11308600F731127E02E8C8DE8120BC00FB607FC16
S1130870FACFE889F989808185FFF5CFCE01B7DF0A
S1130880F2CF8B8DFE01E80FF11DE35AFF4FF0828A
S11308909FB7F8940B8FEA89FB89808180620AC034
S11308A09FB7F894EE89FF896083E889F98980818C
S11308B08370806480839FBF81E090E0DF91CF915B
S11308C01F910F91FF90EF900895CF93DF93EC0168
S11308D0888D8823C1F0EA89FB89808185FD05C064
S11308E0A889B9898C9186FD0EC00FB607FCF5CF97
S11308F0808185FFF2CFA889B9898C9185FFEDCFDE
S1130900CE0175DFE8CFDF91CF910895CF92DF92CA
S1130910EF92FF921F93CF93DF93EC016A017B0167
S1130920122FE889F98982E080834115514E6105CF
S11309307105B1F060E079E08DE390E0A7019601E4
S11309400E94E81BDA01C9010197A109B109B69512
S1130950A795979587959C01211580E13807A8F004
S1130960E889F989108260E874E88EE190E0A701D3
S113097096010E94E81BDA01C9010197A109B10996
S1130980B695A795979587959C01EC85FD85308351
S1130990EE85FF852083188EEC89FD891083EA8912
S11309A0FB89808180618083EA89FB8980818860FA
S11309B08083EA89FB89808180688083EA89FB8956
S11309C080818F7D8083DF91CF911F91FF90EF9085
S11309D0DF90CF90089580E090E0089508951F92ED
S11309E00F920FB60F9211240BB60F922F938F9381
S11309F09F93EF93FF93E0917606F09177068081C1
S1130A00E0917C06F0917D0682FD12C09081809178
S1130A107F068F5F8F7320918006821751F0E091DB
S1130A207F06F0E0EA59F94F958F80937F0601C065
S1130A308081FF91EF919F918F912F910F900BBE29
S1130A400F900FBE0F901F9018951F920F920FB624
S1130A500F9211240BB60F922F933F934F935F93F2
S1130A606F937F938F939F93AF93BF93EF93FF9372
S1130A7086E696E0BCDEFF91EF91BF91AF919F9126
S1130A808F917F916F915F914F913F912F910F9033
S1130A900BBE0F900FBE0F901F90189586E696E040
S1130AA02DDE21E0892B09F420E0822F0895E6E66B
S1130AB0F6E01382128288EE93E0A0E0B0E0848333
S1130AC09583A683B78384EA95E09183808385EC3C
S1130AD090E09587848784EC90E09787868780EC04
S1130AE090E0918B808B81EC90E0938B828B82ECF5
S1130AF090E0958B848B86EC90E0978B868B118E9F
S1130B00128E138E148E089508952FD2FDDFCCDD3E
S1130B10CBEBD3E0F2DD2097E9F32DDEFBCFCF92D0
S1130B20DF92EF92FF920F931F93CF93DF936C01A9
S1130B307A018B01C0E0D0E0CE15DF0581F0D80149
S1130B406D918D01D601ED91FC910190F081E02D24
S1130B50C6011995892B11F02196EECF7E01C701AC
S1130B60DF91CF911F910F91FF90EF90DF90CF9085
S1130B7008956115710579F0FB0101900020E9F7F2
S1130B803197AF01461B570BDC01ED91FC910280BC
S1130B90F381E02D199480E090E00895DB01149630
S1130BA04D915C9115976D917C91DC01ED91FC91D7
S1130BB00280F381E02D1994DC01ED91FC91019008
S1130BC0F081E02D199462EB75E0D3CF0F931F935E
S1130BD0CF93DF93EC01E2DF8C01CE01F4DF800FD1
S1130BE0911FDF91CF911F910F9108950F931F9340
S1130BF0CF93DF93EC01BDDF8C01CE01E4DF800FE6
S1130C00911FDF91CF911F910F91089508951F9225
S1130C100F920FB60F9211240BB60F922F933F939E
S1130C204F935F936F937F938F939F93AF93BF93F0
S1130C30EF93FF93E0910A02F0910B021995FF9153
S1130C40EF91BF91AF919F918F917F916F915F9140
S1130C504F913F912F910F900BBE0F900FBE0F90AD
S1130C601F9018951F920F920FB60F9211240BB676
S1130C700F922F933F934F935F936F937F938F9331
S1130C809F93AF93BF93EF93FF93E0910C02F09186
S1130C900D021995FF91EF91BF91AF919F918F91A3
S1130CA07F916F915F914F913F912F910F900BBE68
S1130CB00F900FBE0F901F9018951F920F920FB6B2
S1130CC00F9211240BB60F922F933F934F935F9380
S1130CD06F937F938F939F93AF93BF93EF93FF9300
S1130CE0E0910E02F0910F021995FF91EF91BF91DF
S1130CF0AF919F918F917F916F915F914F913F91B0
S1130D002F910F900BBE0F900FBE0F901F90189550
S1130D101F920F920FB60F9211240BB60F922F93BE
S1130D203F934F935F936F937F938F939F93AF936F
S1130D30BF93EF93FF93E0911002F0911102199584
S1130D40FF91EF91BF91AF919F918F917F916F919F
S1130D505F914F913F912F910F900BBE0F900FBE5B
S1130D600F901F9018951F920F920FB60F92112497
S1130D700BB60F922F933F934F935F936F937F9391
S1130D808F939F93AF93BF93EF93FF93E0910602EA
S1130D90F09107021995FF91EF91BF91AF919F9147
S1130DA08F917F916F915F914F913F912F910F9010
S1130DB00BBE0F900FBE0F901F9018951F920F92AD
S1130DC00FB60F9211240BB60F922F933F934F93AC
S1130DD05F936F937F938F939F93AF93BF93EF939F
S1130DE0FF93E0910802F09109021995FF91EF91A8
S1130DF0BF91AF919F918F917F916F915F914F912F
S1130E003F912F910F900BBE0F900FBE0F901F902C
S1130E1018951F920F920FB60F9211240BB60F92D2
S1130E202F933F934F935F936F937F938F939F93EE
S1130E30AF93BF93EF93FF93E0911202F0911302EB
S1130E401995FF91EF91BF91AF919F918F917F91F0
S1130E506F915F914F913F912F910F900BBE0F9027
S1130E600FBE0F901F9018951F920F920FB60F92FE
S1130E7011240BB60F922F933F934F935F936F936D
S1130E807F938F939F93AF93BF93EF93FF93E091DF
S1130E901402F09115021995FF91EF91BF91AF9152
S1130EA09F918F917F916F915F914F913F912F917E
S1130EB00F900BBE0F900FBE0F901F9018951F92AE
S1130EC00F920FB60F9211242F933F938F939F93FA
S1130ED0AF93BF938091040790910507A0910607F3
S1130EE0B09107073091030723E0230F2D3720F437
S1130EF00196A11DB11D05C026E8230F0296A11D70
S1130F00B11D209303078093040790930507A093D2
S1130F100607B09307078091080790910907A091ED
S1130F200A07B0910B070196A11DB11D8093080714
S1130F3090930907A0930A07B0930B07BF91AF9151
S1130F409F918F913F912F910F900FBE0F901F9003
S1130F5018952FB7F8946091040770910507809154
S1130F600607909107072FBF0895789484B582608F
S1130F7084BD84B5816084BD85B5826085BD85B539
S1130F80816085BDEEE6F0E0808181608083E1E8E8
S1130F90F0E0108280818260808380818160808320
S1130FA0E0E8F0E0808181608083E1EBF0E0808123
S1130FB084608083E0EBF0E0808181608083E1E9FC
S1130FC0F0E0808182608083808181608083E0E9B9
S1130FD0F0E0808181608083E1EAF0E080818260DA
S1130FE08083808181608083E0EAF0E08081816099
S1130FF08083E1E2F1E0808182608083808181608E
S11310008083E0E2F1E0808181608083EAE7F0E0C0
S1131010808184608083808182608083808181601C
S113102080838081806880831092C100089590E05D
S1131030FC013197E231F10508F04EC08827EE58E3
S1131040FF4F8F4F0C940A1C809180008F7703C050
S1131050809180008F7D809380000895809180002E
S1131060877FF9CF84B58F7702C084B58F7D84BD27
S113107008958091B0008F7703C08091B0008F7D78
S11310808093B0000895809190008F7707C080917D
S113109090008F7D03C080919000877F80939000A3
S11310A008958091A0008F7707C08091A0008F7D64
S11310B003C08091A000877F8093A0000895809151
S11310C020018F7707C0809120018F7D03C080911C
S11310D02001877F809320010895CF93DF9390E0D0
S11310E0FC01E85BFD4F2491FC01E257FD4F849124
S11310F0882361F190E0880F991FFC01E251FD4FB4
S1131100C591D491FC01EC52FD4FA591B4916111AC
S113111009C09FB7F8948881209582238883EC9135
S11311202E230BC0623061F49FB7F8948881322F6C
S1131130309583238883EC912E2B2C939FBF06C07C
S11311408FB7F894E8812E2B28838FBFDF91CF913E
S113115008951F93CF93DF93282F30E0F901EE5FBA
S1131160FD4F8491F901E85BFD4FD491F901E257F9
S1131170FD4FC491CC23B9F0162F811158DFEC2F09
S1131180F0E0EE0FFF1FEC52FD4FA591B4919FB715
S1131190F894111104C08C91D095D82302C0EC911D
S11311A0DE2BDC939FBFDF91CF911F910895FC014B
S11311B0808191810C94E21CCF93DF93EC018881B0
S11311C09981009711F00E94E21C198218821D82F5
S11311D01C821B821A82DF91CF9108950F931F9373
S11311E0CF93DF93EC018B016F5F7F4F88819981EF
S11311F00E946B1D009731F0998388831B830A83B7
S113120081E001C080E0DF91CF911F910F9108959B
S1131210CF93DF93EC0188819981892B29F08A810E
S11312209B818617970758F4CE01D8DF882341F0B5
S11312308C819D81892B19F4E881F981108281E0E8
S1131240DF91CF910895EF92FF920F931F93CF9365
S1131250DF93EC017B018A01BA01DADF811103C05B
S1131260CE01AADF07C01D830C83B7018881998151
S11312700E94751ECE01DF91CF911F910F91FF90B7
S1131280EF900895FC01118210821382128215825C
S113129014826115710549F0FB0101900020E9F702
S11312A03197AF01461B570BCECF0895CF93DF93F1
S11312B0EC016115710551F0FB0101900020E9F783
S11312C03197AF01461B570BBEDF01C075DFCE015E
S11312D0DF91CF910895EF92FF920F931F93CF93D5
S11312E0DF93CDB7DEB7A1970FB6F894DEBF0FBE7C
S11312F0CDBF7C01CB01BA01F701118210821382A8
S113130012821582148242E0420F8E010F5F1F4F3A
S11313100E942B1CBC01C701C9DFA1960FB6F8942B
S1131320DEBF0FBECDBFDF91CF911F910F91FF9014
S1131330EF900895EF92FF920F931F93CF93DF9353
S11313406115710511F480E01BC041155105B9F018
S11313507B01EC018C819D818A01080F191FB80162
S1131360CE0156DF882379F3288139818C819D81D0
S1131370B701820F931F0E94751E1D830C8381E0A9
S1131380DF91CF911F910F91FF90EF900895CF932C
S1131390DF93EC01FB014481558160817181CADFD7
S11313A0811102C0CE0108DFCE01DF91CF910895F3
S11313B0FC0124813581232B31F421E06115710571
S11313C0A1F0FB0108C0FC018081918161157105C8
S11313D031F421E0FC018081882339F005C00E94AA
S11313E06C1E21E0892B09F020E0822F0895CF9311
S11313F0DF931F92CDB7DEB76983DC01ED91FC91D9
S11314000280F381E02D41E050E0BE016F5F7F4F29
S113141019950F90DF91CF910895CF93DF93EC014D
S1131420898D9A8D009739F481E090E09B838A83BB
S113143080E090E00BC0FC01138212820E947015C0
S1131440E98DFA8D22813381232B71F7DF91CF91BE
S11314500895FC01818D928D009711F00C9427134F
S11314600895CF93DF931F92CDB7DEB741E050E0EC
S1131470BE016F5F7F4F0BD7019719F4898190E00C
S113148002C08FEF9FEF0F90DF91CF910895FC0181
S1131490818D928D009709F0E4CF8FEF9FEF08952F
S11314A00F931F93CF93DF93FC01818D928D00974F
S11314B0B1F0EF01D6DF8C010F3F8FEF180791F0E9
S11314C0898D9A8DFC0142855385648575854150CB
S11314D05109610971090E949112C80105C080E097
S11314E090E002C08FEF9FEFDF91CF911F910F919A
S11314F00895EF92FF920F931F93CF93DF93EC0124
S11315007B018A011B821A8288EE93E0A0E0B0E09E
S11315108C839D83AE83BF8385EC95E09983888318
S11315208DE190E00E944A1C9A8F898F009779F090
S11315302DE1F701DC0101900D922A95E1F74CE0D1
S113154050E0B801CE010C960E947C1E188EDF91EB
S1131550CF911F910F91FF90EF900895FC0113829A
S1131560128288EE93E0A0E0B0E084839583A683A2
S1131570B78385EC95E091838083128E118E148657
S11315800895DC015996ED91FC915A97309729F012
S1131590628573858485958508956FEF7FEFCB0110
S11315A00895DC015996ED91FC915A97309729F0F2
S11315B06389748985899689089560E070E0CB0118
S11315C00895CF92DF92EF92FF92CF93DF93FC01C5
S11315D0218D328D232BC9F0EC01E3DF6B017C01FB
S11315E0CE01CFDFA7019601261B370B480B590B01
S11315F0DA01C901811530E89307A105B10538F076
S11316008FEF9FE7A0E0B0E002C080E090E0DF91C0
S1131610CF91FF90EF90DF90CF900895CF93DF9319
S1131620EC01898D9A8D009741F00E946C13898D8D
S11316309A8D0E94E21C1A8E198EDF91CF91089523
S1131640DC015996ED91FC915A97309721F081E095
S11316509581911101C080E008950F931F93CF935A
S1131660DF93EC018B0141E00E949E1A811109C0B5
S113167040E0B801CE01DF91CF911F910F910C94FE
S11316809E1A81E0DF91CF911F910F9108950F93DE
S11316901F93CF93DF93EC01162F8FA5882321F09E
S11316A0CE018A960E946C13412F61E0CE01DAD2FA
S11316B0882379F08E01045F1F4FBE01C801CDDF7E
S11316C0882339F0B801CE018A9691D591E0811131
S11316D001C090E0892FDF91CF911F910F91089560
S11316E0FC01DB0112968D919C9113979383828365
S11316F089ED95E09183808314968C91149784836B
S113170015968C911597858316964D915D916D91E3
S11317107C91199746835783608771871A964D91F8
S11317205D916D917C911D9742875387648775877E
S11317301E964D915D916D917C9151974687578787
S1131740608B718B52968C915297828B53964D91EC
S11317505D916D917C915697438B548B658B768B01
S113176057964D915D916D917C915A97478B508F0F
S1131770618F728F5B968D919C915C97948F838F10
S113178008954F925F926F927F928F929F92AF9241
S1131790BF92CF92DF92EF92FF920F931F93CF935A
S11317A0DF93CDB7DEB7C754D1090FB6F894DEBFC7
S11317B00FBECDBF5C014A01390119A218A289EDFF
S11317C095E09F8F8E8F1BA21C821B829A83898334
S11317D01E82645F7F4F6E018EE1C80ED11CC6016C
S11317E006D574018E010F5F1F4F5C2C4D2C6FE2E8
S11317F070E0C7010E94611E009709F441C0F7011F
S113180020812F3271F4FFEFEF1AFF0A902F812FFE
S1131810052D142D2C01C201502E412E092F182FF5
S1131820E6CF8E198D3008F08CE0C82ED12CA6019D
S1131830B701CE01CB960E947C1EEBE3F0E0EC0FE7
S1131840FD1FEC0DFD1D1082C80146D721E0AE013D
S1131850455C5F4F652D742DC8010E948A14811167
S113186009C0F5011382128289ED95E0918380838A
S113187015820FC0EC0CFD1C852D942D2DD7CBCFDC
S1131880E818F908F301F182E082652D742DC50191
S113189027DFC501C95BDF4F0FB6F894DEBF0FBE6B
S11318A0CDBFDF91CF911F910F91FF90EF90DF900B
S11318B0CF90BF90AF909F908F907F906F905F90EC
S11318C04F900895DF92EF92FF920F931F93CF935F
S11318D0DF93CDB7DEB7C955D1090FB6F894DEBF93
S11318E00FBECDBF7C018A01D22E9E01285A3F4FE4
S11318F0CE01CB9646DF6A968EAD9FAD6A97080FF0
S1131900191FF8018081811109C0BE01655C7F4FF8
S1131910CE010196E5DE43ED55E02EC019A218A2D2
S113192089ED95E09F8F8E8F1BA221968FAD219715
S1131930811103C0C70112DE24C02D2DA801BE01F0
S1131940655C7F4FCE014E96E5D7882399F3CE018F
S1131950CB96C2D68D2D8670863039F449A95AA902
S11319606BA97CA9CE014E96DCD5BE01625E7F4F89
S1131970CE010196B5DEA801BE016F5F7F4FC7019E
S1131980B8DDC701C75ADF4F0FB6F894DEBF0FBEEC
S1131990CDBFDF91CF911F910F91FF90EF90DF901A
S11319A00895ECE0F7E0158216821186138682E032
S11319B090E0A0E0B0E084879587A687B78713A25C
S11319C015A614A689ED95E093A782A717A60895F6
S11319D09FB7F8942091630980916109213019F42B
S11319E08DBB9FBF08958FBF08950F93FC0180E0C6
S11319F092E1AAE7B0E030E0481759076A077B078D
S1131A0040F4B695A795979587953F5F3630A1F733
S1131A1037E091E09327222311F020E501C020E76D
S1131A200C70892F8695082B022B0083917091836B
S1131A300F91089520916309222399F04FB7F894E8
S1131A4020916309213059F42DB3209361093DB3EA
S1131A5020916209209523232DBB4FBF02C04093E0
S1131A6061098CBD9DBD08958EBD00000DB407FEB7
S1131A70FDCF8EB508958FEFF7CF61E0FC0184812F
S1131A8068DB80915507882331F0109255078091C7
S1131A90630981119DCF0895CF93DF93EC01809169
S1131AA05507811108C081E080935507809156073E
S1131AB090915707BFDF60E08C81DF91CF9149CBD4
S1131AC0CF93DF93EC018E81882379F08F81988501
S1131AD09C012F5F3F4F38872F838230924010F450
S1131AE0CADFF4CFCE01C9DF1E82DF91CF91089502
S1131AF00F93CF93DF931F921F92CDB7DEB767305A
S1131B0028F026E1FC01258380E046C06230F9F02C
S1131B1058F46623A9F0613079F500E021E040E053
S1131B2059E06DE370E02EC06430F9F0B8F0653030
S1131B3019F500E021E040E950ED63E070E022C0D7
S1131B4000E021E040E458E76DE771E01BC000E0ED
S1131B5021E040E854E86EE170E014C000E021E0C8
S1131B6040E452E46FE070E00DC000E021E040E2A8
S1131B7051EA67E070E006C000E021E048E458EE76
S1131B8061E070E0CE01019630DF89819A81909303
S1131B9057078093560781E00F900F90DF91CF9104
S1131BA00F9108950F931F93CF93DF93EB01D1D936
S1131BB08B0161DF8F3F41F0CCD9601B710B6C1737
S1131BC07D07B8F380E001C081E0DF91CF911F91E0
S1131BD00F9108958F929F92AF92BF92FF920F93AD
S1131BE01F93CF93DF93EC01F62E49015A0168DF6E
S1131BF0CE0152DF6CE271E0CE01D4DF8F2D806420
S1131C0033DF08E110E0D501C401002E04C0B6950D
S1131C10A795979587950A94D2F726DF085011095E
S1131C20083F8FEF180779F7FF2029F088E0F812B2
S1131C3004C087E803C085E901C08FEF15DF10E019
S1131C401ADF8A8787FF04C01F3F11F01F5FF8CF98
S1131C50DF91CF911F910F91FF90BF90AF909F9014
S1131C608F9008957F928F929F92AF92BF92CF925E
S1131C70DF92EF92FF920F931F93CF93DF931F9204
S1131C801F92CDB7DEB77C01762EFC011386118638
S1131C901682158244835DD96B0161E0F70184816A
S1131CA01CDA61E0F701848154DA0E94B21B00E07F
S1131CB021E040E950ED63E070E0CE01019695DE4D
S1131CC089819A819093570780935607B3DE1AE06F
S1131CD08FEFCADE1150E1F780916309811178DE3C
S1131CE0C701DADE20E030E0A90160E0C70172DF5D
S1131CF0082FF7018287813041F02BD96C197D09B7
S1131D00613D774078F381E04AC02AEA31E040E05F
S1131D1050E068E0C7015EDF82FF03C0F70103877C
S1131D200DC004E0A8DEF70182870150D9F78A3A92
S1131D3011F082E035C082E0F7018387F7018385E3
S1131D40823021F0812C912C540105C0812C912CDE
S1131D50A12C80E4B82E20E030E0A90167E3C7019C
S1131D6039DFA501940169E2C70134DFF7018287F5
S1131D70882341F0EED86C197D09613D774058F312
S1131D8088E00DC0F70183858230C1F420E030E0A3
S1131D90A9016AE3C7011EDF882331F086E0F70159
S1131DA08583C7016ADE10C066DE807C803C19F43E
S1131DB083E0F70183875FDE5EDE5DDEC7015DDE03
S1131DC0672DC70195DE182F812F0F900F90DF919B
S1131DD0CF911F910F91FF90EF90DF90CF90BF9024
S1131DE0AF909F908F907F9008950F931F93CF9300
S1131DF0DF93EC01AED88B013EDE8A878F3F41F43E
S1131E00A8D8601B710B6D327140B0F38FE003C032
S1131E108E3F31F08DE08D83CE012FDE80E001C056
S1131E2081E0DF91CF911F910F910895CF92DF92BE
S1131E30EF92FF920F931F93CF93DF93EC0169010D
S1131E40C801820F931F8130924008F057C08E81E1
S1131E50882371F088819981AA81BB8184179507B1
S1131E60A607B70729F48F819885C816D90600F507
S1131E70488359836A837B838B85833039F089E077
S1131E80440F551F661F771F8A95D1F79A01AB013E
S1131E9061E1CE019FDE882319F083E08D832EC09B
S1131EA0CE01A3DF882351F118861F8281E08E833F
S1131EB08F8198858C159D0538F4DDDD8F8198859B
S1131EC0019698878F83F4CF6701E00EF11ECE143C
S1131ED0DF0429F0D0DDF60181936F01F8CF8F8103
S1131EE09885080F191F18870F838985882319F08F
S1131EF00115124038F0CE01E3DD04C0CE01BDDD92
S1131F0080E001C081E0DF91CF911F910F91FF909C
S1131F10EF90DF90CF900895EF92FF920F931F936D
S1131F200115110511F082DF01C081E01F910F91AD
S1131F30FF90EF900895EF92FF920F931F93790112
S1131F4000E012E020E030E071DF1F910F91FF907C
S1131F50EF900895EF92FF920F931F93CF93DF9327
S1131F608C01862F7A0180DDE7018EEFF81A8991C2
S1131F707BDDCE15DF05D9F78FEF76DD8FEF74DDCE
S1131F807ADDF80182878F71853031F081E18583B4
S1131F90C80173DD80E001C081E0DF91CF911F9122
S1131FA00F91FF90EF9008950F931F93CF93DF93BA
S1131FB0EC018901411551056105710511F482E1B6
S1131FC02DC08B85833039F089E0440F551F661F7F
S1131FD0771F8A95D1F79A01AB0168E1CE01FADD4A
S1131FE0882311F084E01AC0A8016EEFCE01B2DF9D
S1131FF08823A9F068E572E0CE01D4DD811102C026
S113200085E10CC020E030E0A9016DE0CE01E2DD05
S1132010811103C030DD882331F084E18D83CE014A
S11320202CDD80E003C0CE0128DD81E0DF91CF917B
S11320301F910F910895E6E5F7E080E58083118212
S11320400895CF93DF93EC019C012A5F3F4F41E059
S113205050E060E070E08B8D9C8D0E9439198823DC
S1132060A1F08F89988DA98DBA8D892B8A2B8B2B02
S113207059F48E819F81A885B9858F8B988FA98FFC
S1132080BA8F8C8180688C8381E0DF91CF91089531
S1132090CF92DF92EF92FF921F93CF93DF93EC01E5
S11320A0D0DF811102C080E049C0EB8DFC8DCE8071
S11320B0DF80E884F98482E0C81AD108E108F108D5
S11320C0058404C0CC0CDD1CEE1CFF1C0A94D2F762
S11320D086859785A089B189C80ED91EEA1EFB1E84
S11320E0148181E0C81AD108E108F108112359F0DC
S11320F0C701B601610F711D811D911D0DD7882384
S113210091F21150F3CFEB8DFC8D80E092E0A0E0D2
S1132110B0E0058404C0880F991FAA1FBB1F0A944E
S1132120D2F74B895C896D897E89840F951FA61F20
S1132130B71F8B8B9C8BAD8BBE8B81E0DF91CF91D6
S11321401F91FF90EF90DF90CF900895CF93DF938E
S1132150EC01462F6E857F8588899989A4D68823CA
S113216041F08A8920E2829FC00111248F59984F3F
S113217002C080E090E0DF91CF910895FB019B01C4
S1132180255F3F4F40E24193E217F307E1F7DC019B
S113219090E027E08D91882319F18E3229F42A30BA
S11321A021F198E02AE0F6CFE8E0F3E0349133231C
S11321B021F031968313FACF18C02917B0F03FED00
S11321C0380F3E3590F431E0390FFB01E90FF11D72
S11321D09FE9980F9A3108F480528083932FDACFC5
S11321E081E0FB019081903209F480E008950F931F
S11321F01F93CF93DF93FC012581222311F080E00C
S113220041C08B01EC01FB0187898031B1F482E08C
S11322108D831F8A188E198E1A8E808D918DA0E061
S1132220B0E025E0880F991FAA1FBB1F2A95D1F79C
S11322308B8B9C8BAD8BBE8B14C0803201F783E0FB
S11322408D83FB01428D538D648D758D4F8B588F1B
S1132250698F7A8F9E012D5E3F4FC80102D7882374
S113226071F21C8F0B8F81E08C831E821F82188673
S113227019861A861B861C861D861E861F86188A4A
S1132280198A1A8ADF91CF911F910F9108952F9285
S11322903F924F925F926F927F928F929F92AF92F2
S11322A0BF92CF92DF92EF92FF920F931F93CF933F
S11322B0DF93EC015B014A018D81811103C08FEF33
S11322C09FEFD4C08C8180FFFACF4B885C886D88E7
S11322D07E884A855B856C857D85C401A0E0B0E07D
S11322E093018201041B150B260B370B08171907E2
S11322F02A073B0718F44201841A950A24011E0197
S113230026E0220E311C4114510409F47DC04A8593
S11323105B856C857D856A0181E0D822ED818B8D9A
S11323209C8D8A019B01F9E03695279517950795B1
S1132330FA95D1F7E23061F4FC01828D938DA48D7E
S1132340B58DBC01CD01600F711F821F931F3EC06C
S1132350FC0174807A947022C114D104C1F4711008
S113236016C0452B462B472B49F48F89988DA98D90
S1132370BA8D8E839F83A887B98709C04E815F81F8
S1132380688579859101EBD5882309F498CFEB8D85
S1132390FC8D8E819F81A885B9850297A109B10919
S11323A0058404C0880F991FAA1FBB1F0A94D2F783
S11323B04685578560897189840F951FA61FB71FAD
S11323C0BC01CD01670D711D811D911D20E032E01E
S11323D02C193D0932012415350508F439012C81E5
S11323E026FD04C06114F2E07F0671F50091160227
S11323F01091170220911802309119026017710789
S11324008207930719F420C0C40130C07501830109
S11324109601AB01BC0180915F07909160077CDD60
S1132420882309F44CCFA60CB71C8A859B85AC8500
S1132430BD85860D971DA11DB11D8A879B87AC871D
S1132440BD87461857085FCF40E02DD5882309F48F
S113245036CFF601EF59F84FD501CF01860D971D00
S11324608E179F0701F321912D93FACFDF91CF911E
S11324701F910F91FF90EF90DF90CF90BF90AF909E
S11324809F908F907F906F905F904F903F902F9090
S11324900895FF920F931F93CF93DF931F92CDB7AD
S11324A0DEB7FC012581223018F480E090E032C0D0
S11324B08C01FC01428553856485758585E076959C
S11324C06795579547958A95D1F7F42FFF70FF2E9E
S11324D041E050E0BE016F5F7F4FC801D8DE019735
S11324E019F4898190E002C08FEF9FEF0196E9F221
S11324F0F80182859385A485B5854F96A11DB11DEC
S113250082879387A487B587F0E2FF9EC0011124D8
S11325108F59984F0F90DF91CF911F910F91FF909A
S113252008958F929F92AF92BF92CF92DF92EF92D3
S1132530FF920F931F93CF93DF93EC018D81811151
S113254002C080E077C00B891C892D893E8904175D
S1132550150726073707A8F36A017B01823029F49F
S1132560CA86DB86EC86FD860DC0C114D104E10465
S1132570F10451F41E821F82188619861A861B865E
S11325801C861D8681E056C08A849B84AC84BD84ED
S1132590EB8DFC8D258530E0275F3F4FB501A4010D
S11325A04150510961097109022E04C0769567955D
S11325B0579547950A94D2F7D701C6010197A10907
S11325C0B10904C0B695A795979587952A95D2F732
S11325D084179507A607B70720F089288A288B282F
S11325E071F44F89588D698D7A8D4E835F83688726
S11325F079874C015D018E010A5F1F4F15C0841B52
S1132600950BA60BB70BF5CF4E815F816885798555
S113261098018B8D9C8DA3D491E0891A9108A1080F
S1132620B108882309F48DCF81149104A104B10465
S113263059F796CFDF91CF911F910F91FF90EF90B3
S1132640DF90CF90BF90AF909F908F9008950F939D
S11326501F93CF93DF93EC018D818823B9F18C8193
S113266087FF2FC061E0CE0171DD8C01892B71F1F0
S11326708D81823048F48B899C89AD89BE89F801AB
S1132680848F958FA68FB78F8F89988DA98DBA8DDA
S1132690F801938F828FB58BA48BE0915807F0914A
S11326A05907309759F0B8016A5E7F4FC8014896C0
S11326B01995F801808D918D938B828B8C818F7706
S11326C08C83DF91CF911F910F91B4C380E0DF9190
S11326D0CF911F910F910895CF93DF93EC01B7DF52
S11326E0882311F01D8281E0DF91CF9108954F92EC
S11326F05F926F927F928F929F92AF92BF92EF926E
S1132700FF920F931F93CF93DF9300D01F92CDB707
S1132710DEB7FC0185818130E1F4848181FF19C039
S113272083899489A589B68984179507A607B7076D
S113273080F0892B8A2B8B2B09F472C04A015B0130
S11327407F014284538464847584CF01EADE81115D
S113275002C080E066C0F701838D948D81149104DA
S1132760A104B10469F44789508D618D728D92D6AC
S1132770882379F3F701178A108E118E128E37C0D1
S1132780F70146815781608571859E012F5F3F4F18
S1132790E6D38823F1F249815A816B817C81F70168
S11327A0838D948DFC012789203129F008EF1FEFD8
S11327B02FEF3FE004C008EF1FEF20E030E04017A8
S11327C051076207730798F465D6882309F4C1CFCB
S11327D0F70146815781608571850FEF1FEF2FEF59
S11327E03FE0838D948DA5D4882309F4B2CFF701FB
S11327F0838A948AA58AB68A848180688483C7017F
S113280026DF882309F4A5CFB501A401481459048F
S11328106A047B0410F4B301A201C70182DE01C083
S113282081E00F900F900F900F90DF91CF911F9147
S11328300F91FF90EF90BF90AF909F908F907F90FB
S11328406F905F904F9008951F93CF93DF93EC01A7
S113285080E2689FF0011124EF59F84F938591713C
S113286029F0842F827411F080E050C0142F6A8BF9
S11328708091160290911702A0911802B09119024A
S11328808E879F87A88BB98B4489558960E070E057
S1132890BA0155274427828D938DA0E0B0E0482BE0
S11328A0592B6A2B7B2B4F8B588F698F7A8F83859B
S11328B0887151F4848D958DA68DB78D8B8B9C8BEF
S11328C0AD8BBE8B81E00BC0803171F69E012D5E15
S11328D03F4F8B8D9C8DC5D3882331F284E08D834B
S11328E0812F8F708C831E821F82188619861A8608
S11328F01B861C861D8616FF08C040E050E0BA0106
S1132900CE01DF91CF911F91F2CE81E0DF91CF9183
S11329101F910895BF92CF92DF92EF92FF920F938F
S11329201F93CF93DF93CDB7DEB72B970FB6F894F1
S1132930DEBF0FBECDBFFC0135813111B9C0C22E3F
S11329408B017C01BE016F5F7F4FCA0117DC8823B6
S113295009F4AEC0F801838D948DF701948F838FB1
S1132960F801168217821086118612861386148641
S11329701586D12CF80182859385A485B585438974
S113298054896589768984179507A607B70708F0DF
S11329903DC025E0B695A795979587952A95D1F7DB
S11329A0F82FFF70BF2EC80174DD009709F480C0B2
S11329B0FC0120812223A1F0253E09F47BC04BE0D9
S11329C050E0BC01CE0101960E944B1E892B91F66A
S11329D08C2D8073803309F46BC04C2D6B2D65C036
S11329E0D11012C0F701B28A409116025091170219
S11329F0609118027091190246875787608B718B1A
S1132A00FC018081811159C0DD24D3948C2D827105
S1132A10823109F04DC0DD2039F061E0C70196DB59
S1132A208C01892B71F444C0F8018581823009F44A
S1132A303FC0C8012DDB8823D9F1F701128A01E6D2
S1132A4017E080E2F80111928A95E9F78BE0FE0124
S1132A503196D80101900D928A95E1F7E0915807DB
S1132A60F0915907309739F0B801625F7F4FC80180
S1132A704096199509C081E298E2F801918B808B08
S1132A8080E098E097878687F80180899189938B05
S1132A90828B918F808F86859785978B868BCAD101
S1132AA0882331F04C2DF7016289C701CDDE08C0BF
S1132AB080E006C0DD2009F495CFDD24D3945ACFFD
S1132AC02B960FB6F894DEBF0FBECDBFDF91CF912A
S1132AD01F910F91FF90EF90DF90CF90BF900895DA
S1132AE02F923F924F925F926F927F928F929F921A
S1132AF0AF92BF92CF92DF92EF92FF920F931F9308
S1132B00CF93DF9300D01F92CDB7DEB78C016B015A
S1132B101A01DC0115968C9115978130C1F4149635
S1132B208C9181FF14C082FF1CC0F8014389548931
S1132B306589768982859385A485B58584179507EB
S1132B40A607B70771F0C801ECDC81110AC081E067
S1132B5090E0D80113969C938E93129780E090E0B6
S1132B6042C1410182C05B968D919C915C97FC01AE
S1132B7074802FEF270D2A013B0139E07694679486
S1132B80579447943A95D1F7722E74207A01F1E064
S1132B90FF22772009F475C080E092E08E199F0926
S1132BA054018815990508F45C01D8015B962D91B0
S1132BB03C915C9716968D919D910D90BC91A02DA2
S1132BC00297A109B109F901058404C0880F991F6E
S1132BD0AA1FBB1F0A94D2F746855785608971895D
S1132BE0840F951FA61FB71F9C01AD01270D311D32
S1132BF0411D511D29013A01A11432E0B30609F027
S1132C0085C08091160290911702A0911802B0918C
S1132C101902481659066A067B0659F48FEF9FEF8E
S1132C20DC018093160290931702A0931802B093CC
S1132C3019029601B301A20180915F079091600788
S1132C40B3D9882309F483CF9EEFD91A8A189B0835
S1132C50F80182859385A485B5858A0D9B1DA11DE8
S1132C60B11D82879387A487B587D8011A964D91A1
S1132C705D916D917C911D978114910409F073CF3E
S1132C8083C0E114F10409F087CF16964D915D914C
S1132C906D917C911997411551056105710559F4A0
S1132CA057968D919D910D90BC91A02D0097A105F3
S1132CB0B10531F520C09E012F5F3F4F50D18823CD
S1132CC009F44DCF89819A81AB81BC81F801238DB0
S1132CD0348DF9012789203129F048EF5FEF6FEF38
S1132CE07FE004C048EF5FEF60E070E08417950771
S1132CF0A607B70728F0C801A4D981114DCF27CF63
S1132D00F80186839783A087B18746CFE114F10445
S1132D1021F5D8011A964D915D916D917C911D9785
S1132D2053968D919D910D90BC91A02D48175907F4
S1132D306A077B0790F07ED0882309F408CF40927D
S1132D401602509217026092180270921902809132
S1132D505E07816080935E0707C041E0C301B20152
S1132D60A2D0882309F4F3CED601F701EF59F84F26
S1132D709F012A0D3B1D2E173F0719F08D9181935A
S1132D80FACFCA0CDB1C62CFD8015396CD90DD90EC
S1132D90ED90FC90569714968C91C416D506E606D1
S1132DA0F70640F4F801438B548B658B768B80686F
S1132DB084830DC02091580730915907232B39F093
S1132DC02114310421F08068D80114968C93F80101
S1132DD0848183FD02C0C10106C0C80138DC882398
S1132DE009F4B5CEF8CF0F900F900F900F90DF91AC
S1132DF0CF911F910F91FF90EF90DF90CF90BF90F4
S1132E00AF909F908F907F906F905F904F903F9086
S1132E102F900895CF93DF931F92CDB7DEB76983C8
S1132E2041E050E0BE016F5F7F4F5ADE0F90DF91AB
S1132E30CF91089580915E07882399F140911602FD
S1132E4050911702609118027091190221E637E03F
S1132E5080915F0790916007A7D8811102C080E03C
S1132E60089540915A0750915B0760915C077091F7
S1132E705D07411551056105710589F021E637E0CB
S1132E8080915F07909160078FD8882341F3109257
S1132E905A0710925B0710925C0710925D0710921C
S1132EA05E0781E00895CF92DF92EF92FF92CF9375
S1132EB06B017C01C42F8091160290911702A0919E
S1132EC01802B09119028C159D05AE05BF05C1F01D
S1132ED0B1DF811102C080E019C021E637E0B701FB
S1132EE0A60180915F079091600725D8882399F304
S1132EF0C0921602D0921702E0921802F0921902C0
S1132F0080915E07C82BC0935E0781E0CF91FF904C
S1132F10EF90DF90CF900895CF92DF92EF92FF92DF
S1132F206B017C0187DF8823A9F0E1E6F7E01192C9
S1132F3089E0E136F807D9F7C0921602D092170259
S1132F40E0921802F092190280915E0781608093EA
S1132F505E0781E0FF90EF90DF90CF9008958F920D
S1132F609F92AF92BF92CF92DF92EF92FF920F9314
S1132F701F93CF93DF93FC0181859285A385B4854C
S1132F800196A11DB11D84179507A607B70710F474
S1132F9080E05AC083889488A588B6888789803160
S1132FA029F4BB27A72F962F852F09C0DB01CA015F
S1132FB0C7E0B695A79597958795CA95D1F7E90186
S1132FC06A017B018F01BC01CD01680D791D8A1D49
S1132FD09B1D8090160290901702A0901802B0904A
S1132FE01902681579058A059B0591F4F80187890A
S1132FF0803199F4DD24EE24FF24C601880F991F43
S1133000FC01EF59F84F80819181A0E0B0E017C036
S113301040E049DF8111EACFBBCFE894C7F8DD2453
S1133020EE24FF24C601880F991F880F991FFC0105
S1133030EF59F84F80819181A281B381BF70888359
S11330409983AA83BB8381E0DF91CF911F910F9174
S1133050FF90EF90DF90CF90BF90AF909F908F90B4
S113306008954F925F926F927F92AF92BF92CF92E8
S1133070DF92EF92FF920F931F93CF93DF9300D0D1
S11330801F92CDB7DEB78C0149835A836B837C834F
S11330905901C12CD12C7601412C82E0582E612C8F
S11330A0712C49815A816B817C819E012F5F3F4F36
S11330B0C80155DF882351F1D301C201F801058409
S11330C004C0880F991FAA1FBB1F0A94D2F7C80E09
S11330D0D91EEA1EFB1E49815A816B817C81878936
S11330E0803129F088EF9FEFAFEFBFE004C088EF95
S11330F09FEFA0E0B0E0481759076A077B0788F202
S1133100F501C082D182E282F38281E00F900F90B8
S11331100F900F90DF91CF911F910F91FF90EF903F
S1133120DF90CF90BF90AF907F906F905F904F9063
S113313008954F925F926F927F928F929F92AF9277
S1133140BF92CF92DF92EF92FF920F931F93CF9390
S1133150DF93EC01423051056105710510F480E004
S113316077C089859A85AB85BC850196A11DB11D63
S113317084179507A607B70790F3CB88DC88ED88FA
S1133180FE888F89803129F4BB27A72F962F852F9E
S113319009C0DB01CA01E7E0B695A7959795879525
S11331A0EA95D1F7480159012A013B01C80ED91EFD
S11331B0EA1EFB1E8091160290911702A09118023C
S11331C0B0911902C816D906EA06FB0681F48F8964
S11331D08031A1F4B301A201552766277727440F54
S11331E0551FFA01EF59F84F9182808218C040E0D0
S11331F0C701B60158DE8111EACFB1CFB301A201F4
S11332004F77552766277727440F551F440F551FBF
S1133210FA01EF59F84F80829182A282B3828091A1
S11332205E07816080935E078A89823080F08D8199
S11332309E81AF81B885C80ED91EEA1EFB1EC092BE
S11332405A07D0925B07E0925C07F0925D0781E039
S1133250DF91CF911F910F91FF90EF90DF90CF906E
S1133260BF90AF909F908F907F906F905F904F90A2
S113327008952F923F924F925F926F927F929F9206
S1133280AF92BF92CF92DF92EF92FF920F931F9370
S1133290CF93DF93CDB7DEB760970FB6F894DEBF58
S11332A00FBECDBF5C0149875A876B877C871901A4
S11332B0D901CD90DD90ED90FC90C114D104E104CE
S11332C0F10431F0BFEFCB1ADB0AEB0AFB0A10C0A2
S11332D0FC01C080D180E280F38099249394098515
S11332E01A852B853C85013011052105310509F02E
S11332F0912CF50181859285A385B4858C019D016E
S11333000F5F1F4F2F4F3F4F0D871E872F87388B1F
S1133310260137011D821E821F821886F5018185D0
S11333209285A385B4850D811E812F813885081768
S113333019072A073B0708F054C02D853E854F85A1
S11333405889241535054605570550F482E0482E62
S1133350512C612C712C92E0C92ED12CE12CF12C32
S11333609E012F5F3F4FB301A201C501F8DD882301
S1133370C1F149815A816B817C81D301C2010196DB
S1133380A11DB11D452B462B472B19F06C017D0166
S11333900FC0AC01BD014C195D096E097F09098597
S11333A01A852B853C85041715072607370779F0FE
S11333B02D813E814F8158852F5F3F4F4F4F5F4F87
S11333C02D833E834F8358872C013D01A7CF0FEFF8
S11333D01FEF2FEF3FE0B301A201C501AADE811167
S11333E017C080E03FC0D301C2010197A109B10910
S11333F08D839E83AF83B88793018201AC01BD01A5
S1133400C50197DE882369F34D805E806F807884E0
S1133410C414D504E604F70430F3D1014D915D9151
S11334206D917C91411551056105710599F4F10186
S1133430C082D182E282F382992099F0FFEFCF1A01
S1133440DF0AEF0AFF0AD501CD92DD92ED92FC92DC
S1133450139707C097018601C5016BDE8111E7CF81
S1133460C0CF81E060960FB6F894DEBF0FBECDBF2B
S1133470DF91CF911F910F91FF90EF90DF90CF904C
S1133480BF90AF909F907F906F905F904F903F90D0
S11334902F900895AF92BF92CF92DF92EF92FF9256
S11334A00F931F93CF93DF9300D01F92CDB7DEB756
S11334B05C016A017B0182E090E0A0E0B0E0F501EC
S11334C080839183A283B3839E012F5F3F4FB70113
S11334D0A601C50144DD882309F100E010E098014C
S11334E0B701A601C50125DE8823C1F0C980DA80B1
S11334F0EB80FC80F5018789803129F088EF9FEF0C
S1133500AFEFBFE004C088EF9FEFA0E0B0E0C816C3
S1133510D906EA06FB06C0F281E001C080E00F9004
S11335200F900F900F90DF91CF911F910F91FF900B
S1133530EF90DF90CF90BF90AF9008958F929F92BD
S1133540AF92BF92CF92DF92EF92FF920F931F93AD
S1133550CF93DF93EC01142F7093600760935F07A0
S1133560442361F1453010F080E0EFC040E060E0BA
S113357070E0CB0198DC8823B9F320E1129FA0010D
S113358011244F5A584FFA01E254FE4F80818F772D
S113359059F73C9680819181A281B381843691054B
S11335A0A105B10508F33497C080D180E280F3808F
S11335B0C114D104E104F10421F4D6CFC12CD12CDF
S11335C0760140E0C701B6016EDC882369F2809180
S11335D06C0790916D078115924031F690917107B7
S11335E0992309F4C1CF20916F0730917007232BE1
S11335F009F4BACF80916E07882309F4B5CF9A8B6A
S11336008C831D8690E041E050E02D85E22FBA01C5
S1133610022E02C0660F771F0A94E2F786179707F7
S113362031F031E0320F3D87283078F39DCF20917F
S11336307707309178072115310519F040E050E003
S113364008C02091850730918607409187075091E3
S113365088072D833E834F83588780916F0790910D
S1133660700746015701880E991EA11CB11C8B8A54
S11336709C8AAD8ABE8A0091720710917307198FD4
S1133680088FA0917107B0E0CDD0860E971EA81EBA
S1133690B91E8A8E9B8EAC8EBD8E85E0000F111FE5
S11336A08A95E1F701501E4F012F11270695800ED0
S11336B0911EA11CB11C8E869F86A88AB98A20916E
S11336C07407309175072115310521F0A90160E0D7
S11336D070E008C040918107509182076091830790
S11336E070918407D701C60188199909AA09BB09F1
S11336F0840F951FA61FB71F04C0B695A79597956D
S11337008795EA95D2F789879A87AB87BC87853FE7
S11337102FE09207A105B10510F48CE014C0853F99
S11337209F4FA105B10510F480E10DC080918D0774
S113373090918E07A0918F07B09190078A8F9B8FED
S1133740AC8FBD8F80E28F8B81E0DF91CF911F9191
S11337500F91FF90EF90DF90CF90BF90AF909F902C
S11337608F900895CF93CFB7F89480916409811115
S113377027C0E3ECF2E08491EDE7F2E09491E82FC6
S1133780F0E0EE0FFF1FE251FD4FA591B491EC91D3
S1133790E92321F461E085E30E94A90861E085E35F
S11337A00E946D088CB580618CBD8CB580648CBD25
S11337B061E084E30E946D0861E083E30E946D0888
S11337C0809164098F5F80936409CFBFCF9108957E
S11337D0A1E21A2EAA1BBB1BFD010DC0AA1FBB1F11
S11337E0EE1FFF1FA217B307E407F50720F0A21B83
S11337F0B30BE40BF50B661F771F881F991F1A94F0
S113380069F760957095809590959B01AC01BD0119
S1133810CF010895EE0FFF1F881F8BBF0790F6910D
S1133820E02D199409D0A59F900DB49F900DA49FED
S1133830800D911D11240895A29FB001B39FC00172
S1133840A39F700D811D1124911DB29F700D811DC8
S11338501124911D0895EF920F931F93CF93DF933B
S1133860E80147FD02C034E001C034E1042E000C3D
S1133870550B57FF03C0519541955109E32E022F73
S1133880242FAE0148D2CE01DF91CF911F910F9129
S1133890EF9008950F931F93CF93DF938230910598
S11338A010F482E090E0E0916709F091680920E06B
S11338B030E0A0E0B0E0309719F1408151810281FD
S11338C0138148175907C8F08417950769F41097AE
S11338D031F012960C93129713961C9327C0009301
S11338E067091093680922C02115310519F04217A0
S11338F0530718F49A01BD01EF01DF01F801DBCF92
S113390021153105F9F0281B390B2430310580F4D9
S11339108A819B816115710521F0FB019383828368
S113392004C09093680980936709FE01329644C0ED
S1133930FE01E20FF31F81939193225031093983E1
S113394028833AC02091650930916609232B41F4FC
S11339502091020230910302309366092093650995
S113396020910002309101022115310541F42DB757
S11339703EB74091040250910502241B350BE0919F
S11339806509F0916609E217F307A0F42E1B3F0BBB
S11339902817390778F0AC014E5F5F4F24173507BD
S11339A048F04E0F5F1F5093660940936509819359
S11339B0919302C0E0E0F0E0CF01DF91CF911F913D
S11339C00F910895CF93DF93009709F481C0FC0110
S11339D0329713821282A0916709B09168091097F7
S11339E081F420813181820F931F209165093091E8
S11339F066092817390751F5F0936609E0936509BC
S1133A0067C0ED0120E030E0CE17DF0740F44A81C3
S1133A105B819E0141155105F1F0EA01F5CFD38395
S1133A20C28340815181840F951FC817D90759F467
S1133A3088819981840F951F0296918380838A815E
S1133A409B81938382832115310529F4F0936809BE
S1133A50E09367093DC0E901FB83EA8349915991E9
S1133A60C40FD51FEC17FD0761F480819181840F89
S1133A70951F0296E90199838883828193819B83B0
S1133A808A83E0E0F0E012968D919C911397009761
S1133A9019F0FD01DC01F7CF8D919C9111979D01E7
S1133AA02E5F3F4F820F931F209165093091660965
S1133AB02817390769F4309729F41092680910928D
S1133AC0670902C013821282B0936609A093650944
S1133AD0DF91CF9108956F927F928F929F92AF92D0
S1133AE0BF92CF92DF92EF92FF920F931F93CF93E7
S1133AF0DF93009781F4CB01DF91CF911F910F9158
S1133B00FF90EF90DF90CF90BF90AF909F908F90F9
S1133B107F906F90BFCEFC01E60FF71F9C012250EF
S1133B203109E217F30708F4A5C0EC01D9010D919E
S1133B301C91119706171707A8F00530110508F412
S1133B4097C0C80104978617970708F491C00250DC
S1133B501109061B170B019311936D937C93CF01ED
S1133B6031DF86C05B01A01AB10A4C01800E911EA0
S1133B70A0916709B0916809612C712CE12CF12C9A
S1133B80109709F446C08D919C911197A815B90519
S1133B90B1F56C0142E0C40ED11CCA14DB0478F107
S1133BA04C018A189B08640142E0C40ED11C129691
S1133BB0BC9012971396AC91B5E0CB16D10440F0AB
S1133BC0B282A38391828082D9016D937C9309C0D0
S1133BD00E5F1F4F800F911FF90191838083EB2D9E
S1133BE0FA2FE114F10431F0D7011396FC93EE930C
S1133BF012973EC0F0936809E093670939C06816CC
S1133C00790608F43C017D0112960D90BC91A02D1B
S1133C10B7CF809165099091660988169906E1F4F9
S1133C2066167706C8F4809100029091010200970D
S1133C3041F48DB79EB74091040250910502841B54
S1133C40950BE817F907B0F4F0936609E09365095A
S1133C50F901718360830CC0CB011CDE7C010097E9
S1133C6049F0A801BE0124D0CE01ACDEC70104C0D6
S1133C70CE0102C080E090E0DF91CF911F910F91BF
S1133C80FF90EF90DF90CF90BF90AF909F908F9078
S1133C907F906F900895FB01DC0104C08D91019029
S1133CA0801921F441505040C8F7881B990B08959E
S1133CB0FB01DC0102C001900D9241505040D8F745
S1133CC00895FC018191861721F08823D9F799275B
S1133CD008953197CF010895FB01DC018D91019086
S1133CE080190110D9F3990B0895FB01DC010190AF
S1133CF00D920020E1F70895FB01DC014150504092
S1133D0048F001900D920020C9F701C01D92415066
S1133D105040E0F708958F929F92AF92BF92CF9256
S1133D20DF92EF92FF920F931F93CF93DF93CDB760
S1133D30DEB729970FB6F894DEBF0FBECDBF6A0178
S1133D40122FB02E2BE3201720F0FF24F394F00E53
S1133D5002C02CE3F22E0F2D27E0AE014F5F5F4F20
S1133D6050D1BC014981842F8970813031F0E1FC4C
S1133D7006C0E0FE06C090E205C09DE203C09BE2DF
S1133D8001C090E05E2D507143FF3CC0911102C010
S1133D9083E001C084E0811718F4212F281B01C09F
S1133DA020E051110BC0F601822F30E2882319F074
S1133DB031938150FBCFC20ED11C20E0992329F00E
S1133DC0D6019C93F60131966F01C6010396E2FE7B
S1133DD00AC03EE4D6013C9341E411964C931197FA
S1133DE012963C9306C03EE6F601308341E64183D9
S1133DF03283FC01322F40E2332309F442C0419361
S1133E003150FACF42FF44C0911102C083E001C097
S1133E1084E0811718F4212F281B01C020E05111E0
S1133E200BC0F601822F30E2882319F031938150C0
S1133E30FBCFC20ED11C20E0992329F0D6019C931C
S1133E40F60131966F01C6010396E2FE0BC039E418
S1133E50D6013C933EE411963C93119736E41296B6
S1133E603C9307C039E6F60130833EE6318336E6FB
S1133E703283FC01322F40E2332319F04193315055
S1133E80FBCFFC01E20FF11D10828EEF9FEFA6C065
S1133E9021E030E0911102C020E030E01616170650
S1133EA01CF4FB01319602C0E1E0F0E02E0F3F1F4D
S1133EB0BB2021F0EB2DF0E0319602C0E0E0F0E011
S1133EC02E0F3F1FE12FF0E02E173F071CF4121BAB
S1133ED0212F01C020E08E2D887159F4F601822F24
S1133EE030E2882319F031938150FBCFC20ED11CEC
S1133EF020E0992329F0D6019C93F60131966F01B5
S1133F0051110BC0F601822F90E3882319F091938D
S1133F108150FBCFC20ED11C20E00F2D060F9A81D9
S1133F20342F307144FF03C0913309F4015010164B
S1133F3024F4093018F008E001C001E0AB0177FF78
S1133F4002C040E050E0FB01E41BF50BA1E0B0E04F
S1133F50AC0FBD1FEA0FFB1F8EE2A82E4B01801A87
S1133F6091080B2D10E01195019511094F3FBFEFFA
S1133F705B0721F4D601AC9211966D0164177507A5
S1133F802CF08416950614F4818101C080E341501D
S1133F9051093196D60111967D014017510724F03D
S1133FA0D6018C936701E2CF6417750739F4963311
S1133FB020F4953319F4311101C081E3F6018083B3
S1133FC0F701822F90E2882319F091938150FBCF5F
S1133FD0F701E20FF11D108280E090E029960FB600
S1133FE0F894DEBF0FBECDBFDF91CF911F910F912B
S1133FF0FF90EF90DF90CF90BF90AF909F908F9005
S11340000895283008F027E03327DA01990F311D8D
S113401087FD916000966105710539F432602E5F69
S11340203D9330E32A95E1F708959F3F30F08038BF
S11340307105610509F03C5F3C5F3D93913008F0E8
S11340408068911DDF93CF931F930F93FF92EF929C
S1134050192F987F9695E92F96959695E90FFF2746
S1134060EE59FE4F99273327EE24FF24A701E701D9
S113407005900894079428F4360FE71EF81E491F8C
S1134080511D660F771F881F991F0694A1F705908D
S1134090079428F4E70EF81E491F561FC11D770F19
S11340A0881F991F661F0694A1F70590079428F4AA
S11340B0F80E491F561FC71FD11D880F991F661F71
S11340C0771F0694A1F70590079420F4490F561F13
S11340D0C71FD81F990F661F771F881F0694A9F75B
S11340E084911095177041F0D695C79557954795CB
S11340F0F794E7941A95C1F7E8E0F1E06894159015
S1134100159135916591959105907FE27395E1182C
S1134110F10A430B560BC90BD009C0F7E10CF11E91
S1134120431F561FC91FD01D7EF4703311F48A95A6
S1134130E6CFE894015030F0080F0AF40027021784
S113414008F4202F2395022F7A3328F079E37D9306
S11341502A95E9F710C07D932A9589F606949795D8
S11341606795379517951794E118F10A430B560B89
S1134170C90BD00998F023957E9173957A3308F092
S113418070E37C932013B8F77E9170617D9330F0D7
S1134190839571E37D9370E32A95E1F71124EF9001
S11341A0FF900F911F91CF91DF91992787FD9095F3
S11341B0089511E0C1E9D1E000E005C0802FFE01BF
S11341C029DB2196011DC239D10780E00807B1F728
S10741D0F894FFCF8D
S11341D40000690920000606060606060606060609
S11341E4060606060606FFFFFFFF68656C700D00F1
S11341F4636F6E6669670D00657869740D00736892
S11342046F770D007364206361726420696E666F56
S1134214726D6174696F6E730D002A2A2A2A2A2A20
S11342242A2A2A2A2A2A2A2A2A2A2A2A2A2A2A2AE6
S11342342A2A2A00417574686F72697A6564204178
S11342446363657373204F6E6C7920212100506180
S11342547373776F72643A00617364660D00537507
S1134264636365737366756C6C79206C6F676765DB
S11342746420696E2E2E0046616C7365000A0D5528
S1134284736572204D6F64653A000A0D4176616965
S11342946C61626C6520636F6D6D616E647320661E
S11342A46F7220746869732070726F6D70743A0A47
S11342B40D202D2073686F770D0A202D20636F6EF7
S11342C46669672028746F20656E7465722074684B
S11342D46520636F6E66696775726174696F6E20B9
S11342E46D6F6465290A0D000A0D53686F77204DBC
S11342F46F64653A00202D20736420636172642026
S1134304696E666F726D6174696F6E730A0D006411
S11343146174612E747874000A0D417661696C616C
S1134324626C6520636F6D6D616E647320666F7279
S113433420746869732070726F6D70743A0A0D206A
S11343442D20657869740A0D002A2A2A556E6B6E2D
S11343546F776E20636F6D6D616E642C20656E746F
S11343646572202768656C702720666F72206D6FF4
S1134374726520696E666F726D6174696F6E732104
S11343842A2A2A000A0D436F6E666967757261747E
S1134394696F6E204D6F64653A000A0D4176616958
S11343A46C61626C6520636F6D6D616E647320660D
S11343B46F7220746869732070726F6D70743A0A36
S11343C40D202D207365740A0D202D2064656C6501
S11343D474650A0D202D2065786974202867657436
S11343E4206261636B20746F2075736572206D6F36
S11343F46465290A0D006E6F20636172642061761E
S113440461696C61626C6521004361726420747932
S113441470653A20005344310053443200534448F5
S11344244300556E6B6E6F776E00436F756C64203A
S11344346E6F742066696E642046415431362F468B
S11344444154333220706172746974696F6E2E0A38
S11344544D616B65207375726520796F7527766578
S113446420666F726D61747465642074686520637A
S1134474617264000A566F6C756D65207479706599
S11344842069732046415400566F6C756D65207322
S1134494697A6520286279746573293A2000566F15
S11344A46C756D652073697A6520284B627974652F
S11344B473293A2000566F6C756D652073697A65AB
S11344C420284D6279746573293A200046696C6525
S11344D47320666F756E64206F6E20746865206344
S11344E461726420286E616D652C2064617465209A
S11344F4616E642073697A6520696E2062797465DB
S113450473293A2000696E697469616C697A61740B
S1134514696F6E206661696C656421004572726F0F
S113452472206F70656E696E673A2000496E697413
S113453469616C697A6174696F6E206661696C651E
S113454464210046696C6520646F65736E2774206A
S11345546578697374210046696C656E616D653AAA
S113456420004572726F72206F70656E696E670009
S11345740000000019048F05AC0365047E0398034E
S11345848A030D0A006E616E00696E66006F7666BA
S11345940000000000F7090D0AEB04290AE10A47A8
S11345A40A500A2F00000000000A178F05EB04EEDE
S10545B40400FD
S9030000FC
