:1000000025C100000C94DD0A0C94080B0C94330BF2
:100010000C945E0B0C94890B0C94B40B0C94DF0BBA
:100020000C940A0C44C1000042C1000040C1000011
:100030003EC100003CC100003AC1000038C10000D0
:1000400036C1000034C1000032C1000030C10000E0
:100050002EC100002CC100002AC100000C94350CF8
:1000600026C100000C9483090C94B90920C100003A
:100070001EC100001CC100001AC1000018C1000010
:1000800016C1000014C1000012C1000010C1000020
:100090000EC100000CC100000AC100002AC500000A
:1000A00006C1000004C1000002C1000000C1000040
:1000B000FEC00000FCC00000FAC00000F8C0000054
:1000C000F6C00000F4C00000F2C00000F0C0000064
:1000D000EEC00000ECC00000EAC00000E8C0000074
:1000E000E6C000000903200320031D0320030703CB
:1000F000200320032003FB022003200310031B0323
:1001000019032003200320031703670D6A0D590DFF
:100110005D0D630DA10D6E0D720D780D7C0D800DC2
:10012000860D8A0D8E0DA10D940D980D9C0D4465C4
:100130006320203520323031380031323A34353ABC
:100140003035001F1C1F1E1F1E1F1F1E1F1E1F00DD
:10015000000A0B02090C0D0E080703040100000041
:10016000000000000000000000000000000000008F
:10017000000000000000000000000012111000004C
:10018000000000000000000000000000000000006F
:10019000000000000001021020200808102040107C
:1001A000204080020102010804020101020408103B
:1001B0002040808040201008040201800402018059
:1001C0004020100804020108040201010204081082
:1001D0002040800102040810204080050505050725
:1001E0000508080808020202020A0A0808040404B2
:1001F00004010101010101010103030303030303DE
:1002000003040707070C0C0C0C0C0C0C0C0202026C
:100210000206060606060606060B0B0B0B0B0B0B5F
:100220000B00002200250028002B002E0031003496
:100230000002010000050108010B010058014702FE
:1002400009080C08EB092E0F1D11760111241FBEA1
:10025000CFEFD1E2DEBFCDBF00E00CBF15E0A0E0E4
:10026000B2E0E6E0F4E300E00BBF02C007900D92BD
:10027000A430B107D9F729E0A4E0B5E001C01D9290
:10028000AE37B207E1F711E0C5E2D1E000E006C009
:1002900021970109802FFE010E94D017CE31D1078E
:1002A00080E00807A9F70E94190A0C94F219A8CE59
:1002B0006EE672E08CE195E00E943B0E64E772E02E
:1002C00086E195E00E943B0E6CE772E080E195E0EC
:1002D0000E943B0E62E872E08AE095E00E943B0ECD
:1002E00068E872E084E095E00C943B0E84E095E0D1
:1002F0000E94D00D8AE095E00E94D00D80E195E04B
:100300000E94D00D86E195E00E94D00D8CE195E031
:100310000C94D00DCF93DF9300D000D0CDB7DEB7D3
:1003200026E040E855E260E070E08CE796E086D792
:1003300068EB7BE080E090E00E94B00C82E295E008
:10034000B3D1811107C06AE774E08CE796E00E94A0
:100350006D0AFFCF82E295E0C8D2882381F06CE875
:1003600074E08CE796E00E946D0A4AE351E06EE289
:1003700071E0CE01019615D1CE01019631D22696BB
:100380000FB6F894DEBF0FBECDBFDF91CF910895B9
:10039000CF93DF9300D000D0CDB7DEB7CE0101966A
:1003A00088D1CE01019674D12CE0829FC001112426
:1003B000BC016A5F7D4F8CE796E00E94620A6FEA9B
:1003C00074E08CE796E00E94620A4AE050E06B819C
:1003D0008CE796E00E94D10A6FE28CE796E00E94DB
:1003E000630A4AE050E06A818CE796E00E94D10AF5
:1003F0006FE28CE796E00E94630A698170E06053C7
:10040000784F4AE050E08CE796E00E94D70A60EB14
:1004100074E08CE796E00E94620A4AE050E06C814A
:100420008CE796E00E94D10A6AE38CE796E00E948E
:10043000630A4AE050E06D818CE796E00E94D10AA1
:100440006AE38CE796E00E94630A4AE050E06E811E
:100450008CE796E00E94D10A8CE796E00E946A0A37
:100460008CE796E00E946A0A8CE796E00E946A0A8E
:1004700068EB7BE080E090E00E94B00C26960FB61F
:10048000F894DEBF0FBECDBFDF91CF9108958AE60D
:1004900095E00E94CE0EEEE5F5E0158216821186FB
:1004A0001386E0E4F5E082E090E0A0E0B0E0808335
:1004B0009183A283B383178AE3E2F5E01382128269
:1004C0008BEF94E0918380831582089526E040E8C5
:1004D00055E260E070E08CE796E0B0D61BCF58CFD5
:1004E00020917909222399F04FB7F8942091790946
:1004F000213059F42DB3209377093DB32091780929
:10050000209523232DBB4FBF02C0409377098CBD9C
:100510009DBD08950F93FC01638744872587068757
:100520000F910895803D27E0920710F0805D97407D
:1005300050E0E3E4F1E021E0261730F43491430F7A
:10054000511D2F5F3196F8CF633038F09C01237036
:100550003327232B11F44F5F5F4FBC016D5F7F4F3B
:100560007695679576956795EDE6F1E08E9F90011B
:100570008F9F300D9E9F300D1124C9010197860F6A
:10058000971F840F951F0895FC01908190539A3016
:1005900008F090E0818180532AE0929F800D112421
:1005A0000895EF92FF920F931F93CF93DF93CDB7F0
:1005B000DEB72B970FB6F894DEBF0FBECDBF8C0110
:1005C0007A014BE050E0CE0101960E94D919CE018C
:1005D0000A96DADFF8018083E9818E2F90E0FC0132
:1005E000E154F109E331F10558F58827EE58FF4F42
:1005F0008F4F0C94D0178A81813629F08B818E36EB
:1006000021F087E01BC081E019C086E017C082E0BE
:1006100015C08B81823711F088E010C084E00EC0D5
:100620008B81823711F085E009C083E007C089E043
:1006300005C08AE003C08BE001C08CE0F801818333
:10064000CE010596A1DFF801828348E050E0B701B2
:10065000CE0101960E94D919CE01019695DFF801CD
:100660008383CE01049690DFF8018483CE01079640
:100670008BDFF80185832B960FB6F894DEBF0FBE93
:10068000CDBFDF91CF911F910F91FF90EF90089513
:10069000FC0180814281618190E044DF069667E041
:1006A00070E00C949A17089583EF95E020D481E0D0
:1006B0000895CF92DF92EF92FF920F931F93CF9303
:1006C000DF93EC0168E670E083EF95E029D460E009
:1006D00083EF95E0CED383EF95E099D447E050E0E7
:1006E00068E670E083EF95E090D483EF95E03BD32C
:1006F0008F77982F92959F701AEF082F919F000D7A
:10070000112483EF95E02FD39C01332794E0359596
:1007100027959A95E1F7F82E129FF00C112483EF9C
:1007200095E021D39C01332744E0359527954A95E0
:10073000E1F7E82E129FE00C112483EF95E013D32C
:1007400083EF95E010D39C01332754E0359527952E
:100750005A95E1F7D82E129FD00C112483EF95E023
:1007600002D39C01332764E0359527956A95E1F71C
:10077000C82E129FC00C112483EF95E0F4D29C0187
:10078000332774E0359527957A95E1F7129F800D10
:1007900011248883C982DA82EB82FC820D83CE0128
:1007A000DF91CF911F910F91FF90EF90DF90CF904D
:1007B0000895CF93C82F68E683EF95E0A7D36C2FF9
:1007C00083EF95E056D383EF95E021D441E068E6CE
:1007D00083EF95E018D483EF95E0C5D2CF910895CB
:1007E0000F931F93CF938C0168E670E083EF95E041
:1007F00097D360E083EF95E03CD3F8012581CAE010
:10080000822F6C2F0E948E17682F660F860F880F1D
:10081000682F620F83EF95E02CD3F8012481822F9B
:100820006C2F0E948E17682F660F860F880F682F17
:10083000620F83EF95E01DD3F8012381822F6C2F87
:100840000E948E17682F660F860F880F682F620F21
:1008500083EF95E00ED360E083EF95E00AD3F801D3
:100860002281822F6C2F0E948E17682F660F860FB1
:10087000880F682F620F83EF95E0FBD2F80121818A
:10088000822F6C2F0E948E17682F660F860F880F9D
:10089000682F620F83EF95E0ECD2F8012081822F60
:1008A0006C2F0E948E17682F660F860F880F682F97
:1008B000620F83EF95E0DDD283EF95E0A8D38FE060
:1008C00078DFC82F68E683EF95E020D36FE083EFF1
:1008D00095E0CFD26C2F6F7783EF95E0CAD283EF8C
:1008E00095E0CF911F910F9192C38FE062DF87FB5C
:1008F000882780F908951092F20581E08093F00531
:100900001092EF0561E084E10E94A20D61E085E1B3
:100910000E94A20DE9EBF0E080818E7F80838081D0
:100920008D7F808388E48093B80085E48093BC0049
:100930000895413208F043C09091F2059111FCCF27
:1009400091E09093F2052093F0052FEF2093850519
:100950001092CA05240F2093C9059093F105909138
:10096000F105880F892B8093F1058091EF05813087
:1009700061F41092EF058091F1058093BB008091A6
:10098000BC0083FDF8CF85EC01C085EE8093BC00F0
:100990008091F2058130E1F38091CA05841710F44B
:1009A0004091CA05ABECB5E0962FFB018E2F891B59
:1009B000841718F48D918193F9CF842F089580E0E6
:1009C00008950F93413208F04AC09091F2059111B9
:1009D000FCCF32E03093F2050093F0053FEF309307
:1009E00085051092CA054093C905562FABECB5E0BA
:1009F000FB013E2F351B341718F431913D93F9CF8D
:100A00001092F1053091F105880F832B8093F10549
:100A10008091EF05813061F41092EF058091F1052E
:100A20008093BB008091BC0083FDF8CF85EC01C0B2
:100A300085EE8093BC00222321F08091F205823064
:100A4000D1F3809185058F3F79F0809185058032C3
:100A500041F080918505803331F094E005C091E04C
:100A600003C092E001C093E0892F0F910895409157
:100A7000A705262F30E0240F311D21323105DCF48B
:100A80002091F2052430C9F4FC0180E090E0861743
:100A900058F43091A7052191DC01A755BA4FA30F57
:100AA000B11D2C930196F3CF8091A705680F609339
:100AB000A70580E0089581E0089582E0089590936D
:100AC000EC058093EB0508959093EE058093ED057A
:100AD000089585ED8093BC008091BC0084FDFCCF1F
:100AE0001092F205089585EC8093BC001092F205F7
:100AF00008951F920F920FB60F9211240BB60F920A
:100B00002F933F934F935F936F937F938F939F9315
:100B1000AF93BF93EF93FF938091B900887F8036A6
:100B200009F49DC070F5883209F45CC090F48031FE
:100B300009F455C038F4882309F4F3C0883009F467
:100B40004EC0F2C0883109F44DC0803209F45EC055
:100B5000EBC0803409F469C050F4803309F456C006
:100B6000883309F0E1C080938505BDDFDDC08035A5
:100B700009F44FC0883509F45DC0883409F0D4C049
:100B8000D2C0883909F4C3C0A8F4883709F467C013
:100B900038F4883609F463C0803709F460C0C4C0F3
:100BA000883809F4B4C0803909F45FC0803809F08E
:100BB000BBC05BC0803B09F482C038F4803A09F4C2
:100BC00066C0883A09F47BC0AFC0803C09F4A3C07A
:100BD000883C09F4A0C0883B09F486C0A5C0809178
:100BE000F10510C09091CA058091C905981770F55C
:100BF000E091CA0581E08E0F8093CA05F0E0E553CD
:100C0000FA4F80818093BB0085EC82C0809385057C
:100C10008AC0E091CA0581E08E0F8093CA05809159
:100C2000BB00F0E0E553FA4F80839091CA058091B4
:100C3000C9056AC0E091CA0581E08E0F8093CA059C
:100C40008091BB00F0E0E553FA4F80838091F0057E
:100C5000811169C081E08093EF0584EA5DC083E083
:100C60008093F20510928605CFCF80918605803261
:100C700008F04DC0E091860581E08E0F80938605D7
:100C80008091BB00F0E0E957FA4F8083BDCF2BDFA6
:100C900080918605803230F4E0918605F0E0E957D6
:100CA000FA4F10826091860570E0E091EB05F091BB
:100CB000EC0587E895E019951092860535C084E02B
:100CC0008093F2051092A8051092A705E091ED051A
:100CD000F091EE0519958091A705811105C081E07D
:100CE0008093A7051092A905E091A80581E08E0FD9
:100CF0008093A805F0E0E755FA4F80818093BB0010
:100D00009091A8058091A705981708F47DCF85E8F4
:100D10008093BC0009C085EC8093BC001092F20562
:100D200003C010928505D5DEFF91EF91BF91AF9181
:100D30009F918F917F916F915F914F913F912F91F3
:100D40000F900BBE0F900FBE0F901F90189580E074
:100D500090E0089508958091270690E0209128065C
:100D6000821B910908959091280680912706981773
:100D700050F4E92FF0E0E75DF94F208130E09F5F0C
:100D80009093280602C02FEF3FEFC9010895E0912C
:100D9000280680912706E81730F4F0E0E75DF94F68
:100DA000808190E008958FEF9FEF08950895CF938D
:100DB000DF93EC01E091FF05F09100063097F1F030
:100DC00090912806809127069817C0F090E0292F6F
:100DD00030E02617370754F4DE01A20FB31F4C9101
:100DE000D901A75DB94F4C939F5FF1CF10922806B0
:100DF00060932706CB01DF91CF911994DF91CF91BA
:100E00000895E0910106F0910206309729F01092C2
:100E100005061092040619940895CF92DF92EF927E
:100E2000FF920F931F93CF93DF937C01CB018A0135
:100E300020910306222389F0EB016B01C40ED51E1D
:100E4000CC15DD0561F06991D701ED91FC91019020
:100E5000F081E02DC7011995F3CF642F08DEC8019A
:100E6000DF91CF911F910F91FF90EF90DF90CF9086
:100E70000895CF93DF931F92CDB7DEB7698320919A
:100E800003062223D1F020910406203240F021E015
:100E900030E0FC013383228380E090E014C0809135
:100EA0000506E82FF0E0EA5FF94F998190838F5FA4
:100EB000809305068093040604C061E0CE0101968C
:100EC000D6DD81E090E00F90DF91CF910895FC0195
:100ED0001382128288EE93E0A0E0B0E084839583D1
:100EE000A683B78386EB94E0918380830895109264
:100EF0002806109227061092050610920406FBDCC5
:100F000081E097E0E1DD87ED96E0D9CD81E0809347
:100F100003066093260610920506109204060895B3
:100F2000F5CF0F93062F21E04091040666E076E0AE
:100F30008091260646DD1092050610920406109256
:100F400003060F9108954F925F926F927F92AF9236
:100F5000BF92CF92EF92FF920F931F93CF93DF93A5
:100F60005C01F62ED42F28013901EE2011F1CEDFDD
:100F7000CE2DC43008F0C3E0C150C0F028E0C29FBD
:100F8000C0011124A301920104C0569547953795DD
:100F900027958A95D2F7CA01B901D501ED91FC9147
:100FA0000190F081E02DC5011995E6CF60E0C50103
:100FB000B8DF4D2FD13208F040E22C2D69E276E007
:100FC0008F2DB7DC1092280680932706DF91CF91F2
:100FD0001F910F91FF90EF90CF90BF90AF907F90B7
:100FE0006F905F904F900895CF92EF920F931F9361
:100FF000C22EE12C00E010E09801A5DF1F910F91B7
:10100000EF90CF90089521E0EFCF21E0EDCF61E0A8
:1010100088CF83EF95E05BCF0F9304E322E343E3B4
:1010200060E389E496E076DA0F910895FC01918DF2
:10103000228D892F90E0805C9F4F821B91098F73D6
:1010400099270895FC01918D828D981731F0828D3A
:10105000E80FF11D858D90E008958FEF9FEF0895C3
:10106000FC01918D828D981761F0828DDF01A80FB0
:10107000B11D5D968C91928D9F5F9F73928F90E0D2
:1010800008958FEF9FEF0895FC01538D448D252F18
:1010900030E0842F90E0821B930B541710F0CF9612
:1010A00008950197089582EE99E0892B39F080E048
:1010B00090E0892B19F086D1811125C080E090E065
:1010C000892B41F080E090E0892B21F00E94000004
:1010D00081111CC080E090E0892B41F080E090E01D
:1010E000892B21F00E940000811113C080E090E064
:1010F000892BA1F080E090E0892B81F00E94000014
:1011000081110AC008950E940000D8CF0E940000FB
:10111000E1CF0E940000EACF0C9400000895FC018A
:10112000848DDF01A80FB11DA35ABF4F2C91848D70
:1011300090E001968F739927848FA689B7892C93A5
:10114000A089B1898C91837080648C93938D848DF8
:10115000981306C00288F389E02D80818F7D8083FB
:101160000895EF92FF920F931F93CF93DF93EC01BB
:1011700081E0888F9B8D8C8D981305C0E889F98953
:10118000808185FD25C0F62E0B8D10E00F5F1F4F6F
:101190000F731127E02E8C8DE8120BC00FB607FCE1
:1011A000FACFE889F989808185FFF5CFCE01B7DFD5
:1011B000F2CF8B8DFE01E80FF11DE35AFF4FF08255
:1011C0009FB7F8940B8FEA89FB89808180620AC0FF
:1011D0009FB7F894EE89FF896083E889F989808157
:1011E0008370806480839FBF81E090E0DF91CF9126
:1011F0001F910F91FF90EF900895CF93DF93EC0133
:10120000888D8823C1F0EA89FB89808185FD05C02E
:10121000A889B9898C9186FD0EC00FB607FCF5CF61
:10122000808185FFF2CFA889B9898C9185FFEDCFA8
:10123000CE0175DFE8CFDF91CF910895CF92DF9295
:10124000EF92FF921F93CF93DF93EC016A017B0132
:10125000122FE889F98982E080834115514E61059A
:101260007105B1F060E079E08DE390E0A7019601AF
:101270000E94AE17DA01C9010197A109B109B6951B
:10128000A795979587959C01211580E13807A8F0CF
:10129000E889F989108260E874E88EE190E0A7019E
:1012A00096010E94AE17DA01C9010197A109B1099F
:1012B000B695A795979587959C01EC85FD8530831C
:1012C000EE85FF852083188EEC89FD891083EA89DD
:1012D000FB89808180618083EA89FB8980818860C5
:1012E0008083EA89FB89808180688083EA89FB8921
:1012F00080818F7D8083DF91CF911F91FF90EF9050
:10130000DF90CF9008951F920F920FB60F92112485
:101310000BB60F922F938F939F93EF93FF93E091D0
:101320008C06F0918D068081E0919206F0919306F3
:1013300082FD12C09081809195068F5F8F732091FE
:101340009606821751F0E0919506F0E0E458F94FC7
:10135000958F8093950601C08081FF91EF919F91B9
:101360008F912F910F900BBE0F900FBE0F901F907B
:1013700018951F920F920FB60F9211240BB60F9271
:101380002F933F934F935F936F937F938F939F938D
:10139000AF93BF93EF93FF938CE796E0C0DEFF918E
:1013A000EF91BF91AF919F918F917F916F915F91DD
:1013B0004F913F912F910F900BBE0F900FBE0F904A
:1013C0001F9018958CE796E031DE21E0892B09F417
:1013D00020E0822F0895ECE7F6E01382128288EE77
:1013E00093E0A0E0B0E084839583A683B78388EC84
:1013F00094E09183808385EC90E09587848784ECEA
:1014000090E09787868780EC90E0918B808B81ECD1
:1014100090E0938B828B82EC90E0958B848B86ECB2
:1014200090E0978B868B118E128E138E148E0895FA
:101430000895D0D2FDDF4AD8C3E5D8E050D8209730
:10144000E9F331DEFBCFCF92DF92EF92FF920F9361
:101450001F93CF93DF936C017A018B01C0E0D0E042
:10146000CE15DF0581F0D8016D918D01D601ED918A
:10147000FC910190F081E02DC6011995892B11F0A6
:101480002196EECF7E01C701DF91CF911F910F9181
:10149000FF90EF90DF90CF9008956115710579F07E
:1014A000FB0101900020E9F73197AF01461B570B74
:1014B000DC01ED91FC910280F381E02D199480E034
:1014C00090E00895EACFDC01ED91FC910190F0816C
:1014D000E02D199466ED74E0E0CF0F931F93CF9346
:1014E000DF93EC01DADF8C01CE01F4DF800F911F76
:1014F000DF91CF911F910F9108958F929F92AF929C
:10150000BF92EF92FF920F931F93CF93DF93CDB7CC
:10151000DEB7A1970FB6F894DEBF0FBECDBF7C013A
:10152000FA01CB0119A2223008F42AE08E010F5DE6
:101530001F4F822E912CA12CB12CBF01A50194012B
:101540000E94AE17F901CA01015011096A3010F466
:10155000605D01C0695CD8016C93232B242B252B83
:1015600061F7B801C70199DFA1960FB6F894DEBF05
:101570000FBECDBFDF91CF911F910F91FF90EF90E4
:10158000BF90AF909F908F9008952115310541F441
:10159000DC01ED91FC910190F081E02D642F199414
:1015A000ACCF9A01462F50E060E070E0EECF9A0198
:1015B000AB0160E070E0E9CF08951F920F920FB683
:1015C0000F9211240BB60F922F933F934F935F937B
:1015D0006F937F938F939F93AF93BF93EF93FF93FB
:1015E000E0915E02F0915F021995FF91EF91BF913A
:1015F000AF919F918F917F916F915F914F913F91AB
:101600002F910F900BBE0F900FBE0F901F9018954B
:101610001F920F920FB60F9211240BB60F922F93B9
:101620003F934F935F936F937F938F939F93AF936A
:10163000BF93EF93FF93E0916002F09161021995DF
:10164000FF91EF91BF91AF919F918F917F916F919A
:101650005F914F913F912F910F900BBE0F900FBE56
:101660000F901F9018951F920F920FB60F92112492
:101670000BB60F922F933F934F935F936F937F938C
:101680008F939F93AF93BF93EF93FF93E091620289
:10169000F09163021995FF91EF91BF91AF919F91E6
:1016A0008F917F916F915F914F913F912F910F900B
:1016B0000BBE0F900FBE0F901F9018951F920F92A8
:1016C0000FB60F9211240BB60F922F933F934F93A7
:1016D0005F936F937F938F939F93AF93BF93EF939A
:1016E000FF93E0916402F09165021995FF91EF91EB
:1016F000BF91AF919F918F917F916F915F914F912A
:101700003F912F910F900BBE0F900FBE0F901F9027
:1017100018951F920F920FB60F9211240BB60F92CD
:101720002F933F934F935F936F937F938F939F93E9
:10173000AF93BF93EF93FF93E0915A02F0915B0256
:101740001995FF91EF91BF91AF919F918F917F91EB
:101750006F915F914F913F912F910F900BBE0F9022
:101760000FBE0F901F9018951F920F920FB60F92F9
:1017700011240BB60F922F933F934F935F936F9368
:101780007F938F939F93AF93BF93EF93FF93E091DA
:101790005C02F0915D021995FF91EF91BF91AF91BD
:1017A0009F918F917F916F915F914F913F912F9179
:1017B0000F900BBE0F900FBE0F901F9018951F92A9
:1017C0000F920FB60F9211240BB60F922F933F93E7
:1017D0004F935F936F937F938F939F93AF93BF9339
:1017E000EF93FF93E0916602F09167021995FF91E4
:1017F000EF91BF91AF919F918F917F916F915F9189
:101800004F913F912F910F900BBE0F900FBE0F90F5
:101810001F9018951F920F920FB60F9211240BB6BE
:101820000F922F933F934F935F936F937F938F9379
:101830009F93AF93BF93EF93FF93E0916802F09172
:1018400069021995FF91EF91BF91AF919F918F918F
:101850007F916F915F914F913F912F910F900BBEB0
:101860000F900FBE0F901F9018951F920F920FB6FA
:101870000F9211242F933F938F939F93AF93BF9316
:1018800080911A0790911B07A0911C07B0911D072A
:101890003091190723E0230F2D3720F40196A11D65
:1018A000B11D05C026E8230F0296A11DB11D20938E
:1018B000190780931A0790931B07A0931C07B093F6
:1018C0001D0780911E0790911F07A0912007B091DE
:1018D00021070196A11DB11D80931E0790931F073C
:1018E000A0932007B0932107BF91AF919F918F9153
:1018F0003F912F910F900FBE0F901F9018952FB70B
:10190000F89460911A0770911B0780911C079091C1
:101910001D072FBF08953FB7F89480911E0790913F
:101920001F07A0912007B091210726B5A89B05C0ED
:101930002F3F19F00196A11DB11D3FBFBA2FA92F4E
:10194000982F8827820F911DA11DB11DBC01CD01CB
:1019500042E0660F771F881F991F4A95D1F70895B7
:101960008F929F92AF92BF92CF92DF92EF92FF92AF
:101970006B017C01D0DF4B015C01C114D104E10497
:10198000F104F9F00E948D17C6DFDC01CB01881944
:101990009909AA09BB09883E9340A105B10568F3DE
:1019A00021E0C21AD108E108F10888EE880E83E030
:1019B000981EA11CB11CC114D104E104F10421F74B
:1019C000DCCFFF90EF90DF90CF90BF90AF909F90D3
:1019D0008F900895789484B5826084BD84B58160C9
:1019E00084BD85B5826085BD85B5816085BDEEE627
:1019F000F0E0808181608083E1E8F0E01082808106
:101A000082608083808181608083E0E8F0E0808173
:101A100081608083E1EBF0E0808184608083E0EB93
:101A2000F0E0808181608083E1E9F0E08081826084
:101A30008083808181608083E0E9F0E08081816043
:101A40008083E1EAF0E08081826080838081816030
:101A50008083E0EAF0E0808181608083E1E2F1E070
:101A6000808182608083808181608083E0E2F1E018
:101A7000808181608083EAE7F0E0808184608083F8
:101A800080818260808380818160808380818068A2
:101A900080831092C100089590E0FC013197E231FB
:101AA000F10508F04EC08827EB57FF4F8F4F0C947D
:101AB000D017809180008F7703C0809180008F7D48
:101AC00080938000089580918000877FF9CF84B54E
:101AD0008F7702C084B58F7D84BD08958091B0005A
:101AE0008F7703C08091B0008F7D8093B000089500
:101AF000809190008F7707C0809190008F7D03C008
:101B000080919000877F8093900008958091A0003D
:101B10008F7707C08091A0008F7D03C08091A000C7
:101B2000877F8093A0000895809120018F7707C060
:101B3000809120018F7D03C080912001877F809359
:101B4000200108951F93CF93DF93282F30E0F901F0
:101B5000E15BFE4F8491F901EB56FE4FD491F90100
:101B6000E552FE4FC491CC23B9F0162F811194DFBA
:101B7000EC2FF0E0EE0FFF1FEF5DFD4FA591B4914C
:101B80009FB7F894111104C08C91D095D82302C04E
:101B9000EC91DE2BDC939FBFDF91CF911F910895D5
:101BA000FC01808191810C947018CF93DF93EC013C
:101BB00088819981009711F00E947018198218820B
:101BC0001D821C821B821A82DF91CF9108950F9390
:101BD0001F93CF93DF93EC018B016F5F7F4F888161
:101BE00099810E94F918009731F0998388831B83AB
:101BF0000A8381E001C080E0DF91CF911F910F91B6
:101C00000895CF93DF93EC0188819981892B29F086
:101C10008A819B818617970758F4CE01D8DF8823E5
:101C200041F08C819D81892B19F4E881F981108222
:101C300081E0DF91CF910895EF92FF920F931F9370
:101C4000CF93DF93EC017B018A01BA01DADF8111C6
:101C500003C0CE01AADF07C01D830C83B7018881B2
:101C600099810E94EB19CE01DF91CF911F910F91C5
:101C7000FF90EF900895FC0111821082138212826E
:101C8000158214826115710549F0FB010190002055
:101C9000E9F73197AF01461B570BCECF0895CF938D
:101CA000DF931F92CDB7DEB76983DC01ED91FC9124
:101CB0000280F381E02D41E050E0BE016F5F7F4F75
:101CC00019950F90DF91CF910895CF93DF93EC0199
:101CD000898D9A8D009739F481E090E09B838A8307
:101CE00080E090E00AC0FC0113821282C7D4E98D23
:101CF000FA8D22813381232B79F7DF91CF910895DB
:101D0000FC01818D928D009709F073C40895CF93E3
:101D1000DF931F92CDB7DEB741E050E0BE016F5FA9
:101D20007F4FCFD2019719F4898190E002C08FEFE5
:101D30009FEF0F90DF91CF910895FC01818D928DDF
:101D4000009709F0E4CF8FEF9FEF08950F931F9353
:101D5000CF93DF93FC01818D928D0097A9F0EF0165
:101D6000D6DF8C010F3F8FEF180789F0898D9A8D90
:101D7000FC0142855385648575854150510961098F
:101D80007109A1D3C80105C080E090E002C08FEFC7
:101D90009FEFDF91CF911F910F910895FC01138266
:101DA000128288EE93E0A0E0B0E084839583A6835E
:101DB000B78389EE94E091838083128E118E14860E
:101DC0000895DC015996ED91FC915A97309729F0CE
:101DD000628573858485958508956FEF7FEFCB01CC
:101DE0000895DC015996ED91FC915A97309729F0AE
:101DF0006389748985899689089560E070E0CB01D4
:101E00000895CF92DF92EF92FF92CF93DF93FC0180
:101E1000218D328D232BC9F0EC01E3DF6B017C01B6
:101E2000CE01CFDFA7019601261B370B480B590BBC
:101E3000DA01C901811530E89307A105B10538F031
:101E40008FEF9FE7A0E0B0E002C080E090E0DF917C
:101E5000CF91FF90EF90DF90CF900895E2E2F7E00E
:101E6000158216821186138682E090E0A0E0B0E031
:101E700084879587A687B78713A215A614A68BEF2C
:101E800094E093A782A717A608959FB7F89420918E
:101E9000790980917709213019F48DBB9FBF08958E
:101EA0008FBF08958EBD00000DB407FEFDCF8EB527
:101EB00008958FEFF7CF61E0FC01848143DE8091CC
:101EC0006B07882331F010926B078091790981119B
:101ED000DCCF0895CF93DF93EC0180916B078111E4
:101EE00009C081E080936B0780916C0790916D072A
:101EF0000E94700260E08C81DF91CF9123CECF935E
:101F0000DF93EC018E81882379F08F8198859C0185
:101F10002F5F3F4F38872F838230924010F4C9DF04
:101F2000F4CFCE01C8DF1E82DF91CF9108950F93C9
:101F30001F93CF93DF93EB01E2DC8B01BADF8F3F7E
:101F400041F0DDDC601B710B6C177D07B8F380E09E
:101F500001C081E0DF91CF911F910F9108958F9281
:101F60009F92AF92BF92FF920F931F93CF93DF93F5
:101F7000EC01F62E49015A01C2DFCE01ABDF6CE263
:101F800071E0CE01D4DF8F2D80648CDF08E110E09A
:101F9000D501C401002E04C0B695A79597958795E5
:101FA0000A94D2F77FDF08501109083F8FEF180716
:101FB00079F7FF2029F088E0F81204C087E803C011
:101FC00085E901C08FEF6EDF10E073DF8A8787FF3E
:101FD00004C01F3F11F01F5FF8CFDF91CF911F9119
:101FE0000F91FF90BF90AF909F908F9008950F93A7
:101FF0001F93CF93DF93EC0182DC8B015ADF8A873A
:102000008F3F41F47CDC601B710B6D327140B0F38B
:102010008FE003C08E3F31F08DE08D83CE014BDF2A
:1020200080E001C081E0DF91CF911F910F91089571
:10203000CF92DF92EF92FF920F931F93CF93DF9394
:10204000EC016901C801820F931F8130924008F0B2
:1020500057C08E81882371F088819981AA81BB81C4
:1020600084179507A607B70729F48F819885C816A6
:10207000D90600F5488359836A837B838B85833037
:1020800039F089E0440F551F661F771F8A95D1F7F5
:102090009A01AB0161E1CE0162DF882319F083E090
:1020A0008D832EC0CE01A3DF882351F118861F82B5
:1020B00081E08E838F8198858C159D0538F4F9DE3B
:1020C0008F819885019698878F83F4CF6701E00E02
:1020D000F11ECE14DF0429F0ECDEF60181936F01CE
:1020E000F8CF8F819885080F191F18870F8389856E
:1020F000882319F00115124038F0CE0100DF04C02A
:10210000CE01D9DE80E001C081E0DF91CF911F9147
:102110000F91FF90EF90DF90CF900895EF92FF9294
:102120000F931F930115110511F082DF01C081E0AB
:102130001F910F91FF90EF900895EF92FF920F93F0
:102140001F93790100E012E020E030E071DF1F9181
:102150000F91FF90EF900895EF92FF920F931F93CE
:10216000CF93DF938C01862F7A019CDEE7018EEFFF
:10217000F81A899197DECE15DF05D9F78FEF92DE39
:102180008FEF90DE96DEF80182878F71853031F017
:1021900081E18583C8018FDE80E001C081E0DF91AD
:1021A000CF911F910F91FF90EF9008950F931F9380
:1021B000CF93DF93EC01890141155105610571054C
:1021C00011F482E12DC08B85833039F089E0440F12
:1021D000551F661F771F8A95D1F79A01AB0168E1F9
:1021E000CE01BDDE882311F084E01AC0A8016EEF95
:1021F000CE01B2DF8823A9F068E572E0CE0197DE58
:10220000811102C085E10CC020E030E0A9016DE041
:10221000CE01A5DE811103C04CDE882331F084E1BC
:102220008D83CE0148DE80E003C0CE0144DE81E034
:10223000DF91CF911F910F910895ECE6F7E080E5D3
:10224000808311820895CF93DF93EC019C012A5F74
:102250003F4F41E050E060E070E08B8D9C8D4CD5AD
:102260008823A1F08F89988DA98DBA8D892B8A2B0F
:102270008B2B59F48E819F81A885B9858F8B988F80
:10228000A98FBA8F8C8180688C8381E0DF91CF9198
:102290000895CF93DF93EC01462F6E857F85888963
:1022A0009989CFD3882341F08A8920E2829FC00197
:1022B00011248958984F02C080E090E0DF91CF91BF
:1022C00008952F923F924F925F926F927F928F92DA
:1022D0009F92AF92BF92CF92DF92EF92FF920F93B5
:1022E0001F93CF93DF93EC015B014A018D81811134
:1022F00003C08FEF9FEFD4C08C8180FFFACF4B8853
:102300005C886D887E884A855B856C857D85C40187
:10231000A0E0B0E093018201041B150B260B370BE4
:10232000081719072A073B0718F44201841A950A6F
:1023300024011E0126E0220E311C4114510409F42F
:102340007DC04A855B856C857D856A0181E0D822E8
:10235000ED818B8D9C8D8A019B01F9E03695279547
:1023600017950795FA95D1F7E23061F4FC01828D5B
:10237000938DA48DB58DBC01CD01600F711F821F9F
:10238000931F3EC0FC0174807A947022C114D10462
:10239000C1F4711016C0452B462B472B49F48F8989
:1023A000988DA98DBA8D8E839F83A887B98709C020
:1023B0004E815F816885798591017CD3882309F4FA
:1023C00098CFEB8DFC8D8E819F81A885B985029772
:1023D000A109B109058404C0880F991FAA1FBB1F5A
:1023E0000A94D2F74685578560897189840F951FB5
:1023F000A61FB71FBC01CD01670D711D811D911D69
:1024000020E032E02C193D0932012415350508F48D
:1024100039012C8126FD04C06114F2E07F0671F5BC
:1024200000916A0210916B0220916C0230916D0252
:10243000601771078207930719F420C0C40130C0E8
:10244000750183019601AB01BC01809175079091E4
:10245000760764DE882309F44CCFA60CB71C8A8566
:102460009B85AC85BD85860D971DA11DB11D8A87F5
:102470009B87AC87BD87461857085FCF40E0E1D205
:10248000882309F436CFF601E958F84FD501CF017A
:10249000860D971D8E179F0701F321912D93FACF7B
:1024A000DF91CF911F910F91FF90EF90DF90CF9030
:1024B000BF90AF909F908F907F906F905F904F9064
:1024C0003F902F9008958F929F92AF92BF92CF929C
:1024D000DF92EF92FF920F931F93CF93DF93EC0164
:1024E0008D81811102C080E077C00B891C892D8904
:1024F0003E890417150726073707A8F36A017B01F1
:10250000823029F4CA86DB86EC86FD860DC0C114B4
:10251000D104E104F10451F41E821F821886198649
:102520001A861B861C861D8681E056C08A849B8481
:10253000AC84BD84EB8DFC8D258530E0275F3F4F5B
:10254000B501A4014150510961097109022E04C06D
:1025500076956795579547950A94D2F7D701C601A6
:102560000197A109B10904C0B695A79597958795DC
:102570002A95D2F784179507A607B70720F0892870
:102580008A288B2871F44F89588D698D7A8D4E83F6
:102590005F83688779874C015D018E010A5F1F4F59
:1025A00015C0841B950BA60BB70BF5CF4E815F8131
:1025B0006885798598018B8D9C8D7CD291E0891AF4
:1025C0009108A108B108882309F48DCF81149104E2
:1025D000A104B10459F796CFDF91CF911F910F91CC
:1025E000FF90EF90DF90CF90BF90AF909F908F9033
:1025F00008950F931F93CF93DF93EC018D81882370
:10260000B9F18C8187FF2FC061E0CE0142DE8C01E1
:10261000892B71F18D81823048F48B899C89AD8939
:10262000BE89F801848F958FA68FB78F8F89988D7B
:10263000A98DBA8DF801938F828FB58BA48BE09111
:102640006E07F0916F07309759F0B8016A5E7F4FBF
:10265000C80148961995F801808D918D938B828BD6
:102660008C818F778C83DF91CF911F910F91B0C1B7
:1026700080E0DF91CF911F910F9108952F923F92AB
:102680004F925F926F927F928F929F92AF92BF9282
:10269000CF92DF92EF92FF920F931F93CF93DF932E
:1026A00000D01F92CDB7DEB78C016B011A01DC019F
:1026B00015968C9115978130C1F414968C9181FFF9
:1026C00014C082FF1CC0F80143895489658976894A
:1026D00082859385A485B58584179507A607B707D6
:1026E00071F0C801F0DE81110AC081E090E0D801EC
:1026F00013969C938E93129780E090E042C1410123
:1027000082C05B968D919C915C97FC0174802FEF49
:10271000270D2A013B0139E076946794579447943A
:102720003A95D1F7722E74207A01F1E0FF227720DA
:1027300009F475C080E092E08E199F095401881554
:10274000990508F45C01D8015B962D913C915C974A
:1027500016968D919D910D90BC91A02D0297A10987
:10276000B109F901058404C0880F991FAA1FBB1F76
:102770000A94D2F74685578560897189840F951F21
:10278000A61FB71F9C01AD01270D311D411D511D15
:1027900029013A01A11432E0B30609F085C0809105
:1027A0006A0290916B02A0916C02B0916D02481682
:1027B00059066A067B0659F48FEF9FEFDC01809380
:1027C0006A0290936B02A0936C02B0936D02960123
:1027D000B301A2018091750790917607E7DC882309
:1027E00009F483CF9EEFD91A8A189B08F8018285D5
:1027F0009385A485B5858A0D9B1DA11DB11D82877A
:102800009387A487B587D8011A964D915D916D91F4
:102810007C911D978114910409F073CF83C0E1145A
:10282000F10409F087CF16964D915D916D917C91E1
:102830001997411551056105710559F457968D9108
:102840009D910D90BC91A02D0097A105B10531F58A
:1028500020C09E012F5F3F4F2DD1882309F44DCF1B
:1028600089819A81AB81BC81F801238D348DF90176
:102870002789203129F048EF5FEF6FEF7FE004C038
:1028800048EF5FEF60E070E084179507A607B70791
:1028900028F0C801D8DC81114DCF27CFF8018683FD
:1028A0009783A087B18746CFE114F10421F5D801C1
:1028B0001A964D915D916D917C911D9753968D91D6
:1028C0009D910D90BC91A02D481759076A077B0771
:1028D00090F07ED0882309F408CF40926A0250928B
:1028E0006B0260926C0270926D028091740781603D
:1028F0008093740707C041E0C301B201A2D08823CE
:1029000009F4F3CED601F701E958F84F9F012A0DDB
:102910003B1D2E173F0719F08D918193FACFCA0CFA
:10292000DB1C62CFD8015396CD90DD90ED90FC90EA
:10293000569714968C91C416D506E606F70640F411
:10294000F801438B548B658B768B806884830DC034
:1029500020916E0730916F07232B39F02114310439
:1029600021F08068D80114968C93F801848183FD4E
:1029700002C0C10106C0C8013CDE882309F4B5CEFF
:10298000F8CF0F900F900F900F90DF91CF911F9184
:102990000F91FF90EF90DF90CF90BF90AF909F90FE
:1029A0008F907F906F905F904F903F902F90089501
:1029B000CF93DF931F92CDB7DEB7698341E050E03C
:1029C000BE016F5F7F4F5ADE0F90DF91CF91089568
:1029D00080917407882399F140916A0250916B02AB
:1029E00060916C0270916D0227E737E08091750766
:1029F00090917607DBDB811102C080E00895409161
:102A000070075091710760917207709173074115BB
:102A100051056105710589F027E737E08091750759
:102A200090917607C3DB882341F3109270071092D0
:102A3000710710927207109273071092740781E069
:102A40000895CF92DF92EF92FF92CF936B017C01BA
:102A5000C42F80916A0290916B02A0916C02B09198
:102A60006D028C159D05AE05BF05C1F0B1DF81116A
:102A700002C080E019C027E737E0B701A6018091C6
:102A800075079091760759DB882399F3C0926A0203
:102A9000D0926B02E0926C02F0926D02809174070A
:102AA000C82BC093740781E0CF91FF90EF90DF9027
:102AB000CF9008958F929F92AF92BF92CF92DF9264
:102AC000EF92FF920F931F93CF93DF93FC018185C9
:102AD0009285A385B4850196A11DB11D8417950724
:102AE000A607B70710F480E05AC083889488A588A9
:102AF000B6888789803129F4BB27A72F962F852F89
:102B000009C0DB01CA01C7E0B695A79597958795DF
:102B1000CA95D1F7E9016A017B018F01BC01CD01A2
:102B2000680D791D8A1D9B1D80906A0290906B0232
:102B3000A0906C02B0906D02681579058A059B051E
:102B400091F4F8018789803199F4DD24EE24FF2483
:102B5000C601880F991FFC01E958F84F80819181C7
:102B6000A0E0B0E017C040E06CDF8111EACFBBCF3E
:102B7000E894C7F8DD24EE24FF24C601880F991FCE
:102B8000880F991FFC01E958F84F80819181A2813B
:102B9000B381BF7088839983AA83BB8381E0DF916F
:102BA000CF911F910F91FF90EF90DF90CF90BF904A
:102BB000AF909F908F9008954F925F926F927F9207
:102BC0008F929F92AF92BF92CF92DF92EF92FF923D
:102BD0000F931F93CF93DF93EC01423051056105B2
:102BE000710510F480E077C089859A85AB85BC8536
:102BF0000196A11DB11D84179507A607B70790F38D
:102C0000CB88DC88ED88FE888F89803129F4BB274A
:102C1000A72F962F852F09C0DB01CA01E7E0B695E3
:102C2000A79597958795EA95D1F7480159012A010B
:102C30003B01C80ED91EEA1EFB1E80916A029091CC
:102C40006B02A0916C02B0916D02C816D906EA061B
:102C5000FB0681F48F898031A1F4B301A2015527CD
:102C600066277727440F551FFA01E958F84F9182DC
:102C7000808218C040E0C701B601E3DE8111EACFCF
:102C8000B1CFB301A2014F77552766277727440FAD
:102C9000551F440F551FFA01E958F84F8082918261
:102CA000A282B382809174078160809374078A89BD
:102CB000823080F08D819E81AF81B885C80ED91E8B
:102CC000EA1EFB1EC0927007D0927107E092720755
:102CD000F092730781E0DF91CF911F910F91FF90E8
:102CE000EF90DF90CF90BF90AF909F908F907F90AC
:102CF0006F905F904F9008952F923F924F925F9206
:102D00006F927F929F92AF92BF92CF92DF92EF929B
:102D1000FF920F931F93CF93DF93CDB7DEB76097EA
:102D20000FB6F894DEBF0FBECDBF5C0149875A874E
:102D30006B877C871901D901CD90DD90ED90FC90D7
:102D4000C114D104E104F10431F0BFEFCB1ADB0A66
:102D5000EB0AFB0A10C0FC01C080D180E280F38046
:102D60009924939409851A852B853C85013011059A
:102D70002105310509F0912CF50181859285A38506
:102D8000B4858C019D010F5F1F4F2F4F3F4F0D8763
:102D90001E872F87388B260137011D821E821F82D6
:102DA0001886F50181859285A385B4850D811E81E4
:102DB0002F813885081719072A073B0708F054C0E8
:102DC0002D853E854F8558892415350546055705BF
:102DD00050F482E0482E512C612C712C92E0C92EC7
:102DE000D12CE12CF12C9E012F5F3F4FB301A201AA
:102DF000C50160DE8823C1F149815A816B817C81E4
:102E0000D301C2010196A11DB11D452B462B472BB5
:102E100019F06C017D010FC0AC01BD014C195D09B9
:102E20006E097F0909851A852B853C8504171507CE
:102E30002607370779F02D813E814F8158852F5F16
:102E40003F4F4F4F5F4F2D833E834F8358872C0159
:102E50003D01A7CF0FEF1FEF2FEF3FE0B301A2011E
:102E6000C501AADE811117C080E03FC0D301C201B5
:102E70000197A109B1098D839E83AF83B887930120
:102E80008201AC01BD01C50197DE882369F34D8045
:102E90005E806F807884C414D504E604F70430F3B0
:102EA000D1014D915D916D917C9141155105610567
:102EB000710599F4F101C082D182E282F3829920F6
:102EC00099F0FFEFCF1ADF0AEF0AFF0AD501CD9282
:102ED000DD92ED92FC92139707C097018601C50120
:102EE0006BDE8111E7CFC0CF81E060960FB6F8941A
:102EF000DEBF0FBECDBFDF91CF911F910F91FF902D
:102F0000EF90DF90CF90BF90AF909F907F906F90A9
:102F10005F904F903F902F9008950895991B79E00E
:102F200004C0991F961708F0961B881F7A95C9F759
:102F300080950895AA1BBB1B51E107C0AA1FBB1FA8
:102F4000A617B70710F0A61BB70B881F991F5A9535
:102F5000A9F780959095BC01CD010895A1E21A2EA4
:102F6000AA1BBB1BFD010DC0AA1FBB1FEE1FFF1F2D
:102F7000A217B307E407F50720F0A21BB30BE40B7D
:102F8000F50B661F771F881F991F1A9469F76095C4
:102F90007095809590959B01AC01BD01CF0108957E
:102FA000EE0FFF1F881F8BBF0790F691E02D19943D
:102FB0000F931F93CF93DF938230910510F482E03B
:102FC00090E0E0917C09F0917D0920E030E0A0E004
:102FD000B0E0309719F14081518102811381481787
:102FE0005907C8F08417950769F4109731F01296C5
:102FF0000C93129713961C9327C000937C0910938F
:103000007D0922C02115310519F04217530718F424
:103010009A01BD01EF01DF01F801DBCF2115310578
:10302000F9F0281B390B2430310580F48A819B810B
:103030006115710521F0FB019383828304C0909395
:103040007D0980937C09FE01329644C0FE01E20FA7
:10305000F31F8193919322503109398328833AC019
:1030600020917A0930917B09232B41F420910202AF
:103070003091030230937B0920937A09209100025A
:10308000309101022115310541F42DB73EB7409131
:10309000040250910502241B350BE0917A09F0914E
:1030A0007B09E217F307A0F42E1B3F0B2817390703
:1030B00078F0AC014E5F5F4F2417350748F04E0F94
:1030C0005F1F50937B0940937A098193919302C0CB
:1030D000E0E0F0E0CF01DF91CF911F910F910895D3
:1030E000CF93DF93009709F481C0FC0132971382DC
:1030F0001282A0917C09B0917D09109781F4208102
:103100003181820F931F20917A0930917B09281712
:10311000390751F5F0937B09E0937A0967C0ED0117
:1031200020E030E0CE17DF0740F44A815B819E014A
:1031300041155105F1F0EA01F5CFD383C2834081F7
:103140005181840F951FC817D90759F48881998137
:10315000840F951F0296918380838A819B8193833C
:1031600082832115310529F4F0937D09E0937C09D0
:103170003DC0E901FB83EA8349915991C40FD51FF2
:10318000EC17FD0761F480819181840F951F0296F1
:10319000E90199838883828193819B838A83E0E01C
:1031A000F0E012968D919C911397009719F0FD0114
:1031B000DC01F7CF8D919C9111979D012E5F3F4FC0
:1031C000820F931F20917A0930917B0928173907C4
:1031D00069F4309729F410927D0910927C0902C09D
:1031E00013821282B0937B09A0937A09DF91CF9169
:1031F00008956F927F928F929F92AF92BF92CF92DB
:10320000DF92EF92FF920F931F93CF93DF9300977C
:1032100081F4CB01DF91CF911F910F91FF90EF903F
:10322000DF90CF90BF90AF909F908F907F906F90E6
:10323000BFCEFC01E60FF71F9C0122503109E217B7
:10324000F30708F4A5C0EC01D9010D911C91119769
:1032500006171707A8F00530110508F497C0C80134
:1032600004978617970708F491C002501109061BAE
:10327000170B019311936D937C93CF0131DF86C0BF
:103280005B01A01AB10A4C01800E911EA0917C092D
:10329000B0917D09612C712CE12CF12C109709F46F
:1032A00046C08D919C911197A815B905B1F56C0197
:1032B00042E0C40ED11CCA14DB0478F14C018A1818
:1032C0009B08640142E0C40ED11C1296BC90129778
:1032D0001396AC91B5E0CB16D10440F0B282A38333
:1032E00091828082D9016D937C9309C00E5F1F4F3C
:1032F000800F911FF90191838083EB2DFA2FE11448
:10330000F10431F0D7011396FC93EE9312973EC06F
:10331000F0937D09E0937C0939C06816790608F4BA
:103320003C017D0112960D90BC91A02DB7CF8091EC
:103330007A0990917B0988169906E1F4661677065A
:10334000C8F48091000290910102009741F48DB77A
:103350009EB74091040250910502841B950BE8171B
:10336000F907B0F4F0937B09E0937A09F9017183CE
:1033700060830CC0CB011CDE7C01009749F0A801E2
:10338000BE0120D0CE01ACDEC70104C0CE0102C018
:1033900080E090E0DF91CF911F910F91FF90EF902F
:1033A000DF90CF90BF90AF909F908F907F906F9065
:1033B0000895FB01DC0102C005900D924150504080
:1033C000D8F70895FB01DC0102C001900D92415035
:1033D0005040D8F70895FB01DC0101900D920020C8
:1033E000E1F7089511E0C5E2D1E000E005C0802FCB
:1033F000FE01D6DD2196011DC632D10780E0080707
:06340000B1F7F894FFCFC4
:1034060000007E09200053756E646179000000009B
:1034160000004D6F6E646179000000000000547575
:10342600657364617900000000005765646E65731A
:1034360064617900000054687572736461790000F4
:103446000000467269646179000000000000536163
:1034560074757264617900000000DC0ADC0ADC0A1B
:10346600DC0ADC0ADC0ADC0ADC0AFFFFFFFF68650F
:103476006C700D00636F6E6669670D006578697420
:103486000D0073686F770D007364206361726420AA
:10349600696E666F726D6174696F6E730D002A2AAC
:1034A6002A2A2A2A2A2A2A2A2A2A2A2A2A2A2A2A76
:1034B6002A2A2A2A2A2A2A00417574686F72697A8A
:1034C600656420416363657373204F6E6C792021B8
:1034D600210050617373776F72643A00617364669A
:1034E6000D005375636365737366756C6C79206C38
:1034F6006F6767656420696E2E2E0046616C736582
:10350600000A0D55736572204D6F64653A000A0D09
:10351600417661696C61626C6520636F6D6D616E89
:10352600647320666F7220746869732070726F6DA1
:1035360070743A0A0D202D2073686F770D0A202DBE
:1035460020636F6E6669672028746F20656E7465E8
:10355600722074686520636F6E6669677572617440
:10356600696F6E206D6F6465290A0D000A0D536838
:103576006F77204D6F64653A00202D2073642063B9
:1035860061726420696E666F726D6174696F6E73C5
:103596000A0D00646174612E747874000A0D417618
:1035A60061696C61626C6520636F6D6D616E6473D9
:1035B60020666F7220746869732070726F6D707404
:1035C6003A0A0D202D20657869740A0D002A2A2AE8
:1035D600556E6B6E6F776E20636F6D6D616E642CCA
:1035E60020656E746572202768656C702720666F8B
:1035F60072206D6F726520696E666F726D61746997
:103606006F6E73212A2A2A000A0D436F6E66696758
:1036160075726174696F6E204D6F64653A000A0DAC
:10362600417661696C61626C6520636F6D6D616E78
:10363600647320666F7220746869732070726F6D90
:1036460070743A0A0D202D207365740A0D202D2002
:1036560064656C6574650A0D202D20657869742093
:1036660028676574206261636B20746F20757365CB
:1036760072206D6F6465290A0D00436F756C646E68
:1036860027742066696E64205254430052544320C6
:103696006C6F737420706F7765722C206C65747311
:1036A60020736574207468652074696D6521003A1D
:1036B60020000000000039070D07A706D606AB0656
:1036C600B306C70600000000B108230A4408FD0837
:1036D6001608300822080D0A006E616E00696E66D3
:1036E600006F766600000000004F0E650EA706808C
:1036F6000E010F9D0EA60E00000000D814230AA787
:0437060006AA060009
:00000001FF
