S015000077657474657273746174696F6E2E7372656372
S11300005DC100000C9413140C943E140C946914F8
S11300100C9494140C94BF140C94EA140C941515B9
S11300200C9440157CC100007AC1000078C1000026
S113003076C1000074C1000072C1000070C10000EC
S11300406EC100006CC100006AC1000068C10000FC
S113005066C1000064C1000062C100000C946B150D
S11300605EC100000C94ED110C94231258C10000E1
S113007056C1000054C1000052C1000050C100002C
S11300804EC100004CC100004AC1000048C100003C
S113009046C1000044C1000042C100000C94570A4C
S11300A03EC100003CC100003AC1000038C100005C
S11300B036C1000034C1000032C1000030C100006C
S11300C02EC100002CC100002AC1000028C100007C
S11300D026C1000024C1000022C1000020C100008C
S11300E01EC1000007634236B79BD8A71A39685669
S11300F018AEBAAB558C1D3CB7CC5763BD6DEDFD46
S1130100753EF6177231BF000000803F0800000002
S1130110BE922449123EABAAAA2ABECDCCCC4C3EF8
S113012000000080BEABAAAAAA3E00000000BF00E7
S11301300000803F0000000000084178D3BB4387E3
S1130140D1133D190E3CC3BD4282AD2B3E68EC82F7
S113015076BED98FE1A93E4C80EFFFBE01C4FF7F7C
S11301603F00000000009D16A0168F1693169916E6
S1130170D716A416A816AE16B216B616BC16C01616
S1130180C416D716CA16CE16D21600000A0B0209D8
S11301900C0D0E080703040100000000000000001D
S11301A0000000000000000000000000000000004B
S11301B00000000000001211100000000000000008
S11301C0000000000000000000000000000000002B
S11301D00102102020080810204010204080020155
S11301E0020108040201010204081020408080403A
S11301F02010080402018004020180402010080439
S113020002010804020101020408102040800102D6
S1130210040810204080050505050705080808089E
S1130220020202020A0A080804040404010101018A
S11302300101010103030303030303030407070785
S11302400C0C0C0C0C0C0C0C02020202060606062A
S1130250060606060B0B0B0B0B0B0B0B000020000A
S11302602300260029002C002F003200000100008A
S113027003010601090100002200250028002B00CB
S11302802E003100340002010000050108010B01B9
S113029000002100240027002A002D003000330034
S11302A001010000040107010A0190013402E40C79
S11302B0EC0C5512C818B71AAE01430211241FBE24
S11302C0CFEFD1E2DEBFCDBF00E00CBF14E0A0E071
S11302D0B2E0EAE5FBE400E00BBF02C007900D9238
S11302E0A03BB107D9F729E0A0EBB4E001C01D920F
S11302F0AC32B207E1F711E0CCE5D1E000E006C092
S113030021970109802FFE010E94EE21C535D107F6
S113031080E00807A9F70E9483120C949C2570CEF4
S11303206AE172E088EC94E00E94D51760E272E022
S113033082EC94E00E94D51768E272E08CEB94E0C2
S11303400E94D5176EE272E086EB94E00E94D51706
S113035064E372E080EB94E00C94D51780EB94E0B6
S11303600E946A1786EB94E00E946A178CEB94E073
S11303700E946A1782EC94E00E946A1788EC94E069
S11303800C946A1726E040E855E260E070E089E2E8
S113039096E00E94881180ED94E0D3C36DE174E08F
S11303A089E296E00E94CE1280ED94E0D2D3AB01B4
S11303B0BC0122E030E089E296E00E9411146AE276
S11303C074E089E296E00E94D9126DE274E089E259
S11303D096E00E94CE1280ED94E04CD6AB01BC01B5
S11303E022E030E089E296E00E94111460E474E0B7
S11303F089E296E00E94D91263E474E089E296E00F
S11304000E94CE1280ED94E038D4AB01BC0122E00E
S113041030E089E296E00E9411146FE474E089E20E
S113042096E00E94D91264E574E089E296E00E94A5
S1130430CE1240E050E56DE774E480ED94E014D70B
S1130440AB01BC0122E030E089E296E00E94111485
S11304506CE574E089E296E00E94D91260ED77E0E1
S113046080E090E00C94E6150F9304E322E343E369
S113047060E380ED94E036D065E370E08EEC94E0C8
S11304800F910C94E70C8EEC94E00C94EB0C2091FF
S11304902609222399F04FB7F89420912609213098
S11304A059F42DB3209324093DB3209125092095B7
S11304B023232DBB4FBF02C0409324098CBD9DBD97
S11304C0089580912609882361F09FB7F8942091BC
S11304D0260980912409213019F48DBB9FBF08950A
S11304E08FBF08950F93FC01638744872587068790
S11304F00F910895CF92DF92EF92FF920F931F9383
S1130500CF93DF93FC0126852F3F39F46EBD0000A5
S11305100DB407FEFDCF8EB52BC0D62F8C0187E01E
S1130520E82EF12CC0E0CC24C394D12CCC0F60E095
S1130530F80186850E941417B6010E2C01C0660FBF
S11305400A94EAF76D23F80184850E94141761E088
S1130550F80186850E941417F80185850E944217C8
S1130560892B09F0C160F1E0EF1AF108F8F68C2F3D
S1130570DF91CF911F910F91FF90EF90DF90CF907B
S113058008950F931F93CF93DF93EC01162F042F3D
S11305908B858F3F09F56A81888199810E94640C5B
S11305A088819981DC01ED91FC910190F081E02D2D
S11305B0612F199588819981DC01ED91FC9101905D
S11305C0F081E02D602F199588819981DF91CF9179
S11305D01F910F910C94E20C8E858F3F19F482E5E4
S11305E091E055DF60E08B850E941417612F6F77CF
S11305F0CE0180DF602FCE017DDF61E08B850E941C
S113060014178E858F3F29F4DF91CF911F910F919D
S113061058CFDF91CF911F910F910895CF92EF9210
S11306200F93CF93DF93EC016295660F660F607CA6
S113063047702770822F880F880F880F262F242B4E
S1130640282B29AB902F9295990F907E8AA98F71B0
S1130650892B8AAB8E2D8770880F880F880F98A9F5
S1130660292F207C9C2D9770E22EE82AE92AE8AAFB
S1130670402F477062EFCE0184DF98A9492F47705D
S113068060E2469F90011124892F86958695869570
S1130690877068E0869FA0011124422B532B97FB9F
S11306A0992790F9492B65EFCE016BDF99A9492F62
S11306B0477080E2489F90011124892F8695869582
S11306C08695877068E0869FA0011124422B532BE6
S11306D09295969596959370492B64EFCE01DF9190
S11306E0CF910F91EF90CF904CCF1F93CF93DF9387
S11306F0EC01162F8B858F3F21F56A8188819981C2
S11307000E94640C88819981DC01ED91FC91019037
S1130710F081E02D612F1995888199810E94E20C66
S113072041E06A81888199810E94E00C88819981E5
S1130730DC01ED91FC910284F385E02D1995182FCD
S11307401AC08E858F3F19F482E591E0A0DE60E047
S11307508B850E941417612F6068CE01CBDE60E0A8
S1130760CE01C8DE182F61E08B850E9414178E8598
S11307708F3F09F4A6DE812FDF91CF911F91089559
S11307800F931F93CF93DF93EC01162F8B858F3F2D
S113079099F56A81888199810E94640C8881998184
S11307A0DC01ED91FC910190F081E02D612F199510
S11307B0888199810E94E20C42E06A818881998152
S11307C00E94E00C88819981DC01ED91FC91028406
S11307D0F385E02D1995182F88819981DC01ED911D
S11307E0FC910284F385E02D199520E030E0312F4F
S11307F08901082B192B23C08E858F3F19F482E5BC
S113080091E045DE60E08B850E941417612F6068DB
S1130810CE0170DE60E0CE016DDE082F60E0CE0117
S113082069DE202F30E0322F22278901082B61E076
S11308308B850E9414178E858F3F09F442DEC80110
S1130840DF91CF911F910F9108959ADF98278927FF
S1130850982708954F925F926F927F928F929F9202
S1130860AF92BF92CF92DF92EF92FF921F93CF93FA
S1130870DF93EC01162F8B858F3F09F051C06A81FD
S1130880888199810E94640C88819981DC01ED91B1
S1130890FC910190F081E02D612F19958881998157
S11308A00E94E20C43E06A81888199810E94E00CF5
S11308B088819981DC01ED91FC910284F385E02D1E
S11308C019952C01990F66087708762C652C542C01
S11308D0442488819981DC01ED91FC910284F385A3
S11308E0E02D19956C01990FEE08FF08C428D5284E
S11308F0E628F72888249C2CAD2CBE2C888199816D
S1130900DC01ED91FC910284F385E02D19956C01D5
S1130910990FEE08FF08C828D928EA28FB282DC01B
S11309208E858F3F19F482E591E0B1DD60E08B851F
S11309300E941417612F6068CE01DCDD60E0CE01F7
S1130940D9DDC82ED12CE12CF12CFE2CED2CDC2C85
S1130950CC2460E0CE01CEDDC82AFE2CED2CDC2CAC
S1130960CC2460E0CE01C6DDC82A61E08B850E94FC
S113097014178E858F3F09F4A4DDC701B601DF91FA
S1130980CF911F91FF90EF90DF90CF90BF90AF90E9
S11309909F908F907F906F905F904F9008951F93DA
S11309A0CF93DF93EC0168E850DF988B8F876AE878
S11309B0CE014BDF9A8B898B6CE8CE0146DF9C8B92
S11309C08B8B6EE8CE0141DF9E8B8D8B60E9CE016F
S11309D03CDF988F8F8B62E9CE0137DF9A8F898F46
S11309E064E9CE0132DF9C8F8B8F66E9CE012DDF67
S11309F09E8F8D8F68E9CE0128DF98A38F8F6AE9D7
S1130A00CE0123DF9AA389A36CE9CE011EDF9CA348
S1130A108BA36EE9CE0119DF9EA38DA361EACE01FB
S1130A2064DE8FA361EECE0110DF99A788A763EE81
S1130A30CE015BDE8AA764EECE0157DE182F65EE89
S1130A40CE0153DE90E1199F900111248F70282B61
S1130A503CA72BA766EECE0148DE182F65EECE012B
S1130A6044DE90E1199F9001112490E044E09595B3
S1130A7087954A95E1F7822B932B9EA78DA767EE66
S1130A80CE0133DE8FA7DF91CF911F91089563EFDD
S1130A902CDE81700895CF92EF920F93CF93DF9362
S1130AA0EC018B858F3F21F488819981FED618C093
S1130AB061E00E94141761E08B850E94D8168E8530
S1130AC08F3F19F40E9427210BC061E00E94D816C1
S1130AD061E08C850E94D81660E08D850E94D8164E
S1130AE060EDCE0102DE803629F546EB60EECE01E4
S1130AF048DD6CE271E080E090E00E94E615CE01F2
S1130B00C6DF882329F064E670E080E090E0F5CF4A
S1130B10CE0145DFC12CE12C05E025E045E063E092
S1130B20CE017CDD64E670E080E090E00E94E61592
S1130B3081E001C080E0DF91CF910F91EF90CF90E1
S1130B40089527E7FC01228321E735E031832083E0
S1130B50A2CF8F929F92AF92BF92CF92DF92EF92E9
S1130B60FF920F931F93CF93DF93EC016AEF72DE32
S1130B706115710520E88207910509F46DC00F85A0
S1130B80188920E030E0C72ED82EE92EFF24E7FC98
S1130B90FA94C01AD10AE20AF30ADC01CB0157E045
S1130BA0B595A795979587955A95D1F7000F111F7D
S1130BB0221F331F4C015D01801A910AA20AB30A55
S1130BC0A5019401A989BA890E940F224B015C01F5
S1130BD07BE0B594A794979487947A95D1F7A7016D
S1130BE09601C701B6010E94BD219B01AC01ECE056
S1130BF05595479537952795EA95D1F7AB89BC89E3
S1130C000E940F22DC01CB01FEE0B595A7959795D4
S1130C108795FA95D1F7A5019401280F391F4A1F2A
S1130C205B1F2F83388749875A87A5E0B0E00E946D
S1130C300522DC01CB0180589F4FAF4FBF4F692F76
S1130C407A2F8B2F992787FD9A95B8D720E030E02B
S1130C5048EC52E445D704C060E070E080EC9FE7C4
S1130C60DF91CF911F910F91FF90EF90DF90CF9084
S1130C70BF90AF909F908F9008952F923F924F9284
S1130C805F926F927F928F929F92AF92BF92CF9218
S1130C90DF92EF92FF920F931F93CF93DF93CDB721
S1130CA0DEB76A970FB6F894DEBF0FBECDBF9A8F3A
S1130CB0898F4FDF67EF898D9A8DCCDD6D877E87B5
S1130CC08F87988B611571058048910509F4B1C12E
S1130CD0E98DFA8D87819085A185B2856C017D01AE
S1130CE0FF0CCC08DC2C76019C01AD016C2D7C2D15
S1130CF08C2D9C2D345F4140510961097109810992
S1130D00910929833A834B835C836D837E838F832C
S1130D10988759016A017B018C010E941522298759
S1130D203A874B875C876D8B7E8B8F8B988FA98DD1
S1130D30BA8D58963C91589757962C91932F990FAA
S1130D40990B492F592F692F792F892F0E9415222A
S1130D500CE00E943623722E832E942E252E362EDE
S1130D60672E582E492EE98DFA8D328D218D932FC1
S1130D70990F990BA984BA84CB84DC84ED88FE880E
S1130D800F89188D492F592F692F792F892F0E9488
S1130D90152208E00E944F23A72CB82CC92CD22C72
S1130DA0E32CF62C052D142D0E946D2370588F4FC3
S1130DB09F4FA98DBA8D55962D903C905697510111
S1130DC0C12CD12CE12CF12C00E010E00E94152262
S1130DD001E20E944F23322E232E498B5A8B6B8BB8
S1130DE0472E582E9C8BA0E00E947F2309F426C135
S1130DF0E98DFA8D30A1278D932F990F990BA98432
S1130E00BA84CB84DC84ED88FE880F89188D492F41
S1130E10592F692F792F892F0E94152229873A8704
S1130E204B87752E4B018C87692EA98DBA8D5E96E2
S1130E303C915E975D962C91932F990F990BA98005
S1130E40BA80CB80DC80ED80FE800F811885492F2D
S1130E50592F692F792F892F0E94152201E10E94B1
S1130E603623A984BA84CB84D72C74010C85162D1F
S1130E700E946D2359016A017B018983192F4D85D5
S1130E805E856F85788984E0759567955795479554
S1130E908A95D1F780E090E0A0E1B0E0841B950B47
S1130EA0A60BB70B3C014D01990C6608762C430147
S1130EB09C01AD01662D762D862D962D0FE10E94A5
S1130EC0362349013A01B62FA72F8A839B83E98DE4
S1130ED0FA8D348D238D932F990F990B492F592F08
S1130EE0692F792F892F03E20E94362309810E94FA
S1130EF06D2359016A017B018C019401A3016B2FBD
S1130F007A2F8A819B810E947623E5E3AE2EFCE052
S1130F10BF2EC12CD12CE12CF12C00E010E00E945A
S1130F201522A32CB22CC988DA88EB88F42C052D61
S1130F301C890E94682229833A834B835C836D83D6
S1130F407E838F8398870DE00E944F23922E832EF9
S1130F50742E652E562E472E382E292EA98DBA8D25
S1130F6096963C91969795962C91932F990F990B61
S1130F70A92CB82CC72CD62CE52CF42C032D122D1F
S1130F80492F592F692F792F892F0E9415220E94EA
S1130F90152209E10E944F23A980BA80CB80DC800E
S1130FA0ED80FE800F8118850E946D2319012A01AE
S1130FB03B014C01E98DFA8D34A123A1932F990FA4
S1130FC0990B492F592F692F792F892F0E941522A8
S1130FD003E10E944F2359016A017B018C019101B5
S1130FE0A201B301C4010E946D2308E00E944F23B3
S1130FF059016A017B01E82F192FA98DBA8D9296A8
S11310003C91929791962C91932F990F990B492F7C
S1131010592F692F792F892F04E00E9436230E2F30
S11310200E946D23C5D520E030E040E85BE3A0D604
S113103008C060E070E080EC9FE703C060E070E00F
S1131040CB016A960FB6F894DEBF0FBECDBFDF9119
S1131050CF911F910F91FF90EF90DF90CF90BF90B1
S1131060AF909F908F907F906F905F904F903F9044
S11310702F9008954F925F926F927F928F929F92DA
S1131080AF92BF92CF92DF92EF92FF92CF93DF9312
S1131090EC015FDD6DEFCE0173DBA0E0B0E0811504
S11310A020E89207A105B10509F4CBC08F8098848C
S11310B0A984BA843CE2931A31E0A30AB1083EE061
S11310C0880F991FAA1FBB1F3A95D1F74BA55CA5A2
S11310D0052E000C660B770BE4E1440F551F661FC9
S11310E0771FEA95D1F76C017D01C41AD50AE60A87
S11310F0F70AADA5BEA5A50194010E940F22C61A48
S1131100D70AE80AF90A40E4D40EE11CF11CFFE016
S1131110F594E794D794C794FA95D1F7AAA5B0E0CB
S1131120A50194010E9405222B013C01ABE07594BA
S1131130679457944794AA95D1F750E8550E611CCB
S1131140711CAFA50A2E000CBB0BA50194010E94D3
S11311500F22BAE09595879577956795BA95D1F75B
S1131160A30192010E94BD21DC01CB012AE0B595C7
S1131170A795979587952A95D1F79C01AD01405E77
S11311805F4FA8A5B9A50E940F22DC01CB01905E98
S1131190AF4FBF4FBC01CD013EE095958795779544
S11311A067953A95D1F7A70196010E94BD216B017D
S11311B07C014FE095958795779567954A95D1F78A
S11311C09B01AC010E94BD219B01AC0167E05595D8
S11311D04795379527956A95D1F7AFA1B0E00E945E
S11311E00522DC01CB0174E0B595A7959795879509
S11311F07A95D1F7A7019601281B390B4A0B5B0B93
S1131200DA01C90157FF03C080E090E0DC018130BE
S11312109105A10539E1B30724F080E090E0A0E056
S1131220B9E1BC01CD012CE095958795779567953B
S11312302A95D1F7C3D420E030E040E85AE398D5AA
S113124004C060E070E080EC9FE7DF91CF91FF90F5
S1131250EF90DF90CF90BF90AF909F908F907F9052
S11312606F905F904F900895CF92DF92EF92FF922C
S11312706A017B0102DD20E030E048EC52E430D426
S1131280A70196012DD421E03EED42E45EE3D3D5DF
S11312909B01AC0160E070E080E89FE3BCD320E0F8
S11312A03AE24DE257E464D5FF90EF90DF90CF909F
S11312B008951092700581E080936E0510926D057B
S11312C061E084E10E94141761E085E10E94141733
S11312D0E9EBF0E080818E7F808380818D7F808345
S11312E088E48093B80085E48093BC00089541327B
S11312F008F043C0909170059111FCCF91E0909358
S1131300700520936E052FEF209303051092480576
S1131310240F2093470590936F0590916F05880FD4
S1131320892B80936F0580916D05813061F4109253
S11313306D0580916F058093BB008091BC0083FD97
S1131340F8CF85EC01C085EE8093BC0080917005D8
S11313508130E1F380914805841710F440914805E9
S1131360A9E4B5E0962FFB018E2F891B841718F48E
S11313708D918193F9CF842F089580E008950F9380
S1131380413208F04AC0909170059111FCCF32E0CF
S11313903093700500936E053FEF30930305109270
S11313A0480540934705562FA9E4B5E0FB013E2FBD
S11313B0351B341718F431913D93F9CF10926F0512
S11313C030916F05880F832B80936F0580916D0595
S11313D0813061F410926D0580916F058093BB009C
S11313E08091BC0083FDF8CF85EC01C085EE80932D
S11313F0BC00222321F0809170058230D1F38091CA
S113140003058F3F79F080910305803241F080918C
S11314100305803331F094E005C091E003C092E00D
S113142001C093E0892F0F91089540912505262F3F
S113143030E0240F311D21323105DCF42091700598
S11314402430C9F4FC0180E090E0861758F4309110
S113145025052191DC01A95DBA4FA30FB11D2C9381
S11314600196F3CF80912505680F6093250580E0F0
S1131470089581E0089582E0089590936A05809329
S11314806905089590936C0580936B05089585ED27
S11314908093BC008091BC0084FDFCCF1092700549
S11314A0089585EC8093BC001092700508951F92F6
S11314B00F920FB60F9211240BB60F922F933F93F6
S11314C04F935F936F937F938F939F93AF93BF9348
S11314D0EF93FF938091B900887F803609F49DC013
S11314E070F5883209F45CC090F4803109F455C079
S11314F038F4882309F4F3C0883009F44EC0F2C0EC
S1131500883109F44DC0803209F45EC0EBC08034E8
S113151009F469C050F4803309F456C0883309F0E3
S1131520E1C080930305BDDFDDC0803509F44FC001
S1131530883509F45DC0883409F0D4C0D2C0883934
S113154009F4C3C0A8F4883709F467C038F48836AE
S113155009F463C0803709F460C0C4C0883809F452
S1131560B4C0803909F45FC0803809F0BBC05BC0E7
S1131570803B09F482C038F4803A09F466C0883AA2
S113158009F47BC0AFC0803C09F4A3C0883C09F4D3
S1131590A0C0883B09F486C0A5C080916F0510C027
S11315A09091480580914705981770F5E09148059A
S11315B081E08E0F80934805F0E0E75BFA4F80816D
S11315C08093BB0085EC82C0809303058AC0E091C0
S11315D0480581E08E0F809348058091BB00F0E0C0
S11315E0E75BFA4F808390914805809147056AC074
S11315F0E091480581E08E0F809348058091BB00FF
S1131600F0E0E75BFA4F808380916E05811169C039
S113161081E080936D0584EA5DC083E0809370056A
S113162010920405CFCF80910405803208F04DC09C
S1131630E091040581E08E0F809304058091BB0046
S1131640F0E0EB5FFA4F8083BDCF2BDF8091040580
S1131650803230F4E0910405F0E0EB5FFA4F108241
S11316606091040570E0E0916905F0916A0585E0F8
S113167095E019951092040535C084E080937005B7
S11316801092260510922505E0916B05F0916C05EA
S1131690199580912505811105C081E08093250568
S11316A010922705E091260581E08E0F8093260590
S11316B0F0E0E95DFA4F80818093BB0090912605AC
S11316C080912505981708F47DCF85E88093BC00A8
S11316D009C085EC8093BC001092700503C0109281
S11316E00305D5DEFF91EF91BF91AF919F918F914B
S11316F07F916F915F914F913F912F910F900BBE0E
S11317000F900FBE0F901F90189580E090E0089501
S113171008958091A50590E02091A605821B91096A
S113172008959091A6058091A505981750F4E92F86
S1131730F0E0E955FA4F208130E09F5F9093A605D1
S113174002C02FEF3FEFC9010895E091A6058091F3
S1131750A505E81730F4F0E0E955FA4F808190E0F0
S113176008958FEF9FEF08950895CF93DF93EC01D1
S1131770E0917D05F0917E053097F1F09091A605FA
S11317808091A5059817C0F090E0292F30E0261726
S1131790370754F4DE01A20FB31F4C91D901A955A8
S11317A0BA4F4C939F5FF1CF1092A6056093A505A5
S11317B0CB01DF91CF911994DF91CF910895E091FE
S11317C07F05F0918005309729F0109283051092DF
S11317D0820519940895CF92DF92EF92FF920F93AE
S11317E01F93CF93DF937C01CB018A012091810564
S11317F0222389F0EB016B01C40ED51ECC15DD0547
S113180061F06991D701ED91FC910190F081E02D97
S1131810C7011995F3CF642F08DEC801DF91CF917A
S11318201F910F91FF90EF90DF90CF900895CF9389
S1131830DF931F92CDB7DEB7698320918105222300
S1131840D1F020918205203240F021E030E0FC010B
S11318503383228380E090E014C080918305E82FD5
S1131860F0E0EC57FA4F998190838F5F8093830562
S11318708093820504C061E0CE010196D6DD81E04B
S113188090E00F90DF91CF910895FC0113821282B2
S113189088EE93E0A0E0B0E084839583A683B783C9
S11318A083E694E09183808308951092A6051092B4
S11318B0A5051092830510928205FBDC8FED9BE059
S11318C0E1DD85EB9BE0D9CD81E0809381056093D8
S11318D0A405109283051092820508950F93062F94
S11318E021E04091820564E875E08091A40547DD1C
S11318F01092830510928205109281050F9108952C
S11319004F925F926F927F92AF92BF92CF92EF927B
S1131910FF920F931F93CF93DF935C01F62ED42F86
S113192028013901EE2011F1CFDFCE2DC43008F0AB
S1131930C3E0C150C0F028E0C29FC0011124A3013C
S1131940920104C056954795379527958A95D2F705
S1131950CA01B901D501ED91FC910190F081E02D0E
S1131960C5011995E6CF60E0C501B8DF4D2FD1322E
S113197008F040E22C2D67EA75E08F2DB8DC109258
S1131980A6058093A505DF91CF911F910F91FF903C
S1131990EF90CF90BF90AF907F906F905F904F90FB
S11319A00895CF92EF920F931F93C22EE12C00E083
S11319B010E09801A5DF1F910F91EF90CF9008954B
S11319C021E0EFCF61E08ACF81E795E05ECFFC01B3
S11319D071836083089508958EE096E00E946818EC
S11319E0E2E0F6E01582168211861386E4EEF5E055
S11319F082E090E0A0E0B0E080839183A283B3838F
S1131A00178AE7ECF5E01382128288EA94E0918366
S1131A108083158208955058BB27AA270ED06EC123
S1131A205FD130F064D120F031F49F3F11F41EF403
S1131A3044C10EF4E095E7FB3AC1E92F70D180F37D
S1131A40BA17620773078407950718F071F49EF5B7
S1131A5088C10EF4E0950B2EBA2FA02D0B01B9010D
S1131A6090010C01CA01A0011124FF27591B99F010
S1131A70593F50F4503E68F11A16F040A22F232F1C
S1131A80342F4427585FF3CF469537952795A7956C
S1131A90F0405395C9F77EF41F16BA0B620B730B13
S1131AA0840BBAF09150A1F0FF0FBB1F661F771F84
S1131AB0881FC2F70EC0BA0F621F731F841F48F439
S1131AC0879577956795B795F7959E3F08F0B3CFBF
S1131AD09395880F08F09927EE0F979587950895A9
S1131AE00CD00CC104D140F0FBD030F021F45F3FA6
S1131AF019F0DDC0511136C1E0C011D198F399231A
S1131B00C9F35523B1F3951B550BBB27AA276217BD
S1131B107307840738F09F5F5F4F220F331F441F02
S1131B20AA1FA9F333D00E2E3AF0E0E830D091503A
S1131B305040E695001CCAF729D0FE2F27D0660F27
S1131B40771F881FBB1F261737074807AB07B0E866
S1131B5009F0BB0B802DBF01FF2793585F4F2AF07C
S1131B609E3F510568F0A3C0FDC05F3FECF3983E73
S1131B70DCF3869577956795B795F7959F5FC9F7D9
S1131B80880F911D9695879597F90895E1E0660F62
S1131B90771F881FBB1F621773078407BA0720F0DB
S1131BA0621B730B840BBA0BEE1F88F7E095089544
S1131BB097FB0EF485D03EC0E89409C097FB3EF431
S1131BC090958095709561957F4F8F4F9F4F992386
S1131BD0A9F0F92F96E9BB279395F6958795779504
S1131BE06795B795F111F8CFFAF4BB0F11F460FFC4
S1131BF01BC06F5F7F4F8F4F9F4F16C0882311F01C
S1131C0096E911C0772321F09EE8872F762F05C02F
S1131C10662371F096E8862F70E060E02AF09A95CA
S1131C20660F771F881FDAF7880F9695879597F9BF
S1131C300895E894F92F96EBFF2381F0121613060A
S1131C401406440B9395F695879577956795579564
S1131C504040FF23B9F71BC099270895882351F406
S1131C609850D2F7872B762F652F542F432F322F7E
S1131C7020E0B1F3121613061406440B88233AF03D
S1131C809A95440F551F661F771F881FCAF755235F
S1131C904AF4440F551F11F460FF04C06F5F7F4F77
S1131CA08F4F9F4F880F9695879597F9089597F9C9
S1131CB09F6780E870E060E008959FEF80EC0895EE
S1131CC090958095709560955095409530952195A7
S1131CD03F4F4F4F5F4F6F4F7F4F8F4F9F4F089531
S1131CE000240A94161617061806090608950024F7
S1131CF00A9412161306140605060895092E039471
S1131D00000C11F4882352F0BB0F40F4BF2B11F4E4
S1131D1060FF04C06F5F7F4F8F4F9F4F089557FD43
S1131D209058440F551F59F05F3F71F04795880F45
S1131D3097FB991F61F09F3F79F0879508951216DC
S1131D4013061406551FF2CF4695F1DF08C0161688
S1131D5017061806991FF1CF869571056105089439
S1131D600895E894BB2766277727CB0197F9089550
S1131D700BD0C4CFB5DF28F0BADF18F0952309F0F3
S1131D8096CF9BCF1124EECFCADFA0F3959FD1F35A
S1131D90950F50E0551F629FF001729FBB27F00D15
S1131DA0B11D639FAA27F00DB11DAA1F649F66276A
S1131DB0B00DA11D661F829F2227B00DA11D621FB9
S1131DC0739FB00DA11D621F839FA00D611D221F73
S1131DD0749F3327A00D611D231F849F600D211D57
S1131DE0822F762F6A2F11249F5750408AF0E1F0FA
S1131DF088234AF0EE0FFF1FBB1F661F771F881F43
S1131E0091505040A9F79E3F510570F050CFAACF92
S1131E105F3FECF3983EDCF3869577956795B7952D
S1131E20F795E7959F5FC1F7FE2B880F911D969557
S1131E30879597F90895FA01EE0FFF1F3096210553
S1131E40310599F16115710561F48038BFE39B0791
S1131E5049F168949038810561F08038BFEF9B07A1
S1131E6041F0992342F5FF3FE1053105210511F1C8
S1131E70E8940894E795D901AA2329F4AB2FBE2F3F
S1131E80F85FD0F310C0FF5F70F4A695E0F7F73960
S1131E9050F019F0FF3A38F49F779F930CD00F90CD
S1131EA007FC905808953EF008CF60E070E080E8A9
S1131EB09FE308954FE79F775F934F933F932F934B
S1131EC09ED02F913F914F915F9152DF05C019F43D
S1131ED00EF0EDCE46CFF1CE2ADFC8F39638C0F728
S1131EE007F80F92E8942BE33AEA48EB5FE74EDFFA
S1131EF00F920F920F924DB75EB70F92C0D0E4EEDF
S1131F00F0E016D04F915F91EF91FF91E595EE1FB0
S1131F10FF1F49F0FE57E0684427EE0F441FFA956F
S1131F20E1F74195550B32D00F9007FE26C0089576
S1131F30DF93CF931F930F93FF92EF92DF927B0176
S1131F408C01689405C0DA2EEF011EDFFE01E894CF
S1131F50A5912591359145915591AEF3EF016DDD34
S1131F60FE019701A801DA9479F7DF90EF90FF90D2
S1131F700F911F91CF91DF9108959B01AC0160E017
S1131F8070E080E89FE3ACCD92CEACC0D0DEE8F345
S1131F909923D9F3940F511DBBF39150504094F001
S1131FA059F0882332F0660F771F881F91505040F4
S1131FB0C1F79E3F510544F7880F911D969587956B
S1131FC097F908955F3FACF0983E9CF0BB27869547
S1131FD077956795B79508F4B1609395C1F7BB0FF2
S1131FE058F711F460FFE8CF6F5F7F4F8F4F9F4F1B
S1131FF0E3CFB8CE0EF076C060CE689458CE97DEAC
S1132000C8F39923D1F3C6F3DF93CF931F930F93B0
S1132010FF92C92FDD2788232AF02197660F771FA7
S1132020881FDAF720E030E040E85FEB9FE388396F
S113203020F0803E30F021968F77EEDCECE0F1E08A
S113204003C0EADCE9E3F1E073DF8B01BE01EC01DC
S1132050FB2E6F5771097595771F880B990BAEDDB1
S113206028E132E741E35FE38FDEAF2D9801AE0153
S1132070FF900F911F91CF91DF91DFDC3FCEFA01EA
S1132080DC01AA0FBB1F9B01AC01BF5728F4222718
S11320903327442750781FC0B75188F4AB2F00244E
S11320A0469537952795011CA395D2F3002069F036
S11320B0220F331F441FB395DAF30DD0ACCC61303B
S11320C07105A0E88A07B94630F49B01AC01662784
S11320D0772788279078309621F0208331834283B4
S11320E0538308959F3F31F0915020F4879577955D
S11320F06795B795880F911D9695879597F90895DB
S1132100FC01918D228D892F90E0805C9F4F821B72
S113211091098F7399270895FC01918D828D9817E9
S113212031F0828DE80FF11D858D90E008958FEFD9
S11321309FEF0895FC01918D828D981761F0828D37
S1132140DF01A80FB11D5D968C91928D9F5F9F73E7
S1132150928F90E008958FEF9FEF0895FC01538DC7
S1132160448D252F30E0842F90E0821B930B54176D
S113217010F0CF960895019708958CE492E1892B8D
S113218039F080E090E0892B19F086D1811125C0C7
S113219080E090E0892B41F080E090E0892B21F0F1
S11321A00E94000081111CC080E090E0892B41F066
S11321B080E090E0892B21F00E940000811113C07F
S11321C080E090E0892BA1F080E090E0892B81F001
S11321D00E94000081110AC008950E940000D8CF17
S11321E00E940000E1CF0E940000EACF0C9400009E
S11321F00895FC01848DDF01A80FB11DA35ABF4FC0
S11322002C91848D90E001968F739927848FA689F1
S1132210B7892C93A089B1898C91837080648C9345
S1132220938D848D981306C00288F389E02D8081F4
S11322308F7D80830895EF92FF920F931F93CF9326
S1132240DF93EC0181E0888F9B8D8C8D981305C002
S1132250E889F989808185FD25C0F62E0B8D10E073
S11322600F5F1F4F0F731127E02E8C8DE8120BC0E8
S11322700FB607FCFACFE889F989808185FFF5CF8D
S1132280CE01B7DFF2CF8B8DFE01E80FF11DE35ACB
S1132290FF4FF0829FB7F8940B8FEA89FB89808106
S11322A080620AC09FB7F894EE89FF896083E88949
S11322B0F98980818370806480839FBF81E090E08E
S11322C0DF91CF911F910F91FF90EF900895CF93DD
S11322D0DF93EC01888D8823C1F0EA89FB89808132
S11322E085FD05C0A889B9898C9186FD0EC00FB6FD
S11322F007FCF5CF808185FFF2CFA889B9898C913D
S113230085FFEDCFCE0175DFE8CFDF91CF91089542
S1132310CF92DF92EF92FF921F93CF93DF93EC0162
S11323206A017B01122FE889F98982E080834115D3
S1132330514E61057105B1F060E079E08DE390E004
S1132340A70196010E94CC21DA01C9010197A109D4
S1132350B109B695A795979587959C01211580E1BC
S11323603807A8F0E889F989108260E874E88EE1FA
S113237090E0A70196010E94CC21DA01C9010197DE
S1132380A109B109B695A795979587959C01EC8508
S1132390FD853083EE85FF852083188EEC89FD89C9
S11323A01083EA89FB89808180618083EA89FB89C3
S11323B0808188608083EA89FB898081806880834A
S11323C0EA89FB8980818F7D8083DF91CF911F9182
S11323D0FF90EF90DF90CF9008951F920F920FB669
S11323E00F9211240BB60F922F938F939F93EF9319
S11323F0FF93E0913906F0913A068081E0913F061F
S1132400F091400682FD12C09081809142068F5F58
S11324108F7320914306821751F0E0914206F0E059
S1132420E75DF94F958F8093420601C08081FF914B
S1132430EF919F918F912F910F900BBE0F900FBE34
S11324400F901F9018951F920F920FB60F921124A0
S11324500BB60F922F933F934F935F936F937F939A
S11324608F939F93AF93BF93EF93FF9389E296E08B
S1132470C0DEFF91EF91BF91AF919F918F917F91BA
S11324806F915F914F913F912F910F900BBE0F90E1
S11324900FBE0F901F90189589E296E031DE21E07F
S11324A0892B09F420E0822F0895E9E2F6E01382F3
S11324B0128288EE93E0A0E0B0E084839583A68343
S11324C0B78385E794E09183808385EC90E09587DA
S11324D0848784EC90E09787868780EC90E0918BEA
S11324E0808B81EC90E0938B828B82EC90E0958BD7
S11324F0848B86EC90E0978B868B118E128E138ED4
S1132500148E089508959CD3FDDF0E94C201CDEB83
S1132510D0E10E94CE012097E1F32FDEFACFCF92D3
S1132520DF92EF92FF920F931F93CF93DF936C018F
S11325307A018B01C0E0D0E0CE15DF0581F0D8012F
S11325406D918D01D601ED91FC910190F081E02D0A
S1132550C6011995892B11F02196EECF7E01C70192
S1132560DF91CF911F910F91FF90EF90DF90CF906B
S113257008956115710579F0FB0101900020E9F7D8
S11325803197AF01461B570BDC01ED91FC910280A2
S1132590F381E02D199480E090E00895EACFDC0106
S11325A0ED91FC910190F081E02D199463E874E0C1
S11325B0E0CF0F931F93CF93DF93EC01DADF8C010D
S11325C0CE01F4DF800F911FDF91CF911F910F9106
S11325D008958F929F92AF92BF92EF92FF920F93C2
S11325E01F93CF93DF93CDB7DEB7A1970FB6F894BF
S11325F0DEBF0FBECDBF7C01FA01CB0119A2223090
S113260008F42AE08E010F5D1F4F822E912CA12C1D
S1132610B12CBF01A50194010E94CC21F901CA018A
S1132620015011096A3010F4605D01C0695CD80181
S11326306C93232B242B252B61F7B801C70199DF59
S1132640A1960FB6F894DEBF0FBECDBFDF91CF9138
S11326501F910F91FF90EF90BF90AF909F908F903C
S113266008952115310541F4DC01ED91FC910190AF
S1132670F081E02D642F1994ACCF9A01AB0160E096
S113268070E0EFCF7F928F929F92AF92BF92CF92E2
S1132690DF92EF92FF920F931F93CF93DF938C01FE
S11326A06A017B01722E9A01AB01C701B6010E9437
S11326B0B921882319F066E874E027C04601570160
S11326C0E894B7F82FEF3FEF4FE75FE7C501B40198
S11326D00E94B92181110DC02FEF3FEF4FE75FE753
S11326E0C501B4010E945E2118161CF46AE874E066
S11326F00CC02FEF3FEF4FE75FE4C701B6010E9424
S1132700B52118168CF46EE874E0C801DF91CF91FE
S11327101F910F91FF90EF90DF90CF90BF90AF90FB
S11327209F908F907F9025CF2FEF3FEF4FE75FEC87
S1132730C701B6010E945E2187FDE5CF20E030E0AD
S1132740A901C701B6010E945E2187FF09C06DE29D
S1132750C80125DFEC01F7FAF094F7F8F09402C011
S1132760C0E0D0E0B12C60E070E080E09FE37B1437
S113277039F020E030E040E251E4B2D9B394F7CF2D
S1132780A701960149D96B017C010E9462214B018A
S11327905C012AE0AB01BC01C8011BDFC80FD91FD3
S11327A0772081F1C501B40107DA9B01AC01C701AF
S11327B0B60131D96B017C016EE2C801F0DEC80FAD
S11327C0D91F20E030E040E251E4C701B601D0DA7D
S11327D04B015C010E9462216B017C014AE050E0E4
S11327E0C8014BDFC80FD91FB60180E090E0E4D9DF
S11327F09B01AC01C501B4010ED96B017C017A9433
S11328007110DFCFCE01DF91CF911F910F91FF9017
S1132810EF90DF90CF90BF90AF909F908F907F907C
S1132820089530CF08951F920F920FB60F9211247E
S11328300BB60F922F933F934F935F936F937F93B6
S11328408F939F93AF93BF93EF93FF93E0910A020B
S1132850F0910B021995FF91EF91BF91AF919F9168
S11328608F917F916F915F914F913F912F910F9035
S11328700BBE0F900FBE0F901F9018951F920F92D2
S11328800FB60F9211240BB60F922F933F934F93D1
S11328905F936F937F938F939F93AF93BF93EF93C4
S11328A0FF93E0910C02F0910D021995FF91EF91C5
S11328B0BF91AF919F918F917F916F915F914F9154
S11328C03F912F910F900BBE0F900FBE0F901F9052
S11328D018951F920F920FB60F9211240BB60F92F8
S11328E02F933F934F935F936F937F938F939F9314
S11328F0AF93BF93EF93FF93E0910E02F0910F0219
S11329001995FF91EF91BF91AF919F918F917F9115
S11329106F915F914F913F912F910F900BBE0F904C
S11329200FBE0F901F9018951F920F920FB60F9223
S113293011240BB60F922F933F934F935F936F9392
S11329407F938F939F93AF93BF93EF93FF93E09104
S11329501002F09111021995FF91EF91BF91AF917F
S11329609F918F917F916F915F914F913F912F91A3
S11329700F900BBE0F900FBE0F901F9018951F92D3
S11329800F920FB60F9211240BB60F922F933F9311
S11329904F935F936F937F938F939F93AF93BF9363
S11329A0EF93FF93E0910602F09107021995FF91CE
S11329B0EF91BF91AF919F918F917F916F915F91B3
S11329C04F913F912F910F900BBE0F900FBE0F9020
S11329D01F9018951F920F920FB60F9211240BB6E9
S11329E00F922F933F934F935F936F937F938F93A4
S11329F09F93AF93BF93EF93FF93E0910802F091FD
S1132A0009021995FF91EF91BF91AF919F918F9119
S1132A107F916F915F914F913F912F910F900BBEDA
S1132A200F900FBE0F901F9018951F920F920FB624
S1132A300F9211240BB60F922F933F934F935F93F2
S1132A406F937F938F939F93AF93BF93EF93FF9372
S1132A50E0911202F09113021995FF91EF91BF9149
S1132A60AF919F918F917F916F915F914F913F9122
S1132A702F910F900BBE0F900FBE0F901F901895C3
S1132A801F920F920FB60F9211240BB60F922F9331
S1132A903F934F935F936F937F938F939F93AF93E2
S1132AA0BF93EF93FF93E0911402F09115021995EF
S1132AB0FF91EF91BF91AF919F918F917F916F9112
S1132AC05F914F913F912F910F900BBE0F900FBECE
S1132AD00F901F9018951F920F920FB60F9211240A
S1132AE02F933F938F939F93AF93BF938091C70688
S1132AF09091C806A091C906B091CA063091C60645
S1132B0023E0230F2D3720F40196A11DB11D05C02C
S1132B1026E8230F0296A11DB11D2093C6068093BB
S1132B20C7069093C806A093C906B093CA068091BD
S1132B30CB069091CC06A091CD06B091CE0601961D
S1132B40A11DB11D8093CB069093CC06A093CD0616
S1132B50B093CE06BF91AF919F918F913F912F91EA
S1132B600F900FBE0F901F9018952FB7F894609197
S1132B70C7067091C8068091C9069091CA062FBFF6
S1132B8008953FB7F8948091CB069091CC06A0911C
S1132B90CD06B091CE0626B5A89B05C02F3F19F0EF
S1132BA00196A11DB11D3FBFBA2FA92F982F8827C9
S1132BB0820F911DA11DB11DBC01CD0142E0660F24
S1132BC0771F881F991F4A95D1F708958F929F9276
S1132BD0AF92BF92CF92DF92EF92FF926B017C0192
S1132BE0D0DF4B015C01C114D104E104F104F9F01C
S1132BF00E945D21C6DFDC01CB0188199909AA096D
S1132C00BB09883E9340A105B10568F321E0C21ACF
S1132C10D108E108F10888EE880E83E0981EA11C13
S1132C20B11CC114D104E104F10421F7DCCFFF90FD
S1132C30EF90DF90CF90BF90AF909F908F900895CA
S1132C40789484B5826084BD84B5816084BD85B583
S1132C50826085BD85B5816085BDEEE6F0E080814A
S1132C6081608083E1E8F0E010828081826080836B
S1132C70808181608083E0E8F0E0808181608083EE
S1132C80E1EBF0E0808184608083E0EBF0E0808120
S1132C9081608083E1E9F0E08081826080838081CB
S1132CA081608083E0E9F0E0808181608083E1EAF3
S1132CB0F0E0808182608083808181608083E0EAAB
S1132CC0F0E0808181608083E1E2F1E080818260D4
S1132CD08083808181608083E0E2F1E08081816093
S1132CE08083EAE7F0E08081846080838081826071
S1132CF0808380818160808380818068808310925A
S1132D00C100089590E0FC013197E231F10508F02B
S1132D104EC08827ED54FF4F8F4F0C94EE218091C5
S1132D2080008F7703C0809180008F7D8093800026
S1132D30089580918000877FF9CF84B58F7702C092
S1132D4084B58F7D84BD08958091B0008F7703C0D2
S1132D508091B0008F7D8093B000089580919000A1
S1132D608F7707C0809190008F7D03C08091900081
S1132D70877F8093900008958091A0008F7707C08B
S1132D808091A0008F7D03C08091A000877F8093F5
S1132D90A0000895809120018F7707C080912001C1
S1132DA08F7D03C080912001877F80932001089547
S1132DB0CF93DF9390E0FC01E053FE4F2491FC019C
S1132DC0EA5EFD4F8491882361F190E0880F991F9A
S1132DD0FC01E057FD4FC591D491FC01EA58FD4F29
S1132DE0A591B491611109C09FB7F8948881209589
S1132DF082238883EC912E230BC0623061F49FB749
S1132E00F8948881322F309583238883EC912E2B7C
S1132E102C939FBF06C08FB7F894E8812E2B28838C
S1132E208FBFDF91CF9108951F93CF93DF93282F06
S1132E3030E0F901E657FE4F8491F901E053FE4F6B
S1132E40D491F901EA5EFD4FC491CC23B9F0162F59
S1132E50811158DFEC2FF0E0EE0FFF1FEA58FD4F11
S1132E60A591B4919FB7F894111104C08C91D09599
S1132E70D82302C0EC91DE2BDC939FBFDF91CF916E
S1132E801F910895CF93DF93282F30E0F901E6577F
S1132E90FE4F8491F901E053FE4FD491F901EA5EAB
S1132EA0FD4FC491CC2389F081112CDFEC2FF0E08D
S1132EB0EE0FFF1FE45AFD4FA591B491EC91ED2361
S1132EC081E090E021F480E002C080E090E0DF91B6
S1132ED0CF910895FC01808191810C942324CF9398
S1132EE0DF93EC0188819981009711F00E942324DB
S1132EF0198218821D821C821B821A82DF91CF9153
S1132F0008950F931F93CF93DF93EC018B016F5FB1
S1132F107F4F888199810E94AC24009731F0998376
S1132F2088831B830A8381E001C080E0DF91CF9115
S1132F301F910F910895CF93DF93EC0188819981BC
S1132F40892B29F08A819B818617970758F4CE0133
S1132F50D8DF882341F08C819D81892B19F4E88185
S1132F60F981108281E0DF91CF910895EF92FF9271
S1132F700F931F93CF93DF93EC017B018A01BA0176
S1132F80DADF811103C0CE01AADF07C01D830C83E1
S1132F90B701888199810E949525CE01DF91CF9157
S1132FA01F910F91FF90EF900895FC011182108200
S1132FB013821282158214826115710549F0FB0196
S1132FC001900020E9F73197AF01461B570BCECF94
S1132FD00895CF93DF931F92CDB7DEB76983DC01E9
S1132FE0ED91FC910280F381E02D41E050E0BE01BF
S1132FF06F5F7F4F19950F90DF91CF910895CF9315
S1133000DF93EC01898D9A8D009739F481E090E08B
S11330109B838A8380E090E00AC0FC0113821282C1
S1133020C7D4E98DFA8D22813381232B79F7DF917F
S1133030CF910895FC01818D928D009709F073C49E
S11330400895CF93DF931F92CDB7DEB741E050E0F0
S1133050BE016F5F7F4FCFD2019719F4898190E051
S113306002C08FEF9FEF0F90DF91CF910895FC0185
S1133070818D928D009709F0E4CF8FEF9FEF089533
S11330800F931F93CF93DF93FC01818D928D009753
S1133090A9F0EF01D6DF8C010F3F8FEF180789F0FD
S11330A0898D9A8DFC0142855385648575854150CF
S11330B0510961097109A1D3C80105C080E090E0FC
S11330C002C08FEF9FEFDF91CF911F910F91089571
S11330D0FC011382128288EE93E0A0E0B0E08483C6
S11330E09583A683B78386E994E091838083128EC7
S11330F0118E14860895DC015996ED91FC915A972E
S1133100309729F0628573858485958508956FEFDE
S11331107FEFCB010895DC015996ED91FC915A970C
S1133120309729F06389748985899689089560E0C8
S113313070E0CB010895CF92DF92EF92FF92CF938C
S1133140DF93FC01218D328D232BC9F0EC01E3DFE9
S11331506B017C01CE01CFDFA7019601261B370B43
S1133160480B590BDA01C901811530E89307A10511
S1133170B10538F08FEF9FE7A0E0B0E002C080E037
S113318090E0DF91CF91FF90EF90DF90CF90089582
S1133190EFECF6E0158216821186138682E090E049
S11331A0A0E0B0E084879587A687B78713A215A609
S11331B014A688EA94E093A782A717A608959FB758
S11331C0F8942091260980912409213019F48DBBAB
S11331D09FBF08958FBF08958EBD00000DB407FEF4
S11331E0FDCF8EB508958FEFF7CF61E0FC018481A8
S11331F01BDE80911807882331F010921807809104
S113320026098111DCCF0895CF93DF93EC018091DF
S11332101807811109C081E080931807809119076C
S113322090911A070E94470260E08C81DF91CF9150
S1133230FBCDCF93DF93EC018E81882379F08F81CE
S113324098859C012F5F3F4F38872F8382309240AF
S113325010F4C9DFF4CFCE01C8DF1E82DF91CF9115
S113326008950F931F93CF93DF93EB017EDC8B01C3
S1133270BADF8F3F41F079DC601B710B6C177D075F
S1133280B8F380E001C081E0DF91CF911F910F91ED
S113329008958F929F92AF92BF92FF920F931F93C4
S11332A0CF93DF93EC01F62E49015A01C2DFCE0120
S11332B0ABDF6CE271E0CE01D4DF8F2D80648CDF54
S11332C008E110E0D501C401002E04C0B695A7950D
S11332D0979587950A94D2F77FDF08501109083F24
S11332E08FEF180779F7FF2029F088E0F81204C05F
S11332F087E803C085E901C08FEF6EDF10E073DF5C
S11333008A8787FF04C01F3F11F01F5FF8CFDF914A
S1133310CF911F910F91FF90BF90AF909F908F908E
S113332008950F931F93CF93DF93EC011EDC8B0161
S11333305ADF8A878F3F41F418DC601B710B6D32B2
S11333407140B0F38FE003C08E3F31F08DE08D8388
S1133350CE014BDF80E001C081E0DF91CF911F916E
S11333600F910895CF92DF92EF92FF920F931F93E4
S1133370CF93DF93EC016901C801820F931F813061
S1133380924008F057C08E81882371F0888199811A
S1133390AA81BB8184179507A607B70729F48F81F3
S11333A09885C816D90600F5488359836A837B83B8
S11333B08B85833039F089E0440F551F661F771FD2
S11333C08A95D1F79A01AB0161E1CE0162DF8823CE
S11333D019F083E08D832EC0CE01A3DF882351F141
S11333E018861F8281E08E838F8198858C159D05B8
S11333F038F4F9DE8F819885019698878F83F4CF0E
S11334006701E00EF11ECE14DF0429F0ECDEF601B4
S113341081936F01F8CF8F819885080F191F188742
S11334200F838985882319F00115124038F0CE01E5
S113343000DF04C0CE01D9DE80E001C081E0DF916D
S1133440CF911F910F91FF90EF90DF90CF9008954F
S1133450EF92FF920F931F930115110511F082DF74
S113346001C081E01F910F91FF90EF900895EF92BA
S1133470FF920F931F93790100E012E020E030E007
S113348071DF1F910F91FF90EF900895EF92FF92DB
S11334900F931F93CF93DF938C01862F7A019CDEC9
S11334A0E7018EEFF81A899197DECE15DF05D9F77B
S11334B08FEF92DE8FEF90DE96DEF80182878F71B8
S11334C0853031F081E18583C8018FDE80E001C061
S11334D081E0DF91CF911F910F91FF90EF900895BC
S11334E00F931F93CF93DF93EC018901411551058D
S11334F06105710511F482E12DC08B85833039F0AB
S113350089E0440F551F661F771F8A95D1F79A01EA
S1133510AB0168E1CE01BDDE882311F084E01AC05E
S1133520A8016EEFCE01B2DF8823A9F068E572E04E
S1133530CE0197DE811102C085E10CC020E030E0AD
S1133540A9016DE0CE01A5DE811103C04CDE882304
S113355031F084E18D83CE0148DE80E003C0CE01EA
S113356044DE81E0DF91CF911F910F910895E9E14D
S1133570F7E080E5808311820895CF93DF93EC0117
S11335809C012A5F3F4F41E050E060E070E08B8D8A
S11335909C8D4CD58823A1F08F89988DA98DBA8DE7
S11335A0892B8A2B8B2B59F48E819F81A885B98511
S11335B08F8B988FA98FBA8F8C8180688C8381E0E0
S11335C0DF91CF910895CF93DF93EC01462F6E8561
S11335D07F8588899989CFD3882341F08A8920E21D
S11335E0829FC00111248C5D984F02C080E090E05E
S11335F0DF91CF9108952F923F924F925F926F92F5
S11336007F928F929F92AF92BF92CF92DF92EF926E
S1133610FF920F931F93CF93DF93EC015B014A0159
S11336208D81811103C08FEF9FEFD4C08C8180FF07
S1133630FACF4B885C886D887E884A855B856C856B
S11336407D85C401A0E0B0E093018201041B150B49
S1133650260B370B081719072A073B0718F44201F2
S1133660841A950A24011E0126E0220E311C4114FD
S1133670510409F47DC04A855B856C857D856A01AA
S113368081E0D822ED818B8D9C8D8A019B01F9E02C
S11336903695279517950795FA95D1F7E23061F499
S11336A0FC01828D938DA48DB58DBC01CD01600F7D
S11336B0711F821F931F3EC0FC0174807A94702294
S11336C0C114D104C1F4711016C0452B462B472BED
S11336D049F48F89988DA98DBA8D8E839F83A8878D
S11336E0B98709C04E815F816885798591017CD352
S11336F0882309F498CFEB8DFC8D8E819F81A8855A
S1133700B9850297A109B109058404C0880F991FDE
S1133710AA1FBB1F0A94D2F7468557856089718911
S1133720840F951FA61FB71FBC01CD01670D711D26
S1133730811D911D20E032E02C193D093201241530
S1133740350508F439012C8126FD04C06114F2E02A
S11337507F0671F50091160210911702209118024C
S113376030911902601771078207930719F420C07A
S1133770C40130C0750183019601AB01BC01809185
S113378022079091230764DE882309F44CCFA60C0A
S1133790B71C8A859B85AC85BD85860D971DA11DAB
S11337A0B11D8A879B87AC87BD87461857085FCFB2
S11337B040E0E1D2882309F436CFF601EC5DF84FFE
S11337C0D501CF01860D971D8E179F0701F3219117
S11337D02D93FACFDF91CF911F910F91FF90EF902E
S11337E0DF90CF90BF90AF909F908F907F906F901D
S11337F05F904F903F902F9008958F929F92AF9239
S1133800BF92CF92DF92EF92FF920F931F93CF93C9
S1133810DF93EC018D81811102C080E077C00B89B8
S11338201C892D893E890417150726073707A8F335
S11338306A017B01823029F4CA86DB86EC86FD8628
S11338400DC0C114D104E104F10451F41E821F829D
S1133850188619861A861B861C861D8681E056C02A
S11338608A849B84AC84BD84EB8DFC8D258530E0FB
S1133870275F3F4FB501A401415051096109710906
S1133880022E04C076956795579547950A94D2F70A
S1133890D701C6010197A109B10904C0B695A7953E
S11338A0979587952A95D2F784179507A607B707A2
S11338B020F089288A288B2871F44F89588D698DC6
S11338C07A8D4E835F83688779874C015D018E0111
S11338D00A5F1F4F15C0841B950BA60BB70BF5CFC2
S11338E04E815F816885798598018B8D9C8D7CD212
S11338F091E0891A9108A108B108882309F48DCFB1
S113390081149104A104B10459F796CFDF91CF91AA
S11339101F910F91FF90EF90DF90CF90BF90AF90E9
S11339209F908F9008950F931F93CF93DF93EC0193
S11339308D818823B9F18C8187FF2FC061E0CE018E
S113394042DE8C01892B71F18D81823048F48B89A0
S11339509C89AD89BE89F801848F958FA68FB78F16
S11339608F89988DA98DBA8DF801938F828FB58B2D
S1133970A48BE0911B07F0911C07309759F0B80114
S11339806A5E7F4FC80148961995F801808D918D24
S1133990938B828B8C818F778C83DF91CF911F9156
S11339A00F91B0C180E0DF91CF911F910F910895E5
S11339B02F923F924F925F926F927F928F929F923B
S11339C0AF92BF92CF92DF92EF92FF920F931F9329
S11339D0CF93DF9300D01F92CDB7DEB78C016B017C
S11339E01A01DC0115968C9115978130C1F4149657
S11339F08C9181FF14C082FF1CC0F8014389548953
S1133A006589768982859385A485B585841795070C
S1133A10A607B70771F0C801F0DE81110AC081E082
S1133A2090E0D80113969C938E93129780E090E0D7
S1133A3042C1410182C05B968D919C915C97FC01CF
S1133A4074802FEF270D2A013B0139E076946794A7
S1133A50579447943A95D1F7722E74207A01F1E085
S1133A60FF22772009F475C080E092E08E199F0947
S1133A7054018815990508F45C01D8015B962D91D1
S1133A803C915C9716968D919D910D90BC91A02DC3
S1133A900297A109B109F901058404C0880F991F8F
S1133AA0AA1FBB1F0A94D2F746855785608971897E
S1133AB0840F951FA61FB71F9C01AD01270D311D53
S1133AC0411D511D29013A01A11432E0B30609F048
S1133AD085C08091160290911702A0911802B091AE
S1133AE01902481659066A067B0659F48FEF9FEFB0
S1133AF0DC018093160290931702A0931802B093EE
S1133B0019029601B301A201809122079091230723
S1133B10E7DC882309F483CF9EEFD91A8A189B081F
S1133B20F80182859385A485B5858A0D9B1DA11D09
S1133B30B11D82879387A487B587D8011A964D91C2
S1133B405D916D917C911D978114910409F073CF5F
S1133B5083C0E114F10409F087CF16964D915D916D
S1133B606D917C911997411551056105710559F4C1
S1133B7057968D919D910D90BC91A02D0097A10514
S1133B80B10531F520C09E012F5F3F4F2DD1882311
S1133B9009F44DCF89819A81AB81BC81F801238DD1
S1133BA0348DF9012789203129F048EF5FEF6FEF59
S1133BB07FE004C048EF5FEF60E070E08417950792
S1133BC0A607B70728F0C801D8DC81114DCF27CF4D
S1133BD0F80186839783A087B18746CFE114F10467
S1133BE021F5D8011A964D915D916D917C911D97A7
S1133BF053968D919D910D90BC91A02D4817590716
S1133C006A077B0790F07ED0882309F408CF40929E
S1133C101602509217026092180270921902809153
S1133C20210781608093210707C041E0C301B201ED
S1133C30A2D0882309F4F3CED601F701EC5DF84F46
S1133C409F012A0D3B1D2E173F0719F08D9181937B
S1133C50FACFCA0CDB1C62CFD8015396CD90DD900D
S1133C60ED90FC90569714968C91C416D506E606F2
S1133C70F70640F4F801438B548B658B768B806890
S1133C8084830DC020911B0730911C07232B39F02E
S1133C902114310421F08068D80114968C93F80122
S1133CA0848183FD02C0C10106C0C8013CDE8823B3
S1133CB009F4B5CEF8CF0F900F900F900F90DF91CD
S1133CC0CF911F910F91FF90EF90DF90CF90BF9015
S1133CD0AF909F908F907F906F905F904F903F90A8
S1133CE02F900895CF93DF931F92CDB7DEB76983EA
S1133CF041E050E0BE016F5F7F4F5ADE0F90DF91CD
S1133D00CF91089580912107882399F1409116025B
S1133D1050911702609118027091190224E237E061
S1133D208091220790912307DBDB811102C080E0A0
S1133D30089540911D0750911E0760911F077091CF
S1133D402007411551056105710589F024E237E02A
S1133D508091220790912307C3DB882341F31092BB
S1133D601D0710921E0710921F0710922007109231
S1133D70210781E00895CF92DF92EF92FF92CF93D3
S1133D806B017C01C42F8091160290911702A091BF
S1133D901802B09119028C159D05AE05BF05C1F03E
S1133DA0B1DF811102C080E019C024E237E0B7011D
S1133DB0A601809122079091230759DB882399F368
S1133DC0C0921602D0921702E0921802F0921902E1
S1133DD080912107C82BC093210781E0CF91FF90E8
S1133DE0EF90DF90CF9008958F929F92AF92BF9201
S1133DF0CF92DF92EF92FF920F931F93CF93DF93B3
S1133E00FC0181859285A385B4850196A11DB11D10
S1133E1084179507A607B70710F480E05AC0838873
S1133E209488A588B6888789803129F4BB27A72F71
S1133E30962F852F09C0DB01CA01C7E0B695A79567
S1133E4097958795CA95D1F7E9016A017B018F019E
S1133E50BC01CD01680D791D8A1D9B1D8090160241
S1133E6090901702A0901802B09019026815790575
S1133E708A059B0591F4F8018789803199F4DD2442
S1133E80EE24FF24C601880F991FFC01EC5DF84F56
S1133E9080819181A0E0B0E017C040E06CDF811127
S1133EA0EACFBBCFE894C7F8DD24EE24FF24C60193
S1133EB0880F991F880F991FFC01EC5DF84F8081D2
S1133EC09181A281B381BF7088839983AA83BB83C4
S1133ED081E0DF91CF911F910F91FF90EF90DF90E0
S1133EE0CF90BF90AF909F908F9008954F925F9224
S1133EF06F927F928F929F92AF92BF92CF92DF92F6
S1133F00EF92FF920F931F93CF93DF93EC01423014
S1133F1051056105710510F480E077C089859A85A3
S1133F20AB85BC850196A11DB11D84179507A60715
S1133F30B70790F3CB88DC88ED88FE888F898031C1
S1133F4029F4BB27A72F962F852F09C0DB01CA01AF
S1133F50E7E0B695A79597958795EA95D1F7480137
S1133F6059012A013B01C80ED91EEA1EFB1E80918D
S1133F70160290911702A0911802B0911902C81666
S1133F80D906EA06FB0681F48F898031A1F4B301D6
S1133F90A201552766277727440F551FFA01EC5DC8
S1133FA0F84F9182808218C040E0C701B601E3DE79
S1133FB08111EACFB1CFB301A2014F77552766270C
S1133FC07727440F551F440F551FFA01EC5DF84F36
S1133FD080829182A282B382809121078160809342
S1133FE021078A89823080F08D819E81AF81B885D6
S1133FF0C80ED91EEA1EFB1EC0921D07D0921E07D2
S1134000E0921F07F092200781E0DF91CF911F918A
S11340100F91FF90EF90DF90CF90BF90AF909F9063
S11340208F907F906F905F904F9008952F923F9262
S11340304F925F926F927F929F92AF92BF92CF9274
S1134040DF92EF92FF920F931F93CF93DF93CDB73D
S1134050DEB760970FB6F894DEBF0FBECDBF5C012C
S113406049875A876B877C871901D901CD90DD90E8
S1134070ED90FC90C114D104E104F10431F0BFEFE0
S1134080CB1ADB0AEB0AFB0A10C0FC01C080D1800A
S1134090E280F3809924939409851A852B853C85C5
S11340A0013011052105310509F0912CF5018185B7
S11340B09285A385B4858C019D010F5F1F4F2F4FFF
S11340C03F4F0D871E872F87388B260137011D82AE
S11340D01E821F821886F50181859285A385B48589
S11340E00D811E812F813885081719072A073B0780
S11340F008F054C02D853E854F8558892415350513
S11341004605570550F482E0482E512C612C712C41
S113411092E0C92ED12CE12CF12C9E012F5F3F4F50
S1134120B301A201C50160DE8823C1F149815A812E
S11341306B817C81D301C2010196A11DB11D452B68
S1134140462B472B19F06C017D010FC0AC01BD015A
S11341504C195D096E097F0909851A852B853C85F3
S1134160041715072607370779F02D813E814F8103
S113417058852F5F3F4F4F4F5F4F2D833E834F83B3
S113418058872C013D01A7CF0FEF1FEF2FEF3FE022
S1134190B301A201C501AADE811117C080E03FC0AE
S11341A0D301C2010197A109B1098D839E83AF8315
S11341B0B88793018201AC01BD01C50197DE882354
S11341C069F34D805E806F807884C414D504E6045E
S11341D0F70430F3D1014D915D916D917C914115BE
S11341E051056105710599F4F101C082D182E28221
S11341F0F382992099F0FFEFCF1ADF0AEF0AFF0A42
S1134200D501CD92DD92ED92FC92139707C09701F0
S11342108601C5016BDE8111E7CFC0CF81E06096D6
S11342200FB6F894DEBF0FBECDBFDF91CF911F91C3
S11342300F91FF90EF90DF90CF90BF90AF909F9041
S11342407F906F905F904F903F902F900895CF9301
S1134250CFB7F89480912709811127C0EBE4F2E0ED
S11342608491E5E0F2E09491E82FF0E0EE0FFF1F77
S1134270E057FD4FA591B491EC91E92321F461E05D
S113428085E30E94141761E085E30E94D8168CB57B
S113429080618CBD8CB580648CBD61E084E30E9438
S11342A0D81661E083E30E94D816809127098F5FB6
S11342B080932709CFBFCF910895089532D008F491
S11342C081E008950E94970E88F09F5798F0B92FC7
S11342D09927B751B0F0E1F0660F771F881F991F37
S11342E01AF0BA95C9F714C0B13091F00E94B10E1A
S11342F0B1E008950C94B10E672F782F8827B85F2A
S113430039F0B93FCCF3869577956795B395D9F78E
S11343103EF490958095709561957F4F8F4F9F4F98
S11343200895990F0008550FAA0BE0E8FEEF161642
S11343301706E807F907C0F012161306E407F50795
S113434098F0621B730B840B950B39F40A2661F009
S1134350232B242B252B21F408950A2609F4A140AC
S1134360A6958FEF811D811D0895DBDF08F48FEF83
S11343700895D7DF880B990B0895DB018F939F93E2
S113438044D0BF91AF91A29F800D911DA39F900D2A
S1134390B29F900D11240895A1E21A2EAA1BBB1BF3
S11343A0FD010DC0AA1FBB1FEE1FFF1FA217B307FD
S11343B0E407F50720F0A21BB30BE40BF50B661F13
S11343C0771F881F991F1A9469F7609570958095D7
S11343D090959B01AC01BD01CF010895EE0FFF1F25
S11343E0881F8BBF0790F691E02D1994A29FB0010E
S11343F0B39FC001A39F700D811D1124911DB29F15
S1134400700D811D1124911D0895F0DFA59F900D5D
S1134410B49F900DA49F800D911D11240895B7FFA2
S1134420F4CFF3DF821B930B0895DF93CF931F9395
S11344300F939A9DF02D219FF00D8B9DF00D8A9D79
S1134440E02DF10D039FF00D029FE00DF11D4E9D37
S1134450E00DF11D5E9DF00D4F9DF00D7F936F9368
S1134460BF92AF925F934F93D501C0DF8B01AC0134
S1134470D701BCDFEB01E80FF91FD6011FD02F9144
S11344803F91D601B3DFC60FD71FE81FF91FAF91C5
S1134490BF9114D02F913F91A9DFC60FD71FE81FFA
S11344A0F91FD601A3DFE60FF71F9801BE01CF0164
S11344B011240F911F91CF91DF91089597DF460F3B
S11344C0571FC81FD91F08F431960895689401C076
S11344D0E894F92FF12B0AF027C0A0E0B0E0E2E75E
S11344E0F2E293C0092E05941AF479D0112392F4C0
S11344F0F0E80F26FFEFE094F09400951095B09447
S1134500C094D094A194BF0ACF0ADF0AEF0AFF0A2D
S11345100F0B1F0B13D007FC62D0CDB7DEB7ECE056
S113452090C0689401C0E8948F929F92CF93DF93D8
S113453005D0DF91CF919F908F900895882499247E
S1134540F401E401B0E49F93AA279A158B049C0418
S1134550ED05FE05CF05D007A10798F4AD2FDC2F9C
S1134560CF2FFE2FE92D982C892E982F872F762F69
S1134570652F542F432F322F2227B85031F7BF9184
S113458027C01B2EBF91BB27220F331F441F551F6B
S1134590661F771F881F991F881C991CEE1FFF1F19
S11345A0CC1FDD1FAA1FBB1F8A149B04EC05FD054D
S11345B0CE05DF05A007B10748F08A189B08EC096F
S11345C0FD09CE09DF09A00BB10B21601A94E1F6B5
S11345D02EF49401AF01BE01CD01000C0895609545
S11345E070958095909530954095509521953F4FC5
S11345F04F4F5F4F6F4F7F4F8F4F9F4F08952F92B5
S11346003F924F925F926F927F928F929F92AF925E
S1134610BF92CF92DF92EF92FF920F931F93CF93AB
S1134620DF93CDB7DEB7CA1BDB0B0FB6F894DEBF42
S11346300FBECDBF19942A88398848885F846E8458
S11346407D848C849B84AA84B984C884DF80EE80B2
S1134650FD800C811B81AA81B981CE0FD11D0FB6BB
S1134660F894DEBF0FBECDBFED0108950F9308305F
S113467090F0982F872F762F652F542F432F322FAA
S113468022270850F4CF220F331F441F551F661FE3
S1134690771F881F991F0A95B2F70F91089597FB0A
S11346A010F8169400080F93083098F00850232F40
S11346B0342F452F562F672F782F892F902DF4CF25
S11346C00594979587957795679557954795379569
S11346D027950A95AAF70F9108952A0D3B1D4C1DA5
S11346E05D1D6E1D7F1D801F911F08952A193B09B2
S11346F04C095D096E097F09800B910B0895002414
S1134700A7FD00942A173005400550056005700583
S11347108005900508950F931F93CF93DF93823004
S1134720910510F482E090E0E0912A09F0912B09C0
S113473020E030E0A0E0B0E0309719F140815181F1
S11347400281138148175907C8F08417950769F443
S1134750109731F012960C93129713961C9327C05E
S113476000932A0910932B0922C02115310519F051
S11347704217530718F49A01BD01EF01DF01F80154
S1134780DBCF21153105F9F0281B390B2430310515
S113479080F48A819B816115710521F0FB0193836B
S11347A0828304C090932B0980932A09FE013296D8
S11347B044C0FE01E20FF31F81939193225031090B
S11347C0398328833AC02091280930912909232B61
S11347D041F420910202309103023093290920937D
S11347E0280920910002309101022115310541F47C
S11347F02DB73EB74091040250910502241B350B9E
S1134800E0912809F0912909E217F307A0F42E1B7F
S11348103F0B2817390778F0AC014E5F5F4F241720
S1134820350748F04E0F5F1F50932909409328091C
S11348308193919302C0E0E0F0E0CF01DF91CF914A
S11348401F910F910895CF93DF93009709F481C0CE
S1134850FC01329713821282A0912A09B0912B098C
S1134860109781F420813181820F931F20912809B0
S1134870309129092817390751F5F0932909E09354
S1134880280967C0ED0120E030E0CE17DF0740F4CF
S11348904A815B819E0141155105F1F0EA01F5CF92
S11348A0D383C28340815181840F951FC817D907D0
S11348B059F488819981840F951F0296918380838E
S11348C08A819B81938382832115310529F4F09396
S11348D02B09E0932A093DC0E901FB83EA8349914E
S11348E05991C40FD51FEC17FD0761F480819181A4
S11348F0840F951F0296E9019983888382819381AD
S11349009B838A83E0E0F0E012968D919C9113974B
S1134910009719F0FD01DC01F7CF8D919C9111975F
S11349209D012E5F3F4F820F931F209128093091E4
S113493029092817390769F4309729F410922B09AB
S113494010922A0902C013821282B0932909A093FB
S11349502809DF91CF9108956F927F928F929F9251
S1134960AF92BF92CF92DF92EF92FF920F931F9379
S1134970CF93DF93009781F4CB01DF91CF911F9107
S11349800F91FF90EF90DF90CF90BF90AF909F90EA
S11349908F907F906F90BFCEFC01E60FF71F9C01B4
S11349A022503109E217F30708F4A5C0EC01D9013C
S11349B00D911C91119706171707A8F005301105E2
S11349C008F497C0C80104978617970708F491C0A4
S11349D002501109061B170B019311936D937C93DD
S11349E0CF0131DF86C05B01A01AB10A4C01800EF1
S11349F0911EA0912A09B0912B09612C712CE12CF4
S1134A00F12C109709F446C08D919C911197A8152B
S1134A10B905B1F56C0142E0C40ED11CCA14DB0423
S1134A2078F14C018A189B08640142E0C40ED11C41
S1134A301296BC9012971396AC91B5E0CB16D104A4
S1134A4040F0B282A38391828082D9016D937C93DA
S1134A5009C00E5F1F4F800F911FF901918380835E
S1134A60EB2DFA2FE114F10431F0D7011396FC93E6
S1134A70EE9312973EC0F0932B09E0932A0939C0B4
S1134A806816790608F43C017D0112960D90BC91DC
S1134A90A02DB7CF809128099091290988169906ED
S1134AA0E1F466167706C8F4809100029091010241
S1134AB0009741F48DB79EB74091040250910502CE
S1134AC0841B950BE817F907B0F4F0932909E093D8
S1134AD02809F901718360830CC0CB011CDE7C01C1
S1134AE0009749F0A801BE0117D0CE01ACDEC70182
S1134AF004C0CE0102C080E090E0DF91CF911F910D
S1134B000F91FF90EF90DF90CF90BF90AF909F9068
S1134B108F907F906F900895FB01DC0102C001909B
S1134B200D9241505040D8F70895FB01DC010190EB
S1134B300D920020E1F7089511E0CCE5D1E000E00A
S1134B4005C0802FFE014ADC2196011DCE35D10718
S10D4B5080E00807B1F7F894FFCFE6
S1134B5A00002C0920001214121412141214121434
S1134B6A121412141214FFFFFFFF68656C700D0013
S1134B7A636F6E6669670D00657869740D00736802
S1134B8A6F770D007364206361726420696E666FC7
S1134B9A726D6174696F6E730D002A2A2A2A2A2A91
S1134BAA2A2A2A2A2A2A2A2A2A2A2A2A2A2A2A2A57
S1134BBA2A2A2A00417574686F72697A65642041E9
S1134BCA6363657373204F6E6C79202121005061F1
S1134BDA7373776F72643A00617364660D00537578
S1134BEA636365737366756C6C79206C6F6767654C
S1134BFA6420696E2E2E0046616C7365000A0D5599
S1134C0A736572204D6F64653A000A0D41766169D5
S1134C1A6C61626C6520636F6D6D616E647320668E
S1134C2A6F7220746869732070726F6D70743A0AB7
S1134C3A0D202D2073686F770D0A202D20636F6E67
S1134C4A6669672028746F20656E746572207468BB
S1134C5A6520636F6E66696775726174696F6E2029
S1134C6A6D6F6465290A0D000A0D53686F77204D2C
S1134C7A6F64653A00202D20736420636172642096
S1134C8A696E666F726D6174696F6E730A0D000ADC
S1134C9A0D417661696C61626C6520636F6D6D614B
S1134CAA6E647320666F7220746869732070726F01
S1134CBA6D70743A0A0D202D20657869740A0D0006
S1134CCA2A2A2A556E6B6E6F776E20636F6D6D613B
S1134CDA6E642C20656E746572202768656C702773
S1134CEA20666F72206D6F726520696E666F726DD1
S1134CFA6174696F6E73212A2A2A000A0D436F6E42
S1134D0A66696775726174696F6E204D6F64653A7E
S1134D1A000A0D417661696C61626C6520636F6D8E
S1134D2A6D616E647320666F722074686973207093
S1134D3A726F6D70743A0A0D202D207365740A0D12
S1134D4A202D2064656C6574650A0D202D20657814
S1134D5A69742028676574206261636B20746F200C
S1134D6A75736572206D6F6465290A0D0054656D4B
S1134D7A706572617475723A200020430072656C22
S1134D8A2E204C756674666575636874653A2000EE
S1134D9A2025004C756674647275636B3A20002092
S1134DAA6850610048C3B668653A2000206D000067
S1134DBA000000170CEB0B850BB40B890B910BA5A8
S1134DCA0B000000001B118F12AE10671180109A9D
S1134DDA108C100D0A006E616E00696E66006F76A3
S1134DEA660000000000E917FF17850B1A189B18C4
S1134DFA3718401800000000721E8F12850B880BAA
S9030000FC
