:1000000088C100000C94EF210C941A220C94452214
:100010000C9470220C949B220C94C6220C94F12216
:100020000C941C230C94AA150C94AA150C94AA15D4
:10003000A1C100009FC100009DC100009BC1000044
:1000400099C1000097C1000095C1000093C1000054
:1000500091C100008FC100008DC100000C944723A6
:1000600089C100000C94331F0C94691F83C10000E8
:1000700081C100007FC100007DC100007BC1000084
:1000800079C1000077C1000075C1000073C1000094
:1000900071C100006FC100006DC100000C942617F3
:1000A00069C1000067C1000065C1000063C10000B4
:1000B00061C100005FC100005DC100005BC10000C4
:1000C00059C1000057C1000055C1000053C10000D4
:1000D00051C100004FC100004DC100004BC10000E4
:1000E00049C1000034144B144B1448144B143214FF
:1000F0004B144B144B1426144B144B143B14461442
:1001000044144B144B144B14421407634236B79BF0
:10011000D8A71A39685618AEBAAB558C1D3CB7CC67
:100120005763BD6DEDFD753EF6177231BF000000DF
:10013000803F08000000BE922449123EABAAAA2AC2
:10014000BECDCCCC4C3E00000080BEABAAAAAA3EDD
:1001500000000000BF000000803F00000000000819
:100160004178D3BB4387D1133D190E3CC3BD4282B6
:10017000AD2B3E68EC8276BED98FE1A93E4C80EF74
:10018000FFBE01C4FF7F3F0000000000C921932192
:100190009B21A721B421D521E2219E24A1249024D2
:1001A00094249A24D824A524A924AF24B324B724C2
:1001B000BD24C124C524D824CB24CF24D324446512
:1001C0006320333120323031380031353A34313A1E
:1001D0003135001F1C1F1E1F1E1F1F1E1F1E1F004C
:1001E000000A0B02090C0D0E0807030401000000B1
:1001F00000000000000000000000000000000000FF
:1002000000000000000000000000001211100000BB
:1002100000000000000000000000000000000000DE
:1002200000000000000102102020080810204010EB
:1002300020408002010201080402010102040810AA
:1002400020408080402010080402018004020180C8
:1002500040201008040201080402010102040810F1
:100260002040800102040810204080050505050794
:100270000508080808020202020A0A080804040421
:10028000040101010101010101030303030303034D
:1002900003040707070C0C0C0C0C0C0C0C020202DC
:1002A0000206060606060606060B0B0B0B0B0B0BCF
:1002B0000B000020002300260029002C002F003214
:1002C00000000100000301060109010000220025D1
:1002D0000028002B002E0031003400020100000530
:1002E0000108010B0100002100240027002A002D35
:1002F000003000330001010000040107010A010081
:10030000AF05F6074409B219211A9B1FB527E72A42
:10031000360811241FBECFEFD1E2DEBFCDBF00E013
:100320000CBF16E0A0E0B2E0E8EEFFE600E00BBF95
:1003300002C007900D92A230B107D9F72BE0A2E0DE
:10034000B6E001C01D92A030B207E1F711E0C8E8A5
:10035000D1E000E006C021970109802FFE010E9434
:10036000EA33C038D10780E00807A9F70E94C91F07
:100370000C94E33745CE25E0AC01249FC001259FB6
:10038000900D1124BC01990F880B990B0E94FC1A47
:1003900020E030EC4FE754E40C948E1A0895CF928D
:1003A000DF92EF92FF92CF93DF93EC016A017B0122
:1003B0006BEF73E00E94D72520E030E0A901C70170
:1003C000B6010E94FA1B18166CF423EC35EF48E2D4
:1003D0005FE3C701B6010E948A1A18161CF06FE687
:1003E00072E058C123EC35EF48E25FE3C701B60184
:1003F0000E94FA1B18166CF422E538EB4EE55FE319
:10040000C701B6010E948A1A18161CF061E772E053
:1004100041C122E538EB4EE55FE3C701B6010E941A
:10042000FA1B18166CF426E636E646E85FE3C701C9
:10043000B6010E948A1A18161CF063E772E02AC1FE
:1004400026E636E646E85FE3C701B6010E94FA1BDE
:1004500018166CF42DE33AE047E95FE3C701B601F3
:100460000E948A1A18161CF067E772E013C12DE388
:100470003AE047E95FE3C701B6010E94FA1B18168C
:100480006CF42FE135E84BEA5FE3C701B6010E9447
:100490008A1A18161CF064E772E0FCC02FE135E8F8
:1004A0004BEA5FE3C701B6010E94FA1B18166CF411
:1004B00023EC35EF48EC5FE3C701B6010E948A1ACE
:1004C00018161CF06BE772E0E5C023EC35EF48EC42
:1004D0005FE3C701B6010E94FA1B18166CF425E809
:1004E0003BEE41E050E4C701B6010E948A1A18169B
:1004F0001CF06FE772E0CEC025E83BEE41E050E42F
:10050000C701B6010E94FA1B18166CF42BE734E100
:100510004EE250E4C701B6010E948A1A18161CF078
:1005200060E972E0B7C02BE734E14EE250E4C70166
:10053000B6010E94FA1B18166CF42DE33AE047E46A
:1005400050E4C701B6010E948A1A18161CF061E82F
:1005500072E0A0C02DE33AE047E450E4C701B601E1
:100560000E94FA1B18166CF42FE832EC45E550E4B3
:10057000C701B6010E948A1A18161CF06CE772E0D7
:1005800089C02FE832EC45E550E4C701B6010E946E
:10059000FA1B18166CF421E73DE34AE650E4C70164
:1005A000B6010E948A1A18161CF065E872E072C043
:1005B00021E73DE34AE650E4C701B6010E94FA1B79
:1005C00018166CF426EF38E24CE750E4C701B60188
:1005D0000E948A1A18161CF069E872E05BC026EFC8
:1005E00038E24CE750E4C701B6010E94FA1B181626
:1005F0006CF426E636E646E850E4C701B6010E94F0
:100600008A1A18161CF06BE872E044C026E636E63B
:1006100046E850E4C701B6010E94FA1B18166CF4B4
:100620002DE33AE04FE850E4C701B6010E948A1A70
:1006300018161CF066E872E02DC02DE33AE04FE892
:1006400050E4C701B6010E94FA1B18166CF424E1AD
:100650003EEA47E950E4C701B6010E948A1A18161B
:100660001CF067E872E016C024E13EEA47E950E476
:10067000C701B6010E94FA1B18167CF420E030E096
:1006800040EA50E4C701B6010E948A1A18162CF0FD
:100690006FE872E0CE010E945326CE01DF91CF9128
:1006A000FF90EF90DF90CF900895089508959F9266
:1006B000AF92BF92CF92DF92EF92FF920F931F9370
:1006C000CF93DF9300D01F921F92CDB7DEB7CB013F
:1006D000BA010E94FA1A20E030E040EA50E40E9499
:1006E0008E1A2AE939E949E150E40E94FE1B6B01A8
:1006F0007C0126E636E646E650E40E948E1A062F76
:10070000972E5C012DEC3CEC4CE45EE3C701B60196
:100710000E948A1A18160CF0F1C02DEC3CEC4CE447
:100720005EE3C701B6010E94FA1B18165CF420E0D4
:1007300030E040EC5FE3C701B6010E948A1A181648
:100740000CF0DEC020E030E040EC5FE3C701B60112
:100750000E94FA1B18165CF423E333E343E550E4EC
:10076000C701B6010E948A1A18160CF0CBC023E309
:1007700033E343E550E4C701B6010E94FA1B1816A3
:100780005CF42DEC3CEC4CEA50E4C701B6010E944D
:100790008A1A18160CF0B8C02DEC3CEC4CEA50E468
:1007A000C701B6010E94FA1B18165CF42DEC3CEC54
:1007B0004CEF50E4C701B6010E948A1A18160CF0DB
:1007C000A5C02DEC3CEC4CEF50E4C701B6010E94F3
:1007D000FA1B18165CF423E333E34BE251E4C70140
:1007E000B6010E948A1A18160CF092C023E333E374
:1007F0004BE251E4C701B6010E94FA1B18165CF4E3
:100800002DEC3CEC4CE551E4C701B6010E948A1A7C
:1008100018160CF07FC02DEC3CEC4CE551E4C70100
:10082000B6010E94FA1B18165CF42DEC3CEC48E86B
:1008300051E4C701B6010E948A1A18160CF06CC068
:100840002DEC3CEC48E851E4C701B6010E94FA1BCC
:1008500018165CF42AE939E945EA51E4C701B60102
:100860000E948A1A18160CF059C02AE939E945EA9B
:1008700051E4C701B6010E94FA1B18165CF423E389
:1008800033E343EC51E4C701B6010E948A1A1816FB
:100890000CF046C023E333E343EC51E4C701B60157
:1008A0000E94FA1B181654F423E333E343EE51E499
:1008B000C701B6010E948A1A1816A4F523E333E390
:1008C00043EE51E4C701B6010E94FA1B181654F416
:1008D00026E636E642E052E4C701B6010E948A1AD3
:1008E000181614F526E636E642E052E4C701B601D2
:1008F0000E94FA1B1816CCF41CE017C010E015C0BB
:1009000011E013C012E011C013E00FC014E00DC0DD
:1009100015E00BC016E009C017E007C018E005C0DD
:1009200019E003C01AE001C01BE0802F992DD5010A
:1009300089839A83AB83BC83202F3A814B815C816E
:10094000612F70E080E090E00F900F900F900F907B
:100950000F90DF91CF911F910F91FF90EF90DF905B
:10096000CF90BF90AF909F900895CB01BA010E94A5
:10097000FA1A2AE239EB4DEB53E40E94FE1B20E009
:1009800030E040EA50E40C948E1A089580910606F7
:1009900090910706A0910806B09109060196A11D45
:1009A000B11D8093060690930706A0930806B093A6
:1009B000090608958091020690910306A09104060D
:1009C000B09105060196A11DB11D8093020690937A
:1009D0000306A0930406B09305060895823051F0F3
:1009E000833051F09EEE980F943040F497E1981BBD
:1009F000892F05C080E003C081E001C08FEF43E094
:100A000050E066EC74E00C947B21823051F083302E
:100A100051F09EEE980F943040F497E1981B892F87
:100A200005C080E003C081E001C08FEF43E050E0EB
:100A30006AED74E00C947B216091060670910706C4
:100A400080910806909109061092060610920706FA
:100A5000109208061092090608956091020670919E
:100A600003068091040690910506109202061092EA
:100A7000030610920406109205060895089508953D
:100A800061E08AE096E00E94651062E08AE096E00C
:100A90000C943912CF93DF93EC018AE096E00E9428
:100AA0002D12811107C067E173E08DEF97E00E947E
:100AB0002420FFCFCE01E4DF62E773E08DEF97E003
:100AC000DF91CF910C942F20CF92DF92EF92FF9283
:100AD0000F931F93CF93DF93CDB7DEB7A4970FB6D5
:100AE000F894DEBF0FBECDBF8C01BE016F5F7F4F9C
:100AF0008AE096E00E946113CD88DE88EF88F88C4A
:100B000020E030E0A901C701B6010E948A1A8823BB
:100B100031F0F801C082D182E282F38206C064E93A
:100B200073E08DEF97E00E942F20A4960FB6F89403
:100B3000DEBF0FBECDBFDF91CF911F910F91FF9010
:100B4000EF90DF90CF900895CF93DF93EC01BCDF5F
:100B5000688179818A819B81DF91CF91089529E312
:100B600030E340E050E069E38AE096E00C94B41092
:100B700026E040E855E260E070E08DEF97E00E94EB
:100B8000CE1E85EA96E05FD38FE696E0A5D285E992
:100B900096E00E94B71981E996E07CDF83E01EDFD2
:100BA00082E033DF6CEA73E08DEF97E00C942F2046
:100BB000EF92FF920F931F93CF93DF93CDB7DEB7E2
:100BC0006D970FB6F894DEBF0FBECDBF65E976E036
:100BD000CE010E960E94F21980E1FE013E96A1E838
:100BE000B6E001900D928A95E1F726DFAB01BC01DA
:100BF00081E696E05CDD20937C0630937D06409391
:100C00007E0650937F06609380066FE676E0CE0105
:100C10000196F2D2BE016F5F7F4F82E696E00E949E
:100C20003D2682E6E82E86E0F82E8F819885F70132
:100C300097838683898580878A8581878B8582874C
:100C40008C8583878D858487CE0101960E946C25D3
:100C500008E116E021E836E0F90180819181A28166
:100C6000B381F80180839183A283B383F9018481E6
:100C70009581A681B781F80184839583A683B78384
:100C800080879187A287B3872CE736E0F9018081BE
:100C90009181A281B381F801808B918BA28BB38B60
:100CA0004AE0F9016481CE0101960E946826BE01E6
:100CB0006F5F7F4F87E396E00E944826CE01019642
:100CC0000E946C2586E30E945E2455DBAB01BC01CB
:100CD000CE01019664DBBE016F5F7F4F8DE396E02E
:100CE0000E943D26CE0101960E946C25B6DEAB0126
:100CF000BC0181E696E039DEF801648B758B868B4A
:100D0000978B81E996E020DFF801648775878687F5
:100D10009787B70183E496E00E942826F701818532
:100D2000F801808FF7018085F801818FF7018681B6
:100D30009781F801968F858FF7018285F801828F60
:100D4000F7018385F801838FF7018485F801848F8B
:100D50006D960FB6F894DEBF0FBECDBFDF91CF9179
:100D60001F910F91FF90EF900895CF93DF9363E46D
:100D700076E08DEF97E00E94162069EF73E08DEF2B
:100D800097E00E942420C8E1D6E04AE050E06A8D56
:100D90008DEF97E00E94932067EB73E08DEF97E073
:100DA0000E9424204AE050E06B8D8DEF97E00E9476
:100DB000932067EB73E08DEF97E00E9424204AE0D8
:100DC00050E06C8D8DEF97E00E9493206AEF73E006
:100DD0008DEF97E00E9424204AE050E0688D8DEF6F
:100DE00097E00E94932069EB73E08DEF97E00E94FB
:100DF00024204AE050E0698D8DEF97E00E94932017
:100E000069EB73E08DEF97E00E9424206D8D7E8D5D
:100E10004AE050E08DEF97E00E949E206BEB73E07C
:100E20008DEF97E00E942420488159816A817B815F
:100E300022E030E08DEF97E00E9479216AEF73E0C5
:100E40008DEF97E00E94242069EC73E08DEF97E02E
:100E50000E942F2061ED73E08DEF97E00E94242027
:100E60004C815D816E817F8122E030E08DEF97E0E3
:100E70000E9479216AEF73E08DEF97E00E942420B1
:100E80006CED73E08DEF97E00E942F206EED73E024
:100E90008DEF97E00E942420488559856A857B85DF
:100EA00022E030E08DEF97E00E9479216AEF73E055
:100EB0008DEF97E00E9424206CEE73E08DEF97E0B9
:100EC0000E942F2060EF73E08DEF97E00E942420B6
:100ED000488959896A897B8922E030E08DEF97E063
:100EE0000E9479216AEF73E08DEF97E00E94242041
:100EF0006CEF73E08DEF97E00E942F2060E074E0CC
:100F00008DEF97E00E94242067E376E08DEF97E075
:100F10000E9416206AEF73E08DEF97E00E94242074
:100F20006BEF73E08DEF97E00E942F206FE074E08D
:100F30008DEF97E00E9424206DE376E08DEF97E03F
:100F40000E9416206AEF73E08DEF97E00E94242044
:100F50006BEF73E08DEF97E00E942F206FE174E05C
:100F60008DEF97E00E9424204C895D896E897F89EE
:100F700022E030E08DEF97E00E9479216AEF73E084
:100F80008DEF97E00E9424206AE274E08DEF97E0F5
:100F90000E942F2061E374E08DEF97E00E942420EF
:100FA0004C855D856E857F8522E030E08DEF97E092
:100FB0000E9479216AEF73E08DEF97E00E94242070
:100FC00065EF72E08DEF97E00E942F206BEF73E0EA
:100FD0008DEF97E0DF91CF910C942F2068E873E1BB
:100FE00080E090E00E94C223E3DDBFCE85EA96E078
:100FF00028D185E996E00E94B51981E996E03EDDA9
:101000008FE696E063D06BEF73E082E696E00E9495
:10101000D72581E696E049DB62E474E08BE596E053
:101020000E94D7256BE474E085E596E00E94D72501
:1010300063E574E08FE496E00E94D7256CE574E0E8
:1010400089E496E00E94D7256BEF73E087E396E092
:101050000E94D7256BEF73E08DE396E00E94D725C1
:101060006BEF73E083E496E00C94D72583E496E07D
:101070000E946C258DE396E00E946C2587E396E044
:101080000E946C2589E496E00E946C258FE496E02E
:101090000E946C2585E596E00E946C258BE596E024
:1010A0000E946C2581E696E001DB82E696E00E94D4
:1010B0006C258FE696E00ED081E996E0E0DC85E9CC
:1010C00096E00E94B61985EA96E0BCC06BEF73E02B
:1010D0000C94D7250C946C25CF93DF9300D000D0CF
:1010E000CDB7DEB786EA96E00E947F14811107C073
:1010F00066E674E08DEF97E00E942F20FFCF67EA4D
:1011000074E08DEF97E00E942F2086EA96E00E941F
:10111000A015882391F065EC74E08DEF97E00E94B4
:101120002F204AEC51E06EEB71E0CE0101960E9457
:10113000FC13CE0101960E941B1526960FB6F8945B
:10114000DEBF0FBECDBFDF91CF9108950F931F93E8
:10115000CF93DF93CDB7DEB7CA55D1090FB6F89458
:10116000DEBF0FBECDBF8C0184E5EBE1F2E0DE0116
:10117000119601900D928A95E1F7CE018B5A9F4FFF
:101180000E948414CE018B5A9F4F0E94731461E019
:1011900070E06C0F7D1F9CE0899F600D711D112414
:1011A000C8010E94532666968FAD669790E08053E3
:1011B000984FF8019783868367968FAD67978087EE
:1011C00068968FAD6897818769968FAD699782879A
:1011D0006A968FAD6A9783876B968FAD6B9784877E
:1011E000C65ADF4F0FB6F894DEBF0FBECDBFDF91FA
:1011F000CF911F910F9108950F931F93CF93DF937A
:10120000EC018B016BEF73E00E94D725C8019EDFD4
:10121000B801CE010E942826F801868197819F831C
:101220008E83808588878185898782858A87838563
:101230008B8784858C87CE01DF91CF911F910F9191
:1012400008950895089565E383EA98E00E948D2744
:1012500081110DC06BEE74E08DEF97E00E942F209E
:1012600065E383EA98E00E948D27882331F06AE0E5
:1012700075E08DEF97E00C942F2064EF71E080E033
:1012800090E00E94C223ECCF87EA96E00C941327EB
:101290002091FA0A222399F04FB7F8942091FA0A84
:1012A000213059F42DB32093F80A3DB32091F90A67
:1012B000209523232DBB4FBF02C04093F80A8CBD5D
:1012C0009DBD08958091FA0A882361F09FB7F89434
:1012D0002091FA0A8091F80A213019F48DBB9FBF42
:1012E00008958FBF0895FC018FEF838784878587DA
:1012F00086870895CF92DF92EF92FF920F931F930C
:10130000CF93DF93FC0126852F3F39F46EBD00009B
:101310000DB407FEFDCF8EB52BC0D62F8C0187E014
:10132000E82EF12CC0E0CC24C394D12CCC0F60E08B
:10133000F80186850E941525B6010E2C01C0660FA6
:101340000A94EAF76D23F80184850E94152561E06F
:10135000F80186850E941525F80185850E944325A0
:10136000892B09F0C160F1E0EF1AF108F8F68C2F33
:10137000DF91CF911F910F91FF90EF90DF90CF9071
:1013800008950F931F93CF93DF93EC01162F042F33
:101390008B858F3F09F56A81888199810E942F1979
:1013A00088819981DC01ED91FC910190F081E02D23
:1013B000612F199588819981DC01ED91FC91019053
:1013C000F081E02D602F199588819981DF91CF916F
:1013D0001F910F910C94B0198E858F3F19F482E5FF
:1013E00091E056DF60E08B850E941525612F6F77B5
:1013F000CE0180DF602FCE017DDF61E08B850E9412
:1014000015258E858F3F29F4DF91CF911F910F9184
:1014100059CFDF91CF911F910F910895CF92EF9205
:101420000F93CF93DF93EC016295660F660F607C9C
:1014300047702770822F880F880F880F262F242B44
:10144000282B29AB902F9295990F907E8AA98F71A6
:10145000892B8AAB8E2D8770880F880F880F98A9EB
:10146000292F207C9C2D9770E22EE82AE92AE8AAF1
:10147000402F477062EFCE0184DF98A9492F477053
:1014800060E2469F90011124892F86958695869566
:10149000877068E0869FA0011124422B532B97FB95
:1014A000992790F9492B65EFCE016BDF99A9492F58
:1014B000477080E2489F90011124892F8695869578
:1014C0008695877068E0869FA0011124422B532BDC
:1014D0009295969596959370492B64EFCE01DF9186
:1014E000CF910F91EF90CF904CCF1F93CF93DF937D
:1014F000EC01162F8B858F3F21F56A8188819981B8
:101500000E942F1988819981DC01ED91FC91019055
:10151000F081E02D612F1995888199810E94B01981
:1015200041E06A81888199810E94AC198881998102
:10153000DC01ED91FC910284F385E02D1995182FC3
:101540001AC08E858F3F19F482E591E0A1DE60E03C
:101550008B850E941525612F6068CE01CBDE60E08F
:10156000CE01C8DE182F61E08B850E9415258E857F
:101570008F3F09F4A7DE812FDF91CF911F9108954E
:101580000F931F93CF93DF93EC01162F8B858F3F23
:1015900099F56A81888199810E942F1988819981A2
:1015A000DC01ED91FC910190F081E02D612F199506
:1015B000888199810E94B01942E06A81888199816D
:1015C0000E94AC1988819981DC01ED91FC91028423
:1015D000F385E02D1995182F88819981DC01ED9113
:1015E000FC910284F385E02D199520E030E0312F45
:1015F0008901082B192B23C08E858F3F19F482E5B2
:1016000091E046DE60E08B850E941525612F6068C1
:10161000CE0170DE60E0CE016DDE082F60E0CE010D
:1016200069DE202F30E0322F22278901082B61E06C
:101630008B850E9415258E858F3F09F443DEC801F6
:10164000DF91CF911F910F9108959ADF98278927F5
:10165000982708954F925F926F927F928F929F92F8
:10166000AF92BF92CF92DF92EF92FF921F93CF93F0
:10167000DF93EC01162F8B858F3F09F051C06A81F3
:10168000888199810E942F1988819981DC01ED91CF
:10169000FC910190F081E02D612F1995888199814D
:1016A0000E94B01943E06A81888199810E94AC1937
:1016B00088819981DC01ED91FC910284F385E02D14
:1016C00019952C01990F66087708762C652C542CF7
:1016D000442488819981DC01ED91FC910284F38599
:1016E000E02D19956C01990FEE08FF08C428D52844
:1016F000E628F72888249C2CAD2CBE2C8881998163
:10170000DC01ED91FC910284F385E02D19956C01CB
:10171000990FEE08FF08C828D928EA28FB282DC011
:101720008E858F3F19F482E591E0B2DD60E08B8514
:101730000E941525612F6068CE01DCDD60E0CE01DE
:10174000D9DDC82ED12CE12CF12CFE2CED2CDC2C7B
:10175000CC2460E0CE01CEDDC82AFE2CED2CDC2CA2
:10176000CC2460E0CE01C6DDC82A61E08B850E94F2
:1017700015258E858F3F09F4A5DDC701B601DF91E0
:10178000CF911F91FF90EF90DF90CF90BF90AF90DF
:101790009F908F907F906F905F904F9008951F93D0
:1017A000CF93DF93EC0168E850DF988B8F876AE86E
:1017B000CE014BDF9A8B898B6CE8CE0146DF9C8B88
:1017C0008B8B6EE8CE0141DF9E8B8D8B60E9CE0165
:1017D0003CDF988F8F8B62E9CE0137DF9A8F898F3C
:1017E00064E9CE0132DF9C8F8B8F66E9CE012DDF5D
:1017F0009E8F8D8F68E9CE0128DF98A38F8F6AE9CD
:10180000CE0123DF9AA389A36CE9CE011EDF9CA33E
:101810008BA36EE9CE0119DF9EA38DA361EACE01F1
:1018200064DE8FA361EECE0110DF99A788A763EE77
:10183000CE015BDE8AA764EECE0157DE182F65EE7F
:10184000CE0153DE90E1199F900111248F70282B57
:101850003CA72BA766EECE0148DE182F65EECE0121
:1018600044DE90E1199F9001112490E044E09595A9
:1018700087954A95E1F7822B932B9EA78DA767EE5C
:10188000CE0133DE8FA7DF91CF911F91089563EFD3
:101890002CDE81700895CF92EF920F93CF93DF9358
:1018A000EC018B858F3F29F4888199810E94201952
:1018B00018C061E00E94152561E08B850E94D92443
:1018C0008E858F3F19F40E942E330BC061E00E9479
:1018D000D92461E08C850E94D92460E08D850E9426
:1018E000D92460EDCE0101DE803629F546EB60EEAD
:1018F000CE0147DD6CE271E080E090E00E94C223FF
:10190000CE01C5DF882329F064E670E080E090E036
:10191000F5CFCE0144DFC12CE12C05E025E045E008
:1019200063E0CE017BDD64E670E080E090E00E9441
:10193000C22381E001C080E0DF91CF910F91EF9051
:10194000CF90089527E7FC01228324E737E0318315
:101950002083A1CF8F929F92AF92BF92CF92DF92BE
:10196000EF92FF920F931F93CF93DF93EC016AEFF7
:1019700071DE6115710520E88207910509F46FC0D9
:101980000F85188920E030E0C72ED82EE92EFF24DD
:10199000E7FCFA94C01AD10AE20AF30ADC01CB018F
:1019A00057E0B595A795979587955A95D1F7000F6C
:1019B000111F221F331F4C015D01801A910AA20AD8
:1019C000B30AA5019401A989BA890E940B344B017D
:1019D0005C017BE0B594A794979487947A95D1F7AE
:1019E000A7019601C701B6010E9499339B01AC0182
:1019F000ECE05595479537952795EA95D1F7AB8952
:101A0000BC890E940B34DC01CB01FEE0B595A795A3
:101A100097958795FA95D1F7A5019401280F391F5D
:101A20004A1F5B1F2F83388749875A87A5E0B0E09C
:101A30000E940134DC01CB0180589F4FAF4FBF4F54
:101A4000692F7A2F8B2F992787FD9A950E94FC1A70
:101A500020E030E048EC52E40E948E1A04C060E0BE
:101A600070E080EC9FE7DF91CF911F910F91FF9085
:101A7000EF90DF90CF90BF90AF909F908F900895A0
:101A80002F923F924F925F926F927F928F929F928E
:101A9000AF92BF92CF92DF92EF92FF920F931F937C
:101AA000CF93DF93CDB7DEB76A970FB6F894DEBF5A
:101AB0000FBECDBF9A8F898F4DDF67EF898D9A8DCD
:101AC000C9DD6D877E878F87988B6115710580488A
:101AD000910509F4B3C1E98DFA8D87819085A185BF
:101AE000B2856C017D01FF0CCC08DC2C76019C01D9
:101AF000AD016C2D7C2D8C2D9C2D345F4140510906
:101B0000610971098109910929833A834B835C83B7
:101B10006D837E838F83988759016A017B018C01D5
:101B20000E94113429873A874B875C876D8B7E8BA7
:101B30008F8B988FA98DBA8D58963C915897579650
:101B40002C91932F990F990B492F592F692F792F8A
:101B5000892F0E9411340CE00E943235722E832EA0
:101B6000942E252E362E672E582E492EE98DFA8D6D
:101B7000328D218D932F990F990BA984BA84CB8430
:101B8000DC84ED88FE880F89188D492F592F692F25
:101B9000792F892F0E94113408E00E944B35A72C21
:101BA000B82CC92CD22CE32CF62C052D142D0E9418
:101BB000693570588F4F9F4FA98DBA8D55962D90CE
:101BC0003C9056975101C12CD12CE12CF12C00E016
:101BD00010E00E94113401E20E944B35322E232E78
:101BE000498B5A8B6B8B472E582E9C8BA0E00E9402
:101BF0007B3509F428C1E98DFA8D30A1278D932F0B
:101C0000990F990BA984BA84CB84DC84ED88FE8873
:101C10000F89188D492F592F692F792F892F0E94ED
:101C2000113429873A874B87752E4B018C87692E93
:101C3000A98DBA8D5E963C915E975D962C91932FFF
:101C4000990F990BA980BA80CB80DC80ED80FE8053
:101C50000F811885492F592F692F792F892F0E94BD
:101C6000113401E10E943235A984BA84CB84D72C87
:101C700074010C85162D0E94693559016A017B019A
:101C80008983192F4D855E856F85788984E07595E8
:101C90006795579547958A95D1F780E090E0A0E148
:101CA000B0E0841B950BA60BB70B3C014D01990CC2
:101CB0006608762C43019C01AD01662D762D862D9C
:101CC000962D0FE10E94323549013A01B62FA72F18
:101CD0008A839B83E98DFA8D348D238D932F990F01
:101CE000990B492F592F692F792F892F03E20E94D1
:101CF000323509810E94693559016A017B018C01E5
:101D00009401A3016B2F7A2F8A819B810E947235E7
:101D1000E5E3AE2EFCE0BF2EC12CD12CE12CF12C42
:101D200000E010E00E941134A32CB22CC988DA889C
:101D3000EB88F42C052D1C890E94643429833A8396
:101D40004B835C836D837E838F8398870DE00E9435
:101D50004B35922E832E742E652E562E472E382EFE
:101D6000292EA98DBA8D96963C91969795962C9191
:101D7000932F990F990BA92CB82CC72CD62CE52C96
:101D8000F42C032D122D492F592F692F792F892FCC
:101D90000E9411340E94113409E10E944B35A98040
:101DA000BA80CB80DC80ED80FE800F8118850E9498
:101DB000693519012A013B014C01E98DFA8D34A1E5
:101DC00023A1932F990F990B492F592F692F792F01
:101DD000892F0E94113403E10E944B3559016A0199
:101DE0007B018C019101A201B301C4010E946935FC
:101DF00008E00E944B3559016A017B01E82F192F39
:101E0000A98DBA8D92963C91929791962C91932F91
:101E1000990F990B492F592F692F792F892F04E09A
:101E20000E9432350E2F0E9469350E94F61A20E07A
:101E300030E040E85BE30E94FE1B08C060E070E019
:101E400080EC9FE703C060E070E0CB016A960FB6BC
:101E5000F894DEBF0FBECDBFDF91CF911F910F91E0
:101E6000FF90EF90DF90CF90BF90AF909F908F90BA
:101E70007F906F905F904F903F902F9008954F927A
:101E80005F926F927F928F929F92AF92BF92CF920A
:101E9000DF92EF92FF92CF93DF93EC015BDD6DEF6A
:101EA000CE016EDBA0E0B0E0811520E89207A1052D
:101EB000B10509F4CDC08F809884A984BA843CE22E
:101EC000931A31E0A30AB1083EE0880F991FAA1FB8
:101ED000BB1F3A95D1F74BA55CA5052E000C660BF0
:101EE000770BE4E1440F551F661F771FEA95D1F782
:101EF0006C017D01C41AD50AE60AF70AADA5BEA594
:101F0000A50194010E940B34C61AD70AE80AF90AFF
:101F100040E4D40EE11CF11CFFE0F594E794D79463
:101F2000C794FA95D1F7AAA5B0E0A50194010E9443
:101F300001342B013C01ABE07594679457944794AE
:101F4000AA95D1F750E8550E611C711CAFA50A2E59
:101F5000000CBB0BA50194010E940B34BAE09595CF
:101F6000879577956795BA95D1F7A30192010E945D
:101F70009933DC01CB012AE0B595A7959795879514
:101F80002A95D1F79C01AD01405E5F4FA8A5B9A588
:101F90000E940B34DC01CB01905EAF4FBF4FBC0100
:101FA000CD013EE095958795779567953A95D1F760
:101FB000A70196010E9499336B017C014FE0959532
:101FC0008795779567954A95D1F79B01AC010E945B
:101FD00099339B01AC0167E0559547953795279557
:101FE0006A95D1F7AFA1B0E00E940134DC01CB01CA
:101FF00074E0B595A795979587957A95D1F7A70140
:102000009601281B390B4A0B5B0BDA01C90157FFFC
:1020100003C080E090E0DC0181309105A10539E149
:10202000B30724F080E090E0A0E0B9E1BC01CD016D
:102030002CE095958795779567952A95D1F70E941D
:10204000FC1A20E030E040E85AE30E94FE1B04C086
:1020500060E070E080EC9FE7DF91CF91FF90EF9020
:10206000DF90CF90BF90AF909F908F907F906F90B8
:102070005F904F900895CF92DF92EF92FF926A01A6
:102080007B01FEDC20E030E048EC52E40E948E1A36
:10209000A70196010E948E1A21E03EED42E45EE324
:1020A0000E94611C9B01AC0160E070E080E89FE34E
:1020B0000E94251A20E03AE24DE257E40E94FE1BFE
:1020C000FF90EF90DF90CF900895FC016783089513
:1020D00008950F931F93CF93DF938C01EB0188E258
:1020E000FB0111928A95E9F74BE050E069E775E052
:1020F000CE010E94A1371B8681E090E0A0E0B0E015
:102100008C879D87AE87BF87F80182859385A485DC
:10211000B585888B998BAA8BBB8B85E090E0A0E07E
:10212000B0E08C8B9D8BAE8BBF8B1CA21DA21EA220
:102130001FA280E090EDA4E8B6E4888F998FAA8F63
:10214000BB8F80E090E0A0E8BFE38C8F9D8FAE8FC7
:10215000BF8F88A399A3AAA3BBA3DF91CF911F919F
:102160000F9108950C94D51FFC0185E895E09183AB
:1021700080836583168217821086118622873387B3
:102180004487558708958F929F92AF92BF92CF92C6
:10219000DF92EF92FF92DC01FA0118969C9118975A
:1021A000992341F0913019F428E830E905C028EE70
:1021B0003DEF02C024E233E12617370708F4CBC015
:1021C0002E173F0708F4C7C0992379F0913039F4EE
:1021D00027EE822E2FE0922EA12CB12C0CC0812C48
:1021E00094E0992EA12CB12C06C087E1882E85E7BA
:1021F000982EA12CB12C19968C91811107C0A4E0C6
:10220000880C991CAA1CBB1CAA95D1F7DB01A5015F
:1022100094010E9401346B017C016AE0F694E7941A
:10222000D794C7946A95D1F7DF010E9401344B011E
:102230005C017AE0B694A794979487947A95D1F745
:10224000C114D104E104F10471F0C501B4014AE004
:10225000660F771F881F991F4A95D1F7A70196012E
:102260000E94C83303C020E030E0A901DA01C901AF
:102270000196A11DB11DB695A795979587958134B7
:102280009105A105B10530F181389105A105B10590
:1022900030F1813C9105A105B10530F1813021E09B
:1022A0009207A105B10528F1893331E09307A10513
:1022B000B10520F18B3941E09407A105B10518F172
:1022C0008B399240A105B10518F1E0E0F0E0A0E003
:1022D000B0E022C0EEEBF1E0A2EFB1E01DC0E1ED15
:1022E000F2E0A4E1B2E018C0EBE7F3E0AFE3B2E064
:1022F00013C0EEEFF3E0A0E7B2E00EC0ECEFF1E0C8
:10230000AFE6B1E009C0EBEFF0E0A2EDB0E004C051
:10231000E2E1F0E0A8E1B0E0A70196010E940134FB
:102320006B017C0120E2D20EE11CF11CDF01A50152
:1023300094010E940134A7019601261B370B480B1C
:10234000590BCA01B9012EE0969587957795679547
:102350002A95D1F704C060E070E081E090E0FF9042
:10236000EF90DF90CF90BF90AF909F908F900895A7
:102370000F931F93CF93DF93EC01062F142F6D81E2
:10238000062E000C770B8B819C8173D78B819C81EF
:10239000DC01ED91FC910190F081E02D602F199509
:1023A0008B819C81DC01ED91FC910190F081E02D0D
:1023B000612F19958B819C81DF91CF911F910F9196
:1023C000CFC743E060E8D4CF40E060E8D1CF1F93AF
:1023D000CF93DF93EC01162F6D81062E000C770B47
:1023E0008B819C8146D78B819C81DC01ED91FC9196
:1023F0000190F081E02D612F19958B819C81B0D7E0
:102400006D81062E000C770B41E050E08B819C81A2
:10241000A5D78B819C81DC01ED91FC910284F38531
:10242000E02D1995DF91CF911F910895CF93DF9300
:10243000EC016AE0CCDF80FD0CC081E08E83688512
:10244000CE0117D06985CE012BD0CE01BDDF81E052
:1024500001C080E0DF91CF910895CF93DF93EC012D
:1024600084E797E09C838B83EBD6CE01DF91CF91FD
:10247000DDCF1F93CF93DF93EC01162F8E81811157
:1024800002C0CE01EADFCE019CDF4985412B61E825
:10249000CE016EDF1887CE01DF91CF911F9194CFCF
:1024A0001F93CF93DF93EC01162F8E81811102C011
:1024B000CE01D3DFCE0185DF4885412B61E8CE0117
:1024C00057DF1987CE01DF91CF911F917DCF0F93F9
:1024D0001F93CF93DF93EC01162F6D81062E000C16
:1024E000770B8B819C81C5D68B819C81DC01ED9122
:1024F000FC910190F081E02D612F19958B819C81D9
:102500002FD76D81062E000C770B42E050E08B81B7
:102510009C8124D78B819C81DC01ED91FC9102840C
:10252000F385E02D19958C018B819C81DC01ED9167
:10253000FC910284F385E02D199520E030E0382FDE
:10254000C801822B932BDF91CF911F910F9108959A
:10255000EF92FF920F931F93CF93DF93EC017B01D8
:102560008A012FDF8885882339F0813051F468E7AC
:1025700070E080E090E009C06FE070E080E090E003
:1025800004C062EC71E080E090E00E94C2236CEA3B
:10259000CE019DDFF701918380836EEACE0197DF44
:1025A000F80191838083CE01DF91CF911F910F912C
:1025B000FF90EF9009CF7F928F929F92AF92BF9240
:1025C000CF92DF92EF92FF920F931F93CF93DF93FF
:1025D00000D01F92CDB7DEB78C016B017A01FC01F0
:1025E0008681811102C0C80138DFF801878181111D
:1025F00005C0A701B601C801ABDF51C0712CF801BD
:102600008085882399F0813041F448EC842E912C08
:1026100050EAA52E5CE8B52E10C024EF822E992436
:10262000939438E1A32E36EFB32E07C084E6882EAC
:10263000912C92EFA92E92E1B92EAE014F5F5F4F20
:10264000BE016D5F7F4FC80183DF8B819C8171105C
:102650001EC08815990530F4F8012185211117C095
:1026600060E108C0A816B90690F4F8012185203170
:1026700071F460E0C80114DFAE014F5F5F4FBE012F
:102680006D5F7F4FC80164DF77247394B8CFF60184
:102690009183808389819A81F701918380830F9050
:1026A0000F900F900F90DF91CF911F910F91FF909E
:1026B000EF90DF90CF90BF90AF909F908F907F90E2
:1026C0000895EF92FF920F931F93CF93DF9300D063
:1026D0001F92CDB7DEB77C018B0184E2FB01119222
:1026E0008A95E9F784E290E0A0E0B0E0FB01808306
:1026F0009183A283B383F70182859385A485B585F1
:10270000FB0184839583A683B78385E090E0A0E0F6
:10271000B0E080879187A287B3870E949123F80158
:10272000608B718B828B938BAE014F5F5F4FBE01CD
:102730006D5F7F4FC7013FDF49815A816B817C818B
:10274000C70121DD57D7F801648B758B868B978B7A
:1027500011E020E030E040E857E4DCD6811101C010
:1027600010E0812F0F900F900F900F90DF91CF917D
:102770001F910F91FF90EF900895803D27E0920701
:1027800010F0805D974050E0E3EDF1E021E0261786
:1027900030F43491430F511D2F5F3196F8CF6330E1
:1027A00038F09C0123703327232B11F44F5F5F4FC8
:1027B000BC016D5F7F4F7695679576956795EDE6E1
:1027C000F1E08E9F90018F9F300D9E9F300D112460
:1027D000C9010197860F971F840F951F0895FC016B
:1027E000908190539A3008F090E0818180532AE0E4
:1027F000929F800D11240895EF92FF920F931F93E3
:10280000CF93DF93CDB7DEB72B970FB6F894DEBF2B
:102810000FBECDBF8C017A014BE050E0CE01019696
:102820000E948837CE010A96DADFF8018083E981B9
:102830008E2F90E0FC01E154F109E331F10558F5E8
:102840008827EE58FF4F8F4F0C94EA338A818136E8
:1028500029F08B818E3621F087E01BC081E019C002
:1028600086E017C082E015C08B81823711F088E0C6
:1028700010C084E00EC08B81823711F085E009C062
:1028800083E007C089E005C08AE003C08BE001C097
:102890008CE0F8018183CE010596A1DFF8018283E7
:1028A00048E050E0B701CE0101960E948837CE0182
:1028B000019695DFF8018383CE01049690DFF8013D
:1028C0008483CE0107968BDFF80185832B960FB6A4
:1028D000F894DEBF0FBECDBFDF91CF911F910F9156
:1028E000FF90EF900895FC0180814281618190E02A
:1028F00044DF069667E070E00C94B433089584E7F3
:1029000097E09ED481E00895CF92DF92EF92FF92FC
:102910000F931F93CF93DF93EC0168E670E084E799
:1029200097E0A7D460E084E797E04CD484E797E091
:1029300017D547E050E068E670E084E797E00ED5F1
:1029400084E797E0B9D38F77982F92959F701AEF0D
:10295000082F919F000D112484E797E0ADD39C01CF
:10296000332794E0359527959A95E1F7F82E129F35
:10297000F00C112484E797E09FD39C01332744E0B7
:10298000359527954A95E1F7E82E129FE00C112422
:1029900084E797E091D384E797E08ED39C013327B7
:1029A00054E0359527955A95E1F7D82E129FD00C13
:1029B000112484E797E080D39C01332764E03595A8
:1029C00027956A95E1F7C82E129FC00C112484E761
:1029D00097E072D39C01332774E0359527957A955B
:1029E000E1F7129F800D11248883C982DA82EB827D
:1029F000FC820D83CE01DF91CF911F910F91FF904B
:102A0000EF90DF90CF900895CF93C82F68E684E7CA
:102A100097E025D46C2F84E797E0D4D384E797E040
:102A20009FD441E068E684E797E096D484E797E096
:102A300043D3CF9108950F931F93CF938C0168E6F2
:102A400070E084E797E015D460E084E797E0BAD3BC
:102A5000F8012581CAE0822F6C2F0E94A833682FCD
:102A6000660F860F880F682F620F84E797E0AAD35E
:102A7000F8012481822F6C2F0E94A833682F660FE3
:102A8000860F880F682F620F84E797E09BD3F801C9
:102A90002381822F6C2F0E94A833682F660F860F28
:102AA000880F682F620F84E797E08CD360E084E79B
:102AB00097E088D3F8012281822F6C2F0E94A833DF
:102AC000682F660F860F880F682F620F84E797E0E4
:102AD00079D3F8012181822F6C2F0E94A833682FAF
:102AE000660F860F880F682F620F84E797E06AD31E
:102AF000F8012081822F6C2F0E94A833682F660F67
:102B0000860F880F682F620F84E797E05BD384E716
:102B100097E026D48FE078DFC82F68E684E797E057
:102B20009ED36FE084E797E04DD36C2F6F7784E7F7
:102B300097E048D384E797E0CF911F910F9110C49D
:102B40008FE062DF87FB882780F9089580E090E0BE
:102B5000089508951F920F920FB60F9211240BB68D
:102B60000F922F933F934F935F936F937F938F9326
:102B70009F93AF93BF93EF93FF93E0910407F0917E
:102B80000507309709F451C0968DA685B7858585D0
:102B900091FF04C09C91892329F447C09C9189230B
:102BA00009F043C0A389B4899C91858980958923C4
:102BB0008C93868997890197F1F7608D718DA68531
:102BC000B785558538E020E0CB010197F1F7822FDA
:102BD00090E095958795282F4C91452309F0206822
:102BE000315091F7868D81FD20958091C30690E04C
:102BF00001968F7399273091C206381749F0A0913A
:102C0000C306B0E0AC53B94F2C938093C30603C006
:102C1000868D8160868F828D938D0197F1F7A389D0
:102C2000B4899C918589892B8C93FF91EF91BF91F9
:102C3000AF919F918F917F916F915F914F913F9154
:102C40002F910F900BBE0F900FBE0F901F901895F5
:102C50001092730781E0809371071092700761E012
:102C600084E10E94152561E085E10E941525E9EBCC
:102C7000F0E080818E7F808380818D7F808388E4F7
:102C80008093B80085E48093BC000895413208F039
:102C900043C0909173079111FCCF91E0909373071B
:102CA000209371072FEF2093060710924B07240FF4
:102CB00020934A079093720790917207880F892B8F
:102CC0008093720780917007813061F410927007D1
:102CD000809172078093BB008091BC0083FDF8CF88
:102CE00085EC01C085EE8093BC0080917307813034
:102CF000E1F380914B07841710F440914B07ACE44B
:102D0000B7E0962FFB018E2F891B841718F48D9145
:102D10008193F9CF842F089580E008950F93413275
:102D200008F04AC0909173079111FCCF32E03093C4
:102D30007307009371073FEF3093060710924B071C
:102D400040934A07562FACE4B7E0FB013E2F351BFA
:102D5000341718F431913D93F9CF109272073091E6
:102D60007207880F832B80937207809170078130E0
:102D700061F410927007809172078093BB0080917C
:102D8000BC0083FDF8CF85EC01C085EE8093BC00CC
:102D9000222321F0809173078230D1F380910607BE
:102DA0008F3F79F080910607803241F080910607CD
:102DB000803331F094E005C091E003C092E001C09F
:102DC00093E0892F0F91089540912807262F30E036
:102DD000240F311D21323105DCF42091730724309A
:102DE000C9F4FC0180E090E0861758F43091280780
:102DF0002191DC01A65DB84FA30FB11D2C93019664
:102E0000F3CF80912807680F6093280780E008952A
:102E100081E0089582E0089590936D0780936C0798
:102E2000089590936F0780936E07089585ED8093C2
:102E3000BC008091BC0084FDFCCF10927307089504
:102E400085EC8093BC001092730708951F920F9237
:102E50000FB60F9211240BB60F922F933F934F93FF
:102E60005F936F937F938F939F93AF93BF93EF93F2
:102E7000FF938091B900887F803609F49DC070F57A
:102E8000883209F45CC090F4803109F455C038F4FC
:102E9000882309F4F3C0883009F44EC0F2C08831A9
:102EA00009F44DC0803209F45EC0EBC0803409F4EF
:102EB00069C050F4803309F456C0883309F0E1C08A
:102EC00080930607BDDFDDC0803509F44FC088352B
:102ED00009F45DC0883409F0D4C0D2C0883909F43F
:102EE000C3C0A8F4883709F467C038F4883609F4F9
:102EF00063C0803709F460C0C4C0883809F4B4C026
:102F0000803909F45FC0803809F0BBC05BC0803BEA
:102F100009F482C038F4803A09F466C0883A09F4AA
:102F20007BC0AFC0803C09F4A3C0883C09F4A0C0BA
:102F3000883B09F486C0A5C08091720710C09091AB
:102F40004B0780914A07981770F5E0914B0781E095
:102F50008E0F80934B07F0E0E45BF84F8081809305
:102F6000BB0085EC82C0809306078AC0E0914B07C6
:102F700081E08E0F80934B078091BB00F0E0E45B13
:102F8000F84F808390914B0780914A076AC0E09187
:102F90004B0781E08E0F80934B078091BB00F0E0E0
:102FA000E45BF84F808380917107811169C081E0F3
:102FB0008093700784EA5DC083E08093730710926A
:102FC0000707CFCF80910707803208F04DC0E0910E
:102FD000070781E08E0F809307078091BB00F0E028
:102FE000E85FF84F8083BDCF2BDF809107078032E9
:102FF00030F4E0910707F0E0E85FF84F108260914D
:10300000070770E0E0916C07F0916D0788E097E0AA
:1030100019951092070735C084E0809373071092CA
:10302000290710922807E0916E07F0916F07199514
:1030300080912807811105C081E0809328071092B4
:103040002A07E091290781E08E0F80932907F0E09D
:10305000E65DF84F80818093BB00909129078091B5
:103060002807981708F47DCF85E88093BC0009C035
:1030700085EC8093BC001092730703C01092060782
:10308000D5DEFF91EF91BF91AF919F918F917F918D
:103090006F915F914F913F912F910F900BBE0F90C9
:1030A0000FBE0F901F9018958091A80790E0209177
:1030B000A907821B910908959091A9078091A807FB
:1030C000981750F4E92FF0E0E655F84F208130E0F2
:1030D0009F5F9093A90702C02FEF3FEFC9010895AA
:1030E000E091A9078091A807E81730F4F0E0E655D1
:1030F000F84F808190E008958FEF9FEF0895089535
:10310000CF93DF93EC01E0918007F0918107309736
:10311000F1F09091A9078091A8079817C0F090E06E
:10312000292F30E02617370754F4DE01A20FB31F12
:103130004C91D901A655B84F4C939F5FF1CF109297
:10314000A9076093A807CB01DF91CF911994DF9174
:10315000CF910895E0918207F0918307309729F08D
:10316000109286071092850719940895CF92DF92E6
:10317000EF92FF920F931F93CF93DF937C01CB01CC
:103180008A0120918407222389F0EB016B01C40E90
:10319000D51ECC15DD0561F06991D701ED91FC914B
:1031A0000190F081E02DC7011995F3CF642F0CDE5B
:1031B000C801DF91CF911F910F91FF90EF90DF90A9
:1031C000CF900895CF93DF931F92CDB7DEB7698379
:1031D000209184072223D1F020918507203240F0EE
:1031E00021E030E0FC013383228380E090E014C0D2
:1031F00080918607E82FF0E0E957F84F9981908396
:103200008F5F809386078093850704C061E0CE01BD
:103210000196DADD81E090E00F90DF91CF91089583
:10322000FC011382128288EE93E0A0E0B0E0848378
:103230009583A683B78383E995E09183808308957E
:103240001092A9071092A80710928607109285077E
:10325000FFDC8AEA98E1E5DD80E898E1DDCD81E0F8
:10326000809384076093A7071092860710928507C2
:103270000895F5CF0F93062F21E04091850767E869
:1032800077E08091A7074ADD1092860710928507A4
:10329000109284070F9108954F925F926F927F92E0
:1032A000AF92BF92CF92EF92FF920F931F93CF9363
:1032B000DF935C01F62ED42F28013901EE2011F1A5
:1032C000CEDFCE2DC43008F0C3E0C150C0F028E0FE
:1032D000C29FC0011124A301920104C056954795D5
:1032E000379527958A95D2F7CA01B901D501ED9195
:1032F000FC910190F081E02DC5011995E6CF60E0C9
:10330000C501B8DF4D2FD13208F040E22C2D6AEA1A
:1033100077E08F2DBBDC1092A9078093A807DF917F
:10332000CF911F910F91FF90EF90CF90BF90AF90F2
:103330007F906F905F904F900895CF92EF920F9390
:103340001F93C22EE12C00E010E09801A5DF1F9131
:103350000F91EF90CF90089521E0EFCF21E0EDCFD6
:1033600061E088CF84E797E05BCF089508958AEC09
:1033700097E00E94A20C811106C067E173E08DEF17
:1033800097E06DD6FFCF61EA75E08DEF97E067C6F5
:10339000CF93DF93EC018AEC97E00E94AA0C68833C
:1033A00079838A839B838AEC97E00E943F0F6C832A
:1033B0007D838E839F838AEC97E00E94400D68870F
:1033C00079878A879B8740E050E56DE774E48AEC53
:1033D00097E00E943B106C877D878E879F87DF91E7
:1033E000CF9108950F931F93CF93DF93EC018B013F
:1033F000CB01CEDFF80180819181A281B3818883E6
:103400009983AA83BB8384819581A681B7818C83AC
:103410009D83AE83BF8380859185A285B385888790
:103420009987AA87BB8784859585A685B7858C876C
:103430009D87AE87BF87CE01DF91CF911F910F91FE
:1034400008958AEC97E00C9473095058BB27AA277B
:103450000ED096C187D130F08CD120F031F49F3F4F
:1034600011F41EF46CC10EF4E095E7FB62C1E92F84
:1034700098D180F3BA17620773078407950718F08D
:1034800071F49EF5B0C10EF4E0950B2EBA2FA02D6D
:103490000B01B90190010C01CA01A0011124FF2701
:1034A000591B99F0593F50F4503E68F11A16F040FC
:1034B000A22F232F342F4427585FF3CF46953795FB
:1034C0002795A795F0405395C9F77EF41F16BA0BC0
:1034D000620B730B840BBAF09150A1F0FF0FBB1F6E
:1034E000661F771F881FC2F70EC0BA0F621F731FB7
:1034F000841F48F4879577956795B795F7959E3F14
:1035000008F0B3CF9395880F08F09927EE0F9795A1
:1035100087950895EAD008F481E008950CD030C171
:1035200028D140F01FD130F021F45F3F19F001C1E4
:1035300051115AC104C135D198F39923C9F35523C8
:10354000B1F3951B550BBB27AA2762177307840796
:1035500038F09F5F5F4F220F331F441FAA1FA9F34C
:1035600033D00E2E3AF0E0E830D091505040E6953E
:10357000001CCAF729D0FE2F27D0660F771F881F9F
:10358000BB1F261737074807AB07B0E809F0BB0B8E
:10359000802DBF01FF2793585F4F2AF09E3F5105B2
:1035A00068F0C7C021C15F3FECF3983EDCF386951D
:1035B00077956795B795F7959F5FC9F7880F911D28
:1035C0009695879597F90895E1E0660F771F881F14
:1035D000BB1F621773078407BA0720F0621B730BC7
:1035E000840BBA0BEE1F88F7E095089597FB0EF455
:1035F000A9D03EC0E89409C097FB3EF49095809511
:10360000709561957F4F8F4F9F4F9923A9F0F92FA8
:1036100096E9BB279395F695879577956795B79526
:10362000F111F8CFFAF4BB0F11F460FF1BC06F5F0C
:103630007F4F8F4F9F4F16C0882311F096E911C01E
:10364000772321F09EE8872F762F05C0662371F03F
:1036500096E8862F70E060E02AF09A95660F771F53
:10366000881FDAF7880F9695879597F90895E8945B
:10367000F92F96EBFF2381F0121613061406440B64
:103680009395F69587957795679557954040FF23D5
:10369000B9F71BC099270895882351F49850D2F7A1
:1036A000872B762F652F542F432F322F20E0B1F335
:1036B000121613061406440B88233AF09A95440F09
:1036C000551F661F771F881FCAF755234AF4440FFA
:1036D000551F11F460FF04C06F5F7F4F8F4F9F4FE6
:1036E000880F9695879597F90895990F0008550FBB
:1036F000AA0BE0E8FEEF16161706E807F907C0F078
:1037000012161306E407F50798F0621B730B840B7F
:10371000950B39F40A2661F0232B242B252B21F459
:1037200008950A2609F4A140A6958FEF811D811DF9
:10373000089597F99F6780E870E060E008959FEF33
:1037400080EC089590958095709560955095409582
:10375000309521953F4F4F4F5F4F6F4F7F4F8F4FAA
:103760009F4F089500240A94161617061806090696
:10377000089500240A9412161306140605060895E7
:10378000092E0394000C11F4882352F0BB0F40F46F
:10379000BF2B11F460FF04C06F5F7F4F8F4F9F4FAF
:1037A000089557FD9058440F551F59F05F3F71F031
:1037B0004795880F97FB991F61F09F3F79F0879598
:1037C0000895121613061406551FF2CF4695F1DF21
:1037D00008C0161617061806991FF1CF86957105B1
:1037E000610508940895E894BB2766277727CB01E5
:1037F00097F908957ADF08F48FEF08950BD0C0CFC2
:10380000B1DF28F0B6DF18F0952309F092CF97CFFB
:103810001124EACFC6DFA0F3959FD1F3950F50E0B6
:10382000551F629FF001729FBB27F00DB11D639F72
:10383000AA27F00DB11DAA1F649F6627B00DA11D18
:10384000661F829F2227B00DA11D621F739FB00DBE
:10385000A11D621F839FA00D611D221F749F33272E
:10386000A00D611D231F849F600D211D822F762FC7
:103870006A2F11249F5750408AF0E1F088234AF0C4
:10388000EE0FFF1FBB1F661F771F881F9150504010
:10389000A9F79E3F510570F04CCFA6CF5F3FECF3E8
:1038A000983EDCF3869577956795B795F795E795FC
:1038B0009F5FC1F7FE2B880F911D9695879597F90D
:1038C0000895FA01EE0FFF1F30962105310599F199
:1038D0006115710561F48038BFE39B0749F1689475
:1038E0009038810561F08038BFEF9B0741F0992344
:1038F00042F5FF3FE1053105210511F1E8940894F7
:10390000E795D901AA2329F4AB2FBE2FF85FD0F396
:1039100010C0FF5F70F4A695E0F7F73950F019F08A
:10392000FF3A38F49F779F930CD00F9007FC905884
:1039300008953EF004CF60E070E080E89FE30895D2
:103940004FE79F775F934F933F932F939ED02F9195
:103950003F914F915F9152DF05C019F40EF0E9CE0F
:1039600042CFEDCE26DFC8F39638C0F707F80F92A6
:10397000E8942BE33AEA48EB5FE74EDF0F920F92B1
:103980000F924DB75EB70F92C0D0EAE0F1E016D0CB
:103990004F915F91EF91FF91E595EE1FFF1F49F069
:1039A000FE57E0684427EE0F441FFA95E1F7419572
:1039B000550B32D00F9007FE26C00895DF93CF93AA
:1039C0001F930F93FF92EF92DF927B018C0168941B
:1039D00005C0DA2EEF011EDFFE01E894A5912591C6
:1039E000359145915591AEF3EF0141DDFE0197010F
:1039F000A801DA9479F7DF90EF90FF900F911F9173
:103A0000CF91DF9108959B01AC0160E070E080E808
:103A10009FE384CD8ECEACC0CCDEE8F39923D9F3FE
:103A2000940F511DBBF39150504094F059F08823EE
:103A300032F0660F771F881F91505040C1F79E3FAC
:103A4000510544F7880F911D9695879597F908952C
:103A50005F3FACF0983E9CF0BB27869577956795C5
:103A6000B79508F4B1609395C1F7BB0F58F711F4FF
:103A700060FFE8CF6F5F7F4F8F4F9F4FE3CFB4CE94
:103A80000EF076C05CCE689454CE93DEC8F39923D2
:103A9000D1F3C6F3DF93CF931F930F93FF92C92FF8
:103AA000DD2788232AF02197660F771F881FDAF712
:103AB00020E030E040E85FEB9FE3883920F0803E73
:103AC00030F021968F77C2DCE2E3F1E003C0BEDC88
:103AD000EFE5F1E073DF8B01BE01EC01FB2E6F57C8
:103AE00071097595771F880B990B86DD28E132E700
:103AF00041E35FE38FDEAF2D9801AE01FF900F91A0
:103B00001F91CF91DF91B3DC3BCEFA01DC01AA0F0C
:103B1000BB1F9B01AC01BF5728F422273327442742
:103B200050781FC0B75188F4AB2F002446953795C5
:103B30002795011CA395D2F3002069F0220F331FB3
:103B4000441FB395DAF30DD080CC61307105A0E845
:103B50008A07B94630F49B01AC016627772788278E
:103B60009078309621F020833183428353830895E7
:103B70009F3F31F0915020F4879577956795B795E1
:103B8000880F911D9695879597F90895FC01918D61
:103B9000228D892F90E0805C9F4F821B91098F734B
:103BA00099270895FC01918D828D981731F0828DAF
:103BB000E80FF11D858D90E008958FEF9FEF089538
:103BC000FC01918D828D981761F0828DDF01A80F25
:103BD000B11D5D968C91928D9F5F9F73928F90E047
:103BE00008958FEF9FEF0895FC01538D448D252F8D
:103BF00030E0842F90E0821B930B541710F0CF9687
:103C000008950197089582E99FE1892B39F080E0BA
:103C100090E0892B19F086D1811125C080E090E0D9
:103C2000892B41F080E090E0892B21F00E94000078
:103C300081111CC080E090E0892B41F080E090E091
:103C4000892B21F00E940000811113C080E090E0D8
:103C5000892BA1F080E090E0892B81F00E94000088
:103C600081110AC008950E940000D8CF0E94000070
:103C7000E1CF0E940000EACF0C9400000895FC01FF
:103C8000848DDF01A80FB11DA35ABF4F2C91848DE5
:103C900090E001968F739927848FA689B7892C931A
:103CA000A089B1898C91837080648C93938D848D6D
:103CB000981306C00288F389E02D80818F7D808370
:103CC0000895EF92FF920F931F93CF93DF93EC0130
:103CD00081E0888F9B8D8C8D981305C0E889F989C8
:103CE000808185FD25C0F62E0B8D10E00F5F1F4FE4
:103CF0000F731127E02E8C8DE8120BC00FB607FC56
:103D0000FACFE889F989808185FFF5CFCE01B7DF49
:103D1000F2CF8B8DFE01E80FF11DE35AFF4FF082C9
:103D20009FB7F8940B8FEA89FB89808180620AC073
:103D30009FB7F894EE89FF896083E889F9898081CB
:103D40008370806480839FBF81E090E0DF91CF919A
:103D50001F910F91FF90EF900895CF93DF93EC01A7
:103D6000888D8823C1F0EA89FB89808185FD05C0A3
:103D7000A889B9898C9186FD0EC00FB607FCF5CFD6
:103D8000808185FFF2CFA889B9898C9185FFEDCF1D
:103D9000CE0175DFE8CFDF91CF910895CF92DF920A
:103DA000EF92FF921F93CF93DF93EC016A017B01A7
:103DB000122FE889F98982E080834115514E61050F
:103DC0007105B1F060E079E08DE390E0A701960124
:103DD0000E94C833DA01C9010197A109B109B6955A
:103DE000A795979587959C01211580E13807A8F044
:103DF000E889F989108260E874E88EE190E0A70113
:103E000096010E94C833DA01C9010197A109B109DD
:103E1000B695A795979587959C01EC85FD85308390
:103E2000EE85FF852083188EEC89FD891083EA8951
:103E3000FB89808180618083EA89FB898081886039
:103E40008083EA89FB89808180688083EA89FB8995
:103E500080818F7D8083DF91CF911F91FF90EF90C4
:103E6000DF90CF9008951F920F920FB60F921124FA
:103E70000BB60F922F938F939F93EF93FF93E09145
:103E80000D08F0910E088081E0911308F09114085C
:103E900082FD12C09081809116088F5F8F732091F0
:103EA0001708821751F0E0911608F0E0E350F84F40
:103EB000958F8093160801C08081FF91EF919F91AB
:103EC0008F912F910F900BBE0F900FBE0F901F90F0
:103ED00018951F920F920FB60F9211240BB60F92E6
:103EE0002F933F934F935F936F937F938F939F9302
:103EF000AF93BF93EF93FF938DEF97E0C0DEFF91F9
:103F0000EF91BF91AF919F918F917F916F915F9151
:103F10004F913F912F910F900BBE0F900FBE0F90BE
:103F20001F9018958DEF97E031DE21E0892B09F481
:103F300020E0822F0895EDEFF7E01382128288EEE1
:103F400093E0A0E0B0E084839583A683B78386ECFA
:103F500095E09183808385EC90E09587848784EC5D
:103F600090E09787868780EC90E0918B808B81EC46
:103F700090E0938B828B82EC90E0958B848B86EC27
:103F800090E0978B868B118E128E138E148E08956F
:103F9000089532D4FDDF0E94B805C3E0DEE10E943F
:103FA000EE072097E1F32FDEFACF0C941F36CF9265
:103FB000DF92EF92FF920F931F93CF93DF936C01E9
:103FC0007A018B01C0E0D0E0CE15DF0581F0D80189
:103FD0006D918D01D601ED91FC910190F081E02D64
:103FE000C6011995892B11F02196EECF7E01C701EC
:103FF000DF91CF911F910F91FF90EF90DF90CF90C5
:1040000008956115710579F0FB0101900020E9F731
:104010003197AF01461B570BDC01ED91FC910280FB
:10402000F381E02D199480E090E00895DB0114966F
:104030004D915C9115976D917C91DC01ED91FC9116
:104040000280F381E02D1994DCCFDC01ED91FC912D
:104050000190F081E02D199464ED75E0D2CF0F93BB
:104060001F93CF93DF93EC01CCDF8C01CE01F4DF03
:10407000800F911FDF91CF911F910F9108958F9223
:104080009F92AF92BF92EF92FF920F931F93CF93A5
:10409000DF93CDB7DEB7A1970FB6F894DEBF0FBEA2
:1040A000CDBF7C01FA01CB0119A2223008F42AE02D
:1040B0008E010F5D1F4F822E912CA12CB12CBF01C0
:1040C000A50194010E94C833F901CA0101501109E8
:1040D0006A3010F4605D01C0695CD8016C93232BD9
:1040E000242B252B61F7B801C7018BDFA1960FB6F2
:1040F000F894DEBF0FBECDBFDF91CF911F910F911E
:10410000FF90EF90BF90AF909F908F9008952115F2
:10411000310541F4DC01ED91FC910190F081E02D3D
:10412000642F1994ACCF9A01462F50E060E070E004
:10413000EECF9A01AB0160E070E0E9CF0F931F93DF
:10414000CF93DF93EC01F5DF8C01CE0185DF800F8B
:10415000911FDF91CF911F910F9108957F928F92C0
:104160009F92AF92BF92CF92DF92EF92FF920F9306
:104170001F93CF93DF938C016A017B01722E9A010A
:10418000AB01C701B6010E949433882319F067ED93
:1041900075E025C046015701E894B7F82FEF3FEFCF
:1041A0004FE75FE7C501B4010E94943381110CC051
:1041B0002FEF3FEF4FE75FE7C501B401ABD918160A
:1041C0001CF46BED75E00BC02FEF3FEF4FE75FE4A2
:1041D000C701B6010FDB18168CF46FED75E0C8014E
:1041E000DF91CF911F910F91FF90EF90DF90CF90D3
:1041F000BF90AF909F908F907F9003CF2FEF3FEFB6
:104200004FE75FECC701B60185D987FDE6CF20E017
:1042100030E0A901C701B6017DD987FF09C06DE271
:10422000C80113DFEC01F7FAF094F7F8F09402C03C
:10423000C0E0D0E0B12C60E070E080E09FE37B1450
:1042400039F020E030E040E251E468D9B394F7CF90
:10425000A7019601FBD86B017C010E9465334B01DD
:104260005C012AE0AB01BC01C80109DFC80FD91FFE
:10427000772081F1C501B401BDD99B01AC01C70113
:10428000B601E3D86B017C016EE2C801DEDEC80F27
:10429000D91F20E030E040E251E4C701B601AEDAB8
:1042A0004B015C010E9465336B017C014AE050E0E8
:1042B000C8013FDFC80FD91FB60180E090E09AD94E
:1042C0009B01AC01C501B401C0D86B017C017A949B
:1042D0007110DFCFCE01DF91CF911F910F91FF9031
:1042E000EF90DF90CF90BF90AF909F908F907F9096
:1042F000089534CF0895883008F070C0A82FB0E03A
:10430000AA0FBB1FAA5FBD4F11967C936E9390E0DE
:10431000FC013197E730F105A0F58827EA53FF4FFC
:104320008F4F0C94EA33809169008C7F482B409327
:104330006900E89A089580916900837F440F551FB2
:10434000440F551F482B40936900E99A08958091C6
:1043500069008F7C74E0440F551F7A95E1F7482B74
:1043600040936900EA9A0895809169008F7366E02E
:10437000440F551F6A95E1F7482B40936900EB9A6B
:10438000089580916A008C7F482B40936A00EC9AD4
:10439000089580916A00837F440F551F440F551F75
:1043A000482B40936A00ED9A089580916A008F7CB3
:1043B00024E0440F551F2A95E1F7482B40936A00EB
:1043C000EE9A089580916A008F7396E0440F551F0E
:1043D0009A95E1F7482B40936A00EF9A08951F924F
:1043E0000F920FB60F9211240BB60F922F933F939B
:1043F0004F935F936F937F938F939F93AF93BF93ED
:10440000EF93FF93E0910A02F0910B021995FF914F
:10441000EF91BF91AF919F918F917F916F915F913C
:104420004F913F912F910F900BBE0F900FBE0F90A9
:104430001F9018951F920F920FB60F9211240BB672
:104440000F922F933F934F935F936F937F938F932D
:104450009F93AF93BF93EF93FF93E0910C02F09182
:104460000D021995FF91EF91BF91AF919F918F919F
:104470007F916F915F914F913F912F910F900BBE64
:104480000F900FBE0F901F9018951F920F920FB6AE
:104490000F9211240BB60F922F933F934F935F937C
:1044A0006F937F938F939F93AF93BF93EF93FF93FC
:1044B000E0910E02F0910F021995FF91EF91BF91DB
:1044C000AF919F918F917F916F915F914F913F91AC
:1044D0002F910F900BBE0F900FBE0F901F9018954D
:1044E0001F920F920FB60F9211240BB60F922F93BB
:1044F0003F934F935F936F937F938F939F93AF936C
:10450000BF93EF93FF93E0911002F0911102199580
:10451000FF91EF91BF91AF919F918F917F916F919B
:104520005F914F913F912F910F900BBE0F900FBE57
:104530000F901F9018951F920F920FB60F92112493
:104540000BB60F922F933F934F935F936F937F938D
:104550008F939F93AF93BF93EF93FF93E0910602E6
:10456000F09107021995FF91EF91BF91AF919F9143
:104570008F917F916F915F914F913F912F910F900C
:104580000BBE0F900FBE0F901F9018951F920F92A9
:104590000FB60F9211240BB60F922F933F934F93A8
:1045A0005F936F937F938F939F93AF93BF93EF939B
:1045B000FF93E0910802F09109021995FF91EF91A4
:1045C000BF91AF919F918F917F916F915F914F912B
:1045D0003F912F910F900BBE0F900FBE0F901F9029
:1045E00018951F920F920FB60F9211240BB60F92CF
:1045F0002F933F934F935F936F937F938F939F93EB
:10460000AF93BF93EF93FF93E0911202F0911302E7
:104610001995FF91EF91BF91AF919F918F917F91EC
:104620006F915F914F913F912F910F900BBE0F9023
:104630000FBE0F901F9018951F920F920FB60F92FA
:1046400011240BB60F922F933F934F935F936F9369
:104650007F938F939F93AF93BF93EF93FF93E091DB
:104660001402F09115021995FF91EF91BF91AF914E
:104670009F918F917F916F915F914F913F912F917A
:104680000F900BBE0F900FBE0F901F9018951F92AA
:104690000F920FB60F9211242F933F938F939F93F6
:1046A000AF93BF9380919B0890919C08A0919D0827
:1046B000B0919E0830919A0823E0230F2D3720F403
:1046C0000196A11DB11D05C026E8230F0296A11D6C
:1046D000B11D20939A0880939B0890939C08A09307
:1046E0009D08B0939E0880919F089091A008A0918A
:1046F000A108B091A2080196A11DB11D80939F0849
:104700009093A008A093A108B093A208BF91AF9185
:104710009F918F913F912F910F900FBE0F901F90FF
:1047200018952FB7F89460919B0870919C08809120
:104730009D0890919E082FBF08953FB7F8948091EF
:104740009F089091A008A091A108B091A20826B559
:10475000A89B05C02F3F19F00196A11DB11D3FBFB9
:10476000BA2FA92F982F8827820F911DA11DB11D47
:10477000BC01CD0142E0660F771F881F991F4A9543
:10478000D1F708958F929F92AF92BF92CF92DF920E
:10479000EF92FF926B017C01D0DF4B015C01C114F1
:1047A000D104E104F104F9F00E946433C6DFDC01B6
:1047B000CB0188199909AA09BB09883E9340A10534
:1047C000B10568F321E0C21AD108E108F10888EECA
:1047D000880E83E0981EA11CB11CC114D104E10411
:1047E000F10421F7DCCFFF90EF90DF90CF90BF90E6
:1047F000AF909F908F900895789484B5826084BD27
:1048000084B5816084BD85B5826085BD85B58160D4
:1048100085BDEEE6F0E0808181608083E1E8F0E034
:104820001082808182608083808181608083E0E863
:10483000F0E0808181608083E1EBF0E08081846042
:104840008083E0EBF0E0808181608083E1E9F0E04B
:10485000808182608083808181608083E0E9F0E0F4
:10486000808181608083E1EAF0E0808182608083E2
:10487000808181608083E0EAF0E0808181608083D4
:10488000E1E2F1E0808182608083808181608083C9
:10489000E0E2F1E0808181608083EAE7F0E08081FE
:1048A0008460808380818260808380818160808356
:1048B0008081806880831092C1000895863308F05B
:1048C000865390917B00282F2870977F922B90938E
:1048D0007B002091160290E4299F9001112487709B
:1048E000822B80937C0080917A00806480937A0090
:1048F00080917A0086FDFCCF80917800209179002C
:1049000090E0922B089590E0FC013197E231F1059F
:1049100008F04EC08827E353FF4F8F4F0C94EA33C3
:10492000809180008F7703C0809180008F7D80937D
:104930008000089580918000877FF9CF84B58F77BC
:1049400002C084B58F7D84BD08958091B0008F77BB
:1049500003C08091B0008F7D8093B0000895809156
:1049600090008F7707C0809190008F7D03C0809169
:104970009000877F8093900008958091A0008F77AA
:1049800007C08091A0008F7D03C08091A000877F29
:104990008093A0000895809120018F7707C08091B7
:1049A00020018F7D03C080912001877F80932001AB
:1049B0000895CF93DF9390E0FC01EB5DFD4F2491D0
:1049C000FC01E559FD4F8491882361F190E0880F47
:1049D000991FFC01EB51FD4FC591D491FC01E553AA
:1049E000FD4FA591B491611109C09FB7F8948881DA
:1049F000209582238883EC912E230BC0623061F4D2
:104A00009FB7F8948881322F309583238883EC9167
:104A10002E2B2C939FBF06C08FB7F894E8812E2BC6
:104A200028838FBFDF91CF9108951F93CF93DF939A
:104A3000282F30E0F901E152FE4F8491F901EB5D3E
:104A4000FD4FD491F901E559FD4FC491CC23B9F044
:104A5000162F811158DFEC2FF0E0EE0FFF1FE5530A
:104A6000FD4FA591B4919FB7F894111104C08C919A
:104A7000D095D82302C0EC91DE2BDC939FBFDF9151
:104A8000CF911F910895CF93DF93282F30E0F90144
:104A9000E152FE4F8491F901EB5DFD4FD491F90194
:104AA000E559FD4FC491CC2389F081112CDFEC2F07
:104AB000F0E0EE0FFF1FEF54FD4FA591B491EC9184
:104AC000ED2381E090E021F480E002C080E090E0FE
:104AD000DF91CF9108950895FC01808191810C941C
:104AE0001F36CF93DF93EC0188819981009711F0F5
:104AF0000E941F36198218821D821C821B821A8214
:104B0000DF91CF9108950F931F93CF93DF93EC0123
:104B10008B016F5F7F4F888199810E94A836009733
:104B200031F0998388831B830A8381E001C080E090
:104B3000DF91CF911F910F910895CF93DF93EC01F7
:104B400088819981892B29F08A819B818617970713
:104B500058F4CE01D8DF882341F08C819D81892BC8
:104B600019F4E881F981108281E0DF91CF910895F5
:104B7000EF92FF920F931F93CF93DF93EC017B0192
:104B80008A01BA01DADF811103C0CE01AADF07C0B2
:104B90001D830C83B701888199810E949A37CE01C9
:104BA000DF91CF911F910F91FF90EF900895FC013D
:104BB000118210821382128215821482611571058E
:104BC00049F0FB0101900020E9F73197AF01461B46
:104BD000570BCECF08950F931F93CF93DF938C0184
:104BE000EB01FC01808191810097D1F0688179818E
:104BF0006115710599F02BE635E2232B79F042819E
:104C000053812C813D814217530740F00E949A370F
:104C10008C819D81F8019583848313C00E941F3687
:104C200088819981F801918380838A819B81938314
:104C300082838C819D8195838483198218821B8253
:104C40001A821D821C82DF91CF911F910F910895CE
:104C5000CF93DF93EC01FB018617970751F060813A
:104C600071816115710521F04481558181DF01C099
:104C700038DFCE01DF91CF910895CF93DF93EC0120
:104C80008617970709F0A7DFCE01DF91CF9108952E
:104C9000CF93DF93EC016817790709F09CDFCE0111
:104CA000DF91CF910895CF93DF93EC0161157105EA
:104CB00051F0FB0101900020E9F73197AF01461B4D
:104CC000570B56DF01C00DDFCE01DF91CF91089564
:104CD0000F931F93CF93DF93CDB7DEB729970FB60E
:104CE000F894DEBF0FBECDBF8C01862FF801118274
:104CF0001082138212821582148250E0BE016F5F0F
:104D00007F4F90E00E94B037BE016F5F7F4FC801B8
:104D1000CADF29960FB6F894DEBF0FBECDBFDF9174
:104D2000CF911F910F910895CF93DF931F92CDB72D
:104D3000DEB76983DC01ED91FC910280F381E02D07
:104D400041E050E0BE016F5F7F4F19950F90DF91FA
:104D5000CF910895CF93DF93EC01898D9A8D0097C1
:104D600039F481E090E09B838A8380E090E00AC080
:104D7000FC0113821282A7D6E98DFA8D228133813C
:104D8000232B79F7DF91CF910895FC01818D928DCE
:104D9000009709F048C60895CF93DF931F92CDB7CF
:104DA000DEB741E050E0BE016F5F7F4FA4D40197B2
:104DB00019F4898190E002C08FEF9FEF0F90DF918F
:104DC000CF910895FC01818D928D009709F0E4CF79
:104DD0008FEF9FEF08950F931F93CF93DF93FC0105
:104DE000818D928D0097A9F0EF01D6DF8C010F3FE6
:104DF0008FEF180789F0898D9A8DFC0142855385C4
:104E000064857585415051096109710976D5C801DC
:104E100005C080E090E002C08FEF9FEFDF91CF915F
:104E20001F910F910895FC011382128288EE93E086
:104E3000A0E0B0E084839583A683B78387EE95E0F6
:104E400091838083128E118E14860895DC01599609
:104E5000ED91FC915A97309729F06285738584858E
:104E6000958508956FEF7FEFCB010895DC0159968A
:104E7000ED91FC915A97309729F06389748985895F
:104E80009689089560E070E0CB010895CF92DF929B
:104E9000EF92FF92CF93DF93FC01218D328D232B74
:104EA000C9F0EC01E3DF6B017C01CE01CFDFA7018C
:104EB0009601261B370B480B590BDA01C9018115E6
:104EC00030E89307A105B10538F08FEF9FE7A0E028
:104ED000B0E002C080E090E0DF91CF91FF90EF90D2
:104EE000DF90CF9008950F931F93CF93DF93EC0142
:104EF0008B0141E00E941A32811109C040E0B801E3
:104F0000CE01DF91CF911F910F910C941A3281E065
:104F1000DF91CF911F910F9108950F931F93CF931E
:104F2000DF93EC01162F8FA5882319F0CE018A9606
:104F3000BFD5412F61E0CE0160D1882379F08E0189
:104F4000045F1F4FBE01C801CEDF882339F0B801CE
:104F5000CE018A9680D391E0811101C090E0892F23
:104F6000DF91CF911F910F910895E3EAF8E0158248
:104F700016821186138682E090E0A0E0B0E084877C
:104F80009587A687B78713A215A614A689EF95E083
:104F900093A782A717A608959FB7F8942091FA0ABD
:104FA0008091F80A213019F48DBB9FBF08958FBFFF
:104FB00008950F93FC0180E092E1AAE7B0E030E0B1
:104FC000481759076A077B0740F4B695A795979548
:104FD00087953F5F3630A1F737E091E09327222392
:104FE00011F020E501C020E70C70892F8695082B71
:104FF000022B0083917091830F9108958EBD000064
:105000000DB407FEFDCF8EB508958FEFF7CF61E0A9
:10501000FC0184810ADD8091EC08882331F0109234
:10502000EC088091FA0A8111B7CF0895CF93DF93EE
:10503000EC018091EC08811109C081E08093EC08BB
:105040008091ED089091EE080E94480960E08C8103
:10505000DF91CF91EACCCF93DF93EC018E8188234F
:1050600079F08F8198859C012F5F3F4F38872F8380
:105070008230924010F4C9DFF4CFCE01C8DF1E8227
:10508000DF91CF9108950F93CF93DF931F921F92DB
:10509000CDB7DEB7673028F026E1FC01258380E03C
:1050A00046C06230F9F058F46623A9F0613079F512
:1050B00000E021E040E059E06DE370E02EC0643094
:1050C000F9F0B8F0653019F500E021E040E950ED65
:1050D00063E070E022C000E021E040E458E76DE7C3
:1050E00071E01BC000E021E040E854E86EE170E0B0
:1050F00014C000E021E040E452E46FE070E00DC035
:1051000000E021E040E251EA67E070E006C000E024
:1051100021E048E458EE61E070E0CE01019649DFFD
:1051200089819A819093EE088093ED0881E00F9039
:105130000F90DF91CF910F9108950F931F93CF930D
:10514000DF93EB01EEDA8B0160DF8F3F41F0E9DAAC
:10515000601B710B6C177D07B8F380E001C081E024
:10516000DF91CF911F910F9108958F929F92AF92EF
:10517000BF92FF920F931F93CF93DF93EC01F62E14
:1051800049015A0168DFCE0151DF6CE271E0CE01C6
:10519000D4DF8F2D806432DF08E110E0D501C40137
:1051A000002E04C0B695A795979587950A94D2F7D7
:1051B00025DF08501109083F8FEF180779F7FF2006
:1051C00029F088E0F81204C087E803C085E901C02F
:1051D0008FEF14DF10E019DF8A8787FF04C01F3FBD
:1051E00011F01F5FF8CFDF91CF911F910F91FF90CA
:1051F000BF90AF909F908F9008957F928F929F92D3
:10520000AF92BF92CF92DF92EF92FF920F931F93D4
:10521000CF93DF931F921F92CDB7DEB77C01762E1E
:10522000FC01138611861682158244837ADA6B019B
:1052300061E0F7018481BDDB61E0F7018481F5DB8A
:105240000E942E3300E021E040E950ED63E070E081
:10525000CE010196AEDE89819A819093EE0880930B
:10526000ED080E9448091AE08FEFC8DE1150E1F7FF
:105270008091FA0A811190DEC701D8DE20E030E08B
:10528000A90160E0C70171DF082FF7018287813033
:1052900041F047DA6C197D09613D774078F381E090
:1052A0004AC02AEA31E040E050E068E0C7015DDF33
:1052B00082FF03C0F70103870DC004E0A6DEF701FB
:1052C00082870150D9F78A3A11F082E035C082E036
:1052D000F7018387F7018385823021F0812C912C9F
:1052E000540105C0812C912CA12C80E4B82E20E023
:1052F00030E0A90167E3C70138DFA501940169E245
:10530000C70133DFF7018287882341F00ADA6C197D
:105310007D09613D774058F388E00DC0F701838532
:105320008230C1F420E030E0A9016AE3C7011DDF4B
:10533000882331F086E0F7018583C70168DE10C05D
:1053400064DE807C803C19F483E0F70183875DDEB6
:105350005CDE5BDEC7015BDE672DC70194DE182FC4
:10536000812F0F900F90DF91CF911F910F91FF90A0
:10537000EF90DF90CF90BF90AF909F908F907F90F5
:1053800008950F931F93CF93DF93EC01CAD98B013C
:105390003CDE8A878F3F41F4C4D9601B710B6D32AC
:1053A0007140B0F38FE003C08E3F31F08DE08D830C
:1053B000CE012DDE80E001C081E0DF91CF911F9111
:1053C0000F910895CF92DF92EF92FF920F931F9368
:1053D000CF93DF93EC016901C801820F931F8130E5
:1053E000924008F057C08E81882371F0888199819E
:1053F000AA81BB8184179507A607B70729F48F8177
:105400009885C816D90600F5488359836A837B833B
:105410008B85833039F089E0440F551F661F771F55
:105420008A95D1F79A01AB0161E1CE019EDE882316
:1054300019F083E08D832EC0CE01A3DF882351F1C4
:1054400018861F8281E08E838F8198858C159D053B
:1054500038F4DBDD8F819885019698878F83F4CFB0
:105460006701E00EF11ECE14DF0429F0CEDDF60157
:1054700081936F01F8CF8F819885080F191F1887C6
:105480000F838985882319F00115124038F0CE0169
:10549000E2DD04C0CE01BBDD80E001C081E0DF9130
:1054A000CF911F910F91FF90EF90DF90CF900895D3
:1054B000EF92FF920F931F930115110511F082DFF8
:1054C00001C081E01F910F91FF90EF900895EF923E
:1054D000FF920F931F93790100E012E020E030E08B
:1054E00071DF1F910F91FF90EF900895EF92FF925F
:1054F0000F931F93CF93DF938C01862F7A017EDD6C
:10550000E7018EEFF81A899179DDCE15DF05D9F71D
:105510008FEF74DD8FEF72DD78DDF80182878F7198
:10552000853031F081E18583C80171DD80E001C003
:1055300081E0DF91CF911F910F91FF90EF9008953F
:105540000F931F93CF93DF93EC0189014115510510
:105550006105710511F482E12DC08B85833039F02E
:1055600089E0440F551F661F771F8A95D1F79A016E
:10557000AB0168E1CE01F9DD882311F084E01AC0A7
:10558000A8016EEFCE01B2DF8823A9F068E572E0D2
:10559000CE01D3DD811102C085E10CC020E030E0F6
:1055A000A9016DE0CE01E1DD811103C02EDD88236C
:1055B00031F084E18D83CE012ADD80E003C0CE018D
:1055C00026DD81E0DF91CF911F910F910895EDEEDF
:1055D000F8E080E5808311820895CF93DF93EC019A
:1055E0009C012A5F3F4F41E050E060E070E08B8D0E
:1055F0009C8D0FD68823A1F08F89988DA98DBA8DA7
:10560000892B8A2B8B2B59F48E819F81A885B98594
:105610008F8B988FA98FBA8F8C8180688C8381E063
:10562000DF91CF910895CF93DF93EC01462F6E85E4
:105630007F85888999892AD4882341F08A8920E244
:10564000829FC00111248850974F02C080E090E0F3
:10565000DF91CF9108950F931F93CF93DF93FC01B8
:105660002581222311F080E041C08B01EC01FB0178
:1056700087898031B1F482E08D831F8A188E198E5C
:105680001A8E808D918DA0E0B0E025E0880F991FE3
:10569000AA1FBB1F2A95D1F78B8B9C8BAD8BBE8B22
:1056A00014C0803201F783E08D83FB01428D538D5E
:1056B000648D758D4F8B588F698F7A8F9E012D5E0B
:1056C0003F4FC8019ED4882371F21C8F0B8F81E05D
:1056D0008C831E821F82188619861A861B861C865A
:1056E0001D861E861F86188A198A1A8ADF91CF9115
:1056F0001F910F9108952F923F924F925F926F9258
:105700007F928F929F92AF92BF92CF92DF92EF9251
:10571000FF920F931F93CF93DF93EC015B014A013C
:105720008D81811103C08FEF9FEFD4C08C8180FFEA
:10573000FACF4B885C886D887E884A855B856C854E
:105740007D85C401A0E0B0E093018201041B150B2C
:10575000260B370B081719072A073B0718F44201D5
:10576000841A950A24011E0126E0220E311C4114E0
:10577000510409F47DC04A855B856C857D856A018D
:1057800081E0D822ED818B8D9C8D8A019B01F9E00F
:105790003695279517950795FA95D1F7E23061F47C
:1057A000FC01828D938DA48DB58DBC01CD01600F60
:1057B000711F821F931F3EC0FC0174807A94702277
:1057C000C114D104C1F4711016C0452B462B472BD0
:1057D00049F48F89988DA98DBA8D8E839F83A88770
:1057E000B98709C04E815F8168857985910187D32A
:1057F000882309F498CFEB8DFC8D8E819F81A8853D
:10580000B9850297A109B109058404C0880F991FC1
:10581000AA1FBB1F0A94D2F74685578560897189F4
:10582000840F951FA61FB71FBC01CD01670D711D09
:10583000811D911D20E032E02C193D093201241513
:10584000350508F439012C8126FD04C06114F2E00D
:105850007F0671F50091170210911802209119022C
:1058600030911A02601771078207930719F420C05C
:10587000C40130C0750183019601AB01BC01809168
:10588000F6089091F70814DE882309F44CCFA60C93
:10589000B71C8A859B85AC85BD85860D971DA11D8E
:1058A000B11D8A879B87AC87BD87461857085FCF95
:1058B00040E0ECD2882309F436CFF601E850F74FE8
:1058C000D501CF01860D971D8E179F0701F32191FA
:1058D0002D93FACFDF91CF911F910F91FF90EF9011
:1058E000DF90CF90BF90AF909F908F907F906F9000
:1058F0005F904F903F902F9008958F929F92AF921C
:10590000BF92CF92DF92EF92FF920F931F93CF93AC
:10591000DF93EC018D81811102C080E077C00B899B
:105920001C892D893E890417150726073707A8F318
:105930006A017B01823029F4CA86DB86EC86FD860B
:105940000DC0C114D104E104F10451F41E821F8280
:10595000188619861A861B861C861D8681E056C00D
:105960008A849B84AC84BD84EB8DFC8D258530E0DE
:10597000275F3F4FB501A4014150510961097109E9
:10598000022E04C076956795579547950A94D2F7ED
:10599000D701C6010197A109B10904C0B695A79521
:1059A000979587952A95D2F784179507A607B70785
:1059B00020F089288A288B2871F44F89588D698DA9
:1059C0007A8D4E835F83688779874C015D018E01F4
:1059D0000A5F1F4F15C0841B950BA60BB70BF5CFA5
:1059E0004E815F816885798598018B8D9C8D87D2EA
:1059F00091E0891A9108A108B108882309F48DCF94
:105A000081149104A104B10459F796CFDF91CF918D
:105A10001F910F91FF90EF90DF90CF90BF90AF90CC
:105A20009F908F9008950F931F93CF93DF93EC0176
:105A30008D818823B9F18C8187FF2FC061E0CE0171
:105A4000F2DD8C01892B71F18D81823048F48B89D4
:105A50009C89AD89BE89F801848F958FA68FB78FF9
:105A60008F89988DA98DBA8DF801938F828FB58B10
:105A7000A48BE091EF08F091F008309759F0B8014D
:105A80006A5E7F4FC80148961995F801808D918D07
:105A9000938B828B8C818F778C83DF91CF911F9139
:105AA0000F91BBC180E0DF91CF911F910F910895BD
:105AB000CF93DF93EC01B7DF882311F01D8281E0E3
:105AC000DF91CF9108952F923F924F925F926F9204
:105AD0007F928F929F92AF92BF92CF92DF92EF927E
