S015000077657474657273746174696F6E2E7372656372
S1130000FCC000002AC1000028C1000026C1000075
S113001024C1000022C1000020C100001EC1000054
S11300201CC100001AC1000018C1000016C1000064
S113003014C1000012C1000010C100000EC1000074
S11300400CC100000AC1000008C1000006C1000084
S113005004C1000002C1000000C100002AC1000068
S1130060FCC000000C94670A0C949D0AF6C00000C2
S1130070F4C00000F2C00000F0C00000EEC00000B8
S1130080ECC00000EAC00000E8C00000E6C00000C8
S1130090E4C00000E2C00000E0C00000DEC00000D8
S11300A0DCC00000DAC00000D8C00000D6C00000E8
S11300B0D4C00000D2C00000D0C00000CEC00000F8
S11300C0CCC00000CAC00000C8C00000C6C0000008
S11300D0C4C00000C2C00000C0C00000BEC0000018
S11300E0BCC000003B0D3E0D2D0D310D370D750DBF
S11300F0420D460D4C0D500D540D5A0D5E0D620D02
S1130100750D680D6C0D700D00000A0B02090C0DC5
S11301100E080703040100000000000000000000B6
S113012000000000000000000000000000000000CB
S11301300000000012111000000000000000000088
S113014000000000000000000000000000000102A8
S113015010202008081020401020408002010201D5
S1130160080402010102040810204080804020108D
S113017008040201800402018040201008040201E6
S1130180080402010102040810204080010204084E
S11301901020408005050505070508080808020227
S11301A002020A0A0808040404040101010101010D
S11301B001010303030303030303040707070C0CF0
S11301C00C0C0C0C0C0C02020202060606060606B7
S11301D006060B0B0B0B0B0B0B0B00002200250070
S11301E028002B002E00310034000201000005011C
S11301F008010B013001CF0A1B0D11241FBECFEFE4
S1130200D1E2DEBFCDBF00E00CBF12E0A0E0B2E05F
S1130210ECE5FBE100E00BBF02C007900D92A433B4
S1130220B107D9F725E0A4E3B2E001C01D92AB34D5
S1130230B207E1F710E0CDEFD0E000E006C021976F
S11302400109802FFE010E94A40DCA3FD10780E05E
S11302500807A9F723D00C94AC0DD2CE08950895C5
S1130260EAE8F2E01582168211861386ECE6F2E0E3
S113027082E090E0A0E0B0E080839183A283B38326
S1130280178AEFE4F2E0138212828AE192E091830A
S11302908083158284E392E047C1089560D0FDDF36
S11302A0DDDFCCE9D9E0DBDF2097E9F30E949C098C
S11302B0FACF1F920F920FB60F9211242F933F93F0
S11302C08F939F93AF93BF938091970290919802DD
S11302D0A0919902B0919A023091960223E0230FE3
S11302E02D3720F40196A11DB11D05C026E8230F6A
S11302F00296A11DB11D20939602809397029093BC
S11303009802A0939902B0939A0280919B029091D3
S11303109C02A0919D02B0919E020196A11DB11D67
S113032080939B0290939C02A0939D02B0939E02A3
S1130330BF91AF919F918F913F912F910F900FBEDD
S11303400F901F9018952FB7F894609197027091B1
S113035098028091990290919A022FBF08957894FF
S113036084B5826084BD84B5816084BD85B58260B6
S113037085BD85B5816085BDEEE6F0E08081816054
S11303808083E1E8F0E01082808182608083808154
S113039081608083E0E8F0E0808181608083E1EB2C
S11303A0F0E0808184608083E0EBF0E08081816014
S11303B08083E1E9F0E080818260808380818160D4
S11303C08083E0E9F0E0808181608083E1EAF0E00D
S11303D0808182608083808181608083E0EAF0E0B4
S11303E0808181608083E1E2F1E0808182608083AA
S11303F0808181608083E0E2F1E08081816080839C
S1130400EAE7F0E080818460808380818260808379
S11304108081816080838081806880831092C100A4
S1130420089580E090E008950895CF93DF931F929C
S1130430CDB7DEB76983DC01ED91FC910280F381D5
S1130440E02D41E050E0BE016F5F7F4F19950F90A2
S1130450DF91CF910895CF93DF93EC01898D9A8D2D
S1130460009739F481E090E09B838A8380E090E0F8
S11304700AC0FC0113821282D3D2E98DFA8D228143
S11304803381232B79F7DF91CF910895FC01818D7E
S1130490928D009709F07FC20895CF93DF931F9246
S11304A0CDB7DEB741E050E0BE016F5F7F4FDAD0D9
S11304B0019719F4898190E002C08FEF9FEF0F90AC
S11304C0DF91CF910895FC01818D928D009709F001
S11304D0E4CF8FEF9FEF08950F931F93CF93DF9394
S11304E0FC01818D928D0097A9F0EF01D6DF8C017C
S11304F00F3F8FEF180789F0898D9A8DFC01428593
S11305005385648575854150510961097109ADD1DF
S1130510C80105C080E090E002C08FEF9FEFDF913B
S1130520CF911F910F910895FC011382128288EEDE
S113053093E0A0E0B0E084839583A683B78388E04A
S113054092E091838083128E118E14860895DC01CB
S11305505996ED91FC915A97309729F062857385ED
S11305608485958508956FEF7FEFCB010895DC01B5
S11305705996ED91FC915A97309729F063897489C3
S113058085899689089560E070E0CB010895CF9243
S1130590DF92EF92FF92CF93DF93FC01218D328D96
S11305A0232BC9F0EC01E3DF6B017C01CE01CFDF2B
S11305B0A7019601261B370B480B590BDA01C90119
S11305C0811530E89307A105B10538F08FEF9FE757
S11305D0A0E0B0E002C080E090E0DF91CF91FF9016
S11305E0EF90DF90CF900895CF93DF93EC019C01BF
S11305F02A5F3F4F41E050E060E070E08B8D9C8DBE
S11306004DD58823A1F08F89988DA98DBA8D892B1A
S11306108A2B8B2B59F48E819F81A885B9858F8B6A
S1130620988FA98FBA8F8C8180688C8381E0DF9149
S1130630CF910895CF93DF93EC01462F6E857F858C
S113064088899989D0D3882341F08A8920E2829FBE
S1130650C001112488559D4F02C080E090E0DF91D5
S1130660CF9108952F923F924F925F926F927F9213
S11306708F929F92AF92BF92CF92DF92EF92FF92AE
S11306800F931F93CF93DF93EC015B014A018D819C
S1130690811103C08FEF9FEFD5C08C8180FFFACF0B
S11306A04B885C886D887E884A855B856C857D85F2
S11306B0C401A0E0B0E093018201041B150B260BDA
S11306C0370B081719072A073B0718F44201841A45
S11306D0950A24011E0126E0220E311C4114510406
S11306E009F47DC04A855B856C857D856A0181E05E
S11306F0D822ED818B8D9C8D8A019B01F9E0369582
S1130700279517950795FA95D1F7E23061F4FC0126
S1130710828D938DA48DB58DBC01CD01600F711FA9
S1130720821F931F3EC0FC0174807A947022C1140E
S1130730D104C1F4711016C0452B462B472B49F444
S11307408F89988DA98DBA8D8E839F83A887B98749
S113075009C04E815F816885798591017DD38823A5
S113076009F498CFEB8DFC8D8E819F81A885B98586
S11307700297A109B109058404C0880F991FAA1F13
S1130780BB1F0A94D2F74685578560897189840F07
S1130790951FA61FB71FBC01CD01670D711D811DDB
S11307A0911D20E032E02C193D0932012415350554
S11307B008F439012C8126FD04C06114F2E07F069F
S11307C079F500910002109101022091020230910A
S11307D00302601771078207930719F421C0C4014B
S11307E031C0750183019601AB01BC018091A60261
S11307F09091A7020E948C0C882309F44BCFA60C7D
S1130800B71C8A859B85AC85BD85860D971DA11D6A
S1130810B11D8A879B87AC87BD87461857085ECF72
S113082040E0E1D2882309F435CFF601E855FD4FC5
S1130830D501CF01860D971D8E179F0701F32191D6
S11308402D93FACFDF91CF911F910F91FF90EF90ED
S1130850DF90CF90BF90AF909F908F907F906F90DC
S11308605F904F903F902F9008958F929F92AF92F8
S1130870BF92CF92DF92EF92FF920F931F93CF9389
S1130880DF93EC018D81811102C080E077C00B8978
S11308901C892D893E890417150726073707A8F3F5
S11308A06A017B01823029F4CA86DB86EC86FD86E8
S11308B00DC0C114D104E104F10451F41E821F825D
S11308C0188619861A861B861C861D8681E056C0EA
S11308D08A849B84AC84BD84EB8DFC8D258530E0BB
S11308E0275F3F4FB501A4014150510961097109C6
S11308F0022E04C076956795579547950A94D2F7CA
S1130900D701C6010197A109B10904C0B695A795FD
S1130910979587952A95D2F784179507A607B70761
S113092020F089288A288B2871F44F89588D698D85
S11309307A8D4E835F83688779874C015D018E01D0
S11309400A5F1F4F15C0841B950BA60BB70BF5CF81
S11309504E815F816885798598018B8D9C8D7CD2D1
S113096091E0891A9108A108B108882309F48DCF70
S113097081149104A104B10459F796CFDF91CF916A
S11309801F910F91FF90EF90DF90CF90BF90AF90A9
S11309909F908F9008950F931F93CF93DF93EC0153
S11309A08D818823B9F18C8187FF2FC061E0CE014E
S11309B041DE8C01892B71F18D81823048F48B8961
S11309C09C89AD89BE89F801848F958FA68FB78FD6
S11309D08F89988DA98DBA8DF801938F828FB58BED
S11309E0A48BE0919F02F091A002309759F0B801D6
S11309F06A5E7F4FC80148961995F801808D918DE4
S1130A00938B828B8C818F778C83DF91CF911F9115
S1130A100F91B0C180E0DF91CF911F910F910895A4
S1130A202F923F924F925F926F927F928F929F92FA
S1130A30AF92BF92CF92DF92EF92FF920F931F93E8
S1130A40CF93DF9300D01F92CDB7DEB78C016B013B
S1130A501A01DC0115968C9115978130C1F4149616
S1130A608C9181FF14C082FF1CC0F8014389548912
S1130A706589768982859385A485B58584179507CC
S1130A80A607B70771F0C801F0DE81110AC081E042
S1130A9090E0D80113969C938E93129780E090E097
S1130AA042C1410182C05B968D919C915C97FC018F
S1130AB074802FEF270D2A013B0139E07694679467
S1130AC0579447943A95D1F7722E74207A01F1E045
S1130AD0FF22772009F475C080E092E08E199F0907
S1130AE054018815990508F45C01D8015B962D9191
S1130AF03C915C9716968D919D910D90BC91A02D83
S1130B000297A109B109F901058404C0880F991F4E
S1130B10AA1FBB1F0A94D2F746855785608971893D
S1130B20840F951FA61FB71F9C01AD01270D311D12
S1130B30411D511D29013A01A11432E0B30609F007
S1130B4085C08091000290910102A0910202B091AF
S1130B500302481659066A067B0659F48FEF9FEF85
S1130B60DC018093000290930102A0930202B093EF
S1130B7003029601B301A2018091A6029091A702FB
S1130B8013D7882309F483CF9EEFD91A8A189B08B8
S1130B90F80182859385A485B5858A0D9B1DA11DC9
S1130BA0B11D82879387A487B587D8011A964D9182
S1130BB05D916D917C911D978114910409F073CF1F
S1130BC083C0E114F10409F087CF16964D915D912D
S1130BD06D917C911997411551056105710559F481
S1130BE057968D919D910D90BC91A02D0097A105D4
S1130BF0B10531F520C09E012F5F3F4F2DD18823D1
S1130C0009F44DCF89819A81AB81BC81F801238D90
S1130C10348DF9012789203129F048EF5FEF6FEF18
S1130C207FE004C048EF5FEF60E070E08417950751
S1130C30A607B70728F0C801D7DC81114DCF27CF0D
S1130C40F80186839783A087B18746CFE114F10426
S1130C5021F5D8011A964D915D916D917C911D9766
S1130C6053968D919D910D90BC91A02D48175907D5
S1130C706A077B0790F07ED0882309F408CF40925E
S1130C80000250920102609202027092030280916B
S1130C90A50281608093A50207C041E0C301B201AF
S1130CA0A2D0882309F4F3CED601F701E855FD4F0D
S1130CB09F012A0D3B1D2E173F0719F08D9181933B
S1130CC0FACFCA0CDB1C62CFD8015396CD90DD90CD
S1130CD0ED90FC90569714968C91C416D506E606B2
S1130CE0F70640F4F801438B548B658B768B806850
S1130CF084830DC020919F023091A002232B39F0F0
S1130D002114310421F08068D80114968C93F801E1
S1130D10848183FD02C0C10106C0C8013CDE882372
S1130D2009F4B5CEF8CF0F900F900F900F90DF918C
S1130D30CF911F910F91FF90EF90DF90CF90BF90D4
S1130D40AF909F908F907F906F905F904F903F9067
S1130D502F900895CF93DF931F92CDB7DEB76983A9
S1130D6041E050E0BE016F5F7F4F5ADE0F90DF918C
S1130D70CF9108958091A502882399F140910002B2
S1130D8050910102609102027091030228EA32E05C
S1130D908091A6029091A70207D6811102C080E03B
S1130DA008954091A1025091A2026091A302709112
S1130DB0A402411551056105710589F028EA32E064
S1130DC08091A6029091A702EFD5882341F3109257
S1130DD0A1021092A2021092A3021092A4021092F5
S1130DE0A50281E00895CF92DF92EF92FF92CF9314
S1130DF06B017C01C42F8091000290910102A091AB
S1130E000202B09103028C159D05AE05BF05C1F029
S1130E10B1DF811102C080E019C028EA32E0B701D5
S1130E20A6018091A6029091A70285D5882399F303
S1130E30C0920002D0920102E0920202F0920302F8
S1130E408091A502C82BC093A50281E0CF91FF90A9
S1130E50EF90DF90CF9008958F929F92AF92BF92C0
S1130E60CF92DF92EF92FF920F931F93CF93DF9372
S1130E70FC0181859285A385B4850196A11DB11DD0
S1130E8084179507A607B70710F480E05AC0838833
S1130E909488A588B6888789803129F4BB27A72F31
S1130EA0962F852F09C0DB01CA01C7E0B695A79527
S1130EB097958795CA95D1F7E9016A017B018F015E
S1130EC0BC01CD01680D791D8A1D9B1D8090000217
S1130ED090900102A0900202B09003026815790577
S1130EE08A059B0591F4F8018789803199F4DD2402
S1130EF0EE24FF24C601880F991FFC01E855FD4F1D
S1130F0080819181A0E0B0E017C040E06CDF8111E6
S1130F10EACFBBCFE894C7F8DD24EE24FF24C60152
S1130F20880F991F880F991FFC01E855FD4F808198
S1130F309181A281B381BF7088839983AA83BB8383
S1130F4081E0DF91CF911F910F91FF90EF90DF909F
S1130F50CF90BF90AF909F908F9008954F925F92E3
S1130F606F927F928F929F92AF92BF92CF92DF92B5
S1130F70EF92FF920F931F93CF93DF93EC014230D4
S1130F8051056105710510F480E077C089859A8563
S1130F90AB85BC850196A11DB11D84179507A607D5
S1130FA0B70790F3CB88DC88ED88FE888F89803181
S1130FB029F4BB27A72F962F852F09C0DB01CA016F
S1130FC0E7E0B695A79597958795EA95D1F74801F7
S1130FD059012A013B01C80ED91EEA1EFB1E80914D
S1130FE0000290910102A0910202B0910302C8167E
S1130FF0D906EA06FB0681F48F898031A1F4B30196
S1131000A201552766277727440F551FFA01E85593
S1131010FD4F9182808218C040E0C701B601E3DE33
S11310208111EACFB1CFB301A2014F7755276627CB
S11310307727440F551F440F551FFA01E855FD4FFC
S113104080829182A282B3828091A5028160809382
S1131050A5028A89823080F08D819E81AF81B88516
S1131060C80ED91EEA1EFB1EC092A102D092A20293
S1131070E092A302F092A40281E0DF91CF911F914C
S11310800F91FF90EF90DF90CF90BF90AF909F9023
S11310908F907F906F905F904F9008952F923F9222
S11310A04F925F926F927F929F92AF92BF92CF9234
S11310B0DF92EF92FF920F931F93CF93DF93CDB7FD
S11310C0DEB760970FB6F894DEBF0FBECDBF5C01EC
S11310D049875A876B877C871901D901CD90DD90A8
S11310E0ED90FC90C114D104E104F10431F0BFEFA0
S11310F0CB1ADB0AEB0AFB0A10C0FC01C080D180CA
S1131100E280F3809924939409851A852B853C8584
S1131110013011052105310509F0912CF501818576
S11311209285A385B4858C019D010F5F1F4F2F4FBE
S11311303F4F0D871E872F87388B260137011D826D
S11311401E821F821886F50181859285A385B48548
S11311500D811E812F813885081719072A073B073F
S113116008F054C02D853E854F85588924153505D2
S11311704605570550F482E0482E512C612C712C01
S113118092E0C92ED12CE12CF12C9E012F5F3F4F10
S1131190B301A201C50160DE8823C1F149815A81EE
S11311A06B817C81D301C2010196A11DB11D452B28
S11311B0462B472B19F06C017D010FC0AC01BD011A
S11311C04C195D096E097F0909851A852B853C85B3
S11311D0041715072607370779F02D813E814F81C3
S11311E058852F5F3F4F4F4F5F4F2D833E834F8373
S11311F058872C013D01A7CF0FEF1FEF2FEF3FE0E2
S1131200B301A201C501AADE811117C080E03FC06D
S1131210D301C2010197A109B1098D839E83AF83D4
S1131220B88793018201AC01BD01C50197DE882313
S113123069F34D805E806F807884C414D504E6041D
S1131240F70430F3D1014D915D916D917C9141157D
S113125051056105710599F4F101C082D182E282E0
S1131260F382992099F0FFEFCF1ADF0AEF0AFF0A01
S1131270D501CD92DD92ED92FC92139707C09701B0
S11312808601C5016BDE8111E7CFC0CF81E0609696
S11312900FB6F894DEBF0FBECDBFDF91CF911F9183
S11312A00F91FF90EF90DF90CF90BF90AF909F9001
S11312B07F906F905F904F903F902F900895FC0126
S11312C0918D228D892F90E0805C9F4F821B910924
S11312D08F7399270895FC01918D828D981731F0B1
S11312E0828DE80FF11D858D90E008958FEF9FEFBB
S11312F00895FC01918D828D981761F0828DDF0134
S1131300A80FB11D5D968C91928D9F5F9F73928FF4
S113131090E008958FEF9FEF0895FC01538D448D65
S1131320252F30E0842F90E0821B930B541710F08C
S1131330CF9608950197089586EC9AE0892B39F0A9
S113134080E090E0892B19F021D1811125C080E043
S113135090E0892B41F080E090E0892B21F00E94FD
S1131360000081111CC080E090E0892B41F080E0F6
S113137090E0892B21F00E940000811113C080E0CD
S113138090E0892BA1F080E090E0892B81F00E940D
S1131390000081110AC008950E940000D8CF0E9465
S11313A00000E1CF0E940000EACF0C9400000895F1
S11313B0FC01848DDF01A80FB11DA35ABF4F2C91EE
S11313C0848D90E001968F739927848FA689B789BD
S11313D02C93A089B1898C91837080648C93938DB4
S11313E0848D981306C00288F389E02D80818F7D57
S11313F080830895EF92FF920F931F93CF93DF930F
S1131400EC0181E0888F9B8D8C8D981305C0E88951
S1131410F989808185FD25C0F62E0B8D10E00F5FC4
S11314201F4F0F731127E02E8C8DE8120BC00FB6DF
S113143007FCFACFE889F989808185FFF5CFCE01D1
S1131440B7DFF2CF8B8DFE01E80FF11DE35AFF4F9A
S1131450F0829FB7F8940B8FEA89FB8980818062C0
S11314600AC09FB7F894EE89FF896083E889F989F7
S113147080818370806480839FBF81E090E0DF91EE
S1131480CF911F910F91FF90EF900895CF93DF9329
S1131490EC01888D8823C1F0EA89FB89808185FD70
S11314A005C0A889B9898C9186FD0EC00FB607FCCA
S11314B0F5CF808185FFF2CFA889B9898C9185FF0A
S11314C0EDCFCE0175DFE8CFDF91CF9108951F9264
S11314D00F920FB60F9211240BB60F922F938F9386
S11314E09F93EF93FF93E091B804F091B904808146
S11314F0E091BE04F091BF0482FD12C090818091FE
S1131500C1048F5F8F732091C204821751F0E09160
S1131510C104F0E0E855FB4F958F8093C10401C0EE
S11315208081FF91EF919F918F912F910F900BBE2E
S11315300F900FBE0F901F9018951F920F920FB629
S11315400F9211240BB60F922F933F934F935F93F7
S11315506F937F938F939F93AF93BF93EF93FF9377
S113156088EA94E025DFFF91EF91BF91AF919F91BD
S11315708F917F916F915F914F913F912F910F9038
S11315800BBE0F900FBE0F901F90189588EA94E041
S113159096DE21E0892B09F420E0822F0895E8EA01
S11315A0F4E01382128288EE93E0A0E0B0E084833A
S11315B09583A683B78386E292E09183808385EC4A
S11315C090E09587848784EC90E09787868780EC09
S11315D090E0918B808B81EC90E0938B828B82ECFA
S11315E090E0958B848B86EC90E0978B868B118EA4
S11315F0128E138E148E0895CF92DF92EF92FF9283
S11316000F931F93CF93DF936C017A018B01C0E09A
S1131610D0E0CE15DF0581F0D8016D918D01D601A2
S1131620ED91FC910190F081E02DC6011995892B73
S113163011F02196EECF7E01C701DF91CF911F916A
S11316400F91FF90EF90DF90CF9008959FB7F8949B
S113165020914A0580914805213019F48DBB9FBF24
S113166008958FBF089520914A05222399F04FB71A
S1131670F89420914A05213059F42DB3209348055C
S11316803DB320914905209523232DBB4FBF02C0B4
S1131690409348058CBD9DBD08958EBD00000DB4DA
S11316A007FEFDCF8EB508958FEFF7CF61E0FC0103
S11316B084811CD280914505882331F01092450520
S11316C080914A058111C2CF0895CF93DF93EC0135
S11316D080914505811108C081E080934505809182
S11316E0460590914705BFDF60E08C81DF91CF9183
S11316F0FDC1CF93DF93EC018E81882379F08F8134
S113170098859C012F5F3F4F38872F83823092400A
S113171010F4CADFF4CFCE01C9DF1E82DF91CF916E
S113172008950F931F93CF93DF93EB010E94A301BE
S11317308B01BADF8F3F49F00E94A301601B710B3C
S11317406C177D07B0F380E001C081E0DF91CF9199
S11317501F910F9108958F929F92AF92BF92FF9223
S11317600F931F93CF93DF93EC01F62E49015A0197
S1131770C0DFCE01AADF6CE271E0CE01D2DF8F2D93
S113178080648BDF08E110E0D501C401002E04C0A1
S1131790B695A795979587950A94D2F77EDF08505A
S11317A01109083F8FEF180779F7FF2029F088E027
S11317B0F81204C087E803C085E901C08FEF6DDF2C
S11317C010E072DF8A8787FF04C01F3F11F01F5F9C
S11317D0F8CFDF91CF911F910F91FF90BF90AF9001
S11317E09F908F9008950F931F93CF93DF93EC01F5
S11317F00E94A3018B0158DF8A878F3F49F40E941E
S1131800A301601B710B6D327140A8F38FE003C01C
S11318108E3F31F08DE08D83CE0148DF80E001C042
S113182081E0DF91CF911F910F910895CF92DF92C4
S1131830EF92FF920F931F93CF93DF93EC01690113
S1131840C801820F931F8130924008F057C08E81E7
S1131850882371F088819981AA81BB8184179507B7
S1131860A607B70729F48F819885C816D90600F50D
S1131870488359836A837B838B85833039F089E07D
S1131880440F551F661F771F8A95D1F79A01AB0144
S113189061E1CE0160DF882319F083E08D832EC0DF
S11318A0CE01A1DF882351F118861F8281E08E8347
S11318B08F8198858C159D0538F4F6DE8F81988587
S11318C0019698878F83F4CF6701E00EF11ECE1442
S11318D0DF0429F0E9DEF60181936F01F8CF8F81EF
S11318E09885080F191F18870F838985882319F095
S11318F00115124038F0CE01FCDE04C0CE01D6DE64
S113190080E001C081E0DF91CF911F910F91FF90A2
S1131910EF90DF90CF900895EF92FF920F931F9373
S11319200115110511F082DF01C081E01F910F91B3
S1131930FF90EF900895EF92FF920F931F93790118
S113194000E012E020E030E071DF1F910F91FF9082
S1131950EF900895EF92FF920F931F93CF93DF932D
S11319608C01862F7A0199DEE7018EEFF81A8991AE
S113197094DECE15DF05D9F78FEF8FDE8FEF8DDE86
S113198093DEF80182878F71853031F081E18583A0
S1131990C8018CDE80E001C081E0DF91CF911F910E
S11319A00F91FF90EF9008950F931F93CF93DF93C0
S11319B0EC018901411551056105710511F482E1BC
S11319C02DC08B85833039F089E0440F551F661F85
S11319D0771F8A95D1F79A01AB0168E1CE01BBDE8E
S11319E0882311F084E01AC0A8016EEFCE01B2DFA3
S11319F08823A9F068E572E0CE0193DE811102C06C
S1131A0085E10CC020E030E0A9016DE0CE01A3DE49
S1131A10811103C049DE882331F084E18D83CE0136
S1131A2045DE80E003C0CE0141DE81E0DF91CF914D
S1131A301F910F910895E6E4F5E080E5808311821B
S1131A40089590E0FC013197E231F10508F04DC0B2
S1131A508827EE58FF4F8F4F77C0809180008F7793
S1131A6003C0809180008F7D8093800008958091D1
S1131A708000877FF9CF84B58F7702C084B58F7DCE
S1131A8084BD08958091B0008F7703C08091B00029
S1131A908F7D8093B0000895809190008F7707C068
S1131AA0809190008F7D03C080919000877F809308
S1131AB0900008958091A0008F7707C08091A000C6
S1131AC08F7D03C08091A000877F8093A00008953C
S1131AD0809120018F7707C0809120018F7D03C002
S1131AE080912001877F8093200108951F93CF93D5
S1131AF0DF93282F30E0F901E85FFE4F8491F9016C
S1131B00E25BFE4FD491F901EC56FE4FC491CC2315
S1131B10B9F0162F811195DFEC2FF0E0EE0FFF1FC7
S1131B20E652FE4FA591B4919FB7F894111104C0E9
S1131B308C91D095D82302C0EC91DE2BDC939FBF0F
S1131B40DF91CF911F910895EE0FFF1F881F8BBF68
S10F1B500790F691E02D1994F894FFCF53
S1131B5CFFFFFFFF0000000015022B0211024602DA
S1131B6CC70263026C0200000000AA06FC0A110200
S1131B7C140200000000FA09FC0A8D09460A5F09E8
S1071B8C79096B095B
S9030000FC
