S015000077657474657273746174696F6E2E7372656372
S1130000FFC00000B9C30000E2C300000BC400003D
S113001034C400005DC4000086C40000AFC4000006
S1130020D8C400001DC100001BC1000019C100009C
S113003017C1000015C1000013C1000011C1000068
S11300400FC100000DC100000BC1000009C1000078
S113005007C1000005C1000003C10000E5C40000A1
S1130060FFC00000BEC20000F2C20000F9C00000E0
S1130070F7C00000F5C00000F3C00000F1C00000AC
S1130080EFC00000EDC00000EBC00000E9C00000BC
S1130090E7C00000E5C00000E3C00000E1C00000CC
S11300A0DFC00000DDC00000DBC00000D9C00000DC
S11300B0D7C00000D5C00000D3C00000D1C00000EC
S11300C0CFC00000CDC00000CBC00000C9C00000FC
S11300D0C7C00000C5C00000C3C00000C1C000000C
S11300E0BFC00000E705EA05D905DD05E3052106E3
S11300F0EE05F205F805FC05000606060A060E06DE
S11301002106140618061C0600000A0B02090C0D31
S11301100E080703040100000000000000000000B6
S113012000000000000000000000000000000000CB
S11301300000000012111000000000000000000088
S113014000000000000000000000000000000102A8
S113015010202008081020401020408002010201D5
S1130160080402010102040810204080804020108D
S113017008040201800402018040201008040201E6
S1130180080402010102040810204080010204084E
S11301901020408005050505070508080808020227
S11301A002020A0A0808040404040101010101010D
S11301B001010303030303030303040707070C0CF0
S11301C00C0C0C0C0C0C02020202060606060606B7
S11301D006060B0B0B0B0B0B0B0B00002200250070
S11301E028002B002E00310034000201000005011C
S11301F008010B01310159015903AE07B6094A013F
S113020011241FBECFEFD1E2DEBFCDBF00E00CBF93
S113021014E0A0E0B2E0E4EEF4E200E00BBF02C0C0
S113022007900D92A635B107D9F727E0A6E5B4E00B
S113023001C01D92A83DB207E1F710E0CFEFD0E076
S113024000E006C021970109802FFE010E9448109A
S1130250CA3FD10780E00807A9F759D20C9461126C
S1130260CFCE6AE172E08EE694E085D560E272E07A
S113027088E694E080D568E272E082E694E07BD57B
S11302806EE272E08CE594E076D564E372E086E594
S113029094E071C586E594E003D58CE594E000D53F
S11302A082E694E0FDD488E694E0FAD48EE694E005
S11302B0F7C48BEB94E0F2D5EFEAF4E015821682F2
S11302C011861386E1E9F4E082E090E0A0E0B0E07A
S11302D080839183A283B383178AE4E7F4E01382D3
S11302E012828EE494E0918380831582089526E03F
S11302F040E855E260E070E086ED94E009C10895BD
S1130300FC01918D228D892F90E0805C9F4F821B90
S113031091098F7399270895FC01918D828D981707
S113032031F0828DE80FF11D858D90E008958FEFF7
S11303309FEF0895FC01918D828D981761F0828D55
S1130340DF01A80FB11D5D968C91928D9F5F9F7305
S1130350928F90E008958FEF9FEF0895FC01538DE5
S1130360448D252F30E0842F90E0821B930B54178B
S113037010F0CF9608950197089580E593E0892BB6
S113038039F080E090E0892B19F08AD1811125C0E1
S113039080E090E0892B41F080E090E0892B21F00F
S11303A00E94000081111CC080E090E0892B41F084
S11303B080E090E0892B21F00E940000811113C09D
S11303C080E090E0892BA1F080E090E0892B81F01F
S11303D00E94000081110AC008950E940000D8CF35
S11303E00E940000E1CF0E940000EACF0C940000BC
S11303F00895FC01848DDF01A80FB11DA35ABF4FDE
S11304002C91848D90E001968F739927848FA6890F
S1130410B7892C93A089B1898C91837080648C9363
S1130420938D848D981306C00288F389E02D808112
S11304308F7D80830895EF92FF920F931F93CF9344
S1130440DF93EC0181E0888F9B8D8C8D981305C020
S1130450E889F989808185FD25C0F62E0B8D10E091
S11304600F5F1F4F0F731127E02E8C8DE8120BC006
S11304700FB607FCFACFE889F989808185FFF5CFAB
S1130480CE01B7DFF2CF8B8DFE01E80FF11DE35AE9
S1130490FF4FF0829FB7F8940B8FEA89FB89808124
S11304A080620AC09FB7F894EE89FF896083E88967
S11304B0F98980818370806480839FBF81E090E0AC
S11304C0DF91CF911F910F91FF90EF900895CF93FB
S11304D0DF93EC01888D8823C1F0EA89FB89808150
S11304E085FD05C0A889B9898C9186FD0EC00FB61B
S11304F007FCF5CF808185FFF2CFA889B9898C915B
S113050085FFEDCFCE0175DFE8CFDF91CF91089560
S1130510CF92DF92EF92FF921F93CF93DF93EC0180
S11305206A017B01122FE889F98982E080834115F1
S1130530514E61057105B1F060E079E08DE390E022
S1130540A70196010E942610DA01C9010197A109A9
S1130550B109B695A795979587959C01211580E1DA
S11305603807A8F0E889F989108260E874E88EE118
S113057090E0A70196010E942610DA01C9010197B3
S1130580A109B109B695A795979587959C01EC8526
S1130590FD853083EE85FF852083188EEC89FD89E7
S11305A01083EA89FB89808180618083EA89FB89E1
S11305B0808188608083EA89FB8980818068808368
S11305C0EA89FB8980818F7D8083DF91CF911F91A0
S11305D0FF90EF90DF90CF90089580E090E0089531
S11305E008951F920F920FB60F9211240BB60F921B
S11305F02F938F939F93EF93FF93E091E604F091F1
S1130600E7048081E091EC04F091ED0482FD12C0D6
S113061090818091EF048F5F8F732091F004821793
S113062051F0E091EF04F0E0EA52FB4F958F809394
S1130630EF0401C08081FF91EF919F918F912F91E1
S11306400F900BBE0F900FBE0F901F9018951F9226
S11306500F920FB60F9211240BB60F922F933F9364
S11306604F935F936F937F938F939F93AF93BF93B6
S1130670EF93FF9386ED94E0BCDEFF91EF91BF9181
S1130680AF919F918F917F916F915F914F913F9126
S11306902F910F900BBE0F900FBE0F901F901895C7
S11306A086ED94E02DDE21E0892B09F420E0822FF1
S11306B00895E6EDF4E01382128288EE93E0A0E060
S11306C0B0E084839583A683B7838AE294E0918320
S11306D0808385EC90E09587848784EC90E097870D
S11306E0868780EC90E0918B808B81EC90E0938BFB
S11306F0828B82EC90E0958B848B86EC90E0978BD8
S1130700868B118E128E138E148E08950895E2D165
S1130710FDDFEDDDCDEBD1E0F2DD2097E9F32DDE59
S1130720FBCFCF92DF92EF92FF920F931F93CF9361
S1130730DF936C017A018B01C0E0D0E0CE15DF05B8
S113074081F0D8016D918D01D601ED91FC9101905C
S1130750F081E02DC6011995892B11F02196EECF79
S11307607E01C701DF91CF911F910F91FF90EF9010
S1130770DF90CF90089508951F920F920FB60F92B5
S113078011240BB60F922F933F934F935F936F9364
S11307907F938F939F93AF93BF93EF93FF93E091D6
S11307A00A02F0910B021995FF91EF91BF91AF915D
S11307B09F918F917F916F915F914F913F912F9175
S11307C00F900BBE0F900FBE0F901F9018951F92A5
S11307D00F920FB60F9211240BB60F922F933F93E3
S11307E04F935F936F937F938F939F93AF93BF9335
S11307F0EF93FF93E0910C02F0910D021995FF9194
S1130800EF91BF91AF919F918F917F916F915F9184
S11308104F913F912F910F900BBE0F900FBE0F90F1
S11308201F9018951F920F920FB60F9211240BB6BA
S11308300F922F933F934F935F936F937F938F9375
S11308409F93AF93BF93EF93FF93E0910E02F091C8
S11308500F021995FF91EF91BF91AF919F918F91E5
S11308607F916F915F914F913F912F910F900BBEAC
S11308700F900FBE0F901F9018951F920F920FB6F6
S11308800F9211240BB60F922F933F934F935F93C4
S11308906F937F938F939F93AF93BF93EF93FF9344
S11308A0E0911002F09111021995FF91EF91BF911F
S11308B0AF919F918F917F916F915F914F913F91F4
S11308C02F910F900BBE0F900FBE0F901F90189595
S11308D01F920F920FB60F9211240BB60F922F9303
S11308E03F934F935F936F937F938F939F93AF93B4
S11308F0BF93EF93FF93E0910602F09107021995DD
S1130900FF91EF91BF91AF919F918F917F916F91E3
S11309105F914F913F912F910F900BBE0F900FBE9F
S11309200F901F9018951F920F920FB60F921124DB
S11309300BB60F922F933F934F935F936F937F93D5
S11309408F939F93AF93BF93EF93FF93E09108022C
S1130950F09109021995FF91EF91BF91AF919F9189
S11309608F917F916F915F914F913F912F910F9054
S11309700BBE0F900FBE0F901F9018951F920F92F1
S11309800FB60F9211240BB60F922F933F934F93F0
S11309905F936F937F938F939F93AF93BF93EF93E3
S11309A0FF93E0911202F09113021995FF91EF91D8
S11309B0BF91AF919F918F917F916F915F914F9173
S11309C03F912F910F900BBE0F900FBE0F901F9071
S11309D018951F920F920FB60F9211240BB60F9217
S11309E02F933F934F935F936F937F938F939F9333
S11309F0AF93BF93EF93FF93E0911402F09115022C
S1130A001995FF91EF91BF91AF919F918F917F9134
S1130A106F915F914F913F912F910F900BBE0F906B
S1130A200FBE0F901F9018951F920F920FB60F9242
S1130A3011242F933F938F939F93AF93BF938091F0
S1130A40740590917505A0917605B0917705309164
S1130A50730523E0230F2D3720F40196A11DB11D4A
S1130A6005C026E8230F0296A11DB11D209373052E
S1130A708093740590937505A0937605B0937705DC
S1130A808091780590917905A0917A05B0917B05C4
S1130A900196A11DB11D8093780590937905A093CB
S1130AA07A05B0937B05BF91AF919F918F913F9150
S1130AB02F910F900FBE0F901F9018952FB7F89499
S1130AC06091740570917505809176059091770514
S1130AD02FBF0895789484B5826084BD84B5816005
S1130AE084BD85B5826085BD85B5816085BDEEE632
S1130AF0F0E0808181608083E1E8F0E01082808111
S1130B0082608083808181608083E0E8F0E080817E
S1130B1081608083E1EBF0E0808184608083E0EB9E
S1130B20F0E0808181608083E1E9F0E0808182608F
S1130B308083808181608083E0E9F0E0808181604E
S1130B408083E1EAF0E0808182608083808181603B
S1130B508083E0EAF0E0808181608083E1E2F1E07B
S1130B60808182608083808181608083E0E2F1E023
S1130B70808181608083EAE7F0E080818460808303
S1130B8080818260808380818160808380818068AD
S1130B9080831092C100089590E0FC013197E23106
S1130BA0F10508F04EC08827EE58FF4F8F4F0C9484
S1130BB04810809180008F7703C0809180008F7DE2
S1130BC080938000089580918000877FF9CF84B559
S1130BD08F7702C084B58F7D84BD08958091B00065
S1130BE08F7703C08091B0008F7D8093B00008950B
S1130BF0809190008F7707C0809190008F7D03C013
S1130C0080919000877F8093900008958091A00048
S1130C108F7707C08091A0008F7D03C08091A000D2
S1130C20877F8093A0000895809120018F7707C06B
S1130C30809120018F7D03C080912001877F809364
S1130C40200108951F93CF93DF93282F30E0F901FB
S1130C50E85FFE4F8491F901E25BFE4FD491F90104
S1130C60EC56FE4FC491CC23B9F0162F811194DFBA
S1130C70EC2FF0E0EE0FFF1FE652FE4FA591B4916A
S1130C809FB7F894111104C08C91D095D82302C059
S1130C90EC91DE2BDC939FBFDF91CF911F910895E0
S1130CA0FC01808191810C94E810CF93DF93EC01D7
S1130CB088819981009711F00E94E81019821882A6
S1130CC01D821C821B821A82DF91CF9108950F939B
S1130CD01F93CF93DF93EC018B016F5F7F4F88816C
S1130CE099810E947111009731F0998388831B8345
S1130CF00A8381E001C080E0DF91CF911F910F91C1
S1130D000895CF93DF93EC0188819981892B29F091
S1130D108A819B818617970758F4CE01D8DF8823F0
S1130D2041F08C819D81892B19F4E881F98110822D
S1130D3081E0DF91CF910895EF92FF920F931F937B
S1130D40CF93DF93EC017B018A01BA01DADF8111D1
S1130D5003C0CE01AADF07C01D830C83B7018881BD
S1130D6099810E945A12CE01DF91CF911F910F9168
S1130D70FF90EF900895FC01118210821382128279
S1130D80158214826115710549F0FB010190002060
S1130D90E9F73197AF01461B570BCECF0895CF9398
S1130DA0DF931F92CDB7DEB76983DC01ED91FC912F
S1130DB00280F381E02D41E050E0BE016F5F7F4F80
S1130DC019950F90DF91CF910895CF93DF93EC01A4
S1130DD0898D9A8D009739F481E090E09B838A8312
S1130DE080E090E00AC0FC0113821282E0D4E98D15
S1130DF0FA8D22813381232B79F7DF91CF910895E6
S1130E00FC01818D928D009709F08CC40895CF93D5
S1130E10DF931F92CDB7DEB741E050E0BE016F5FB4
S1130E207F4FE8D2019719F4898190E002C08FEFD7
S1130E309FEF0F90DF91CF910895FC01818D928DEA
S1130E40009709F0E4CF8FEF9FEF08950F931F935E
S1130E50CF93DF93FC01818D928D0097A9F0EF0170
S1130E60D6DF8C010F3F8FEF180789F0898D9A8D9B
S1130E70FC0142855385648575854150510961099A
S1130E807109BAD3C80105C080E090E002C08FEFB9
S1130E909FEFDF91CF911F910F910895FC01138271
S1130EA0128288EE93E0A0E0B0E084839583A68369
S1130EB0B7838CE394E091838083128E118E148621
S1130EC00895DC015996ED91FC915A97309729F0D9
S1130ED0628573858485958508956FEF7FEFCB01D7
S1130EE00895DC015996ED91FC915A97309729F0B9
S1130EF06389748985899689089560E070E0CB01DF
S1130F000895CF92DF92EF92FF92CF93DF93FC018B
S1130F10218D328D232BC9F0EC01E3DF6B017C01C1
S1130F20CE01CFDFA7019601261B370B480B590BC7
S1130F30DA01C901811530E89307A105B10538F03C
S1130F408FEF9FE7A0E0B0E002C080E090E0DF9187
S1130F50CF91FF90EF90DF90CF900895ECE7F5E00C
S1130F60158216821186138682E090E0A0E0B0E03C
S1130F7084879587A687B78713A215A614A68EE43F
S1130F8094E093A782A717A608959FB7F894209199
S1130F90D3078091D107213019F48DBB9FBF0895E9
S1130FA08FBF08952091D307222399F04FB7F89467
S1130FB02091D307213059F42DB32093D1073DB3A9
S1130FC02091D207209523232DBB4FBF02C040930D
S1130FD0D1078CBD9DBD08958EBD00000DB407FEE4
S1130FE0FDCF8EB508958FEFF7CF61E0FC018481CA
S1130FF029DE8091C505882331F01092C5058091C2
S1131000D3078111C2CF0895CF93DF93EC01809170
S1131010C505811108C081E08093C5058091C6058E
S11310209091C705BFDF60E08C81DF91CF910ACE3C
S1131030CF93DF93EC018E81882379F08F8198859B
S11310409C012F5F3F4F38872F838230924010F4EA
S1131050CADFF4CFCE01C9DF1E82DF91CF9108959C
S11310600F931F93CF93DF93EB0128DD8B01BBDF3D
S11310708F3F41F023DD601B710B6C177D07B8F3C4
S113108080E001C081E0DF91CF911F910F9108951D
S11310908F929F92AF92BF92FF920F931F93CF9321
S11310A0DF93EC01F62E49015A01C2DFCE01ACDF19
S11310B06CE271E0CE01D4DF8F2D80648DDF08E116
S11310C010E0D501C401002E04C0B695A7959795EC
S11310D087950A94D2F780DF08501109083F8FEFF3
S11310E0180779F7FF2029F088E0F81204C087E890
S11310F003C085E901C08FEF6FDF10E074DF8A87DA
S113110087FF04C01F3F11F01F5FF8CFDF91CF911D
S11311101F910F91FF90BF90AF909F908F90089573
S11311200F931F93CF93DF93EC01C8DC8B015BDF3C
S11311308A878F3F41F4C2DC601B710B6D327140B2
S1131140B0F38FE003C08E3F31F08DE08D83CE018C
S11311504CDF80E001C081E0DF91CF911F910F91BE
S11311600895CF92DF92EF92FF920F931F93CF9344
S1131170DF93EC016901C801820F931F8130924013
S113118008F057C08E81882371F088819981AA81E3
S1131190BB8184179507A607B70729F48F81988523
S11311A0C816D90600F5488359836A837B838B85E7
S11311B0833039F089E0440F551F661F771F8A95E5
S11311C0D1F79A01AB0161E1CE0162DF882319F006
S11311D083E08D832EC0CE01A3DF882351F11886CE
S11311E01F8281E08E838F8198858C159D0538F44C
S11311F0FADE8F819885019698878F83F4CF6701F3
S1131200E00EF11ECE14DF0429F0EDDEF601819329
S11312106F01F8CF8F819885080F191F18870F83E6
S11312208985882319F00115124038F0CE0100DFBA
S113123004C0CE01DADE80E001C081E0DF91CF910D
S11312401F910F91FF90EF90DF90CF900895EF9250
S1131250FF920F931F930115110511F082DF01C056
S113126081E01F910F91FF90EF900895EF92FF920C
S11312700F931F93790100E012E020E030E071DF6A
S11312801F910F91FF90EF900895EF92FF920F93AB
S11312901F93CF93DF938C01862F7A019DDEE701A4
S11312A08EEFF81A899198DECE15DF05D9F78FEF06
S11312B093DE8FEF91DE97DEF80182878F718530A0
S11312C031F081E18583C80190DE80E001C081E0D6
S11312D0DF91CF911F910F91FF90EF9008950F939D
S11312E01F93CF93DF93EC018901411551056105EB
S11312F0710511F482E12DC08B85833039F089E0CA
S1131300440F551F661F771F8A95D1F79A01AB01C9
S113131068E1CE01BDDE882311F084E01AC0A80183
S11313206EEFCE01B2DF8823A9F068E572E0CE014A
S113133097DE811102C085E10CC020E030E0A901F4
S11313406DE0CE01A5DE811103C04DDE882331F0AE
S113135084E18D83CE0149DE80E003C0CE0145DE09
S113136081E0DF91CF911F910F910895E6ECF5E0B4
S113137080E5808311820895CF93DF93EC019C0173
S11313802A5F3F4F41E050E060E070E08B8D9C8D20
S11313904CD58823A1F08F89988DA98DBA8D892B7E
S11313A08A2B8B2B59F48E819F81A885B9858F8BCD
S11313B0988FA98FBA8F8C8180688C8381E0DF91AC
S11313C0CF910895CF93DF93EC01462F6E857F85EF
S11313D088899989CFD3882341F08A8920E2829F22
S11313E0C00111248F529A4F02C080E090E0DF9137
S11313F0CF9108952F923F924F925F926F927F9276
S11314008F929F92AF92BF92CF92DF92EF92FF9210
S11314100F931F93CF93DF93EC015B014A018D81FE
S1131420811103C08FEF9FEFD4C08C8180FFFACF6E
S11314304B885C886D887E884A855B856C857D8554
S1131440C401A0E0B0E093018201041B150B260B3C
S1131450370B081719072A073B0718F44201841AA7
S1131460950A24011E0126E0220E311C4114510468
S113147009F47DC04A855B856C857D856A0181E0C0
S1131480D822ED818B8D9C8D8A019B01F9E03695E4
S1131490279517950795FA95D1F7E23061F4FC0189
S11314A0828D938DA48DB58DBC01CD01600F711F0C
S11314B0821F931F3EC0FC0174807A947022C11471
S11314C0D104C1F4711016C0452B462B472B49F4A7
S11314D08F89988DA98DBA8D8E839F83A887B987AC
S11314E009C04E815F816885798591017CD3882309
S11314F009F498CFEB8DFC8D8E819F81A885B985E9
S11315000297A109B109058404C0880F991FAA1F75
S1131510BB1F0A94D2F74685578560897189840F69
S1131520951FA61FB71FBC01CD01670D711D811D3D
S1131530911D20E032E02C193D09320124153505B6
S113154008F439012C8126FD04C06114F2E07F0601
S113155071F5009116021091170220911802309132
S11315601902601771078207930719F420C0C40198
S113157030C0750183019601AB01BC018091CF0598
S11315809091D00564DE882309F44CCFA60CB71CD7
S11315908A859B85AC85BD85860D971DA11DB11DD2
S11315A08A879B87AC87BD87461857085FCF40E082
S11315B0E1D2882309F436CFF601EF52FA4FD50170
S11315C0CF01860D971D8E179F0701F321912D934F
S11315D0FACFDF91CF911F910F91FF90EF90DF90A1
S11315E0CF90BF90AF909F908F907F906F905F90BF
S11315F04F903F902F9008958F929F92AF92BF92F9
S1131600CF92DF92EF92FF920F931F93CF93DF93CA
S1131610EC018D81811102C080E077C00B891C89A7
S11316202D893E890417150726073707A8F36A0191
S11316307B01823029F4CA86DB86EC86FD860DC0E8
S1131640C114D104E104F10451F41E821F821886EE
S113165019861A861B861C861D8681E056C08A84DC
S11316609B84AC84BD84EB8DFC8D258530E0275FA5
S11316703F4FB501A4014150510961097109022E7E
S113168004C076956795579547950A94D2F7D70184
S1131690C6010197A109B10904C0B695A79597950C
S11316A087952A95D2F784179507A607B70720F0E0
S11316B089288A288B2871F44F89588D698D7A8DF1
S11316C04E835F83688779874C015D018E010A5FD1
S11316D01F4F15C0841B950BA60BB70BF5CF4E817E
S11316E05F816885798598018B8D9C8D7CD291E092
S11316F0891A9108A108B108882309F48DCF8114AF
S11317009104A104B10459F796CFDF91CF911F91B1
S11317100F91FF90EF90DF90CF90BF90AF909F908C
S11317208F9008950F931F93CF93DF93EC018D81D6
S11317308823B9F18C8187FF2FC061E0CE0142DE9E
S11317408C01892B71F18D81823048F48B899C89BD
S1131750AD89BE89F801848F958FA68FB78F8F8945
S1131760988DA98DBA8DF801938F828FB58BA48B38
S1131770E091C805F091C905309759F0B8016A5E47
S11317807F4FC80148961995F801808D918D938BF0
S1131790828B8C818F778C83DF91CF911F910F91F6
S11317A0B0C180E0DF91CF911F910F9108952F92E6
S11317B03F924F925F926F927F928F929F92AF92DD
S11317C0BF92CF92DF92EF92FF920F931F93CF932A
S11317D0DF9300D01F92CDB7DEB78C016B011A01E5
S11317E0DC0115968C9115978130C1F414968C9177
S11317F081FF14C082FF1CC0F801438954896589A4
S1131800768982859385A485B58584179507A6076F
S1131810B70771F0C801F0DE81110AC081E090E0E1
S1131820D80113969C938E93129780E090E042C166
S1131830410182C05B968D919C915C97FC01748000
S11318402FEF270D2A013B0139E0769467945794D2
S113185047943A95D1F7722E74207A01F1E0FF2271
S1131860772009F475C080E092E08E199F09540135
S11318708815990508F45C01D8015B962D913C917B
S11318805C9716968D919D910D90BC91A02D029719
S1131890A109B109F901058404C0880F991FAA1F81
S11318A0BB1F0A94D2F74685578560897189840FD6
S11318B0951FA61FB71F9C01AD01270D311D411DAA
S11318C0511D29013A01A11432E0B30609F085C083
S11318D08091160290911702A0911802B0911902FA
S11318E0481659066A067B0659F48FEF9FEFDC0110
S11318F08093160290931702A0931802B0931902D2
S11319009601B301A2018091CF059091D005E7DC47
S1131910882309F483CF9EEFD91A8A189B08F8010B
S113192082859385A485B5858A0D9B1DA11DB11D56
S113193082879387A487B587D8011A964D915D91C4
S11319406D917C911D978114910409F073CF83C02C
S1131950E114F10409F087CF16964D915D916D91D4
S11319607C911997411551056105710559F45796F4
S11319708D919D910D90BC91A02D0097A105B1056D
S113198031F520C09E012F5F3F4F2DD1882309F4EC
S11319904DCF89819A81AB81BC81F801238D348D2F
S11319A0F9012789203129F048EF5FEF6FEF7FE0DD
S11319B004C048EF5FEF60E070E084179507A60766
S11319C0B70728F0C801D8DC81114DCF27CFF80123
S11319D086839783A087B18746CFE114F10421F56C
S11319E0D8011A964D915D916D917C911D975396F6
S11319F08D919D910D90BC91A02D481759076A07B0
S1131A007B0790F07ED0882309F408CF4092160219
S1131A105092170260921802709219028091CE05BA
S1131A2081608093CE0507C041E0C301B201A2D01A
S1131A30882309F4F3CED601F701EF52FA4F9F0140
S1131A402A0D3B1D2E173F0719F08D918193FACF74
S1131A50CA0CDB1C62CFD8015396CD90DD90ED907B
S1131A60FC90569714968C91C416D506E606F70694
S1131A7040F4F801438B548B658B768B80688483A8
S1131A800DC02091C8053091C905232B39F02114CC
S1131A90310421F08068D80114968C93F801848174
S1131AA083FD02C0C10106C0C8013CDE882309F4DD
S1131AB0B5CEF8CF0F900F900F900F90DF91CF918C
S1131AC01F910F91FF90EF90DF90CF90BF90AF9058
S1131AD09F908F907F906F905F904F903F902F904A
S1131AE00895CF93DF931F92CDB7DEB7698341E0AA
S1131AF050E0BE016F5F7F4F5ADE0F90DF91CF91B0
S1131B0008958091CE05882399F140911602509151
S1131B101702609118027091190221ED35E080914D
S1131B20CF059091D005DBDB811102C080E00895E0
S1131B304091CA055091CB056091CC057091CD05BB
S1131B40411551056105710589F021ED35E080915C
S1131B50CF059091D005C3DB882341F31092CA05C9
S1131B601092CB051092CC051092CD051092CE05A3
S1131B7081E00895CF92DF92EF92FF92CF936B01B1
S1131B807C01C42F8091160290911702A091180233
S1131B90B09119028C159D05AE05BF05C1F0B1DFEA
S1131BA0811102C080E019C021ED35E0B701A60122
S1131BB08091CF059091D00559DB882399F3C09289
S1131BC01602D0921702E0921802F0921902809144
S1131BD0CE05C82BC093CE0581E0CF91FF90EF9046
S1131BE0DF90CF9008958F929F92AF92BF92CF9241
S1131BF0DF92EF92FF920F931F93CF93DF93FC0139
S1131C0081859285A385B4850196A11DB11D841794
S1131C109507A607B70710F480E05AC08388948814
S1131C20A588B6888789803129F4BB27A72F962FEA
S1131C30852F09C0DB01CA01C7E0B695A795979522
S1131C408795CA95D1F7E9016A017B018F01BC012F
S1131C50CD01680D791D8A1D9B1D80901602909000
S1131C601702A0901802B0901902681579058A0528
S1131C709B0591F4F8018789803199F4DD24EE24E1
S1131C80FF24C601880F991FFC01EF52FA4F80818F
S1131C909181A0E0B0E017C040E06CDF8111EACF91
S1131CA0BBCFE894C7F8DD24EE24FF24C601880FD7
S1131CB0991F880F991FFC01EF52FA4F808191817F
S1131CC0A281B381BF7088839983AA83BB8381E097
S1131CD0DF91CF911F910F91FF90EF90DF90CF9004
S1131CE0BF90AF909F908F9008954F925F926F92A4
S1131CF07F928F929F92AF92BF92CF92DF92EF9298
S1131D00FF920F931F93CF93DF93EC014230510561
S1131D106105710510F480E077C089859A85AB85EB
S1131D20BC850196A11DB11D84179507A607B707A9
S1131D3090F3CB88DC88ED88FE888F89803129F484
S1131D40BB27A72F962F852F09C0DB01CA01E7E027
S1131D50B695A79597958795EA95D1F748015901C6
S1131D602A013B01C80ED91EEA1EFB1E80911602F1
S1131D7090911702A0911802B0911902C816D906C1
S1131D80EA06FB0681F48F898031A1F4B301A20134
S1131D90552766277727440F551FFA01EF52FA4F4C
S1131DA09182808218C040E0C701B601E3DE811150
S1131DB0EACFB1CFB301A2014F7755276627772722
S1131DC0440F551F440F551FFA01EF52FA4F8082FA
S1131DD09182A282B3828091CE0581608093CE05E8
S1131DE08A89823080F08D819E81AF81B885C80E4A
S1131DF0D91EEA1EFB1EC092CA05D092CB05E09202
S1131E00CC05F092CD0581E0DF91CF911F910F9128
S1131E10FF90EF90DF90CF90BF90AF909F908F9006
S1131E207F906F905F904F9008952F923F924F92C2
S1131E305F926F927F929F92AF92BF92CF92DF9206
S1131E40EF92FF920F931F93CF93DF93CDB7DEB73B
S1131E5060970FB6F894DEBF0FBECDBF5C01498713
S1131E605A876B877C871901D901CD90DD90ED905D
S1131E70FC90C114D104E104F10431F0BFEFCB1A9A
S1131E80DB0AEB0AFB0A10C0FC01C080D180E280AF
S1131E90F3809924939409851A852B853C85013018
S1131EA011052105310509F0912CF50181859285F3
S1131EB0A385B4858C019D010F5F1F4F2F4F3F4FAA
S1131EC00D871E872F87388B260137011D821E82BE
S1131ED01F821886F50181859285A385B4850D81BD
S1131EE01E812F813885081719072A073B0708F038
S1131EF054C02D853E854F855889241535054605E2
S1131F00570550F482E0482E512C612C712C92E03C
S1131F10C92ED12CE12CF12C9E012F5F3F4FB30130
S1131F20A201C50160DE8823C1F149815A816B8118
S1131F307C81D301C2010196A11DB11D452B462B05
S1131F40472B19F06C017D010FC0AC01BD014C1988
S1131F505D096E097F0909851A852B853C8504175F
S1131F6015072607370779F02D813E814F81588563
S1131F702F5F3F4F4F4F5F4F2D833E834F835887D3
S1131F802C013D01A7CF0FEF1FEF2FEF3FE0B3016F
S1131F90A201C501AADE811117C080E03FC0D301B0
S1131FA0C2010197A109B1098D839E83AF83B887CC
S1131FB093018201AC01BD01C50197DE882369F359
S1131FC04D805E806F807884C414D504E604F704E1
S1131FD030F3D1014D915D916D917C914115510585
S1131FE06105710599F4F101C082D182E282F38224
S1131FF0992099F0FFEFCF1ADF0AEF0AFF0AD50103
S1132000CD92DD92ED92FC92139707C09701860161
S1132010C5016BDE8111E7CFC0CF81E060960FB6BA
S1132020F894DEBF0FBECDBFDF91CF911F910F910A
S1132030FF90EF90DF90CF90BF90AF909F907F90F4
S11320406F905F904F903F902F900895A1E21A2EC9
S1132050AA1BBB1BFD010DC0AA1FBB1FEE1FFF1F48
S1132060A217B307E407F50720F0A21BB30BE40B98
S1132070F50B661F771F881F991F1A9469F76095DF
S11320807095809590959B01AC01BD01CF01089599
S1132090EE0FFF1F881F8BBF0790F691E02D199458
S11320A00F931F93CF93DF938230910510F482E056
S11320B090E0E091D607F091D70720E030E0A0E06F
S11320C0B0E0309719F140815181028113814817A2
S11320D05907C8F08417950769F4109731F01296E0
S11320E00C93129713961C9327C00093D607109352
S11320F0D70722C02115310519F04217530718F4E8
S11321009A01BD01EF01DF01F801DBCF2115310593
S1132110F9F0281B390B2430310580F48A819B8126
S11321206115710521F0FB019383828304C09093B0
S1132130D7078093D607FE01329644C0FE01E20F12
S1132140F31F8193919322503109398328833AC034
S11321502091D4073091D507232B41F4209102021A
S1132160309103023093D5072093D40720910002C5
S1132170309101022115310541F42DB73EB740914C
S1132180040250910502241B350BE091D407F09111
S1132190D507E217F307A0F42E1B3F0B28173907C6
S11321A078F0AC014E5F5F4F2417350748F04E0FAF
S11321B05F1F5093D5074093D4078193919302C036
S11321C0E0E0F0E0CF01DF91CF911F910F910895EE
S11321D0CF93DF93009709F481C0FC0132971382F7
S11321E01282A091D607B091D707109781F420816D
S11321F03181820F931F2091D4073091D50728177E
S1132200390751F5F093D507E093D40767C0ED0182
S113221020E030E0CE17DF0740F44A815B819E0165
S113222041155105F1F0EA01F5CFD383C283408112
S11322305181840F951FC817D90759F48881998152
S1132240840F951F0296918380838A819B81938357
S113225082832115310529F4F093D707E093D6073B
S11322603DC0E901FB83EA8349915991C40FD51F0D
S1132270EC17FD0761F480819181840F951F02960C
S1132280E90199838883828193819B838A83E0E037
S1132290F0E012968D919C911397009719F0FD012F
S11322A0DC01F7CF8D919C9111979D012E5F3F4FDB
S11322B0820F931F2091D4073091D507281739072F
S11322C069F4309729F41092D7071092D60702C008
S11322D013821282B093D507A093D407DF91CF91D4
S11322E008956F927F928F929F92AF92BF92CF92F6
S11322F0DF92EF92FF920F931F93CF93DF93009798
S113230081F4CB01DF91CF911F910F91FF90EF905A
S1132310DF90CF90BF90AF909F908F907F906F9001
S1132320BFCEFC01E60FF71F9C0122503109E217D2
S1132330F30708F4A5C0EC01D9010D911C91119784
S113234006171707A8F00530110508F497C0C8014F
S113235004978617970708F491C002501109061BC9
S1132360170B019311936D937C93CF0131DF86C0DA
S11323705B01A01AB10A4C01800E911EA091D607F0
S1132380B091D707612C712CE12CF12C109709F432
S113239046C08D919C911197A815B905B1F56C01B2
S11323A042E0C40ED11CCA14DB0478F14C018A1833
S11323B09B08640142E0C40ED11C1296BC90129793
S11323C01396AC91B5E0CB16D10440F0B282A3834E
S11323D091828082D9016D937C9309C00E5F1F4F57
S11323E0800F911FF90191838083EB2DFA2FE11463
S11323F0F10431F0D7011396FC93EE9312973EC08B
S1132400F093D707E093D60739C06816790608F425
S11324103C017D0112960D90BC91A02DB7CF809107
S1132420D4079091D50788169906E1F466167706C5
S1132430C8F48091000290910102009741F48DB795
S11324409EB74091040250910502841B950BE81736
S1132450F907B0F4F093D507E093D407F901718339
S113246060830CC0CB011CDE7C01009749F0A801FD
S1132470BE0117D0CE01ACDEC70104C0CE0102C03C
S113248080E090E0DF91CF911F910F91FF90EF904A
S1132490DF90CF90BF90AF909F908F907F906F9080
S11324A00895FB01DC0102C001900D92415050409F
S11324B0D8F70895FB01DC0101900D920020E1F7AB
S11324C0089511E0CFEFD0E000E005C0802FFE01B9
S11324D0DFDD2196011DC030D10780E00807B1F788
S10724E0F894FFCF9A
S11324E40000D8072000BB03BB03BB03BB03BB032F
S11324F4BB03BB03BB03FFFFFFFF68656C700D00E8
S1132504636F6E6669670D00657869740D0073689E
S11325146F770D007364206361726420696E666F63
S1132524726D6174696F6E730D002A2A2A2A2A2A2D
S11325342A2A2A2A2A2A2A2A2A2A2A2A2A2A2A2AF3
S11325442A2A2A00417574686F72697A6564204185
S11325546363657373204F6E6C792021210050618D
S11325647373776F72643A00617364660D00537514
S1132574636365737366756C6C79206C6F676765E8
S11325846420696E2E2E0046616C7365000A0D5535
S1132594736572204D6F64653A000A0D4176616972
S11325A46C61626C6520636F6D6D616E647320662B
S11325B46F7220746869732070726F6D70743A0A54
S11325C40D202D2073686F770D0A202D20636F6E04
S11325D46669672028746F20656E74657220746858
S11325E46520636F6E66696775726174696F6E20C6
S11325F46D6F6465290A0D000A0D53686F77204DC9
S11326046F64653A00202D20736420636172642032
S1132614696E666F726D6174696F6E730A0D00641E
S11326246174612E747874000A0D417661696C6179
S1132634626C6520636F6D6D616E647320666F7286
S113264420746869732070726F6D70743A0A0D2077
S11326542D20657869740A0D002A2A2A556E6B6E3A
S11326646F776E20636F6D6D616E642C20656E747C
S11326746572202768656C702720666F72206D6F01
S1132684726520696E666F726D6174696F6E732111
S11326942A2A2A000A0D436F6E666967757261748B
S11326A4696F6E204D6F64653A000A0D4176616965
S11326B46C61626C6520636F6D6D616E647320661A
S11326C46F7220746869732070726F6D70743A0A43
S11326D40D202D207365740A0D202D2064656C650E
S11326E474650A0D202D2065786974202867657443
S11326F4206261636B20746F2075736572206D6F43
S11327046465290A0D00000000001B029103AE0158
S1132714670280019A018C0100000000CF06E506DF
S1132724ED02000781071D07260700000000710D54
S10927349103ED02F00226
S9030000FC
