S015000077657474657273746174696F6E2E7372656372
S113000039C1000068C1000066C1000064C100007D
S113001062C1000060C100005EC100005CC100005C
S11300205AC10000DBC50000D9C50000D7C50000D7
S113003052C1000050C100004EC100004CC100007C
S11300404AC1000048C1000046C1000044C100008C
S113005042C1000040C100003EC100000C946B0C82
S11300603AC100000C94770B0C94AD0B34C1000022
S113007032C1000030C100002EC100002CC10000BC
S11300802AC1000028C1000026C1000024C10000CC
S113009022C1000020C100001EC1000019C70000D9
S11300A01AC1000018C1000016C1000014C10000EC
S11300B012C1000010C100000EC100000CC10000FC
S11300C00AC1000008C1000006C1000004C100000C
S11300D002C1000000C10000FEC00000FCC000001E
S11300E0FAC0000004051B051B0518051B050205C5
S11300F01B051B051B05F6041B051B050B05160537
S113010014051B051B051B0512059D0DA00D8F0D68
S1130110930D990DD70DA40DA80DAE0DB20DB60D0E
S1130120BC0DC00DC40DD70DCA0DCE0DD20D446546
S11301306320203720323031380031343A35373AB1
S113014031300000000A0B02090C0D0E08070304ED
S1130150010000000000000000000000000000009A
S11301600000000000000000000000000000001279
S1130170111000000000000000000000000000005A
S11301800000000000000000000102102020080808
S113019010204010204080020102010804020101E5
S11301A002040810204080804020100804020180CE
S11301B00402018040201008040201080402010125
S11301C00204081020408001020408102040800529
S11301D0050505070508080808020202020A0A08BC
S11301E008040404040101010101010101030303E2
S11301F00303030303040707070C0C0C0C0C0C0C7F
S11302000C0202020206060606060606060B0B0B85
S11302100B0B0B0B0B000020002300260029002CE5
S1130220002F003200000100000301060109010053
S1130230002200250028002B002E0031003400028B
S1130240010000050108010B010000210024002722
S1130250002A002D003000330001010000040107D2
S1130260010A010080010702F209070ADF0B0A10E4
S11302703C13960111241FBECFEFD1E2DEBFCDBFE8
S113028000E00CBF13E0A0E0B2E0E8E6FCE300E02D
S11302900BBF02C007900D92A63FB107D9F728E023
S11302A0A6EFB3E001C01D92A138B207E1F711E057
S11302B0C9E3D1E000E006C021970109802FFE01C7
S11302C00E94E81BC233D10780E00807A9F70E9407
S11302D00D0C0C94231E94CE26E040E855E260E019
S11302E070E08EE795E00E94120B86E294E06ED0F7
S11302F089E094E033D086E194E00C94F709089502
S113030086E294E061D086E194E00E94F50989E0F8
S113031094E01ED06BEC73E08CEF93E00E94D50E5A
S11303206AE072E086EF93E00C94D50E86EF93E0DA
S11303300E946A0E8CEF93E00E946A0E89E094E0BA
S11303400BD086E194E00E94F60986E294E03DC079
S11303506BEC73E00C94D50E0C946A0ECF93DF9380
S113036000D000D0CDB7DEB787E294E08CD3811102
S113037007C066E172E08EE795E00E945B0CFFCF58
S113038067E572E08EE795E00E945B0C87E294E0FB
S11303901BD4882381F065E772E08EE795E00E9424
S11303A05B0C4AE351E06EE271E0CE010196F4D2B7
S11303B0CE01019684D326960FB6F894DEBF0FBE05
S11303C0CDBFDF91CF9108950895089565E384E248
S11303D096E00E94E20F81110DC06BE972E08EE796
S11303E095E00E945B0C65E384E296E00E94E20FD4
S11303F0882331F06AEB72E08EE795E00C945B0C95
S113040064EF71E080E090E00E94E60CECCF88E2BB
S113041094E00C94680F20917B08222399F04FB745
S1130420F89420917B08213059F42DB32093790856
S11304303DB320917A08209523232DBB4FBF02C0E2
S1130440409379088CBD9DBD089580917B088823D5
S113045061F09FB7F89420917B088091790821304E
S113046019F48DBB9FBF08958FBF0895FC018FEFD2
S113047083878487858786870895CF92DF92EF925A
S1130480FF920F931F93CF93DF93FC0126852F3F99
S113049039F46EBD00000DB407FEFDCF8EB52BC040
S11304A0D62F8C0187E0E82EF12CC0E0CC24C39435
S11304B0D12CCC0F60E0F80186850E94140EB601A1
S11304C00E2C01C0660F0A94EAF76D23F8018485A7
S11304D00E94140E61E0F80186850E94140EF80152
S11304E085850E94420E892B09F0C160F1E0EF1A64
S11304F0F108F8F68C2FDF91CF911F910F91FF90A7
S1130500EF90DF90CF9008950F931F93CF93DF93D5
S1130510EC01162F042F8B858F3FF9F46A818881B3
S11305209981DFD688819981DC01ED91FC9101905C
S1130530F081E02D612F199588819981DC01ED917D
S1130540FC910190F081E02D602F199588819981AB
S1130550DF91CF911F910F9143C78E858F3F19F47F
S113056082E591E058DF60E08B850E94140E612FD4
S11305706F77CE0182DF602FCE017FDF61E08B8554
S11305800E94140E8E858F3F29F4DF91CF911F9125
S11305900F915BCFDF91CF911F910F910895CF926F
S11305A0EF920F93CF93DF93EC016295660F660F82
S11305B0607C47702770822F880F880F880F262F42
S11305C0242B282B29AB902F9295990F907E8AA9E2
S11305D08F71892B8AAB8E2D8770880F880F880FB7
S11305E098A9292F207C9C2D9770E22EE82AE92ACD
S11305F0E8AA402F477062EFCE0186DF98A9492F01
S1130600477060E2469F90011124892F8695869554
S11306108695877068E0869FA0011124422B532B96
S113062097FB992790F9492B65EFCE016DDF99A9C6
S1130630492F477080E2489F90011124892F8695A5
S113064086958695877068E0869FA0011124422BC9
S1130650532B9295969596959370492B64EFCE0102
S1130660DF91CF910F91EF90CF904ECF1F93CF9307
S1130670DF93EC01162F8B858F3F09F56A81888102
S113068099812FD688819981DC01ED91FC910190AB
S1130690F081E02D612F199588819981A1D641E0DF
S11306A06A81888199819AD688819981DC01ED914A
S11306B0FC910284F385E02D1995182F1AC08E85BC
S11306C08F3F19F482E591E0A6DE60E08B850E94FD
S11306D0140E612F6068CE01D0DE60E0CE01CDDE65
S11306E0182F61E08B850E94140E8E858F3F09F4CC
S11306F0ACDE812FDF91CF911F9108950F931F934B
S1130700CF93DF93EC01162F8B858F3F81F56A81A0
S113071088819981E6D588819981DC01ED91FC91EC
S11307200190F081E02D612F19958881998158D627
S113073042E06A818881998151D688819981DC015E
S1130740ED91FC910284F385E02D1995182F888191
S11307509981DC01ED91FC910284F385E02D1995DA
S113076020E030E0312F8901082B192B23C08E851E
S11307708F3F19F482E591E04EDE60E08B850E94A4
S1130780140E612F6068CE0178DE60E0CE0175DE64
S1130790082F60E0CE0171DE202F30E0322F2227B7
S11307A08901082B61E08B850E94140E8E858F3F92
S11307B009F44BDEC801DF91CF911F910F91089589
S11307C09DDF98278927982708951F93CF93DF9358
S11307D0EC0168E8F5DF988B8F876AE8CE01F0DFDB
S11307E09A8B898B6CE8CE01EBDF9C8B8B8B6EE84C
S11307F0CE01E6DF9E8B8D8B60E9CE01E1DF988F21
S11308008F8B62E9CE01DCDF9A8F898F64E9CE0198
S1130810D7DF9C8F8B8F66E9CE01D2DF9E8F8D8FC1
S113082068E9CE01CDDF98A38F8F6AE9CE01C8DFD6
S11308309AA389A36CE9CE01C3DF9CA38BA36EE9C1
S1130840CE01BEDF9EA38DA361EACE010FDF8FA38D
S113085061EECE01B5DF99A788A763EECE0106DF6E
S11308608AA764EECE0102DF182F65EECE01FEDE0C
S113087090E1199F900111248F70282B3CA72BA77E
S113088066EECE01F3DE182F65EECE01EFDE90E1C9
S1130890199F9001112490E044E0959587954A951D
S11308A0E1F7822B932B9EA78DA767EECE01DEDEA8
S11308B08FA7DF91CF911F91089563EFD7DE8170E9
S11308C00895CF92EF920F93CF93DF93EC018B8532
S11308D08F3F21F488819981F5D418C061E00E948A
S11308E0140E61E08B850E94D80D8E858F3F19F41C
S11308F00E94831B0BC061E00E94D80D61E08C85CF
S11309000E94D80D60E08D850E94D80D60EDCE0167
S1130910ADDE803629F546EB60EECE01F5DD6CE206
S113092071E080E090E00E94E60CCE01C6DF8823EF
S113093029F064E670E080E090E0F5CFCE0145DF79
S1130940C12CE12C05E025E045E063E0CE0127DE83
S113095064E670E080E090E00E94E60C81E001C073
S113096080E0DF91CF910F91EF90CF90089527E72A
S1130970FC01228325EF34E031832083A2CFFC01E4
S1130980908190539A3008F090E0818180532AE05E
S1130990929F800D11240895EF92FF920F931F935D
S11309A0CF93DF93CDB7DEB72B970FB6F894DEBFA6
S11309B00FBECDBF8C017A014BE050E0CE01019611
S11309C00E940A1ECE010A96DADFF8018083E981CB
S11309D08E2F90E0FC01E154F109E331F10558F563
S11309E08827EE58FF4F8F4F0C94E81B8A8181367D
S11309F029F08B818E3621F087E01BC081E019C07D
S1130A0086E017C082E015C08B81823711F088E040
S1130A1010C084E00EC08B81823711F085E009C0DC
S1130A2083E007C089E005C08AE003C08BE001C011
S1130A308CE0F8018183CE010596A1DFF801828361
S1130A4048E050E0B701CE0101960E940A1ECE0193
S1130A50019695DFF8018383CE01049690DFF801B7
S1130A608483CE0107968BDFF80185832B960FB61E
S1130A70F894DEBF0FBECDBFDF91CF911F910F91D0
S1130A80FF90EF90089585EF94E01CD481E00895E1
S1130A90CF93C82F68E685EF94E023D46C2F85EFBD
S1130AA094E0D2D385EF94E09BD441E068E685EFEF
S1130AB094E094D485EF94E041D3CF9108950F93BB
S1130AC01F93CF938C0168E670E085EF94E013D414
S1130AD060E085EF94E0B8D3F8012581CAE0822F65
S1130AE06C2F0E94BA1B682F660F860F880F682F21
S1130AF0620F85EF94E0A8D3F8012481822F6C2F34
S1130B000E94BA1B682F660F860F880F682F620F2A
S1130B1085EF94E099D3F8012381822F6C2F0E94F2
S1130B20BA1B682F660F860F880F682F620F85EF38
S1130B3094E08AD360E085EF94E086D3F8012281C3
S1130B40822F6C2F0E94BA1B682F660F860F880FA6
S1130B50682F620F85EF94E077D3F8012181822F0B
S1130B606C2F0E94BA1B682F660F860F880F682FA0
S1130B70620F85EF94E068D3F8012081822F6C2FF7
S1130B800E94BA1B682F660F860F880F682F620FAA
S1130B9085EF94E059D385EF94E022D48FE078DF99
S1130BA0C82F68E685EF94E09CD36FE085EF94E06E
S1130BB04BD36C2F6F7785EF94E046D385EF94E0A9
S1130BC0CF911F910F910CC48FE062DF87FB8827C0
S1130BD080F9089580E090E0089508951F920F929F
S1130BE00FB60F9211240BB60F922F933F934F938E
S1130BF05F936F937F938F939F93AF93BF93EF9381
S1130C00FF93E0918504F0918604309709F451C074
S1130C10968DA685B785858591FF04C09C9189230F
S1130C2029F447C09C91892309F043C0A389B4895E
S1130C309C918589809589238C93868997890197CE
S1130C40F1F7608D718DA685B785558538E020E074
S1130C50CB010197F1F7822F90E095958795282F86
S1130C604C91452309F02068315091F7868D81FD20
S1130C7020958091440490E001968F7399273091D8
S1130C804304381749F0A0914404B0E0AB5BBB4F78
S1130C902C938093440403C0868D8160868F828D5B
S1130CA0938D0197F1F7A389B4899C918589892B48
S1130CB08C93FF91EF91BF91AF919F918F917F9111
S1130CC06F915F914F913F912F910F900BBE0F90B9
S1130CD00FBE0F901F9018951092F40481E080933A
S1130CE0F2041092F10461E084E19ED761E085E1B1
S1130CF09BD7E9EBF0E080818E7F808380818D7FBC
S1130D00808388E48093B80085E48093BC000895D0
S1130D10413208F043C09091F4049111FCCF91E06A
S1130D209093F4042093F2042FEF209387041092FD
S1130D30CC04240F2093CB049093F3049091F304F8
S1130D40880F892B8093F3048091F104813061F43E
S1130D501092F1048091F3048093BB008091BC0055
S1130D6083FDF8CF85EC01C085EE8093BC008091B3
S1130D70F4048130E1F38091CC04841710F44091A1
S1130D80CC04ADECB4E0962FFB018E2F891B8417A5
S1130D9018F48D918193F9CF842F089580E00895FC
S1130DA00F93413208F04AC09091F4049111FCCFA2
S1130DB032E03093F4040093F2043FEF309387045D
S1130DC01092CC044093CB04562FADECB4E0FB015D
S1130DD03E2F351B341718F431913D93F9CF1092FF
S1130DE0F3043091F304880F832B8093F3048091F0
S1130DF0F104813061F41092F1048091F304809342
S1130E00BB008091BC0083FDF8CF85EC01C085EE6A
S1130E108093BC00222321F08091F4048230D1F32A
S1130E20809187048F3F79F080918704803241F06C
S1130E3080918704803331F094E005C091E003C0D1
S1130E4092E001C093E0892F0F9108954091A90485
S1130E50262F30E0240F311D21323105DCF420919E
S1130E60F4042430C9F4FC0180E090E0861758F4BF
S1130E703091A9042191DC01A555BB4FA30FB11DED
S1130E802C930196F3CF8091A904680F6093A90471
S1130E9080E0089581E0089582E008959093EE043F
S1130EA08093ED0408959093F0048093EF040895E3
S1130EB085ED8093BC008091BC0084FDFCCF109232
S1130EC0F404089585EC8093BC001092F404089512
S1130ED01F920F920FB60F9211240BB60F922F93FD
S1130EE03F934F935F936F937F938F939F93AF93AE
S1130EF0BF93EF93FF938091B900887F803609F404
S1130F009DC070F5883209F45CC090F4803109F416
S1130F1055C038F4882309F4F3C0883009F44EC06E
S1130F20F2C0883109F44DC0803209F45EC0EBC0D0
S1130F30803409F469C050F4803309F456C088330E
S1130F4009F0E1C080938704BDDFDDC0803509F47A
S1130F504FC0883509F45DC0883409F0D4C0D2C0CC
S1130F60883909F4C3C0A8F4883709F467C038F491
S1130F70883609F463C0803709F460C0C4C0883877
S1130F8009F4B4C0803909F45FC0803809F0BBC0EB
S1130F905BC0803B09F482C038F4803A09F466C02F
S1130FA0883A09F47BC0AFC0803C09F4A3C0883CF4
S1130FB009F4A0C0883B09F486C0A5C08091F3045D
S1130FC010C09091CC048091CB04981770F5E091F7
S1130FD0CC0481E08E0F8093CC04F0E0E353FB4F0C
S1130FE080818093BB0085EC82C0809387048AC093
S1130FF0E091CC0481E08E0F8093CC048091BB00FF
S1131000F0E0E353FB4F80839091CC048091CB04B8
S11310106AC0E091CC0481E08E0F8093CC0480916F
S1131020BB00F0E0E353FB4F80838091F204811115
S113103069C081E08093F10484EA5DC083E0809319
S1131040F40410928804CFCF80918804803208F091
S11310504DC0E091880481E08E0F809388048091D4
S1131060BB00F0E0E757FB4F8083BDCF2BDF8091BF
S11310708804803230F4E0918804F0E0E757FB4FB5
S113108010826091880470E0E091ED04F091EE0428
S113109089E894E019951092880435C084E080931F
S11310A0F4041092AA041092A904E091EF04F091C0
S11310B0F00419958091A904811105C081E0809301
S11310C0A9041092AB04E091AA0481E08E0F8093EE
S11310D0AA04F0E0E555FB4F80818093BB0090911A
S11310E0AA048091A904981708F47DCF85E8809319
S11310F0BC0009C085EC8093BC001092F40403C0CA
S113110010928704D5DEFF91EF91BF91AF919F912B
S11311108F917F916F915F914F913F912F910F909C
S11311200BBE0F900FBE0F901F901895809129054C
S113113090E020912A05821B9109089590912A0537
S113114080912905981750F4E92FF0E0E55DFA4FF6
S1131150208130E09F5F90932A0502C02FEF3FEF7C
S1131160C9010895E0912A0580912905E81730F412
S1131170F0E0E55DFA4F808190E008958FEF9FEFF6
S113118008950895CF93DF93EC01E0910105F09168
S113119002053097F1F090912A058091290598175E
S11311A0C0F090E0292F30E02617370754F4DE0111
S11311B0A20FB31F4C91D901A55DBA4F4C939F5F09
S11311C0F1CF10922A0560932905CB01DF91CF91CD
S11311D01994DF91CF910895E0910305F0910405EE
S11311E0309729F010920705109206051994089576
S11311F0CF92DF92EF92FF920F931F93CF93DF93DF
S11312007C01CB018A0120910505222389F0EB01A1
S11312106B01C40ED51ECC15DD0561F06991D701B3
S1131220ED91FC910190F081E02DC7011995F3CF68
S1131230642F0CDEC801DF91CF911F910F91FF90B5
S1131240EF90DF90CF900895CF93DF931F92CDB7A7
S1131250DEB76983209105052223D1F0209106058C
S1131260203240F021E030E0FC013383228380E02F
S113127090E014C080910705E82FF0E0E85FFA4F92
S1131280998190838F5F809307058093060504C03E
S113129061E0CE010196DADD81E090E00F90DF910C
S11312A0CF910895FC011382128288EE93E0A0E0AE
S11312B0B0E084839583A683B7838DE293E0918322
S11312C08083089510922A0510922905109207052B
S11312D01092060501DD8CEE98E0E5DD82EC98E0E5
S11312E0DDCD81E080930505609328051092070504
S11312F0109206050895F5CF0F93062F21E0409133
S1131300060568E075E0809128054ADD109207051E
S113131010920605109205050F9108954F925F9261
S11313206F927F92AF92BF92CF92EF92FF920F9300
S11313301F93CF93DF935C01F62ED42F280139013C
S1131340EE2011F1CEDFCE2DC43008F0C3E0C15041
S1131350C0F028E0C29FC0011124A301920104C07F
S113136056954795379527958A95D2F7CA01B901BD
S1131370D501ED91FC910190F081E02DC501199505
S1131380E6CF60E0C501B8DF4D2FD13208F040E26E
S11313902C2D6BE275E08F2DBBDC10922A05809317
S11313A02905DF91CF911F910F91FF90EF90CF907E
S11313B0BF90AF907F906F905F904F900895CF92C1
S11313C0EF920F931F93C22EE12C00E010E09801DE
S11313D0A5DF1F910F91EF90CF90089521E0EFCFFB
S11313E061E08ACF85EF94E05DCF089508958BE4A2
S11313F095E0BDDA811106C06BE373E08EE795E0FA
S11314005AD2FFCF66E973E08EE795E054C28BE4CD
S113141095E02CC8FC01918D228D892F90E0805C91
S11314209F4F821B91098F7399270895FC01918D19
S1131430828D981731F0828DE80FF11D858D90E033
S113144008958FEF9FEF0895FC01918D828D981779
S113145061F0828DDF01A80FB11D5D968C91928D94
S11314609F5F9F73928F90E008958FEF9FEF089591
S1131470FC01538D448D252F30E0842F90E0821B96
S1131480930B541710F0CF9608950197089586EDA5
S11314909BE0892B39F080E090E0892B19F086D10C
S11314A0811125C080E090E0892B41F080E090E03C
S11314B0892B21F00E94000081111CC080E090E083
S11314C0892B41F080E090E0892B21F00E940000FC
S11314D0811113C080E090E0892BA1F080E090E0BE
S11314E0892B81F00E94000081110AC008950E9496
S11314F00000D8CF0E940000E1CF0E940000EACF94
S11315000C9400000895FC01848DDF01A80FB11D27
S1131510A35ABF4F2C91848D90E001968F73992725
S1131520848FA689B7892C93A089B1898C91837003
S113153080648C93938D848D981306C00288F389FC
S1131540E02D80818F7D80830895EF92FF920F9329
S11315501F93CF93DF93EC0181E0888F9B8D8C8D5B
S1131560981305C0E889F989808185FD25C0F62E88
S11315700B8D10E00F5F1F4F0F731127E02E8C8D22
S1131580E8120BC00FB607FCFACFE889F98980810D
S113159085FFF5CFCE01B7DFF2CF8B8DFE01E80FCB
S11315A0F11DE35AFF4FF0829FB7F8940B8FEA893D
S11315B0FB89808180620AC09FB7F894EE89FF8915
S11315C06083E889F98980818370806480839FBF08
S11315D081E090E0DF91CF911F910F91FF90EF9008
S11315E00895CF93DF93EC01888D8823C1F0EA89B5
S11315F0FB89808185FD05C0A889B9898C9186FD08
S11316000EC00FB607FCF5CF808185FFF2CFA88905
S1131610B9898C9185FFEDCFCE0175DFE8CFDF91DD
S1131620CF910895CF92DF92EF92FF921F93CF93C1
S1131630DF93EC016A017B01122FE889F98982E0CA
S113164080834115514E61057105B1F060E079E088
S11316508DE390E0A70196010E94C61BDA01C9013F
S11316600197A109B109B695A795979587959C010E
S1131670211580E13807A8F0E889F989108260E82B
S113168074E88EE190E0A70196010E94C61BDA017E
S1131690C9010197A109B109B695A79597958795B1
S11316A09C01EC85FD853083EE85FF852083188EB3
S11316B0EC89FD891083EA89FB89808180618083BC
S11316C0EA89FB89808188608083EA89FB8980813B
S11316D080688083EA89FB8980818F7D8083DF91A4
S11316E0CF911F91FF90EF90DF90CF9008951F92BC
S11316F00F920FB60F9211240BB60F922F938F9364
S11317009F93EF93FF93E0918E05F0918F05808175
S1131710E0919405F091950582FD12C0908180912D
S113172097058F5F8F7320919805821751F0E09190
S11317309705F0E0E258FA4F958F8093970501C022
S11317408081FF91EF919F918F912F910F900BBE0C
S11317500F900FBE0F901F9018951F920F920FB607
S11317600F9211240BB60F922F933F934F935F93D5
S11317706F937F938F939F93AF93BF93EF93FF9355
S11317808EE795E0C0DEFF91EF91BF91AF919F91FD
S11317908F917F916F915F914F913F912F910F9016
S11317A00BBE0F900FBE0F901F9018958EE795E01B
S11317B031DE21E0892B09F420E0822F0895EEE741
S11317C0F5E01382128288EE93E0A0E0B0E0848317
S11317D09583A683B7838BEB93E09183808385EC19
S11317E090E09587848784EC90E09787868780ECE7
S11317F090E0918B808B81EC90E0938B828B82ECD8
S113180090E0958B848B86EC90E0978B868B118E81
S1131810128E138E148E0895089512D1FDDF0E9446
S11318206C01C7E4DAE00E947F012097E1F32FDE28
S1131830FACFCF92DF92EF92FF920F931F93CF9341
S1131840DF936C017A018B01C0E0D0E0CE15DF0597
S113185081F0D8016D918D01D601ED91FC9101903B
S1131860F081E02DC6011995892B11F02196EECF58
S11318707E01C701DF91CF911F910F91FF90EF90EF
S1131880DF90CF9008956115710579F0FB01019007
S11318900020E9F73197AF01461B570BDC01ED91AE
S11318A0FC910280F381E02D199480E090E008958A
S11318B069EC73E0E8CF0F931F93CF93DF93EC01B0
S11318C0E2DF8C01CE01F4DF800F911FDF91CF9115
S11318D01F910F9108951F920F920FB60F9211242A
S11318E02F933F938F939F93AF93BF9380911C0645
S11318F090911D06A0911E06B0911F0630911B0603
S113190023E0230F2D3720F40196A11DB11D05C03E
S113191026E8230F0296A11DB11D20931B06809378
S11319201C0690931D06A0931E06B0931F0680917B
S1131930200690912106A0912206B09123060196DB
S1131940A11DB11D8093200690932106A093220629
S1131950B0932306BF91AF919F918F913F912F91A7
S11319600F900FBE0F901F9018952FB7F8946091A9
S11319701C0670911D0680911E0690911F062FBFB4
S113198008953FB7F8948091200690912106A09184
S11319902206B091230626B5A89B05C02F3F19F057
S11319A00196A11DB11D3FBFBA2FA92F982F8827DB
S11319B0820F911DA11DB11DBC01CD0142E0660F36
S11319C0771F881F991F4A95D1F708958F929F9288
S11319D0AF92BF92CF92DF92EF92FF926B017C01A4
S11319E0D0DF4B015C01C114D104E104F104F9F02E
S11319F00E94B91BC6DFDC01CB0188199909AA0929
S1131A00BB09883E9340A105B10568F321E0C21AE1
S1131A10D108E108F10888EE880E83E0981EA11C25
S1131A20B11CC114D104E104F10421F7DCCFFF900F
S1131A30EF90DF90CF90BF90AF909F908F900895DC
S1131A40789484B5826084BD84B5816084BD85B595
S1131A50826085BD85B5816085BDEEE6F0E080815C
S1131A6081608083E1E8F0E010828081826080837D
S1131A70808181608083E0E8F0E080818160808300
S1131A80E1EBF0E0808184608083E0EBF0E0808132
S1131A9081608083E1E9F0E08081826080838081DD
S1131AA081608083E0E9F0E0808181608083E1EA05
S1131AB0F0E0808182608083808181608083E0EABD
S1131AC0F0E0808181608083E1E2F1E080818260E6
S1131AD08083808181608083E0E2F1E080818160A5
S1131AE08083EAE7F0E08081846080838081826083
S1131AF0808380818160808380818068808310926C
S1131B00C100089590E0FC013197E231F10508F03D
S1131B104EC08827EB57FF4F8F4F0C94E81B8091E2
S1131B2080008F7703C0809180008F7D8093800038
S1131B30089580918000877FF9CF84B58F7702C0A4
S1131B4084B58F7D84BD08958091B0008F7703C0E4
S1131B508091B0008F7D8093B000089580919000B3
S1131B608F7707C0809190008F7D03C08091900093
S1131B70877F8093900008958091A0008F7707C09D
S1131B808091A0008F7D03C08091A000877F809307
S1131B90A0000895809120018F7707C080912001D3
S1131BA08F7D03C080912001877F80932001089559
S1131BB0CF93DF9390E0FC01E757FE4F2491FC01A3
S1131BC0E153FE4F8491882361F190E0880F991FBF
S1131BD0FC01E75BFD4FC591D491FC01E15DFD4F34
S1131BE0A591B491611109C09FB7F894888120959B
S1131BF082238883EC912E230BC0623061F49FB75B
S1131C00F8948881322F309583238883EC912E2B8E
S1131C102C939FBF06C08FB7F894E8812E2B28839E
S1131C208FBFDF91CF9108951F93CF93DF93282F18
S1131C3030E0F901ED5BFE4F8491F901E757FE4F67
S1131C40D491F901E153FE4FC491CC23B9F0162F7E
S1131C50811158DFEC2FF0E0EE0FFF1FE15DFD4F27
S1131C60A591B4919FB7F894111104C08C91D095AB
S1131C70D82302C0EC91DE2BDC939FBFDF91CF9180
S1131C801F910895CF93DF93282F30E0F901ED5B86
S1131C90FE4F8491F901E757FE4FD491F901E153C6
S1131CA0FE4FC491CC2389F081112CDFEC2FF0E09E
S1131CB0EE0FFF1FEB5EFD4FA591B491EC91ED2368
S1131CC081E090E021F480E002C080E090E0DF91C8
S1131CD0CF910895FC01808191810C94A11CCF9334
S1131CE0DF93EC0188819981009711F00E94A11C77
S1131CF0198218821D821C821B821A82DF91CF9165
S1131D0008950F931F93CF93DF93EC018B016F5FC3
S1131D107F4F888199810E942A1D009731F0998311
S1131D2088831B830A8381E001C080E0DF91CF9127
S1131D301F910F910895CF93DF93EC0188819981CE
S1131D40892B29F08A819B818617970758F4CE0145
S1131D50D8DF882341F08C819D81892B19F4E88197
S1131D60F981108281E0DF91CF910895EF92FF9283
S1131D700F931F93CF93DF93EC017B018A01BA0188
S1131D80DADF811103C0CE01AADF07C01D830C83F3
S1131D90B701888199810E941C1ECE01DF91CF91E9
S1131DA01F910F91FF90EF900895FC011182108212
S1131DB013821282158214826115710549F0FB01A8
S1131DC001900020E9F73197AF01461B570BCECFA6
S1131DD00895CF93DF931F92CDB7DEB76983DC01FB
S1131DE0ED91FC910280F381E02D41E050E0BE01D1
S1131DF06F5F7F4F19950F90DF91CF910895CF9327
S1131E00DF93EC01898D9A8D009739F481E090E09D
S1131E109B838A8380E090E00AC0FC0113821282D3
S1131E20A7D6E98DFA8D22813381232B79F7DF91AF
S1131E30CF910895FC01818D928D009709F048C6D9
S1131E400895CF93DF931F92CDB7DEB741E050E002
S1131E50BE016F5F7F4FA4D4019719F4898190E08C
S1131E6002C08FEF9FEF0F90DF91CF910895FC0197
S1131E70818D928D009709F0E4CF8FEF9FEF089545
S1131E800F931F93CF93DF93FC01818D928D009765
S1131E90A9F0EF01D6DF8C010F3F8FEF180789F00F
S1131EA0898D9A8DFC0142855385648575854150E1
S1131EB051096109710976D5C80105C080E090E037
S1131EC002C08FEF9FEFDF91CF911F910F91089583
S1131ED0FC011382128288EE93E0A0E0B0E08483D8
S1131EE09583A683B7838CED93E091838083128ED0
S1131EF0118E14860895DC015996ED91FC915A9740
S1131F00309729F0628573858485958508956FEFF0
S1131F107FEFCB010895DC015996ED91FC915A971E
S1131F20309729F06389748985899689089560E0DA
S1131F3070E0CB010895CF92DF92EF92FF92CF939E
S1131F40DF93FC01218D328D232BC9F0EC01E3DFFB
S1131F506B017C01CE01CFDFA7019601261B370B55
S1131F60480B590BDA01C901811530E89307A10523
S1131F70B10538F08FEF9FE7A0E0B0E002C080E049
S1131F8090E0DF91CF91FF90EF90DF90CF90089594
S1131F900F931F93CF93DF93EC018B0141E00E94D9
S1131FA06F1A811109C040E0B801CE01DF91CF91D1
S1131FB01F910F910C946F1A81E0DF91CF911F91C3
S1131FC00F9108950F931F93CF93DF93EC01162F76
S1131FD08FA5882319F0CE018A96BFD5412F61E0E1
S1131FE0CE0160D1882379F08E01045F1F4FBE01BA
S1131FF0C801CEDF882339F0B801CE018A9680D398
S113200091E0811101C090E0892FDF91CF911F9160
S11320100F910895E4E2F6E0158216821186138684
S113202082E090E0A0E0B0E084879587A687B78738
S113203013A215A614A68EEE93E093A782A717A663
S113204008959FB7F89420917B08809179082130F6
S113205019F48DBB9FBF08958FBF08950F93FC01A2
S113206080E092E1AAE7B0E030E0481759076A0738
S11320707B0740F4B695A795979587953F5F3630D3
S1132080A1F737E091E09327222311F020E501C066
S113209020E70C70892F8695082B022B0083917002
S11320A091830F9108958EBD00000DB407FEFDCFFE
S11320B08EB508958FEFF7CF61E0FC018481B4DD24
S11320C080916D06882331F010926D0680917B0813
S11320D08111B7CF0895CF93DF93EC0180916D0602
S11320E0811109C081E080936D0680916E06909104
S11320F06F060E940B0260E08C81DF91CF9194CD3A
S1132100CF93DF93EC018E81882379F08F819885BA
S11321109C012F5F3F4F38872F838230924010F409
S1132120C9DFF4CFCE01C8DF1E82DF91CF910895BD
S11321300F93CF93DF931F921F92CDB7DEB7673013
S113214028F026E1FC01258380E046C06230F9F0E6
S113215058F46623A9F0613079F500E021E040E00D
S113216059E06DE370E02EC06430F9F0B8F06530EA
S113217019F500E021E040E950ED63E070E022C091
S113218000E021E040E458E76DE771E01BC000E0A7
S113219021E040E854E86EE170E014C000E021E082
S11321A040E452E46FE070E00DC000E021E040E262
S11321B051EA67E070E006C000E021E048E458EE30
S11321C061E070E0CE01019649DF89819A819093A4
S11321D06F0680936E0681E00F900F90DF91CF9190
S11321E00F9108950F931F93CF93DF93EB01BDDB02
S11321F08B0160DF8F3F41F0B8DB601B710B6C1704
S11322007D07B8F380E001C081E0DF91CF911F9199
S11322100F9108958F929F92AF92BF92FF920F9366
S11322201F93CF93DF93EC01F62E49015A0168DF27
S1132230CE0151DF6CE271E0CE01D4DF8F2D8064DA
S113224032DF08E110E0D501C401002E04C0B695C8
S1132250A795979587950A94D2F725DF0850110919
S1132260083F8FEF180779F7FF2029F088E0F8126C
S113227004C087E803C085E901C08FEF14DF10E0D4
S113228019DF8A8787FF04C01F3F11F01F5FF8CF53
S1132290DF91CF911F910F91FF90BF90AF909F90CE
S11322A08F9008957F928F929F92AF92BF92CF9218
S11322B0DF92EF92FF920F931F93CF93DF931F92BE
S11322C01F92CDB7DEB77C01762EFC0113861186F2
S11322D016821582448349DB6B0161E0F701848136
S11322E067DC61E0F70184819FDC0E94831B00E0CE
S11322F021E040E950ED63E070E0CE010196AEDEEE
S113230089819A8190936F0680936E060E940B02D6
S11323101AE08FEFC8DE1150E1F780917B0881113C
S113232090DEC701D8DE20E030E0A90160E0C701FB
S113233071DF082FF7018287813041F016DB6C19B9
S11323407D09613D774078F381E04AC02AEA31E0B3
S113235040E050E068E0C7015DDF82FF03C0F701A1
S113236003870DC004E0A6DEF70182870150D9F788
S11323708A3A11F082E035C082E0F7018387F701E1
S11323808385823021F0812C912C540105C0812C4D
S1132390912CA12C80E4B82E20E030E0A90167E361
S11323A0C70138DFA501940169E2C70133DFF701F2
S11323B08287882341F0D9DA6C197D09613D774021
S11323C058F388E00DC0F70183858230C1F420E022
S11323D030E0A9016AE3C7011DDF882331F086E0FC
S11323E0F7018583C70168DE10C064DE807C803C11
S11323F019F483E0F70183875DDE5CDE5BDEC701F1
S11324005BDE672DC70194DE182F812F0F900F908C
S1132410DF91CF911F910F91FF90EF90DF90CF90BC
S1132420BF90AF909F908F907F9008950F931F93CC
S1132430CF93DF93EC0199DA8B013CDE8A878F3FDF
S113244041F493DA601B710B6D327140B0F38FE08D
S113245003C08E3F31F08DE08D83CE012DDE80E010
S113246001C081E0DF91CF911F910F910895CF9228
S1132470DF92EF92FF920F931F93CF93DF93EC01C0
S11324806901C801820F931F8130924008F057C040
S11324908E81882371F088819981AA81BB818417F8
S11324A09507A607B70729F48F819885C816D9061A
S11324B000F5488359836A837B838B85833039F0A5
S11324C089E0440F551F661F771F8A95D1F79A013B
S11324D0AB0161E1CE019EDE882319F083E08D8398
S11324E02EC0CE01A3DF882351F118861F8281E01C
S11324F08E838F8198858C159D0538F4DBDD8F8163
S11325009885019698878F83F4CF6701E00EF11EBA
S1132510CE14DF0429F0CEDDF60181936F01F8CFEC
S11325208F819885080F191F18870F838985882341
S113253019F00115124038F0CE01E2DD04C0CE01DD
S1132540BBDD80E001C081E0DF91CF911F910F914D
S1132550FF90EF90DF90CF900895EF92FF920F934A
S11325601F930115110511F082DF01C081E01F9155
S11325700F91FF90EF900895EF92FF920F931F93A6
S1132580790100E012E020E030E071DF1F910F914B
S1132590FF90EF900895EF92FF920F931F93CF93C4
S11325A0DF938C01862F7A017EDDE7018EEFF81A26
S11325B0899179DDCE15DF05D9F78FEF74DD8FEFC3
S11325C072DD78DDF80182878F71853031F081E129
S11325D08583C80171DD80E001C081E0DF91CF9186
S11325E01F910F91FF90EF9008950F931F93CF9336
S11325F0DF93EC018901411551056105710511F461
S113260082E12DC08B85833039F089E0440F551F5A
S1132610661F771F8A95D1F79A01AB0168E1CE0155
S1132620F9DD882311F084E01AC0A8016EEFCE0111
S1132630B2DF8823A9F068E572E0CE01D3DD811111
S113264002C085E10CC020E030E0A9016DE0CE01BC
S1132650E1DD811103C02EDD882331F084E18D8317
S1132660CE012ADD80E003C0CE0126DD81E0DF91CA
S1132670CF911F910F910895EEE6F6E080E58083F7
S113268011820895CF93DF93EC019C012A5F3F4FA1
S113269041E050E060E070E08B8D9C8D0FD6882384
S11326A0A1F08F89988DA98DBA8D892B8A2B8B2BBC
S11326B059F48E819F81A885B9858F8B988FA98FB6
S11326C0BA8F8C8180688C8381E0DF91CF910895EB
S11326D0CF93DF93EC01462F6E857F858889998996
S11326E02AD4882341F08A8920E2829FC0011124E0
S11326F08758994F02C080E090E0DF91CF91089510
S11327000F931F93CF93DF93FC012581222311F0B4
S113271080E041C08B01EC01FB0187898031B1F479
S113272082E08D831F8A188E198E1A8E808D918D6A
S1132730A0E0B0E025E0880F991FAA1FBB1F2A95CF
S1132740D1F78B8B9C8BAD8BBE8B14C0803201F781
S113275083E08D83FB01428D538D648D758D4F8B8A
S1132760588F698F7A8F9E012D5E3F4FC8019ED48A
S1132770882371F21C8F0B8F81E08C831E821F8251
S1132780188619861A861B861C861D861E861F8639
S1132790188A198A1A8ADF91CF911F910F9108958F
S11327A02F923F924F925F926F927F928F929F925D
S11327B0AF92BF92CF92DF92EF92FF920F931F934B
S11327C0CF93DF93EC015B014A018D81811103C03A
S11327D08FEF9FEFD4C08C8180FFFACF4B885C8849
S11327E06D887E884A855B856C857D85C401A0E003
S11327F0B0E093018201041B150B260B370B08175D
S113280019072A073B0718F44201841A950A240180
S11328101E0126E0220E311C4114510409F47DC02E
S11328204A855B856C857D856A0181E0D822ED81CE
S11328308B8D9C8D8A019B01F9E036952795179520
S11328400795FA95D1F7E23061F4FC01828D938DFE
S1132850A48DB58DBC01CD01600F711F821F931F24
S11328603EC0FC0174807A947022C114D104C1F476
S1132870711016C0452B462B472B49F48F89988D30
S1132880A98DBA8D8E839F83A887B98709C04E818D
S11328905F8168857985910187D3882309F498CF6E
S11328A0EB8DFC8D8E819F81A885B9850297A10946
S11328B0B109058404C0880F991FAA1FBB1F0A947D
S11328C0D2F74685578560897189840F951FA61FA5
S11328D0B71FBC01CD01670D711D811D911D20E045
S11328E032E02C193D0932012415350508F439016B
S11328F02C8126FD04C06114F2E07F0671F500917D
S11329000602109107022091080230910902601713
S113291071078207930719F420C0C40130C0750100
S113292083019601AB01BC018091770690917806F2
S113293014DE882309F44CCFA60CB71C8A859B852A
S1132940AC85BD85860D971DA11DB11D8A879B870A
S1132950AC87BD87461857085FCF40E0ECD2882388
S113296009F436CFF601E758F94FD501CF01860DAA
S1132970971D8E179F0701F321912D93FACFDF91B5
S1132980CF911F910F91FF90EF90DF90CF90BF9068
S1132990AF909F908F907F906F905F904F903F90FB
S11329A02F9008958F929F92AF92BF92CF92DF9211
S11329B0EF92FF920F931F93CF93DF93EC018D81DE
S11329C0811102C080E077C00B891C892D893E8962
S11329D00417150726073707A8F36A017B0182301D
S11329E029F4CA86DB86EC86FD860DC0C114D104A9
S11329F0E104F10451F41E821F82188619861A8696
S1132A001B861C861D8681E056C08A849B84AC8408
S1132A10BD84EB8DFC8D258530E0275F3F4FB501EC
S1132A20A4014150510961097109022E04C076952F
S1132A306795579547950A94D2F7D701C601019730
S1132A40A109B10904C0B695A795979587952A95CC
S1132A50D2F784179507A607B70720F089288A2894
S1132A608B2871F44F89588D698D7A8D4E835F83DD
S1132A70688779874C015D018E010A5F1F4F15C07D
S1132A80841B950BA60BB70BF5CF4E815F81688530
S1132A90798598018B8D9C8D87D291E0891A910854
S1132AA0A108B108882309F48DCF81149104A104ED
S1132AB0B10459F796CFDF91CF911F910F91FF90F9
S1132AC0EF90DF90CF90BF90AF909F908F9008953C
S1132AD00F931F93CF93DF93EC018D818823B9F17A
S1132AE08C8187FF2FC061E0CE01F2DD8C01892B40
S1132AF071F18D81823048F48B899C89AD89BE89BE
S1132B00F801848F958FA68FB78F8F89988DA98DA3
S1132B10BA8DF801938F828FB58BA48BE0917006E8
S1132B20F0917106309759F0B8016A5E7F4FC80181
S1132B3048961995F801808D918D938B828B8C81A9
S1132B408F778C83DF91CF911F910F91BBC180E070
S1132B50DF91CF911F910F910895CF93DF93EC01F3
S1132B60B7DF882311F01D8281E0DF91CF910895B2
S1132B702F923F924F925F926F927F928F929F9289
S1132B80AF92BF92CF92DF92EF92FF920F931F9377
S1132B90CF93DF9300D01F92CDB7DEB78C016B01CA
S1132BA01A01DC0115968C9115978130C1F41496A5
S1132BB08C9181FF14C082FF1CC0F80143895489A1
S1132BC06589768982859385A485B585841795075B
S1132BD0A607B70771F0C801E5DE81110AC081E0DC
S1132BE090E0D80113969C938E93129780E090E026
S1132BF042C1410182C05B968D919C915C97FC011E
S1132C0074802FEF270D2A013B0139E076946794F5
S1132C10579447943A95D1F7722E74207A01F1E0D3
S1132C20FF22772009F475C080E092E08E199F0995
S1132C3054018815990508F45C01D8015B962D911F
S1132C403C915C9716968D919D910D90BC91A02D11
S1132C500297A109B109F901058404C0880F991FDD
S1132C60AA1FBB1F0A94D2F74685578560897189CC
S1132C70840F951FA61FB71F9C01AD01270D311DA1
S1132C80411D511D29013A01A11432E0B30609F096
S1132C9085C08091060290910702A0910802B0912C
S1132CA00902481659066A067B0659F48FEF9FEF0E
S1132CB0DC018093060290930702A0930802B0936C
S1132CC009029601B301A2018091770690917806DA
S1132CD08CDC882309F483CF9EEFD91A8A189B08C9
S1132CE0F80182859385A485B5858A0D9B1DA11D58
S1132CF0B11D82879387A487B587D8011A964D9111
S1132D005D916D917C911D978114910409F073CFAD
S1132D1083C0E114F10409F087CF16964D915D91BB
S1132D206D917C911997411551056105710559F40F
S1132D3057968D919D910D90BC91A02D0097A10562
S1132D40B10531F520C09E012F5F3F4F2DD188235F
S1132D5009F44DCF89819A81AB81BC81F801238D1F
S1132D60348DF9012789203129F048EF5FEF6FEFA7
S1132D707FE004C048EF5FEF60E070E084179507E0
S1132D80A607B70728F0C8017DDC81114DCF27CFF6
S1132D90F80186839783A087B18746CFE114F104B5
S1132DA021F5D8011A964D915D916D917C911D97F5
S1132DB053968D919D910D90BC91A02D4817590764
S1132DC06A077B0790F07ED0882309F408CF4092ED
S1132DD006025092070260920802709209028091E2
S1132DE0760681608093760607C041E0C301B20194
S1132DF0A2D0882309F4F3CED601F701E758F94F9E
S1132E009F012A0D3B1D2E173F0719F08D918193C9
S1132E10FACFCA0CDB1C62CFD8015396CD90DD905B
S1132E20ED90FC90569714968C91C416D506E60640
S1132E30F70640F4F801438B548B658B768B8068DE
S1132E4084830DC02091700630917106232B39F0D4
S1132E502114310421F08068D80114968C93F80170
S1132E60848183FD02C0C10106C0C80131DE88230C
S1132E7009F4B5CEF8CF0F900F900F900F90DF911B
S1132E80CF911F910F91FF90EF90DF90CF90BF9063
S1132E90AF909F908F907F906F905F904F903F90F6
S1132EA02F900895CF93DF931F92CDB7DEB7698338
S1132EB041E050E0BE016F5F7F4F5ADE0F90DF911B
S1132EC0CF91089580917606882399F14091060266
S1132ED050910702609108027091090229E736E0D7
S1132EE0809177069091780680DB811102C080E0A2
S1132EF00895409172065091730660917406709122
S1132F007506411551056105710589F029E736E01B
S1132F10809177069091780668DB882341F31092BC
S1132F20720610927306109274061092750610922F
S1132F30760681E00895CF92DF92EF92FF92CF93CD
S1132F406B017C01C42F8091060290910702A0912D
S1132F500802B09109028C159D05AE05BF05C1F0AC
S1132F60B1DF811102C080E019C029E736E0B70162
S1132F70A6018091770690917806FEDA882399F36A
S1132F80C0920602D0920702E0920802F09209026F
S1132F9080917606C82BC093760681E0CF91FF908E
S1132FA0EF90DF90CF9008958F929F92AF92BF924F
S1132FB0CF92DF92EF92FF920F931F93CF93DF9301
S1132FC0FC0181859285A385B4850196A11DB11D5F
S1132FD084179507A607B70710F480E05AC08388C2
S1132FE09488A588B6888789803129F4BB27A72FC0
S1132FF0962F852F09C0DB01CA01C7E0B695A795B6
S113300097958795CA95D1F7E9016A017B018F01EC
S1133010BC01CD01680D791D8A1D9B1D809006029F
S113302090900702A0900802B090090268157905F3
S11330308A059B0591F4F8018789803199F4DD2490
S1133040EE24FF24C601880F991FFC01E758F94FAD
S113305080819181A0E0B0E017C040E06CDF811175
S1133060EACFBBCFE894C7F8DD24EE24FF24C601E1
S1133070880F991F880F991FFC01E758F94F808129
S11330809181A281B381BF7088839983AA83BB8312
S113309081E0DF91CF911F910F91FF90EF90DF902E
S11330A0CF90BF90AF909F908F9008954F925F9272
S11330B06F927F92AF92BF92CF92DF92EF92FF9284
S11330C00F931F93CF93DF9300D01F92CDB7DEB73A
S11330D08C0149835A836B837C835901C12CD12C85
S11330E07601412C82E0582E612C712C49815A8141
S11330F06B817C819E012F5F3F4FC80155DF882380
S113310051F1D301C201F801058404C0880F991F4D
S1133110AA1FBB1F0A94D2F7C80ED91EEA1EFB1EB3
S113312049815A816B817C818789803129F088EFBC
S11331309FEFAFEFBFE004C088EF9FEFA0E0B0E0E7
S1133140481759076A077B0788F2F501C082D182C4
S1133150E282F38281E00F900F900F900F90DF9145
S1133160CF911F910F91FF90EF90DF90CF90BF9080
S1133170AF907F906F905F904F9008954F925F92C1
S11331806F927F928F929F92AF92BF92CF92DF9273
S1133190EF92FF920F931F93CF93DF93EC01423092
S11331A051056105710510F480E077C089859A8521
S11331B0AB85BC850196A11DB11D84179507A60793
S11331C0B70790F3CB88DC88ED88FE888F8980313F
S11331D029F4BB27A72F962F852F09C0DB01CA012D
S11331E0E7E0B695A79597958795EA95D1F74801B5
S11331F059012A013B01C80ED91EEA1EFB1E80910B
S1133200060290910702A0910802B0910902C81623
S1133210D906EA06FB0681F48F898031A1F4B30153
S1133220A201552766277727440F551FFA01E7584F
S1133230F94F9182808218C040E0C701B6017BDE5D
S11332408111EACFB1CFB301A2014F775527662789
S11332507727440F551F440F551FFA01E758F94FBC
S113326080829182A282B38280917606816080936B
S113327076068A89823080F08D819E81AF81B885FF
S1133280C80ED91EEA1EFB1EC0927206D0927306A7
S1133290E0927406F092750681E0DF91CF911F9160
S11332A00F91FF90EF90DF90CF90BF90AF909F90E1
S11332B08F907F906F905F904F9008952F923F92E0
S11332C04F925F926F927F929F92AF92BF92CF92F2
S11332D0DF92EF92FF920F931F93CF93DF93CDB7BB
S11332E0DEB760970FB6F894DEBF0FBECDBF5C01AA
S11332F049875A876B877C871901D901CD90DD9066
S1133300ED90FC90C114D104E104F10431F0BFEF5D
S1133310CB1ADB0AEB0AFB0A10C0FC01C080D18087
S1133320E280F3809924939409851A852B853C8542
S1133330013011052105310509F0912CF501818534
S11333409285A385B4858C019D010F5F1F4F2F4F7C
S11333503F4F0D871E872F87388B260137011D822B
S11333601E821F821886F50181859285A385B48506
S11333700D811E812F813885081719072A073B07FD
S113338008F054C02D853E854F8558892415350590
S11333904605570550F482E0482E512C612C712CBF
S11333A092E0C92ED12CE12CF12C9E012F5F3F4FCE
S11333B0B301A201C501F8DD8823C1F149815A8115
S11333C06B817C81D301C2010196A11DB11D452BE6
S11333D0462B472B19F06C017D010FC0AC01BD01D8
S11333E04C195D096E097F0909851A852B853C8571
S11333F0041715072607370779F02D813E814F8181
S113340058852F5F3F4F4F4F5F4F2D833E834F8330
S113341058872C013D01A7CF0FEF1FEF2FEF3FE09F
S1133420B301A201C501AADE811117C080E03FC02B
S1133430D301C2010197A109B1098D839E83AF8392
S1133440B88793018201AC01BD01C50197DE8823D1
S113345069F34D805E806F807884C414D504E604DB
S1133460F70430F3D1014D915D916D917C9141153B
S113347051056105710599F4F101C082D182E2829E
S1133480F382992099F0FFEFCF1ADF0AEF0AFF0ABF
S1133490D501CD92DD92ED92FC92139707C097016E
S11334A08601C5016BDE8111E7CFC0CF81E0609654
S11334B00FB6F894DEBF0FBECDBFDF91CF911F9141
S11334C00F91FF90EF90DF90CF90BF90AF909F90BF
S11334D07F906F905F904F903F902F9008958F92C0
S11334E09F92AF92BF92CF92DF92EF92FF920F938F
S11334F01F93CF93DF93EC01142F7093780660939E
S11335007706442361F1453010F080E0EFC040E0DD
S113351060E070E0CB010FDD8823B9F320E1129F56
S1133520A00111244759594FFA01E254FE4F8081FA
S11335308F7759F73C9680819181A281B38184363B
S11335409105A105B10508F33497C080D180E280CC
S1133550F380C114D104E104F10421F4D6CFC12CC9
S1133560D12C760140E0C701B601E5DC882369F27D
S113357080918406909185068115924031F6909150
S11335808906992309F4C1CF2091870630918806D2
S1133590232B09F4BACF80918606882309F4B5CF8A
S11335A09A8B8C831D8690E041E050E02D85E22FBC
S11335B0BA01022E02C0660F771F0A94E2F786173B
S11335C0970731F031E0320F3D87283078F39DCFF3
S11335D020918F06309190062115310519F040E0B5
S11335E050E008C020919D0630919E0640919F06B0
S11335F05091A0062D833E834F8358878091870680
S11336009091880646015701880E991EA11CB11C91
S11336108B8A9C8AAD8ABE8A00918A0610918B0699
S1133620198F088FA0918906B0E0E9D0860E971E05
S1133630A81EB91E8A8E9B8EAC8EBD8E85E0000FAF
S1133640111F8A95E1F701501E4F012F112706958E
S1133650800E911EA11CB11C8E869F86A88AB98AF1
S113366020918C0630918D062115310521F0A90198
S113367060E070E008C04091990650919A0660910C
S11336809B0670919C06D701C60188199909AA095D
S1133690BB09840F951FA61FB71F04C0B695A79535
S11336A097958795EA95D2F789879A87AB87BC87E0
S11336B0853F2FE09207A105B10510F48CE014C0FA
S11336C0853F9F4FA105B10510F480E10DC08091A5
S11336D0A5069091A606A091A706B091A8068A8F88
S11336E09B8FAC8FBD8F80E28F8B81E0DF91CF9178
S11336F01F910F91FF90EF90DF90CF90BF90AF900C
S11337009F908F900895CF93CFB7F89480917C08C1
S1133710811127C0E4E0F2E08491EEEBF1E09491B2
S1133720E82FF0E0EE0FFF1FE75BFD4FA591B4918A
S1133730EC91E92321F461E085E30E94140E61E039
S113374085E30E94D80D8CB580618CBD8CB58064F6
S11337508CBD61E084E30E94D80D61E083E30E94A4
S1133760D80D80917C088F5F80937C08CFBFCF9168
S113377008950895991B79E004C0991F961708F0DD
S1133780961B881F7A95C9F780950895A1E21A2E91
S1133790AA1BBB1BFD010DC0AA1FBB1FEE1FFF1FF1
S11337A0A217B307E407F50720F0A21BB30BE40B41
S11337B0F50B661F771F881F991F1A9469F7609588
S11337C07095809590959B01AC01BD01CF01089542
S11337D0EE0FFF1F881F8BBF0790F691E02D199401
S11337E0A29FB001B39FC001A39F700D811D11243E
S11337F0911DB29F700D811D1124911D0895F0DF5C
S1133800A59F900DB49F900DA49F800D911D112430
S113381008950F931F93CF93DF938230910510F493
S113382082E090E0E0917F08F091800820E030E0B1
S1133830A0E0B0E0309719F14081518102811381F9
S113384048175907C8F08417950769F4109731F0A1
S113385012960C93129713961C9327C000937F081B
S11338601093800822C02115310519F0421753071F
S113387018F49A01BD01EF01DF01F801DBCF211536
S11338803105F9F0281B390B2430310580F48A8185
S11338909B816115710521F0FB019383828304C030
S11338A09093800880937F08FE01329644C0FE0105
S11338B0E20FF31F819391932250310939832883B6
S11338C03AC020917D0830917E08232B41F4209149
S11338D002023091030230937E0820937D082091E8
S11338E00002309101022115310541F42DB73EB794
S11338F04091040250910502241B350BE0917D0890
S1133900F0917E08E217F307A0F42E1B3F0B281753
S1133910390778F0AC014E5F5F4F2417350748F044
S11339204E0F5F1F50937E0840937D0881939193BF
S113393002C0E0E0F0E0CF01DF91CF911F910F9141
S11339400895CF93DF93009709F481C0FC01329767
S113395013821282A0917F08B0918008109781F49D
S113396020813181820F931F20917D0830917E0840
S11339702817390751F5F0937E08E0937D0867C056
S1133980ED0120E030E0CE17DF0740F44A815B818F
S11339909E0141155105F1F0EA01F5CFD383C283AD
S11339A040815181840F951FC817D90759F4888124
S11339B09981840F951F0296918380838A819B81CC
S11339C0938382832115310529F4F0938008E093D1
S11339D07F083DC0E901FB83EA8349915991C40FF3
S11339E0D51FEC17FD0761F480819181840F951F29
S11339F00296E90199838883828193819B838A83D8
S1133A00E0E0F0E012968D919C911397009719F0E5
S1133A10FD01DC01F7CF8D919C9111979D012E5FE3
S1133A203F4F820F931F20917D0830917E08281705
S1133A30390769F4309729F41092800810927F08AE
S1133A4002C013821282B0937E08A0937D08DF9196
S1133A50CF9108956F927F928F929F92AF92BF926F
S1133A60CF92DF92EF92FF920F931F93CF93DF9346
S1133A70009781F4CB01DF91CF911F910F91FF90BB
S1133A80EF90DF90CF90BF90AF909F908F907F90FA
S1133A906F90BFCEFC01E60FF71F9C012250310945
S1133AA0E217F30708F4A5C0EC01D9010D911C91AC
S1133AB0119706171707A8F00530110508F497C0E9
S1133AC0C80104978617970708F491C0025011099A
S1133AD0061B170B019311936D937C93CF0131DF78
S1133AE086C05B01A01AB10A4C01800E911EA09100
S1133AF07F08B0918008612C712CE12CF12C109777
S1133B0009F446C08D919C911197A815B905B1F59A
S1133B106C0142E0C40ED11CCA14DB0478F14C01E0
S1133B208A189B08640142E0C40ED11C1296BC9012
S1133B3012971396AC91B5E0CB16D10440F0B28243
S1133B40A38391828082D9016D937C9309C00E5F17
S1133B501F4F800F911FF90191838083EB2DFA2F62
S1133B60E114F10431F0D7011396FC93EE9312970C
S1133B703EC0F0938008E0937F0839C06816790648
S1133B8008F43C017D0112960D90BC91A02DB7CF95
S1133B9080917D0890917E0888169906E1F4661656
S1133BA07706C8F48091000290910102009741F4D5
S1133BB08DB79EB74091040250910502841B950B6A
S1133BC0E817F907B0F4F0937E08E0937D08F90153
S1133BD0718360830CC0CB011CDE7C01009749F02B
S1133BE0A801BE0120D0CE01ACDEC70104C0CE01C5
S1133BF002C080E090E0DF91CF911F910F91FF9080
S1133C00EF90DF90CF90BF90AF909F908F907F9078
S1133C106F900895FB01DC0102C005900D924150A4
S1133C205040D8F70895FB01DC0102C001900D92C9
S1133C3041505040D8F70895FB01DC0101900D92EA
S1133C400020E1F7089511E0C9E3D1E000E005C0E8
S1133C50802FFE01BDDD2196011DCA33D10780E00E
S10B3C600807B1F7F894FFCF47
S1133C68000081082000FFFFFFFF646174616C6F2E
S1133C78672E747874004572726F723A20436F75B8
S1133C886C646E27742066696E64205254432C2039
S1133C98706C6561736520656E73757265207468F0
S1133CA86174207468652072746320697320706F6E
S1133CB877657265642100525443097375636365BB
S1133CC8737366756C6C7920696E697469616C6963
S1133CD87A65642100525443206C6F737420706FAA
S1133CE87765722C207468652074696D652077691E
S1133CF86C6C2062652073657421004572726F7262
S1133D083A206E6F206D6963726F2073642063615B
S1133D18726420666F756E64210053442063617277
S1133D2864097375636365737366756C6C7920696C
S1133D386E697469616C697A656421002072656DC5
S1133D486F7665640020646F65736E2774206578E8
S1133D58697374004572726F723A206E6F206D69D0
S1133D6863726F207364206361726420666F756E7A
S1133D7864206F722066696C6520646F65736E27B2
S1133D88742065786973742100000000002409F820
S1133D9808EA05C10896089E08B2084572726F724F
S1133DA83A20436F756C646E27742066696E6420CC
S1133DB8424D453238302C20706C6561736520653E
S1133DC86E73757265207468617420746865204226
S1133DD84D4532383020697320706F776572656499
S1133DE820616E6420636F72726563746C792077E6
S1133DF8697265642100424D453238300973756330
S1133E086365737366756C6C7920696E697469612E
S1133E186C697A6564210000000000A50A190C3851
S1133E280AF10A0A0A240A160A0D0A006E616E00CB
S1133E38696E66006F76660000000000E90EFF0EEA
S1133E48EA051A0F9B0F370F400F000000005217A6
S1093E58190CEA05ED055A
S9030000FC
