S015000077657474657273746174696F6E2E7372656372
S113000022C100000C945B0B0C94860B0C94B10B76
S11300100C94DC0B0C94070C0C94320C0C945D0CBB
S11300200C94880CD9C40000D7C40000D5C40000C7
S11300303BC1000039C1000037C1000035C10000D8
S113004033C1000031C100002FC100002DC10000E8
S11300502BC1000029C1000027C100000C94B30C7F
S113006023C100000C948E0A0C94C40A1DC1000024
S11300701BC1000019C1000017C1000015C1000018
S113008013C1000011C100000FC100000DC1000028
S11300900BC1000009C1000007C1000019C600001F
S11300A003C1000001C10000FFC00000FDC000004A
S11300B0FBC00000F9C00000F7C00000F5C000005C
S11300C0F3C00000F1C00000EFC00000EDC000006C
S11300D0EBC00000E9C00000E7C00000E5C000007C
S11300E0E3C00000E50DE80DD70DDB0DE10D1F0E9B
S11300F0EC0DF00DF60DFA0DFE0D040E080E0C0EAF
S11301001F0E120E160E1A0E1F1C1F1E1F1E1F1F5F
S11301101E1F1E1F00000A0B02090C0D0E08070308
S113012004010000000000000000000000000000C6
S113013000000000000000000000000000000000BB
S11301401211100000000000000000000000000078
S11301500000000000000000000001021020200840
S1130160081020401020408002010201080402010E
S1130170010204081020408080402010080402017D
S113018080040201804020100804020108040201D6
S1130190010204081020408001020408102040805D
S11301A005050505070508080808020202020A0AEF
S11301B0080804040404010101010101010103030D
S11301C0030303030303040707070C0C0C0C0C0CB8
S11301D00C0C0202020206060606060606060B0BB5
S11301E00B0B0B0B0B0B0000200023002600290037
S11301F02C002F0032000001000003010601090158
S113020000002200250028002B002E0031003400BD
S113021002010000050108010B0100002100240077
S113022027002A002D0030003300010100000401E2
S113023007010A0155019701F1080309F60A101094
S1130240FF117301B30111241FBECFEFD1E2DEBF52
S1130250CDBF00E00CBF14E0A0E0B2E0E4EEF5E3B3
S113026000E00BBF02C007900D92A036B107D9F78A
S113027029E0A0E6B4E001C01D92AD32B207E1F777
S113028011E0C1E2D1E000E006C021970109802F0E
S1130290FE010E94C818CA31D10780E00807A9F7F7
S11302A00E94240B0C94E11AABCE6AE172E088E759
S11302B094E00E941D0F60E272E082E794E00E94E5
S11302C01D0F68E272E08CE694E00E941D0F6EE25E
S11302D072E086E694E00E941D0F64E372E080E61B
S11302E094E00C941D0F80E694E00E94B20E86E622
S11302F094E00E94B20E8CE694E00E94B20E82E773
S113030094E00E94B20E88E794E00C94B20E26E0CA
S113031040E855E260E070E08AE296E00E94290A33
S11303208DE894E0D0D284E894E04DC308950F930F
S11303301F9304E322E343E360E38DE894E041D0B8
S113034004E310E022E330E043E350E065E370E0CF
S113035085E894E049D740E050E0BA018EE794E0A4
S11303601F910F91B8C285E894E04CC720912709EA
S1130370222399F04FB7F89420912709213059F49A
S11303802DB3209325093DB32091260920952323DD
S11303902DBB4FBF02C0409325098CBD9DBD089560
S11303A080912709882361F09FB7F8942091270949
S11303B080912509213019F48DBB9FBF08958FBF0B
S11303C008950F93FC0163874487258706870F915F
S11303D00895CF92DF92EF92FF920F931F93CF93E2
S11303E0DF93FC0126852F3F39F46EBD00000DB468
S11303F007FEFDCF8EB52BC0D62F8C0187E0E82EEB
S1130400F12CC0E0CC24C394D12CCC0F60E0F801D3
S113041086850E945C0EB6010E2C01C0660F0A94FC
S1130420EAF76D23F80184850E945C0E61E0F8010F
S113043086850E945C0EF80185850E948A0E892BB0
S113044009F0C160F1E0EF1AF108F8F68C2FDF91A2
S1130450CF911F910F91FF90EF90DF90CF9008956F
S11304600F931F93CF93DF93EC01162F042F8B85EB
S11304708F3FF9F46A818881998133D68881998183
S1130480DC01ED91FC910190F081E02D612F199533
S113049088819981DC01ED91FC910190F081E02D3E
S11304A0602F199588819981DF91CF911F910F91C8
S11304B096C68E858F3F19F482E591E057DF60E0A0
S11304C08B850E945C0E612F6F77CE0182DF602FD7
S11304D0CE017FDF61E08B850E945C0E8E858F3FAD
S11304E029F4DF91CF911F910F915ACFDF91CF91D2
S11304F01F910F910895CF92EF920F93CF93DF93B3
S1130500EC016295660F660F607C47702770822F3E
S1130510880F880F880F262F242B282B29AB902F88
S11305209295990F907E8AA98F71892B8AAB8E2D13
S11305308770880F880F880F98A9292F207C9C2DFD
S11305409770E22EE82AE92AE8AA402F477062EF62
S1130550CE0186DF98A9492F477060E2469F90013B
S11305601124892F869586958695877068E0869FE5
S1130570A0011124422B532B97FB992790F9492B67
S113058065EFCE016DDF99A9492F477080E2489F3E
S113059090011124892F869586958695877068E049
S11305A0869FA0011124422B532B929596959695E4
S11305B09370492B64EFCE01DF91CF910F91EF90AF
S11305C0CF904ECF1F93CF93DF93EC01162F8B85E3
S11305D08F3F09F56A818881998183D588819981C2
S11305E0DC01ED91FC910190F081E02D612F1995D2
S11305F088819981F4D541E06A8188819981EDD51A
S113060088819981DC01ED91FC910284F385E02DD0
S11306101995182F1AC08E858F3F19F482E591E041
S1130620A5DE60E08B850E945C0E612F6068CE01C0
S1130630D0DE60E0CE01CDDE182F61E08B850E9414
S11306405C0E8E858F3F09F4ABDE812FDF91CF9155
S11306501F9108950F931F93CF93DF93EC01162FEF
S11306608B858F3F81F56A81888199813AD588810C
S11306709981DC01ED91FC910190F081E02D612FD5
S1130680199588819981ABD542E06A8188819981E5
S1130690A4D588819981DC01ED91FC910284F385D4
S11306A0E02D1995182F88819981DC01ED91FC9139
S11306B00284F385E02D199520E030E0312F890183
S11306C0082B192B23C08E858F3F19F482E591E006
S11306D04DDE60E08B850E945C0E612F6068CE0168
S11306E078DE60E0CE0175DE082F60E0CE0171DEB9
S11306F0202F30E0322F22278901082B61E08B85DF
S11307000E945C0E8E858F3F09F44ADEC801DF919A
S1130710CF911F910F9108959DDF982789279827DE
S113072008951F93CF93DF93EC0168E8F5DF988B6E
S11307308F876AE8CE01F0DF9A8B898B6CE8CE0153
S1130740EBDF9C8B8B8B6EE8CE01E6DF9E8B8D8B73
S113075060E9CE01E1DF988F8F8B62E9CE01DCDFA7
S11307609A8F898F64E9CE01D7DF9C8F8B8F66E9DE
S1130770CE01D2DF9E8F8D8F68E9CE01CDDF98A3A5
S11307808F8F6AE9CE01C8DF9AA389A36CE9CE01F1
S1130790C3DF9CA38BA36EE9CE01BEDF9EA38DA312
S11307A061EACE010FDF8FA361EECE01B5DF99A719
S11307B088A763EECE0106DF8AA764EECE0102DFCE
S11307C0182F65EECE01FEDE90E1199F90011124F1
S11307D08F70282B3CA72BA766EECE01F3DE182FD3
S11307E065EECE01EFDE90E1199F9001112490E0B7
S11307F044E0959587954A95E1F7822B932B9EA724
S11308008DA767EECE01DEDE8FA7DF91CF911F911A
S1130810089563EFD7DE81700895CF92EF920F931E
S1130820CF93DF93EC018B858F3F21F488819981ED
S113083049D418C061E00E945C0E61E08B850E947F
S1130840200E8E858F3F19F40E946F180BC061E053
S11308500E94200E61E08C850E94200E60E08D8550
S11308600E94200E60EDCE01ADDE803629F546EB08
S113087060EECE01F5DD6CE271E080E090E00E9474
S11308802E0DCE01C6DF882329F064E670E080E0F7
S113089090E0F5CFCE0145DFC12CE12C05E025E049
S11308A045E063E0CE0127DE64E670E080E090E09E
S11308B00E942E0D81E001C080E0DF91CF910F9165
S11308C0EF90CF90089527E7FC01228322E735E0DB
S11308D031832083A2CF8F929F92AF92BF92CF9207
S11308E0DF92EF92FF92CF93DF93EC016A017B01D9
S11308F080E8C81A83E4D80A8DE6E80A88E3F80A8F
S11309008CE3882E912CA12CB12CC701B601A50132
S113091094010E94A6186D83CA01B901A50194012E
S11309200E94A6186C83C701B60120E13EE040E0B6
S113093050E00E94A618CA01B90128E130E040E065
S113094050E00E94A6186B83C701B60120E831E588
S113095041E050E00E94A61818824881542F537039
S113096081E009F080E090E0BC0163597E4F2617D6
S1130970370738F0281B390B2D5631404F5F488319
S1130980ECCF81E089838981E82FF0E0E95FFE4FB5
S1130990E491511103C0823009F4EF5FF0E02E17A7
S11309A03F0720F02E1B3F0B8F5FECCF2F5F2A8376
S11309B0DF91CF91FF90EF90DF90CF90BF90AF90F9
S11309C09F908F90089582E795E07CD381E008950D
S11309D080E090E0089508951F920F920FB60F9251
S11309E011240BB60F922F933F934F935F936F9302
S11309F07F938F939F93AF93BF93EF93FF93E09174
S1130A000205F0910305309709F451C0968DA6852F
S1130A10B785858591FF04C09C91892329F447C03B
S1130A209C91892309F043C0A389B4899C91858949
S1130A30809589238C93868997890197F1F7608D36
S1130A40718DA685B785558538E020E0CB010197E7
S1130A50F1F7822F90E095958795282F4C914523A7
S1130A6009F02068315091F7868D81FD20958091A1
S1130A70C10490E001968F7399273091C004381710
S1130A8049F0A091C104B0E0AE53BB4F2C938093C6
S1130A90C10403C0868D8160868F828D938D0197FA
S1130AA0F1F7A389B4899C918589892B8C93FF9153
S1130AB0EF91BF91AF919F918F917F916F915F91D2
S1130AC04F913F912F910F900BBE0F900FBE0F903F
S1130AD01F9018951092710581E080936F05109214
S1130AE06E0561E084E10E945C0E61E085E10E9494
S1130AF05C0EE9EBF0E080818E7F808380818D7FC6
S1130B00808388E48093B80085E48093BC000895D2
S1130B10413208F043C0909171059111FCCF91E0EE
S1130B209093710520936F052FEF20930405109285
S1130B304905240F20934805909370059091700502
S1130B40880F892B8093700580916E05813061F444
S1130B5010926E05809170058093BB008091BC005B
S1130B6083FDF8CF85EC01C085EE8093BC008091B5
S1130B7071058130E1F380914905841710F44091A7
S1130B804905AAE4B5E0962FFB018E2F891B841733
S1130B9018F48D918193F9CF842F089580E00895FE
S1130BA00F93413208F04AC0909171059111FCCF26
S1130BB032E03093710500936F053FEF30930405E5
S1130BC01092490540934805562FAAE4B5E0FB016D
S1130BD03E2F351B341718F431913D93F9CF109201
S1130BE0700530917005880F832B80937005809178
S1130BF06E05813061F410926E05809170058093CA
S1130C00BB008091BC0083FDF8CF85EC01C085EE6C
S1130C108093BC00222321F0809171058230D1F3AE
S1130C20809104058F3F79F080910405803241F072
S1130C3080910405803331F094E005C091E003C055
S1130C4092E001C093E0892F0F9108954091260509
S1130C50262F30E0240F311D21323105DCF42091A0
S1130C6071052430C9F4FC0180E090E0861758F443
S1130C70309126052191DC01A85DBA4FA30FB11D67
S1130C802C930196F3CF80912605680F6093260577
S1130C9080E0089581E0089582E0089590936B05C3
S1130CA080936A05089590936D0580936C0508956B
S1130CB085ED8093BC008091BC0084FDFCCF109234
S1130CC07105089585EC8093BC0010927105089518
S1130CD01F920F920FB60F9211240BB60F922F93FF
S1130CE03F934F935F936F937F938F939F93AF93B0
S1130CF0BF93EF93FF938091B900887F803609F406
S1130D009DC070F5883209F45CC090F4803109F418
S1130D1055C038F4882309F4F3C0883009F44EC070
S1130D20F2C0883109F44DC0803209F45EC0EBC0D2
S1130D30803409F469C050F4803309F456C0883310
S1130D4009F0E1C080930405BDDFDDC0803509F4FE
S1130D504FC0883509F45DC0883409F0D4C0D2C0CE
S1130D60883909F4C3C0A8F4883709F467C038F493
S1130D70883609F463C0803709F460C0C4C0883879
S1130D8009F4B4C0803909F45FC0803809F0BBC0ED
S1130D905BC0803B09F482C038F4803A09F466C031
S1130DA0883A09F47BC0AFC0803C09F4A3C0883CF6
S1130DB009F4A0C0883B09F486C0A5C080917005E1
S1130DC010C09091490580914805981770F5E091FD
S1130DD0490581E08E0F80934905F0E0E65BFA4F08
S1130DE080818093BB0085EC82C0809304058AC017
S1130DF0E091490581E08E0F809349058091BB0005
S1130E00F0E0E65BFA4F80839091490580914805B4
S1130E106AC0E091490581E08E0F80934905809175
S1130E20BB00F0E0E65BFA4F808380916F0581118F
S1130E3069C081E080936E0584EA5DC083E080939D
S1130E40710510920505CFCF80910505803208F019
S1130E504DC0E091050581E08E0F809305058091DA
S1130E60BB00F0E0EA5FFA4F8083BDCF2BDF8091B7
S1130E700505803230F4E0910505F0E0EA5FFA4FB1
S1130E8010826091050570E0E0916A05F0916B05B0
S1130E9086E095E019951092050535C084E08093AD
S1130EA071051092270510922605E0916C05F091CA
S1130EB06D05199580912605811105C081E0809307
S1130EC0260510922805E091270581E08E0F809376
S1130ED02705F0E0E85DFA4F80818093BB00909194
S1130EE0270580912605981708F47DCF85E880931F
S1130EF0BC0009C085EC8093BC001092710503C04E
S1130F0010920405D5DEFF91EF91BF91AF919F91AF
S1130F108F917F916F915F914F913F912F910F909E
S1130F200BBE0F900FBE0F901F9018958091A605D1
S1130F3090E02091A705821B910908959091A7053F
S1130F408091A605981750F4E92FF0E0E855FA4F80
S1130F50208130E09F5F9093A70502C02FEF3FEF01
S1130F60C9010895E091A7058091A605E81730F41A
S1130F70F0E0E855FA4F808190E008958FEF9FEFFD
S1130F8008950895CF93DF93EC01E0917E05F091ED
S1130F907F053097F1F09091A7058091A6059817E9
S1130FA0C0F090E0292F30E02617370754F4DE0113
S1130FB0A20FB31F4C91D901A855BA4F4C939F5F10
S1130FC0F1CF1092A7056093A605CB01DF91CF91D5
S1130FD01994DF91CF910895E0918005F0918105F6
S1130FE0309729F01092840510928305199408957E
S1130FF0CF92DF92EF92FF920F931F93CF93DF93E1
S11310007C01CB018A0120918205222389F0EB0126
S11310106B01C40ED51ECC15DD0561F06991D701B5
S1131020ED91FC910190F081E02DC7011995F3CF6A
S1131030642F0CDEC801DF91CF911F910F91FF90B7
S1131040EF90DF90CF900895CF93DF931F92CDB7A9
S1131050DEB76983209182052223D1F02091830594
S1131060203240F021E030E0FC013383228380E031
S113107090E014C080918405E82FF0E0EB57FA4F1C
S1131080998190838F5F809384058093830504C046
S113109061E0CE010196DADD81E090E00F90DF910E
S11310A0CF910895FC011382128288EE93E0A0E0B0
S11310B0B0E084839583A683B78381E294E091832F
S11310C0808308951092A7051092A60510928405B6
S11310D010928305FFDC8CEE97E0E5DD82EC97E06F
S11310E0DDCD81E0809382056093A505109284058F
S11310F01092830508950F93062F21E040918305F4
S113110065E875E08091A5054BDD10928405109289
S11311108305109282050F9108954F925F926F920A
S11311207F92AF92BF92CF92EF92FF920F931F9351
S1131130CF93DF935C01F62ED42F28013901EE20E2
S113114011F1CFDFCE2DC43008F0C3E0C150C0F0A0
S113115028E0C29FC0011124A301920104C0569546
S11311604795379527958A95D2F7CA01B901D501D4
S1131170ED91FC910190F081E02DC5011995E6CF28
S113118060E0C501B8DF4D2FD13208F040E22C2DCC
S113119068EA75E08F2DBCDC1092A7058093A60544
S11311A0DF91CF911F910F91FF90EF90CF90BF905F
S11311B0AF907F906F905F904F900895CF92EF9291
S11311C00F931F93C22EE12C00E010E09801A5DFDD
S11311D01F910F91EF90CF90089521E0EFCF61E040
S11311E08ACF82E795E05ECF0F931F93FC01718352
S11311F060835383428335832483178306831F913B
S11312000F91089508958FE096E0AAD6E3E0F6E002
S11312101582168211861386E5EEF5E082E090E0F1
S1131220A0E0B0E080839183A283B383178AE8ECC3
S1131230F5E01382128287E594E09183808315821E
S11312400895FC01918D228D892F90E0805C9F4F41
S1131250821B91098F7399270895FC01918D828DCA
S1131260981731F0828DE80FF11D858D90E0089577
S11312708FEF9FEF0895FC01918D828D981761F097
S1131280828DDF01A80FB11D5D968C91928D9F5FB9
S11312909F73928F90E008958FEF9FEF0895FC0164
S11312A0538D448D252F30E0842F90E0821B930BC7
S11312B0541710F0CF960895019708958DEE9AE093
S11312C0892B39F080E090E0892B19F086D18111C7
S11312D025C080E090E0892B41F080E090E0892BEC
S11312E021F00E94000081111CC080E090E0892B55
S11312F041F080E090E0892B21F00E9400008111F0
S113130013C080E090E0892BA1F080E090E0892B6D
S113131081F00E94000081110AC008950E9400001B
S1131320D8CF0E940000E1CF0E940000EACF0C94C5
S113133000000895FC01848DDF01A80FB11DA35A9C
S1131340BF4F2C91848D90E001968F739927848FE1
S1131350A689B7892C93A089B1898C918370806404
S11313608C93938D848D981306C00288F389E02DA5
S113137080818F7D80830895EF92FF920F931F9356
S1131380CF93DF93EC0181E0888F9B8D8C8D981334
S113139005C0E889F989808185FD25C0F62E0B8D6D
S11313A010E00F5F1F4F0F731127E02E8C8DE81292
S11313B00BC00FB607FCFACFE889F989808185FF55
S11313C0F5CFCE01B7DFF2CF8B8DFE01E80FF11D13
S11313D0E35AFF4FF0829FB7F8940B8FEA89FB8999
S11313E0808180620AC09FB7F894EE89FF89608388
S11313F0E889F98980818370806480839FBF81E05C
S113140090E0DF91CF911F910F91FF90EF9008959D
S1131410CF93DF93EC01888D8823C1F0EA89FB899F
S1131420808185FD05C0A889B9898C9186FD0EC08F
S11314300FB607FCF5CF808185FFF2CFA889B98963
S11314408C9185FFEDCFCE0175DFE8CFDF91CF9191
S11314500895CF92DF92EF92FF921F93CF93DF9381
S1131460EC016A017B01122FE889F98982E080830B
S11314704115514E61057105B1F060E079E08DE3ED
S113148090E0A70196010E94A618DA01C90101970C
S1131490A109B109B695A795979587959C01211542
S11314A080E13807A8F0E889F989108260E874E8D7
S11314B08EE190E0A70196010E94A618DA01C90105
S11314C00197A109B109B695A795979587959C01B0
S11314D0EC85FD853083EE85FF852083188EEC89AD
S11314E0FD891083EA89FB89808180618083EA8990
S11314F0FB89808188608083EA89FB898081806898
S11315008083EA89FB8980818F7D8083DF91CF91FD
S11315101F91FF90EF90DF90CF9008951F920F924C
S11315200FB60F9211240BB60F922F938F939F93A4
S1131530EF93FF93E0913A06F0913B068081E091AE
S11315404006F091410682FD12C0908180914306CD
S11315508F5F8F7320914406821751F0E091430608
S1131560F0E0E65DF94F958F8093430601C08081DA
S1131570FF91EF919F918F912F910F900BBE0F9040
S11315800FBE0F901F9018951F920F920FB60F92D7
S113159011240BB60F922F933F934F935F936F9346
S11315A07F938F939F93AF93BF93EF93FF938AE2BD
S11315B096E0C0DEFF91EF91BF91AF919F918F9123
S11315C07F916F915F914F913F912F910F900BBE3F
S11315D00F900FBE0F901F9018958AE296E031DEAF
S11315E021E0892B09F420E0822F0895EAE2F6E055
S11315F01382128288EE93E0A0E0B0E084839583A6
S1131600A683B78383E394E09183808385EC90E0A1
S11316109587848784EC90E09787868780EC90E0B8
S1131620918B808B81EC90E0938B828B82EC90E0A9
S1131630958B848B86EC90E0978B868B118E128E23
S1131640138E148E0895089543D2FDDF0E948701FE
S1131650CEE5D9E00E9496012097E1F32FDEFACF80
S1131660CF92DF92EF92FF920F931F93CF93DF936A
S11316706C017A018B01C0E0D0E0CE15DF0581F06A
S1131680D8016D918D01D601ED91FC910190F0810D
S1131690E02DC6011995892B11F02196EECF7E011C
S11316A0C701DF91CF911F910F91FF90EF90DF90D1
S11316B0CF90089508951F920F920FB60F921124A0
S11316C00BB60F922F933F934F935F936F937F9338
S11316D08F939F93AF93BF93EF93FF93E0910A028D
S11316E0F0910B021995FF91EF91BF91AF919F91EA
S11316F08F917F916F915F914F913F912F910F90B7
S11317000BBE0F900FBE0F901F9018951F920F9253
S11317100FB60F9211240BB60F922F933F934F9352
S11317205F936F937F938F939F93AF93BF93EF9345
S1131730FF93E0910C02F0910D021995FF91EF9146
S1131740BF91AF919F918F917F916F915F914F91D5
S11317503F912F910F900BBE0F900FBE0F901F90D3
S113176018951F920F920FB60F9211240BB60F9279
S11317702F933F934F935F936F937F938F939F9395
S1131780AF93BF93EF93FF93E0910E02F0910F029A
S11317901995FF91EF91BF91AF919F918F917F9197
S11317A06F915F914F913F912F910F900BBE0F90CE
S11317B00FBE0F901F9018951F920F920FB60F92A5
S11317C011240BB60F922F933F934F935F936F9314
S11317D07F938F939F93AF93BF93EF93FF93E09186
S11317E01002F09111021995FF91EF91BF91AF9101
S11317F09F918F917F916F915F914F913F912F9125
S11318000F900BBE0F900FBE0F901F9018951F9254
S11318100F920FB60F9211240BB60F922F933F9392
S11318204F935F936F937F938F939F93AF93BF93E4
S1131830EF93FF93E0910602F09107021995FF914F
S1131840EF91BF91AF919F918F917F916F915F9134
S11318504F913F912F910F900BBE0F900FBE0F90A1
S11318601F9018951F920F920FB60F9211240BB66A
S11318700F922F933F934F935F936F937F938F9325
S11318809F93AF93BF93EF93FF93E0910802F0917E
S113189009021995FF91EF91BF91AF919F918F919B
S11318A07F916F915F914F913F912F910F900BBE5C
S11318B00F900FBE0F901F9018951F920F920FB6A6
S11318C00F9211240BB60F922F933F934F935F9374
S11318D06F937F938F939F93AF93BF93EF93FF93F4
S11318E0E0911202F09113021995FF91EF91BF91CB
S11318F0AF919F918F917F916F915F914F913F91A4
S11319002F910F900BBE0F900FBE0F901F90189544
S11319101F920F920FB60F9211240BB60F922F93B2
S11319203F934F935F936F937F938F939F93AF9363
S1131930BF93EF93FF93E0911402F0911502199570
S1131940FF91EF91BF91AF919F918F917F916F9193
S11319505F914F913F912F910F900BBE0F900FBE4F
S11319600F901F9018951F920F920FB60F9211248B
S11319702F933F938F939F93AF93BF938091C80608
S11319809091C906A091CA06B091CB063091C706C2
S113199023E0230F2D3720F40196A11DB11D05C0AE
S11319A026E8230F0296A11DB11D2093C70680933C
S11319B0C8069093C906A093CA06B093CB0680913B
S11319C0CC069091CD06A091CE06B091CF0601969B
S11319D0A11DB11D8093CC069093CD06A093CE0695
S11319E0B093CF06BF91AF919F918F913F912F916B
S11319F00F900FBE0F901F9018952FB7F894609119
S1131A00C8067091C9068091CA069091CB062FBF73
S1131A1008953FB7F8948091CC069091CD06A0919B
S1131A20CE06B091CF0626B5A89B05C02F3F19F06E
S1131A300196A11DB11D3FBFBA2FA92F982F88274A
S1131A40820F911DA11DB11DBC01CD0142E0660FA5
S1131A50771F881F991F4A95D1F708958F929F92F7
S1131A60AF92BF92CF92DF92EF92FF926B017C0113
S1131A70D0DF4B015C01C114D104E104F104F9F09D
S1131A800E94A518C6DFDC01CB0188199909AA09AF
S1131A90BB09883E9340A105B10568F321E0C21A51
S1131AA0D108E108F10888EE880E83E0981EA11C95
S1131AB0B11CC114D104E104F10421F7DCCFFF907F
S1131AC0EF90DF90CF90BF90AF909F908F9008954C
S1131AD0789484B5826084BD84B5816084BD85B505
S1131AE0826085BD85B5816085BDEEE6F0E08081CC
S1131AF081608083E1E8F0E01082808182608083ED
S1131B00808181608083E0E8F0E08081816080836F
S1131B10E1EBF0E0808184608083E0EBF0E08081A1
S1131B2081608083E1E9F0E080818260808380814C
S1131B3081608083E0E9F0E0808181608083E1EA74
S1131B40F0E0808182608083808181608083E0EA2C
S1131B50F0E0808181608083E1E2F1E08081826055
S1131B608083808181608083E0E2F1E08081816014
S1131B708083EAE7F0E080818460808380818260F2
S1131B8080838081816080838081806880831092DB
S1131B90C100089590E0FC013197E231F10508F0AD
S1131BA04EC08827EE58FF4F8F4F0C94C818809171
S1131BB080008F7703C0809180008F7D80938000A8
S1131BC0089580918000877FF9CF84B58F7702C014
S1131BD084B58F7D84BD08958091B0008F7703C054
S1131BE08091B0008F7D8093B00008958091900023
S1131BF08F7707C0809190008F7D03C08091900003
S1131C00877F8093900008958091A0008F7707C00C
S1131C108091A0008F7D03C08091A000877F809376
S1131C20A0000895809120018F7707C08091200142
S1131C308F7D03C080912001877F809320010895C8
S1131C40CF93DF9390E0FC01E65AFE4F2491FC0110
S1131C50E056FE4F8491882361F190E0880F991F2C
S1131C60FC01E65EFD4FC591D491FC01E050FE4FAE
S1131C70A591B491611109C09FB7F894888120950A
S1131C8082238883EC912E230BC0623061F49FB7CA
S1131C90F8948881322F309583238883EC912E2BFE
S1131CA02C939FBF06C08FB7F894E8812E2B28830E
S1131CB08FBFDF91CF9108951F93CF93DF93282F88
S1131CC030E0F901EC5EFE4F8491F901E65AFE4FD3
S1131CD0D491F901E056FE4FC491CC23B9F0162FEC
S1131CE0811158DFEC2FF0E0EE0FFF1FE050FE4FA4
S1131CF0A591B4919FB7F894111104C08C91D0951B
S1131D00D82302C0EC91DE2BDC939FBFDF91CF91EF
S1131D101F910895CF93DF93282F30E0F901EC5EF3
S1131D20FE4F8491F901E65AFE4FD491F901E05631
S1131D30FE4FC491CC2389F081112CDFEC2FF0E00D
S1131D40EE0FFF1FEA51FE4FA591B491EC91ED23E4
S1131D5081E090E021F480E002C080E090E0DF9137
S1131D60CF910895FC01808191810C946819CF93DF
S1131D70DF93EC0188819981009711F00E94681922
S1131D80198218821D821C821B821A82DF91CF91D4
S1131D9008950F931F93CF93DF93EC018B016F5F33
S1131DA07F4F888199810E94F119009731F09983BE
S1131DB088831B830A8381E001C080E0DF91CF9197
S1131DC01F910F910895CF93DF93EC01888199813E
S1131DD0892B29F08A819B818617970758F4CE01B5
S1131DE0D8DF882341F08C819D81892B19F4E88107
S1131DF0F981108281E0DF91CF910895EF92FF92F3
S1131E000F931F93CF93DF93EC017B018A01BA01F7
S1131E10DADF811103C0CE01AADF07C01D830C8362
S1131E20B701888199810E94DA1ACE01DF91CF919E
S1131E301F910F91FF90EF900895FC011182108281
S1131E4013821282158214826115710549F0FB0117
S1131E5001900020E9F73197AF01461B570BCECF15
S1131E600895CF93DF931F92CDB7DEB76983DC016A
S1131E70ED91FC910280F381E02D41E050E0BE0140
S1131E806F5F7F4F19950F90DF91CF910895CF9396
S1131E90DF93EC01898D9A8D009739F481E090E00D
S1131EA09B838A8380E090E00AC0FC011382128243
S1131EB0C7D4E98DFA8D22813381232B79F7DF9101
S1131EC0CF910895FC01818D928D009709F073C420
S1131ED00895CF93DF931F92CDB7DEB741E050E072
S1131EE0BE016F5F7F4FCFD2019719F4898190E0D3
S1131EF002C08FEF9FEF0F90DF91CF910895FC0107
S1131F00818D928D009709F0E4CF8FEF9FEF0895B4
S1131F100F931F93CF93DF93FC01818D928D0097D4
S1131F20A9F0EF01D6DF8C010F3F8FEF180789F07E
S1131F30898D9A8DFC014285538564857585415050
S1131F40510961097109A1D3C80105C080E090E07D
S1131F5002C08FEF9FEFDF91CF911F910F910895F2
S1131F60FC011382128288EE93E0A0E0B0E0848347
S1131F709583A683B78385E494E091838083128E4E
S1131F80118E14860895DC015996ED91FC915A97AF
S1131F90309729F0628573858485958508956FEF60
S1131FA07FEFCB010895DC015996ED91FC915A978E
S1131FB0309729F06389748985899689089560E04A
S1131FC070E0CB010895CF92DF92EF92FF92CF930E
S1131FD0DF93FC01218D328D232BC9F0EC01E3DF6B
S1131FE06B017C01CE01CFDFA7019601261B370BC5
S1131FF0480B590BDA01C901811530E89307A10593
S1132000B10538F08FEF9FE7A0E0B0E002C080E0B8
S113201090E0DF91CF91FF90EF90DF90CF90089503
S1132020E0EDF6E0158216821186138682E090E0D8
S1132030A0E0B0E084879587A687B78713A215A68A
S113204014A687E594E093A782A717A608959FB7DF
S1132050F8942091270980912509213019F48DBB2A
S11320609FBF08958FBF08958EBD00000DB407FE75
S1132070FDCF8EB508958FEFF7CF61E0FC01848129
S11320801BDE80911907882331F010921907809183
S113209027098111DCCF0895CF93DF93EC01809160
S11320A01907811109C081E08093190780911A07EB
S11320B090911B070E94B60160E08C81DF91CF9163
S11320C0FBCDCF93DF93EC018E81882379F08F8150
S11320D098859C012F5F3F4F38872F838230924031
S11320E010F4C9DFF4CFCE01C8DF1E82DF91CF9197
S11320F008950F931F93CF93DF93EB017EDC8B0145
S1132100BADF8F3F41F079DC601B710B6C177D07E0
S1132110B8F380E001C081E0DF91CF911F910F916E
S113212008958F929F92AF92BF92FF920F931F9345
S1132130CF93DF93EC01F62E49015A01C2DFCE01A1
S1132140ABDF6CE271E0CE01D4DF8F2D80648CDFD5
S113215008E110E0D501C401002E04C0B695A7958E
S1132160979587950A94D2F77FDF08501109083FA5
S11321708FEF180779F7FF2029F088E0F81204C0E0
S113218087E803C085E901C08FEF6EDF10E073DFDD
S11321908A8787FF04C01F3F11F01F5FF8CFDF91CC
S11321A0CF911F910F91FF90BF90AF909F908F9010
S11321B008950F931F93CF93DF93EC011EDC8B01E3
S11321C05ADF8A878F3F41F418DC601B710B6D3234
S11321D07140B0F38FE003C08E3F31F08DE08D830A
S11321E0CE014BDF80E001C081E0DF91CF911F91F0
S11321F00F910895CF92DF92EF92FF920F931F9366
S1132200CF93DF93EC016901C801820F931F8130E2
S1132210924008F057C08E81882371F0888199819B
S1132220AA81BB8184179507A607B70729F48F8174
S11322309885C816D90600F5488359836A837B8339
S11322408B85833039F089E0440F551F661F771F53
S11322508A95D1F79A01AB0161E1CE0162DF88234F
S113226019F083E08D832EC0CE01A3DF882351F1C2
S113227018861F8281E08E838F8198858C159D0539
S113228038F4F9DE8F819885019698878F83F4CF8F
S11322906701E00EF11ECE14DF0429F0ECDEF60136
S11322A081936F01F8CF8F819885080F191F1887C4
S11322B00F838985882319F00115124038F0CE0167
S11322C000DF04C0CE01D9DE80E001C081E0DF91EF
S11322D0CF911F910F91FF90EF90DF90CF900895D1
S11322E0EF92FF920F931F930115110511F082DFF6
S11322F001C081E01F910F91FF90EF900895EF923C
S1132300FF920F931F93790100E012E020E030E088
S113231071DF1F910F91FF90EF900895EF92FF925C
S11323200F931F93CF93DF938C01862F7A019CDE4A
S1132330E7018EEFF81A899197DECE15DF05D9F7FC
S11323408FEF92DE8FEF90DE96DEF80182878F7139
S1132350853031F081E18583C8018FDE80E001C0E2
S113236081E0DF91CF911F910F91FF90EF9008953D
S11323700F931F93CF93DF93EC018901411551050E
S11323806105710511F482E12DC08B85833039F02C
S113239089E0440F551F661F771F8A95D1F79A016C
S11323A0AB0168E1CE01BDDE882311F084E01AC0E0
S11323B0A8016EEFCE01B2DF8823A9F068E572E0D0
S11323C0CE0197DE811102C085E10CC020E030E02F
S11323D0A9016DE0CE01A5DE811103C04CDE882386
S11323E031F084E18D83CE0148DE80E003C0CE016C
S11323F044DE81E0DF91CF911F910F910895EAE1CE
S1132400F7E080E5808311820895CF93DF93EC0198
S11324109C012A5F3F4F41E050E060E070E08B8D0B
S11324209C8D4CD58823A1F08F89988DA98DBA8D68
S1132430892B8A2B8B2B59F48E819F81A885B98592
S11324408F8B988FA98FBA8F8C8180688C8381E061
S1132450DF91CF910895CF93DF93EC01462F6E85E2
S11324607F8588899989CFD3882341F08A8920E29E
S1132470829FC00111248B5D984F02C080E090E0E0
S1132480DF91CF9108952F923F924F925F926F9276
S11324907F928F929F92AF92BF92CF92DF92EF92F0
S11324A0FF920F931F93CF93DF93EC015B014A01DB
S11324B08D81811103C08FEF9FEFD4C08C8180FF89
S11324C0FACF4B885C886D887E884A855B856C85ED
S11324D07D85C401A0E0B0E093018201041B150BCB
S11324E0260B370B081719072A073B0718F4420174
S11324F0841A950A24011E0126E0220E311C41147F
S1132500510409F47DC04A855B856C857D856A012B
S113251081E0D822ED818B8D9C8D8A019B01F9E0AD
S11325203695279517950795FA95D1F7E23061F41A
S1132530FC01828D938DA48DB58DBC01CD01600FFE
S1132540711F821F931F3EC0FC0174807A94702215
S1132550C114D104C1F4711016C0452B462B472B6E
S113256049F48F89988DA98DBA8D8E839F83A8870E
S1132570B98709C04E815F816885798591017CD3D3
S1132580882309F498CFEB8DFC8D8E819F81A885DB
S1132590B9850297A109B109058404C0880F991F60
S11325A0AA1FBB1F0A94D2F7468557856089718993
S11325B0840F951FA61FB71FBC01CD01670D711DA8
S11325C0811D911D20E032E02C193D0932012415B2
S11325D0350508F439012C8126FD04C06114F2E0AC
S11325E07F0671F5009116021091170220911802CE
S11325F030911902601771078207930719F420C0FC
S1132600C40130C0750183019601AB01BC01809106
S113261023079091240764DE882309F44CCFA60C89
S1132620B71C8A859B85AC85BD85860D971DA11D2C
S1132630B11D8A879B87AC87BD87461857085FCF33
S113264040E0E1D2882309F436CFF601EB5DF84F80
S1132650D501CF01860D971D8E179F0701F3219198
S11326602D93FACFDF91CF911F910F91FF90EF90AF
S1132670DF90CF90BF90AF909F908F907F906F909E
S11326805F904F903F902F9008958F929F92AF92BA
S1132690BF92CF92DF92EF92FF920F931F93CF934B
S11326A0DF93EC018D81811102C080E077C00B893A
S11326B01C892D893E890417150726073707A8F3B7
S11326C06A017B01823029F4CA86DB86EC86FD86AA
S11326D00DC0C114D104E104F10451F41E821F821F
S11326E0188619861A861B861C861D8681E056C0AC
S11326F08A849B84AC84BD84EB8DFC8D258530E07D
S1132700275F3F4FB501A401415051096109710987
S1132710022E04C076956795579547950A94D2F78B
S1132720D701C6010197A109B10904C0B695A795BF
S1132730979587952A95D2F784179507A607B70723
S113274020F089288A288B2871F44F89588D698D47
S11327507A8D4E835F83688779874C015D018E0192
S11327600A5F1F4F15C0841B950BA60BB70BF5CF43
S11327704E815F816885798598018B8D9C8D7CD293
S113278091E0891A9108A108B108882309F48DCF32
S113279081149104A104B10459F796CFDF91CF912C
S11327A01F910F91FF90EF90DF90CF90BF90AF906B
S11327B09F908F9008950F931F93CF93DF93EC0115
S11327C08D818823B9F18C8187FF2FC061E0CE0110
S11327D042DE8C01892B71F18D81823048F48B8922
S11327E09C89AD89BE89F801848F958FA68FB78F98
S11327F08F89988DA98DBA8DF801938F828FB58BAF
S1132800A48BE0911C07F0911D07309759F0B80193
S11328106A5E7F4FC80148961995F801808D918DA5
S1132820938B828B8C818F778C83DF91CF911F91D7
S11328300F91B0C180E0DF91CF911F910F91089566
S11328402F923F924F925F926F927F928F929F92BC
S1132850AF92BF92CF92DF92EF92FF920F931F93AA
S1132860CF93DF9300D01F92CDB7DEB78C016B01FD
S11328701A01DC0115968C9115978130C1F41496D8
S11328808C9181FF14C082FF1CC0F80143895489D4
S11328906589768982859385A485B585841795078E
S11328A0A607B70771F0C801F0DE81110AC081E004
S11328B090E0D80113969C938E93129780E090E059
S11328C042C1410182C05B968D919C915C97FC0151
S11328D074802FEF270D2A013B0139E07694679429
S11328E0579447943A95D1F7722E74207A01F1E007
S11328F0FF22772009F475C080E092E08E199F09C9
S113290054018815990508F45C01D8015B962D9152
S11329103C915C9716968D919D910D90BC91A02D44
S11329200297A109B109F901058404C0880F991F10
S1132930AA1FBB1F0A94D2F74685578560897189FF
S1132940840F951FA61FB71F9C01AD01270D311DD4
S1132950411D511D29013A01A11432E0B30609F0C9
S113296085C08091160290911702A0911802B0912F
S11329701902481659066A067B0659F48FEF9FEF31
S1132980DC018093160290931702A0931802B0936F
S113299019029601B301A2018091230790912407A3
S11329A0E7DC882309F483CF9EEFD91A8A189B08A1
S11329B0F80182859385A485B5858A0D9B1DA11D8B
S11329C0B11D82879387A487B587D8011A964D9144
S11329D05D916D917C911D978114910409F073CFE1
S11329E083C0E114F10409F087CF16964D915D91EF
S11329F06D917C911997411551056105710559F443
S1132A0057968D919D910D90BC91A02D0097A10595
S1132A10B10531F520C09E012F5F3F4F2DD1882392
S1132A2009F44DCF89819A81AB81BC81F801238D52
S1132A30348DF9012789203129F048EF5FEF6FEFDA
S1132A407FE004C048EF5FEF60E070E08417950713
S1132A50A607B70728F0C801D8DC81114DCF27CFCE
S1132A60F80186839783A087B18746CFE114F104E8
S1132A7021F5D8011A964D915D916D917C911D9728
S1132A8053968D919D910D90BC91A02D4817590797
S1132A906A077B0790F07ED0882309F408CF409220
S1132AA016025092170260921802709219028091D5
S1132AB0220781608093220707C041E0C301B2016D
S1132AC0A2D0882309F4F3CED601F701EB5DF84FC9
S1132AD09F012A0D3B1D2E173F0719F08D918193FD
S1132AE0FACFCA0CDB1C62CFD8015396CD90DD908F
S1132AF0ED90FC90569714968C91C416D506E60674
S1132B00F70640F4F801438B548B658B768B806811
S1132B1084830DC020911C0730911D07232B39F0AD
S1132B202114310421F08068D80114968C93F801A3
S1132B30848183FD02C0C10106C0C8013CDE882334
S1132B4009F4B5CEF8CF0F900F900F900F90DF914E
S1132B50CF911F910F91FF90EF90DF90CF90BF9096
S1132B60AF909F908F907F906F905F904F903F9029
S1132B702F900895CF93DF931F92CDB7DEB769836B
S1132B8041E050E0BE016F5F7F4F5ADE0F90DF914E
S1132B90CF91089580912207882399F140911602DC
S1132BA050911702609118027091190225E237E0E2
S1132BB08091230790912407DBDB811102C080E020
S1132BC0089540911E0750911F076091200770914E
S1132BD02107411551056105710589F025E237E0AA
S1132BE08091230790912407C3DB882341F310923B
S1132BF01E0710921F0710922007109221071092AF
S1132C00220781E00895CF92DF92EF92FF92CF9353
S1132C106B017C01C42F8091160290911702A09140
S1132C201802B09119028C159D05AE05BF05C1F0BF
S1132C30B1DF811102C080E019C025E237E0B7019D
S1132C40A601809123079091240759DB882399F3E7
S1132C50C0921602D0921702E0921802F092190262
S1132C6080912207C82BC093220781E0CF91FF9067
S1132C70EF90DF90CF9008958F929F92AF92BF9282
S1132C80CF92DF92EF92FF920F931F93CF93DF9334
S1132C90FC0181859285A385B4850196A11DB11D92
S1132CA084179507A607B70710F480E05AC08388F5
S1132CB09488A588B6888789803129F4BB27A72FF3
S1132CC0962F852F09C0DB01CA01C7E0B695A795E9
S1132CD097958795CA95D1F7E9016A017B018F0120
S1132CE0BC01CD01680D791D8A1D9B1D80901602C3
S1132CF090901702A0901802B090190268157905F7
S1132D008A059B0591F4F8018789803199F4DD24C3
S1132D10EE24FF24C601880F991FFC01EB5DF84FD8
S1132D2080819181A0E0B0E017C040E06CDF8111A8
S1132D30EACFBBCFE894C7F8DD24EE24FF24C60114
S1132D40880F991F880F991FFC01EB5DF84F808154
S1132D509181A281B381BF7088839983AA83BB8345
S1132D6081E0DF91CF911F910F91FF90EF90DF9061
S1132D70CF90BF90AF909F908F9008954F925F92A5
S1132D806F927F928F929F92AF92BF92CF92DF9277
S1132D90EF92FF920F931F93CF93DF93EC01423096
S1132DA051056105710510F480E077C089859A8525
S1132DB0AB85BC850196A11DB11D84179507A60797
S1132DC0B70790F3CB88DC88ED88FE888F89803143
S1132DD029F4BB27A72F962F852F09C0DB01CA0131
S1132DE0E7E0B695A79597958795EA95D1F74801B9
S1132DF059012A013B01C80ED91EEA1EFB1E80910F
S1132E00160290911702A0911802B0911902C816E7
S1132E10D906EA06FB0681F48F898031A1F4B30157
S1132E20A201552766277727440F551FFA01EB5D4A
S1132E30F84F9182808218C040E0C701B601E3DEFA
S1132E408111EACFB1CFB301A2014F77552766278D
S1132E507727440F551F440F551FFA01EB5DF84FB8
S1132E6080829182A282B3828091220781608093C2
S1132E7022078A89823080F08D819E81AF81B88556
S1132E80C80ED91EEA1EFB1EC0921E07D0921F0751
S1132E90E0922007F092210781E0DF91CF911F910A
S1132EA00F91FF90EF90DF90CF90BF90AF909F90E5
S1132EB08F907F906F905F904F9008952F923F92E4
S1132EC04F925F926F927F929F92AF92BF92CF92F6
S1132ED0DF92EF92FF920F931F93CF93DF93CDB7BF
S1132EE0DEB760970FB6F894DEBF0FBECDBF5C01AE
S1132EF049875A876B877C871901D901CD90DD906A
S1132F00ED90FC90C114D104E104F10431F0BFEF61
S1132F10CB1ADB0AEB0AFB0A10C0FC01C080D1808B
S1132F20E280F3809924939409851A852B853C8546
S1132F30013011052105310509F0912CF501818538
S1132F409285A385B4858C019D010F5F1F4F2F4F80
S1132F503F4F0D871E872F87388B260137011D822F
S1132F601E821F821886F50181859285A385B4850A
S1132F700D811E812F813885081719072A073B0701
S1132F8008F054C02D853E854F8558892415350594
S1132F904605570550F482E0482E512C612C712CC3
S1132FA092E0C92ED12CE12CF12C9E012F5F3F4FD2
S1132FB0B301A201C50160DE8823C1F149815A81B0
S1132FC06B817C81D301C2010196A11DB11D452BEA
S1132FD0462B472B19F06C017D010FC0AC01BD01DC
S1132FE04C195D096E097F0909851A852B853C8575
S1132FF0041715072607370779F02D813E814F8185
S113300058852F5F3F4F4F4F5F4F2D833E834F8334
S113301058872C013D01A7CF0FEF1FEF2FEF3FE0A3
S1133020B301A201C501AADE811117C080E03FC02F
S1133030D301C2010197A109B1098D839E83AF8396
S1133040B88793018201AC01BD01C50197DE8823D5
S113305069F34D805E806F807884C414D504E604DF
S1133060F70430F3D1014D915D916D917C9141153F
S113307051056105710599F4F101C082D182E282A2
S1133080F382992099F0FFEFCF1ADF0AEF0AFF0AC3
S1133090D501CD92DD92ED92FC92139707C0970172
S11330A08601C5016BDE8111E7CFC0CF81E0609658
S11330B00FB6F894DEBF0FBECDBFDF91CF911F9145
S11330C00F91FF90EF90DF90CF90BF90AF909F90C3
S11330D07F906F905F904F903F902F900895CF9383
S11330E0CFB7F89480912809811127C0E5EDF1E06C
S11330F08491EFE8F1E09491E82FF0E0EE0FFF1FE8
S1133100E65EFD4FA591B491EC91E92321F461E0D1
S113311085E30E945C0E61E085E30E94200E8CB57D
S113312080618CBD8CB580648CBD61E084E30E94B9
S1133130200E61E083E30E94200E809128098F5FB6
S113314080932809CFBFCF9108950895A1E21A2E44
S1133150AA1BBB1BFD010DC0AA1FBB1FEE1FFF1F37
S1133160A217B307E407F50720F0A21BB30BE40B87
S1133170F50B661F771F881F991F1A9469F76095CE
S11331807095809590959B01AC01BD01CF01089588
S1133190EE0FFF1F881F8BBF0790F691E02D199447
S11331A00F931F93CF93DF938230910510F482E045
S11331B090E0E0912B09F0912C0920E030E0A0E0B0
S11331C0B0E0309719F14081518102811381481791
S11331D05907C8F08417950769F4109731F01296CF
S11331E00C93129713961C9327C000932B091093EA
S11331F02C0922C02115310519F04217530718F480
S11332009A01BD01EF01DF01F801DBCF2115310582
S1133210F9F0281B390B2430310580F48A819B8115
S11332206115710521F0FB019383828304C090939F
S11332302C0980932B09FE01329644C0FE01E20F53
S1133240F31F8193919322503109398328833AC023
S11332502091290930912A09232B41F4209102025B
S11332603091030230932A09209329092091000206
S1133270309101022115310541F42DB73EB740913B
S1133280040250910502241B350BE0912909F091A9
S11332902A09E217F307A0F42E1B3F0B281739075E
S11332A078F0AC014E5F5F4F2417350748F04E0F9E
S11332B05F1F50932A09409329098193919302C077
S11332C0E0E0F0E0CF01DF91CF911F910F910895DD
S11332D0CF93DF93009709F481C0FC0132971382E6
S11332E01282A0912B09B0912C09109781F42081AE
S11332F03181820F931F2091290930912A092817BF
S1133300390751F5F0932A09E093290967C0ED01C3
S113331020E030E0CE17DF0740F44A815B819E0154
S113332041155105F1F0EA01F5CFD383C283408101
S11333305181840F951FC817D90759F48881998141
S1133340840F951F0296918380838A819B81938346
S113335082832115310529F4F0932C09E0932B097C
S11333603DC0E901FB83EA8349915991C40FD51FFC
S1133370EC17FD0761F480819181840F951F0296FB
S1133380E90199838883828193819B838A83E0E026
S1133390F0E012968D919C911397009719F0FD011E
S11333A0DC01F7CF8D919C9111979D012E5F3F4FCA
S11333B0820F931F2091290930912A092817390770
S11333C069F4309729F410922C0910922B0902C049
S11333D013821282B0932A09A0932909DF91CF9115
S11333E008956F927F928F929F92AF92BF92CF92E5
S11333F0DF92EF92FF920F931F93CF93DF93009787
S113340081F4CB01DF91CF911F910F91FF90EF9049
S1133410DF90CF90BF90AF909F908F907F906F90F0
S1133420BFCEFC01E60FF71F9C0122503109E217C1
S1133430F30708F4A5C0EC01D9010D911C91119773
S113344006171707A8F00530110508F497C0C8013E
S113345004978617970708F491C002501109061BB8
S1133460170B019311936D937C93CF0131DF86C0C9
S11334705B01A01AB10A4C01800E911EA0912B0988
S1133480B0912C09612C712CE12CF12C109709F4CA
S113349046C08D919C911197A815B905B1F56C01A1
S11334A042E0C40ED11CCA14DB0478F14C018A1822
S11334B09B08640142E0C40ED11C1296BC90129782
S11334C01396AC91B5E0CB16D10440F0B282A3833D
S11334D091828082D9016D937C9309C00E5F1F4F46
S11334E0800F911FF90191838083EB2DFA2FE11452
S11334F0F10431F0D7011396FC93EE9312973EC07A
S1133500F0932C09E0932B0939C06816790608F466
S11335103C017D0112960D90BC91A02DB7CF8091F6
S1133520290990912A0988169906E1F46616770606
S1133530C8F48091000290910102009741F48DB784
S11335409EB74091040250910502841B950BE81725
S1133550F907B0F4F0932A09E0932909F90171837A
S113356060830CC0CB011CDE7C01009749F0A801EC
S1133570BE0117D0CE01ACDEC70104C0CE0102C02B
S113358080E090E0DF91CF911F910F91FF90EF9039
S1133590DF90CF90BF90AF909F908F907F906F906F
S11335A00895FB01DC0102C001900D92415050408E
S11335B0D8F70895FB01DC0101900D920020E1F79A
S11335C0089511E0C1E2D1E000E005C0802FFE01C2
S11335D0DFDD2196011DC332D10780E00807B1F772
S10735E0F894FFCF89
S11335E400002D0920005A0B5A0B5A0B5A0B5A0B84
S11335F45A0B5A0B5A0BFFFFFFFF68656C700D00E2
S1133604636F6E6669670D00657869740D0073688D
S11336146F770D007364206361726420696E666F52
S1133624726D6174696F6E730D002A2A2A2A2A2A1C
S11336342A2A2A2A2A2A2A2A2A2A2A2A2A2A2A2AE2
S11336442A2A2A00417574686F72697A6564204174
S11336546363657373204F6E6C792021210050617C
S11336647373776F72643A00617364660D00537503
S1133674636365737366756C6C79206C6F676765D7
S11336846420696E2E2E0046616C7365000A0D5524
S1133694736572204D6F64653A000A0D4176616961
S11336A46C61626C6520636F6D6D616E647320661A
S11336B46F7220746869732070726F6D70743A0A43
S11336C40D202D2073686F770D0A202D20636F6EF3
S11336D46669672028746F20656E74657220746847
S11336E46520636F6E66696775726174696F6E20B5
S11336F46D6F6465290A0D000A0D53686F77204DB8
S11337046F64653A00202D20736420636172642021
S1133714696E666F726D6174696F6E730A0D000A67
S11337240D417661696C61626C6520636F6D6D61D6
S11337346E647320666F7220746869732070726F8C
S11337446D70743A0A0D202D20657869740A0D0091
S11337542A2A2A556E6B6E6F776E20636F6D6D61C6
S11337646E642C20656E746572202768656C7027FE
S113377420666F72206D6F726520696E666F726D5C
S11337846174696F6E73212A2A2A000A0D436F6ECD
S113379466696775726174696F6E204D6F64653A0A
S11337A4000A0D417661696C61626C6520636F6D1A
S11337B46D616E647320666F72207468697320701F
S11337C4726F6D70743A0A0D202D207365740A0D9E
S11337D4202D2064656C6574650A0D202D206578A0
S11337E469742028676574206261636B20746F2098
S11337F475736572206D6F6465290A0D00000000FD
S1133804002408F807E804C10796079E07B20700D6
S1133814000000BC09300B4F09080A21093B092D9B
S11338240900000000310F470FE804620FE30F7F23
S11338340F880F00000000BA15300BE804EB0400F5
S9030000FC
