S015000077657474657273746174696F6E2E7372656372
S11300000CC1000029C5000052C500007BC50000DA
S1130010A4C50000CDC50000F6C500001FC6000041
S113002048C600002AC1000028C1000026C1000003
S113003024C1000022C1000020C100001EC1000034
S11300401CC100001AC1000018C1000016C1000044
S113005014C1000012C1000010C1000055C6000008
S11300600CC100007FC30000B3C3000006C1000040
S113007004C1000002C1000000C10000FEC0000075
S1130080FCC00000FAC00000F8C00000F6C0000088
S1130090F4C00000F2C00000F0C00000EEC0000098
S11300A0ECC00000EAC00000E8C00000E6C00000A8
S11300B0E4C00000E2C00000E0C00000DEC00000B8
S11300C0DCC00000DAC00000D8C00000D6C00000C8
S11300D0D4C00000D2C00000D0C00000CEC00000D8
S11300E0CCC0000057075A0749074D07530791072B
S11300F05E07620768076C07700776077A077E0752
S11301009107840788078C0700000A0B02090C0D6D
S11301100E080703040100000000000000000000B6
S113012000000000000000000000000000000000CB
S11301300000000012111000000000000000000088
S113014000000000000000000000000000000102A8
S113015010202008081020401020408002010201D5
S1130160080402010102040810204080804020108D
S113017008040201800402018040201008040201E6
S1130180080402010102040810204080010204084E
S11301901020408005050505070508080808020227
S11301A002020A0A0808040404040101010101010D
S11301B001010303030303030303040707070C0CF0
S11301C00C0C0C0C0C0C02020202060606060606B7
S11301D006060B0B0B0B0B0B0B0B00002200250070
S11301E028002B002E00310034000201000005011C
S11301F008010B0100002100240027002A002D0023
S11302003000330001010000040107010A013E012E
S113021019021A045B09A50C570111241FBECFEF64
S1130220D1E2DEBFCDBF00E00CBF15E0A0E0B2E03C
S1130230E0EFF5E300E00BBF02C007900D92A03E93
S1130240B107D9F729E0A0EEB5E001C01D92A336AD
S1130250B207E1F711E0CCE0D1E000E006C021975D
S11302600109802FFE010E94B518C730D10780E034
S11302700807A9F70DD30C94E71AC2CE6AE172E01D
S113028088EF95E024D760E272E082EF95E01FD713
S113029068E272E08CEE95E01AD76EE272E086EEC8
S11302A095E015D764E372E080EE95E010C780EE28
S11302B095E0A2D686EE95E09FD68CEE95E09CD68E
S11302C082EF95E099D688EF95E096C6CF92DF92BB
S11302D0EF92FF9245E361E089E396E00E94BC0A55
S11302E0811103C066E274E02FC069E374E080E624
S11302F096E017D380914406823039F0833041F080
S1130300813049F465E474E008C069E474E005C030
S11303106DE474E002C062E574E080E696E00CD31C
S113032041E069E376E08BE196E00E943D1781119C
S113033012C040E069E376E08BE196E00E943D174D
S1130340811109C06AE574E080E696E0FF90EF90C1
S1130350DF90CF90F1C264EA74E080E696E0E1D2E7
S11303604AE050E06091320680E696E04FD380E6A2
S113037096E0DFD2A0911F064091240650912506F5
S113038060912606709127069A01AB0189E0220F3D
S1130390331F441F551F8A95D1F7B0E00E94BD1842
S11303A06B017C0168EB74E080E696E0BAD22AE047
S11303B030E0B701A60180E696E03DD36EEC74E030
S11303C080E696E0AED2B701A6019AE076956795ED
S11303D0579547959A95D1F72AE030E080E696E064
S11303E02AD365EE74E080E696E09BD2B701A601BD
S11303F024E176956795579547952A95D1F72AE094
S113040030E080E696E017D36CEF74E080E696E087
S113041093D26BE176E08EEF95E00E94EA0C40E027
S113042067E08EEF95E0FF90EF90DF90CF900C9413
S1130430FC1285E496E0DFD6E9E3F6E01582168245
S113044011861386EBE1F6E082E090E0A0E0B0E0F4
S113045080839183A283B383178AEEEFF5E013823E
S1130460128287ED95E0918380831582089526E0BA
S113047040E855E260E070E080E696E00AD126CFDD
S11304800895FC01918D228D892F90E0805C9F4F0F
S1130490821B91098F7399270895FC01918D828D98
S11304A0981731F0828DE80FF11D858D90E0089545
S11304B08FEF9FEF0895FC01918D828D981761F065
S11304C0828DDF01A80FB11D5D968C91928D9F5F87
S11304D09F73928F90E008958FEF9FEF0895FC0132
S11304E0538D448D252F30E0842F90E0821B930B95
S11304F0541710F0CF9608950197089581E194E080
S1130500892B39F080E090E0892B19F08AD1811190
S113051025C080E090E0892B41F080E090E0892BB9
S113052021F00E94000081111CC080E090E0892B22
S113053041F080E090E0892B21F00E9400008111BD
S113054013C080E090E0892BA1F080E090E0892B3B
S113055081F00E94000081110AC008950E940000E9
S1130560D8CF0E940000E1CF0E940000EACF0C9493
S113057000000895FC01848DDF01A80FB11DA35A6A
S1130580BF4F2C91848D90E001968F739927848FAF
S1130590A689B7892C93A089B1898C9183708064D2
S11305A08C93938D848D981306C00288F389E02D73
S11305B080818F7D80830895EF92FF920F931F9324
S11305C0CF93DF93EC0181E0888F9B8D8C8D981302
S11305D005C0E889F989808185FD25C0F62E0B8D3B
S11305E010E00F5F1F4F0F731127E02E8C8DE81260
S11305F00BC00FB607FCFACFE889F989808185FF23
S1130600F5CFCE01B7DFF2CF8B8DFE01E80FF11DE0
S1130610E35AFF4FF0829FB7F8940B8FEA89FB8966
S1130620808180620AC09FB7F894EE89FF89608355
S1130630E889F98980818370806480839FBF81E029
S113064090E0DF91CF911F910F91FF90EF9008956B
S1130650CF93DF93EC01888D8823C1F0EA89FB896D
S1130660808185FD05C0A889B9898C9186FD0EC05D
S11306700FB607FCF5CF808185FFF2CFA889B98931
S11306808C9185FFEDCFCE0175DFE8CFDF91CF915F
S11306900895CF92DF92EF92FF921F93CF93DF934F
S11306A0EC016A017B01122FE889F98982E08083D9
S11306B04115514E61057105B1F060E079E08DE3BB
S11306C090E0A70196010E949318DA01C9010197ED
S11306D0A109B109B695A795979587959C01211510
S11306E080E13807A8F0E889F989108260E874E8A5
S11306F08EE190E0A70196010E949318DA01C901E6
S11307000197A109B109B695A795979587959C017D
S1130710EC85FD853083EE85FF852083188EEC897A
S1130720FD891083EA89FB89808180618083EA895D
S1130730FB89808188608083EA89FB898081806865
S11307408083EA89FB8980818F7D8083DF91CF91CB
S11307501F91FF90EF90DF90CF90089580E090E09C
S1130760089508951F920F920FB60F9211240BB69D
S11307700F922F938F939F93EF93FF93E0917006C3
S1130780F09171068081E0917606F091770682FD02
S113079012C09081809179068F5F8F7320917A06C1
S11307A0821751F0E0917906F0E0E05AF94F958F05
S11307B08093790601C08081FF91EF919F918F9181
S11307C02F910F900BBE0F900FBE0F901F90189596
S11307D01F920F920FB60F9211240BB60F922F9304
S11307E03F934F935F936F937F938F939F93AF93B5
S11307F0BF93EF93FF9380E696E0BCDEFF91EF9109
S1130800BF91AF919F918F917F916F915F914F9124
S11308103F912F910F900BBE0F900FBE0F901F9022
S1130820189580E696E02DDE21E0892B09F420E07E
S1130830822F0895E0E6F6E01382128288EE93E0B8
S1130840A0E0B0E084839583A683B78384EA95E02F
S11308509183808385EC90E09587848784EC90E095
S11308609787868780EC90E0918B808B81EC90E079
S1130870938B828B82EC90E0958B848B86EC90E05A
S1130880978B868B118E128E138E148E0895089575
S113089091D2FDDFECDDCEE7D2E0F2DD2097E9F383
S11308A02DDEFBCFCF92DF92EF92FF920F931F9337
S11308B0CF93DF936C017A018B01C0E0D0E0CE15B9
S11308C0DF0581F0D8016D918D01D601ED91FC9188
S11308D00190F081E02DC6011995892B11F0219624
S11308E0EECF7E01C701DF91CF911F910F91FF9051
S11308F0EF90DF90CF9008956115710579F0FB01B9
S113090001900020E9F73197AF01461B570BDC013A
S1130910ED91FC910280F381E02D199480E090E048
S11309200895EACFDC01ED91FC910190F081E02D76
S1130930199462EB75E0E0CF0F931F93CF93DF938D
S1130940EC01DADF8C01CE01F4DF800F911FDF911F
S1130950CF911F910F9108958F929F92AF92BF9262
S1130960EF92FF920F931F93CF93DF93CDB7DEB730
S1130970A1970FB6F894DEBF0FBECDBF7C01FA017C
S1130980CB0119A2223008F42AE08E010F5D1F4F1B
S1130990822E912CA12CB12CBF01A50194010E949F
S11309A09318F901CA01015011096A3010F4605D0D
S11309B001C0695CD8016C93232B242B252B61F790
S11309C0B801C70199DFA1960FB6F894DEBF0FBE38
S11309D0CDBFDF91CF911F910F91FF90EF90BF900A
S11309E0AF909F908F9008952115310541F4DC015B
S11309F0ED91FC910190F081E02D642F1994ACCF1E
S1130A009A01462F50E060E070E0EECF0F931F9301
S1130A10CF93DF93EC01F4DF8C01CE018ADF800FEA
S1130A20911FDF91CF911F910F9108959A01AB010E
S1130A3060E070E0D9CF0F931F93CF93DF93EC0165
S1130A40D3DF8C01CE0175DF800F911FDF91CF9131
S1130A501F910F91089508951F920F920FB60F9250
S1130A6011240BB60F922F933F934F935F936F9381
S1130A707F938F939F93AF93BF93EF93FF93E091F3
S1130A800A02F0910B021995FF91EF91BF91AF917A
S1130A909F918F917F916F915F914F913F912F9192
S1130AA00F900BBE0F900FBE0F901F9018951F92C2
S1130AB00F920FB60F9211240BB60F922F933F9300
S1130AC04F935F936F937F938F939F93AF93BF9352
S1130AD0EF93FF93E0910C02F0910D021995FF91B1
S1130AE0EF91BF91AF919F918F917F916F915F91A2
S1130AF04F913F912F910F900BBE0F900FBE0F900F
S1130B001F9018951F920F920FB60F9211240BB6D7
S1130B100F922F933F934F935F936F937F938F9392
S1130B209F93AF93BF93EF93FF93E0910E02F091E5
S1130B300F021995FF91EF91BF91AF919F918F9102
S1130B407F916F915F914F913F912F910F900BBEC9
S1130B500F900FBE0F901F9018951F920F920FB613
S1130B600F9211240BB60F922F933F934F935F93E1
S1130B706F937F938F939F93AF93BF93EF93FF9361
S1130B80E0911002F09111021995FF91EF91BF913C
S1130B90AF919F918F917F916F915F914F913F9111
S1130BA02F910F900BBE0F900FBE0F901F901895B2
S1130BB01F920F920FB60F9211240BB60F922F9320
S1130BC03F934F935F936F937F938F939F93AF93D1
S1130BD0BF93EF93FF93E0910602F09107021995FA
S1130BE0FF91EF91BF91AF919F918F917F916F9101
S1130BF05F914F913F912F910F900BBE0F900FBEBD
S1130C000F901F9018951F920F920FB60F921124F8
S1130C100BB60F922F933F934F935F936F937F93F2
S1130C208F939F93AF93BF93EF93FF93E091080249
S1130C30F09109021995FF91EF91BF91AF919F91A6
S1130C408F917F916F915F914F913F912F910F9071
S1130C500BBE0F900FBE0F901F9018951F920F920E
S1130C600FB60F9211240BB60F922F933F934F930D
S1130C705F936F937F938F939F93AF93BF93EF9300
S1130C80FF93E0911202F09113021995FF91EF91F5
S1130C90BF91AF919F918F917F916F915F914F9190
S1130CA03F912F910F900BBE0F900FBE0F901F908E
S1130CB018951F920F920FB60F9211240BB60F9234
S1130CC02F933F934F935F936F937F938F939F9350
S1130CD0AF93BF93EF93FF93E0911402F091150249
S1130CE01995FF91EF91BF91AF919F918F917F9152
S1130CF06F915F914F913F912F910F900BBE0F9089
S1130D000FBE0F901F9018951F920F920FB60F925F
S1130D1011242F933F938F939F93AF93BF9380910D
S1130D20FE069091FF06A0910007B0910107309153
S1130D30FD0623E0230F2D3720F40196A11DB11DDC
S1130D4005C026E8230F0296A11DB11D2093FD06C0
S1130D508093FE069093FF06A0930007B0930107CB
S1130D608091020790910307A0910407B0910507B1
S1130D700196A11DB11D8093020790930307A093D0
S1130D800407B0930507BF91AF919F918F913F9155
S1130D902F910F900FBE0F901F9018952FB7F894B6
S1130DA06091FE067091FF06809100079091010703
S1130DB02FBF0895789484B5826084BD84B5816022
S1130DC084BD85B5826085BD85B5816085BDEEE64F
S1130DD0F0E0808181608083E1E8F0E0108280812E
S1130DE082608083808181608083E0E8F0E080819C
S1130DF081608083E1EBF0E0808184608083E0EBBC
S1130E00F0E0808181608083E1E9F0E080818260AC
S1130E108083808181608083E0E9F0E0808181606B
S1130E208083E1EAF0E08081826080838081816058
S1130E308083E0EAF0E0808181608083E1E2F1E098
S1130E40808182608083808181608083E0E2F1E040
S1130E50808181608083EAE7F0E080818460808320
S1130E6080818260808380818160808380818068CA
S1130E7080831092C100089590E0FC013197E23123
S1130E80F10508F04EC08827EE58FF4F8F4F0C94A1
S1130E90B518809180008F7703C0809180008F7D8A
S1130EA080938000089580918000877FF9CF84B576
S1130EB08F7702C084B58F7D84BD08958091B00082
S1130EC08F7703C08091B0008F7D8093B000089528
S1130ED0809190008F7707C0809190008F7D03C030
S1130EE080919000877F8093900008958091A00066
S1130EF08F7707C08091A0008F7D03C08091A000F0
S1130F00877F8093A0000895809120018F7707C088
S1130F10809120018F7D03C080912001877F809381
S1130F2020010895CF93DF9390E0FC01E25BFE4F34
S1130F302491FC01EC56FE4F8491882361F190E0EA
S1130F40880F991FFC01EC50FE4FC591D491FC0110
S1130F50E652FE4FA591B491611109C09FB7F89470
S1130F608881209582238883EC912E230BC06230E4
S1130F7061F49FB7F8948881322F30958323888356
S1130F80EC912E2B2C939FBF06C08FB7F894E88169
S1130F902E2B28838FBFDF91CF9108951F93CF937A
S1130FA0DF93282F30E0F901E85FFE4F8491F901C7
S1130FB0E25BFE4FD491F901EC56FE4FC491CC2371
S1130FC0B9F0162F811158DFEC2FF0E0EE0FFF1F60
S1130FD0E652FE4FA591B4919FB7F894111104C045
S1130FE08C91D095D82302C0EC91DE2BDC939FBF6B
S1130FF0DF91CF911F910895FC01808191810C9420
S11310006E19CF93DF93EC0188819981009711F0D9
S11310100E946E19198218821D821C821B821A82F8
S1131020DF91CF9108950F931F93CF93DF93EC013A
S11310308B016F5F7F4F888199810E94F719009718
S113104031F0998388831B830A8381E001C080E0A7
S1131050DF91CF911F910F910895CF93DF93EC010E
S113106088819981892B29F08A819B81861797072A
S113107058F4CE01D8DF882341F08C819D81892BDF
S113108019F4E881F981108281E0DF91CF9108950C
S1131090EF92FF920F931F93CF93DF93EC017B01A9
S11310A08A01BA01DADF811103C0CE01AADF07C0C9
S11310B01D830C83B701888199810E94E01ACE01B7
S11310C0DF91CF911F910F91FF90EF900895FC0154
S11310D011821082138212821582148261157105A5
S11310E049F0FB0101900020E9F73197AF01461B5D
S11310F0570BCECF0895CF93DF931F92CDB7DEB7B2
S11311006983DC01ED91FC910280F381E02D41E0E3
S113111050E0BE016F5F7F4F19950F90DF91CF9123
S11311200895CF93DF93EC01898D9A8D009739F45C
S113113081E090E09B838A8380E090E00BC0FC0117
S1131140138212820E941711E98DFA8D2281338154
S1131150232B71F7DF91CF910895FC01818D928D3E
S1131160009709F0C7C60895CF93DF931F92CDB7B8
S1131170DEB741E050E0BE016F5F7F4FDBD40197E3
S113118019F4898190E002C08FEF9FEF0F90DF91F7
S1131190CF910895FC01818D928D009709F0E4CFE1
S11311A08FEF9FEF08950F931F93CF93DF93FC016D
S11311B0818D928D0097A9F0EF01D6DF8C010F3F4E
S11311C08FEF180789F0898D9A8DFC01428553852C
S11311D0648575854150510961097109F5D5C801C6
S11311E005C080E090E002C08FEF9FEFDF91CF91C8
S11311F01F910F910895FC011382128288EE93E0EF
S1131200A0E0B0E084839583A683B78385EC95E062
S113121091838083128E118E14860895DC01599671
S1131220ED91FC915A97309729F0628573858485F6
S1131230958508956FEF7FEFCB010895DC015996F2
S1131240ED91FC915A97309729F0638974898589C7
S11312509689089560E070E0CB010895CF92DF9203
S1131260EF92FF92CF93DF93FC01218D328D232BDC
S1131270C9F0EC01E3DF6B017C01CE01CFDFA701F4
S11312809601261B370B480B590BDA01C90181154E
S113129030E89307A105B10538F08FEF9FE7A0E090
S11312A0B0E002C080E090E0DF91CF91FF90EF903A
S11312B0DF90CF900895E6E0F7E01582168211865C
S11312C0138682E090E0A0E0B0E084879587A6874B
S11312D0B78713A215A614A687ED95E093A782A756
S11312E017A608959FB7F89420915D0980915B0932
S11312F0213019F48DBB9FBF08958FBF08950F93BC
S1131300FC0180E092E1AAE7B0E030E04817590719
S11313106A077B0740F4B695A795979587953F5F35
S11313203630A1F737E091E09327222311F020E52E
S113133001C020E70C70892F8695082B022B0083AF
S1131340917091830F91089520915D09222399F062
S11313504FB7F89420915D09213059F42DB32093AF
S11313605B093DB320915C09209523232DBB4FBF1E
S113137002C040935B098CBD9DBD08958EBD0000E5
S11313800DB407FEFDCF8EB508958FEFF7CF61E062
S1131390FC01848103DE80914F07882331F0109291
S11313A04F0780915D0981119DCF0895CF93DF93FD
S11313B0EC0180914F07811108C081E080934F07B1
S11313C08091500790915107BFDF60E08C81DF91DD
S11313D0CF91E4CDCF93DF93EC018E81882379F014
S11313E08F8198859C012F5F3F4F38872F838230F0
S11313F0924010F4CADFF4CFCE01C9DF1E82DF9120
S1131400CF9108950F93CF93DF931F921F92CDB77F
S1131410DEB7673028F026E1FC01258380E046C072
S11314206230F9F058F46623A9F0613079F500E0F0
S113143021E040E059E06DE370E02EC06430F9F043
S1131440B8F0653019F500E021E040E950ED63E0C3
S113145070E022C000E021E040E458E76DE771E06D
S11314601BC000E021E040E854E86EE170E014C0E5
S113147000E021E040E452E46FE070E00DC000E0E1
S113148021E040E251EA67E070E006C000E021E0BC
S113149048E458EE61E070E0CE01019630DF8981C6
S11314A09A81909351078093500781E00F900F9099
S11314B0DF91CF910F9108950F931F93CF93DF93F3
S11314C0EB016CDC8B0161DF8F3F41F067DC601B5B
S11314D0710B6C177D07B8F380E001C081E0DF91E8
S11314E0CF911F910F9108958F929F92AF92BF92C7
S11314F0FF920F931F93CF93DF93EC01F62E4901D4
S11315005A0168DFCE0152DF6CE271E0CE01D4DF14
S11315108F2D806433DF08E110E0D501C401002E73
S113152004C0B695A795979587950A94D2F726DFB8
S113153008501109083F8FEF180779F7FF2029F0A9
S113154088E0F81204C087E803C085E901C08FEF82
S113155015DF10E01ADF8A8787FF04C01F3F11F0F0
S11315601F5FF8CFDF91CF911F910F91FF90BF9034
S1131570AF909F908F9008957F928F929F92AF9299
S1131580BF92CF92DF92EF92FF920F931F93CF936C
S1131590DF931F921F92CDB7DEB77C01762EFC013C
S11315A013861186168215824483F8DB6B0161E091
S11315B0F7018481B7DC61E0F7018481EFDC0E94EC
S11315C0511800E021E040E950ED63E070E0CE0105
S11315D0019695DE89819A819093510780935007F3
S11315E0B3DE1AE08FEFCADE1150E1F780915D0996
S11315F0811178DEC701DADE20E030E0A90160E085
S1131600C70172DF082FF7018287813041F0C6DB02
S11316106C197D09613D774078F381E04AC02AEA7C
S113162031E040E050E068E0C7015EDF82FF03C0C4
S1131630F70103870DC004E0A8DEF701828701509B
S1131640D9F78A3A11F082E035C082E0F701838746
S1131650F7018385823021F0812C912C540105C03F
S1131660812C912CA12C80E4B82E20E030E0A9013B
S113167067E3C70139DFA501940169E2C70134DFDB
S1131680F7018287882341F089DB6C197D09613D6C
S1131690774058F388E00DC0F70183858230C1F4A8
S11316A020E030E0A9016AE3C7011EDF882331F09E
S11316B086E0F7018583C7016ADE10C066DE807CA0
S11316C0803C19F483E0F70183875FDE5EDE5DDE34
S11316D0C7015DDE672DC70195DE182F812F0F909E
S11316E00F90DF91CF911F910F91FF90EF90DF90BA
S11316F0CF90BF90AF909F908F907F9008950F935D
S11317001F93CF93DF93EC0149DB8B013EDE8A8785
S11317108F3F41F443DB601B710B6D327140B0F3BA
S11317208FE003C08E3F31F08DE08D83CE012FDE3C
S113173080E001C081E0DF91CF911F910F91089566
S1131740CF92DF92EF92FF920F931F93CF93DF9389
S1131750EC016901C801820F931F8130924008F0A7
S113176057C08E81882371F088819981AA81BB81B9
S113177084179507A607B70729F48F819885C8169B
S1131780D90600F5488359836A837B838B8583302C
S113179039F089E0440F551F661F771F8A95D1F7EA
S11317A09A01AB0161E1CE019FDE882319F083E049
S11317B08D832EC0CE01A3DF882351F118861F82AA
S11317C081E08E838F8198858C159D0538F4DDDD4D
S11317D08F819885019698878F83F4CF6701E00EF7
S11317E0F11ECE14DF0429F0D0DDF60181936F01E0
S11317F0F8CF8F819885080F191F18870F83898563
S1131800882319F00115124038F0CE01E3DD04C03D
S1131810CE01BDDD80E001C081E0DF91CF911F9159
S11318200F91FF90EF90DF90CF900895EF92FF9289
S11318300F931F930115110511F082DF01C081E0A0
S11318401F910F91FF90EF900895EF92FF920F93E5
S11318501F93790100E012E020E030E071DF1F9176
S11318600F91FF90EF900895EF92FF920F931F93C3
S1131870CF93DF938C01862F7A0180DDE7018EEF11
S1131880F81A89917BDDCE15DF05D9F78FEF76DD68
S11318908FEF74DD7ADDF80182878F71853031F046
S11318A081E18583C80173DD80E001C081E0DF91BF
S11318B0CF911F910F91FF90EF9008950F931F9375
S11318C0CF93DF93EC018901411551056105710541
S11318D011F482E12DC08B85833039F089E0440F07
S11318E0551F661F771F8A95D1F79A01AB0168E1EE
S11318F0CE01FADD882311F084E01AC0A8016EEF4E
S1131900CE01B2DF8823A9F068E572E0CE01D4DD10
S1131910811102C085E10CC020E030E0A9016DE036
S1131920CE01E2DD811103C030DD882331F084E192
S11319308D83CE012CDD80E003C0CE0128DD81E063
S1131940DF91CF911F910F910895E0E5F7E080E5D5
S1131950808311820895CF93DF93EC019C012A5F69
S11319603F4F41E050E060E070E08B8D9C8D0E9421
S1131970D8158823A1F08F89988DA98DBA8D892BCC
S11319808A2B8B2B59F48E819F81A885B9858F8BE7
S1131990988FA98FBA8F8C8180688C8381E0DF91C6
S11319A0CF910895CF93DF93EC01462F6E857F8509
S11319B08889998939D7882341F08A8920E2829FCE
S11319C0C0011124855A984F02C080E090E0DF9155
S11319D0CF9108950F931F93CF93DF93FC0125813B
S11319E0222311F080E041C08B01EC01FB018789C7
S11319F08031B1F482E08D831F8A188E198E1A8E7D
S1131A00808D918DA0E0B0E025E0880F991FAA1F7A
S1131A10BB1F2A95D1F78B8B9C8BAD8BBE8B14C0CF
S1131A20803201F783E08D83FB01428D538D648DF9
S1131A30758D4F8B588F698F7A8F9E012D5E3F4F26
S1131A40C801AED7882371F21C8F0B8F81E08C8381
S1131A501E821F82188619861A861B861C861D867E
S1131A601E861F86188A198A1A8ADF91CF911F91C0
S1131A700F910895CF93DF9300D0CDB7DEB76AE01E
S1131A800E948718805D8983905D9A831B82BE01C2
S1131A906F5F7F4F80E696E00E9491040F900F9055
S1131AA00F90DF91CF910895CF93DF93EC01BC01A8
S1131AB0672F772766956454784F4AE050E080E6B4
S1131AC096E00E9416056DE280E696E00E9492047C
S1131AD0CE0125E0969587952A95E1F78F70CADFA8
S1131AE06DE280E696E00E9492048C2F8F71DF9164
S1131AF0CF91C0CFCF93DF93EC018D2F8695869540
S1131B008695B8DF6AE380E696E00E949204CE01EF
S1131B1025E0969587952A95E1F78F73ABDF6AE305
S1131B2080E696E00E9492048C2F8F71880FDF91DB
S1131B30CF91A0CF2F923F924F925F926F927F925C
S1131B408F929F92AF92BF92CF92DF92EF92FF92C9
S1131B500F931F93CF93DF93EC015B014A018D81B7
S1131B60811103C08FEF9FEFD4C08C8180FFFACF27
S1131B704B885C886D887E884A855B856C857D850D
S1131B80C401A0E0B0E093018201041B150B260BF5
S1131B90370B081719072A073B0718F44201841A60
S1131BA0950A24011E0126E0220E311C4114510421
S1131BB009F47DC04A855B856C857D856A0181E079
S1131BC0D822ED818B8D9C8D8A019B01F9E036959D
S1131BD0279517950795FA95D1F7E23061F4FC0142
S1131BE0828D938DA48DB58DBC01CD01600F711FC5
S1131BF0821F931F3EC0FC0174807A947022C1142A
S1131C00D104C1F4711016C0452B462B472B49F45F
S1131C108F89988DA98DBA8D8E839F83A887B98764
S1131C2009C04E815F8168857985910137D6882303
S1131C3009F498CFEB8DFC8D8E819F81A885B985A1
S1131C400297A109B109058404C0880F991FAA1F2E
S1131C50BB1F0A94D2F74685578560897189840F22
S1131C60951FA61FB71FBC01CD01670D711D811DF6
S1131C70911D20E032E02C193D093201241535056F
S1131C8008F439012C8126FD04C06114F2E07F06BA
S1131C9071F50091160210911702209118023091EB
S1131CA01902601771078207930719F420C0C40151
S1131CB030C0750183019601AB01BC0180915907C5
S1131CC090915A07B3DD882309F44CCFA60CB71CB6
S1131CD08A859B85AC85BD85860D971DA11DB11D8B
S1131CE08A879B87AC87BD87461857085FCF40E03B
S1131CF09BD5882309F436CFF601E55AF84FD50170
S1131D00CF01860D971D8E179F0701F321912D9307
S1131D10FACFDF91CF911F910F91FF90EF90DF9059
S1131D20CF90BF90AF909F908F907F906F905F9077
S1131D304F903F902F900895FF920F931F93CF934E
S1131D40DF931F92CDB7DEB7FC012581223018F452
S1131D5080E090E032C08C01FC01428553856485AB
S1131D60758585E076956795579547958A95D1F75A
S1131D70F42FFF70FF2E41E050E0BE016F5F7F4FF4
S1131D80C801D8DE019719F4898190E002C08FEF71
S1131D909FEF0196E9F2F80182859385A485B585C4
S1131DA04F96A11DB11D82879387A487B587F0E262
S1131DB0FF9EC0011124855A984F0F90DF91CF9157
S1131DC01F910F91FF9008958F929F92AF92BF92AF
S1131DD0CF92DF92EF92FF920F931F93CF93DF93F3
S1131DE0EC018D81811102C080E077C00B891C89D0
S1131DF02D893E890417150726073707A8F36A01BA
S1131E007B01823029F4CA86DB86EC86FD860DC010
S1131E10C114D104E104F10451F41E821F82188616
S1131E2019861A861B861C861D8681E056C08A8404
S1131E309B84AC84BD84EB8DFC8D258530E0275FCD
S1131E403F4FB501A4014150510961097109022EA6
S1131E5004C076956795579547950A94D2F7D701AC
S1131E60C6010197A109B10904C0B695A795979534
S1131E7087952A95D2F784179507A607B70720F008
S1131E8089288A288B2871F44F89588D698D7A8D19
S1131E904E835F83688779874C015D018E010A5FF9
S1131EA01F4F15C0841B950BA60BB70BF5CF4E81A6
S1131EB05F816885798598018B8D9C8DEFD491E045
S1131EC0891A9108A108B108882309F48DCF8114D7
S1131ED09104A104B10459F796CFDF91CF911F91DA
S1131EE00F91FF90EF90DF90CF90BF90AF909F90B5
S1131EF08F9008950F931F93CF93DF93EC018D81FF
S1131F008823B9F18C8187FF2FC061E0CE014ADDBF
S1131F108C01892B71F18D81823048F48B899C89E5
S1131F20AD89BE89F801848F958FA68FB78F8F896D
S1131F30988DA98DBA8DF801938F828FB58BA48B60
S1131F40E0915207F0915307309759F0B8016A5E57
S1131F507F4FC80148961995F801808D918D938B18
S1131F60828B8C818F778C83DF91CF911F910F911E
S1131F7022C480E0DF91CF911F910F9108954F9279
S1131F805F926F927F928F929F92AF92BF92EF92E5
S1131F90FF920F931F93CF93DF9300D01F92CDB77F
S1131FA0DEB7FC0185818130E1F4848181FF19C0B1
S1131FB083899489A589B68984179507A607B707E5
S1131FC080F0892B8A2B8B2B09F472C04A015B01A8
S1131FD07F014284538464847584CF01F5DE8111CA
S1131FE002C080E066C0F701838D948D8114910452
S1131FF0A104B10469F44789508D618D728DE9D6CD
S1132000882379F3F701178A108E118E128E37C048
S1132010F70146815781608571859E012F5F3F4F8F
S11320203DD48823F1F249815A816B817C81F70187
S1132030838D948DFC012789203129F008EF1FEF4F
S11320402FEF3FE004C008EF1FEF20E030E040171F
S113205051076207730798F4BCD6882309F4C1CFEB
S1132060F70146815781608571850FEF1FEF2FEFD0
S11320703FE0838D948DFCD4882309F4B2CFF7011B
S1132080838A948AA58AB68A848180688483C701F6
S113209031DF882309F4A5CFB501A40148145904FC
S11320A06A047B0410F4B301A201C7018DDE01C0F0
S11320B081E00F900F900F900F90DF91CF911F91BF
S11320C00F91FF90EF90BF90AF909F908F907F9073
S11320D06F905F904F9008951F93CF93DF93EC011F
S11320E080E2689FF0011124E55AF84F93859171BD
S11320F029F0842F827411F080E050C0142F6A8B71
S11321008091160290911702A0911802B0911902C1
S11321108E879F87A88BB98B4489558960E070E0CE
S1132120BA0155274427828D938DA0E0B0E0482B57
S1132130592B6A2B7B2B4F8B588F698F7A8F838512
S1132140887151F4848D958DA68DB78D8B8B9C8B66
S1132150AD8BBE8B81E00BC0803171F69E012D5E8C
S11321603F4F8B8D9C8D1CD4882331F284E08D836A
S1132170812F8F708C831E821F82188619861A867F
S11321801B861C861D8616FF08C040E050E0BA017D
S1132190CE01DF91CF911F91F2CE81E0DF91CF91FB
S11321A01F910895DF92EF92FF920F931F93CF93A5
S11321B0DF93FC013581311131C0322F307330335C
S11321C069F1D22EEA017B018C01FB01838D948D90
S11321D0F801948F838F85E0440F551F8A95E1F7AA
S11321E060E070E0C701F0DD8823C1F0C701A4DD21
S11321F00097A1F0FC018081882381F0853E71F075
S11322008E3261F06C2F6F704D2DC801DF91CF912C
S11322101F910F91FF90EF90DF905ECF80E0DF91F0
S1132220CF911F910F91FF90EF90DF9008952F921F
S11322303F924F925F926F927F928F929F92AF9252
S1132240BF92CF92DF92EF92FF920F931F93CF939F
S1132250DF9300D01F92CDB7DEB78C016B011A015A
S1132260DC0115968C9115978130C1F414968C91EC
S113227081FF14C082FF1CC0F80143895489658919
S1132280768982859385A485B58584179507A607E5
S1132290B70771F0C80198DD81110AC081E090E0B0
S11322A0D80113969C938E93129780E090E042C1DC
S11322B0410182C05B968D919C915C97FC01748076
S11322C02FEF270D2A013B0139E076946794579448
S11322D047943A95D1F7722E74207A01F1E0FF22E7
S11322E0772009F475C080E092E08E199F095401AB
S11322F08815990508F45C01D8015B962D913C91F1
S11323005C9716968D919D910D90BC91A02D02978E
S1132310A109B109F901058404C0880F991FAA1FF6
S1132320BB1F0A94D2F74685578560897189840F4B
S1132330951FA61FB71F9C01AD01270D311D411D1F
S1132340511D29013A01A11432E0B30609F085C0F8
S11323508091160290911702A0911802B09119026F
S1132360481659066A067B0659F48FEF9FEFDC0185
S11323708093160290931702A0931802B093190247
S11323809601B301A2018091590790915A0796DAF8
S1132390882309F483CF9EEFD91A8A189B08F80181
S11323A082859385A485B5858A0D9B1DA11DB11DCC
S11323B082879387A487B587D8011A964D915D913A
S11323C06D917C911D978114910409F073CF83C0A2
S11323D0E114F10409F087CF16964D915D916D914A
S11323E07C911997411551056105710559F457966A
S11323F08D919D910D90BC91A02D0097A105B105E3
S113240031F520C09E012F5F3F4F48D2882309F445
S11324104DCF89819A81AB81BC81F801238D348DA4
S1132420F9012789203129F048EF5FEF6FEF7FE052
S113243004C048EF5FEF60E070E084179507A607DB
S1132440B70728F0C80187DA81114DCF27CFF801EB
S113245086839783A087B18746CFE114F10421F5E1
S1132460D8011A964D915D916D917C911D9753966B
S11324708D919D910D90BC91A02D481759076A0725
S11324807B0790F098D1882309F408CF4092160274
S113249050921702609218027092190280915807A4
S11324A081608093580707C041E0C301B201BCD1E9
S11324B0882309F4F3CED601F701E55AF84F9F01BA
S11324C02A0D3B1D2E173F0719F08D918193FACFEA
S11324D0CA0CDB1C62CFD8015396CD90DD90ED90F1
S11324E0FC90569714968C91C416D506E606F7060A
S11324F040F4F801438B548B658B768B806884831E
S11325000DC02091520730915307232B39F0211429
S1132510310421F08068D80114968C93F8018481E9
S113252083FD02C0C10106C0C801E4DC882309F4AC
S1132530B5CEF8CF0F900F900F900F90DF91CF9101
S11325401F910F91FF90EF90DF90CF90BF90AF90CD
S11325509F908F907F906F905F904F903F902F90BF
S11325600895CF93DF931F92CDB7DEB7698341E01F
S113257050E0BE016F5F7F4F5ADE0F90DF91CF9125
S11325800895DF92EF92FF920F931F93CF93DF93FF
S11325907C01D62E8C01D0E0C0E0F801808180322D
S11325A079F0D83031F46EE280E696E00E9492042D
S11325B0CF5FF801608180E696E00E94DC02CF5F85
S11325C0DF5F0F5F1F4FDB3041F7F70183858871B1
S11325D0803131F46FE280E696E00E949204CF5F8E
S11325E0CD1510F460E2F7CFDF91CF911F910F91D9
S11325F0FF90EF90DF9008952F923F924F925F9259
S11326006F927F928F929F92AF92BF92CF92DF92FE
S1132610EF92FF920F931F93CF93DF93CDB7DEB763
S11326206F970FB6F894DEBF0FBECDBF7C01D62ED8
S1132630FC01168217821086118612861386148670
S11326401586862F837019F05EE0752E01C0712CFB
S1132650A42EB12CFD2DF170FE8F8D2D8470682E6B
S113266027ED822E25E0922E32E0C32EC40EED2DEE
S1132670E270EF8FC70160DB8C01009709F482C020
S1132680FC018081882309F47DC0853E99F38E3254
S113269089F3838583FDEECF312C832D032C000C2D
S11326A0990B8A159B053CF460E280E696E00E9453
S11326B092043394F2CF672DC80163DFFE8DFF23AC
S11326C069F0F801808D918DEFD960E280E696E0A3
S11326D00E949204F801868997890CDAF8018385AF
S11326E08871803119F0FF8DF1110EC080E696E0FB
S11326F00E949904662009F4BDCFF801838588718E
S1132700803109F0B7CF11C060E280E696E00E9404
S11327109204F801448D558D668D778D2AE030E062
S113272080E696E00E94F404E1CFF70142855385E8
S1132730648575851A012B0185E056944794379476
S113274027948A95D1F71C821B829A8289821E82E1
S1132750A1014150510921E0B701CE01019622DDCA
S1132760882329F04C2D6D2DCE01019645DFA10162
S113277095E0440F551F9A95E1F760E070E0C701BA
S113278023DB78CF6F960FB6F894DEBF0FBECDBFB4
S1132790DF91CF911F910F91FF90EF90DF90CF9039
S11327A0BF90AF909F908F907F906F905F904F906D
S11327B03F902F90089580915807882399F1409174
S11327C016025091170260911802709119022BE5BC
S11327D037E08091590790915A0770D8811102C04F
S11327E080E0089540915407509155076091560731
S11327F070915707411551056105710589F02BE565
S113280037E08091590790915A0758D8882341F3AB
S113281010925407109255071092560710925707BA
S11328201092580781E00895CF92DF92EF92FF92C1
S1132830CF936B017C01C42F8091160290911702F3
S1132840A0911802B09119028C159D05AE05BF0523
S1132850C9F0B1DF811102C080E01AC02BE537E076
S1132860B701A6018091590790915A070E94250C3F
S1132870882391F3C0921602D0921702E0921802B4
S1132880F092190280915807C82BC093580781E031
S1132890CF91FF90EF90DF90CF9008958F929F9209
S11328A0AF92BF92CF92DF92EF92FF920F931F935A
S11328B0CF93DF93FC0181859285A385B48501962E
S11328C0A11DB11D84179507A607B70710F480E072
S11328D05AC083889488A588B6888789803129F46A
S11328E0BB27A72F962F852F09C0DB01CA01C7E09C
S11328F0B695A79597958795CA95D1F7E9016A0189
S11329007B018F01BC01CD01680D791D8A1D9B1DC2
S11329108090160290901702A0901802B0901902AD
S1132920681579058A059B0591F4F801878980313A
S113293099F4DD24EE24FF24C601880F991FFC01BD
S1132940E55AF84F80819181A0E0B0E017C040E0E3
S11329506BDF8111EACFBBCFE894C7F8DD24EE2406
S1132960FF24C601880F991F880F991FFC01E55A9F
S1132970F84F80819181A281B381BF70888399834C
S1132980AA83BB8381E0DF91CF911F910F91FF90C8
S1132990EF90DF90CF90BF90AF909F908F9008956D
S11329A04F925F926F927F92AF92BF92CF92DF92DB
S11329B0EF92FF920F931F93CF93DF9300D01F9258
S11329C0CDB7DEB78C0149835A836B837C8359016D
S11329D0C12CD12C7601412C82E0582E612C712C13
S11329E049815A816B817C819E012F5F3F4FC801D1
S11329F055DF882351F1D301C201F801058404C0D5
S1132A00880F991FAA1FBB1F0A94D2F7C80ED91E9C
S1132A10EA1EFB1E49815A816B817C818789803142
S1132A2029F088EF9FEFAFEFBFE004C088EF9FEF7E
S1132A30A0E0B0E0481759076A077B0788F2F50160
S1132A40C082D182E282F38281E00F900F900F90D6
S1132A500F90DF91CF911F910F91FF90EF90DF9036
S1132A60CF90BF90AF907F906F905F904F900895FC
S1132A704F925F926F927F928F929F92AF92BF928A
S1132A80CF92DF92EF92FF920F931F93CF93DF9336
S1132A90EC01423051056105710510F480E077C006
S1132AA089859A85AB85BC850196A11DB11D8417C6
S1132AB09507A607B70790F3CB88DC88ED88FE88D6
S1132AC08F89803129F4BB27A72F962F852F09C022
S1132AD0DB01CA01E7E0B695A79597958795EA9536
S1132AE0D1F7480159012A013B01C80ED91EEA1E3B
S1132AF0FB1E8091160290911702A0911802B091CA
S1132B001902C816D906EA06FB0681F48F898031BA
S1132B10A1F4B301A201552766277727440F551F57
S1132B20FA01E55AF84F9182808218C040E0C7014B
S1132B30B6017ADE8111EACFB1CFB301A2014F779A
S1132B40552766277727440F551F440F551FFA0151
S1132B50E55AF84F80829182A282B382809158070D
S1132B608160809358078A89823080F08D819E81AC
S1132B70AF81B885C80ED91EEA1EFB1EC092540749
S1132B80D0925507E0925607F092570781E0DF9103
S1132B90CF911F910F91FF90EF90DF90CF90BF9056
S1132BA0AF909F908F907F906F905F904F9008951B
S1132BB02F923F924F925F926F927F929F92AF9229
S1132BC0BF92CF92DF92EF92FF920F931F93CF9316
S1132BD0DF93CDB7DEB760970FB6F894DEBF0FBEB4
S1132BE0CDBF5C0149875A876B877C871901D9015E
S1132BF0CD90DD90ED90FC90C114D104E104F1047A
S1132C0031F0BFEFCB1ADB0AEB0AFB0A10C0FC0160
S1132C10C080D180E280F3809924939409851A8539
S1132C202B853C85013011052105310509F0912CD6
S1132C30F50181859285A385B4858C019D010F5F83
S1132C401F4F2F4F3F4F0D871E872F87388B26012D
S1132C5037011D821E821F821886F50181859285A7
S1132C60A385B4850D811E812F8138850817190726
S1132C702A073B0708F054C02D853E854F855889A7
S1132C80241535054605570550F482E0482E512C8D
S1132C90612C712C92E0C92ED12CE12CF12C9E01D7
S1132CA02F5F3F4FB301A201C501F8DD8823C1F1B5
S1132CB049815A816B817C81D301C2010196A11D96
S1132CC0B11D452B462B472B19F06C017D010FC01C
S1132CD0AC01BD014C195D096E097F0909851A858E
S1132CE02B853C85041715072607370779F02D81B6
S1132CF03E814F8158852F5F3F4F4F4F5F4F2D834C
S1132D003E834F8358872C013D01A7CF0FEF1FEF60
S1132D102FEF3FE0B301A201C501AADE811117C064
S1132D2080E03FC0D301C2010197A109B1098D839D
S1132D309E83AF83B88793018201AC01BD01C501B5
S1132D4097DE882369F34D805E806F807884C41495
S1132D50D504E604F70430F3D1014D915D916D91F2
S1132D607C91411551056105710599F4F101C08209
S1132D70D182E282F382992099F0FFEFCF1ADF0A21
S1132D80EF0AFF0AD501CD92DD92ED92FC921397E2
S1132D9007C097018601C5016BDE8111E7CFC0CF63
S1132DA081E060960FB6F894DEBF0FBECDBFDF9111
S1132DB0CF911F910F91FF90EF90DF90CF90BF9034
S1132DC0AF909F907F906F905F904F903F902F9027
S1132DD00895AF92BF92CF92DF92EF92FF920F933A
S1132DE01F93CF93DF9300D01F92CDB7DEB75C0162
S1132DF06A017B0182E090E0A0E0B0E0F50180830D
S1132E009183A283B3839E012F5F3F4FB701A60135
S1132E10C50144DD882309F100E010E09801B70101
S1132E20A601C50125DE8823C1F0C980DA80EB80C4
S1132E30FC80F5018789803129F088EF9FEFAFEF9F
S1132E40BFE004C088EF9FEFA0E0B0E0C816D90649
S1132E50EA06FB06C0F281E001C080E00F900F900B
S1132E600F900F90DF91CF911F910F91FF90EF90F2
S1132E70DF90CF90BF90AF9008958F929F92AF92C2
S1132E80BF92CF92DF92EF92FF920F931F93CF9353
S1132E90DF93EC01142F70935A076093590744236E
S1132EA061F1453010F080E0EFC040E060E070E098
S1132EB0CB01BADC8823B9F320E1129FA0011124CD
S1132EC0455B584FFA01E254FE4F80818F7759F7E2
S1132ED03C9680819181A281B38184369105A105BC
S1132EE0B10508F33497C080D180E280F380C11427
S1132EF0D104E104F10421F4D6CFC12CD12C760104
S1132F0040E0C701B60190DC882369F2809166072E
S1132F10909167078115924031F690916B07992340
S1132F2009F4C1CF2091690730916A07232B09F472
S1132F30BACF80916807882309F4B5CF9A8B8C8324
S1132F401D8690E041E050E02D85E22FBA01022E6B
S1132F5002C0660F771F0A94E2F78617970731F0CD
S1132F6031E0320F3D87283078F39DCF20917107EF
S1132F70309172072115310519F040E050E008C086
S1132F8020917F07309180074091810750918207FB
S1132F902D833E834F8358878091690790916A07F8
S1132FA046015701880E991EA11CB11C8B8A9C8A6C
S1132FB0AD8ABE8A00916C0710916D07198F088F36
S1132FC0A0916B07B0E0D9D0860E971EA81EB91E3B
S1132FD08A8E9B8EAC8EBD8E85E0000F111F8A9564
S1132FE0E1F701501E4F012F11270695800E911E07
S1132FF0A11CB11C8E869F86A88AB98A20916E076F
S113300030916F072115310521F0A90160E070E0CE
S113301008C040917B0750917C0760917D077091B7
S11330207E07D701C60188199909AA09BB09840F2B
S1133030951FA61FB71F04C0B695A79597958795AA
S1133040EA95D2F789879A87AB87BC87853F2FE0BB
S11330509207A105B10510F48CE014C0853F9F4F81
S1133060A105B10510F480E10DC08091870790910E
S11330708807A0918907B0918A078A8F9B8FAC8FAC
S1133080BD8F80E28F8B81E0DF91CF911F910F91F3
S1133090FF90EF90DF90CF90BF90AF909F908F9074
S11330A00895CF93CFB7F89480915E09811127C01A
S11330B0E9ECF1E08491E3E8F1E09491E82FF0E0A9
S11330C0EE0FFF1FEC50FE4FA591B491EC91E92354
S11330D021F461E085E30E94CE0761E085E30E946C
S11330E092078CB580618CBD8CB580648CBD61E029
S11330F084E30E94920761E083E30E949207809137
S11331005E098F5F80935E09CFBFCF910895991BAD
S113311079E004C0991F961708F0961B881F7A95CA
S1133120C9F780950895A1E21A2EAA1BBB1BFD01C5
S11331300DC0AA1FBB1FEE1FFF1FA217B307E40792
S1133140F50720F0A21BB30BE40BF50B661F771FEA
S1133150881F991F1A9469F76095709580959095CA
S11331609B01AC01BD01CF010895EE0FFF1F881F25
S11331708BBF0790F691E02D199409D0A59F900D6F
S1133180B49F900DA49F800D911D11240895A29FBA
S1133190B001B39FC001A39F700D811D1124911D27
S11331A0B29F700D811D1124911D08950F931F93DB
S11331B0CF93DF938230910510F482E090E0E091A8
S11331C06109F091620920E030E0A0E0B0E03097BE
S11331D019F1408151810281138148175907C8F0C0
S11331E08417950769F4109731F012960C9312978F
S11331F013961C9327C0009361091093620922C09F
S11332002115310519F04217530718F49A01BD012D
S1133210EF01DF01F801DBCF21153105F9F0281B9F
S1133220390B2430310580F48A819B816115710545
S113323021F0FB019383828304C0909362098093FD
S11332406109FE01329644C0FE01E20FF31F81932F
S1133250919322503109398328833AC020915F0920
S113326030916009232B41F4209102023091030232
S11332703093600920935F0920910002309101028C
S11332802115310541F42DB73EB740910402509108
S11332900502241B350BE0915F09F0916009E217E8
S11332A0F307A0F42E1B3F0B2817390778F0AC0165
S11332B04E5F5F4F2417350748F04E0F5F1F509342
S11332C0600940935F098193919302C0E0E0F0E0CC
S11332D0CF01DF91CF911F910F910895CF93DF9389
S11332E0009709F481C0FC01329713821282A091E5
S11332F06109B0916209109781F420813181820FB4
S1133300931F20915F09309160092817390751F5FF
S1133310F0936009E0935F0967C0ED0120E030E0BD
S1133320CE17DF0740F44A815B819E0141155105A8
S1133330F1F0EA01F5CFD383C28340815181840F38
S1133340951FC817D90759F488819981840F951F4F
S11333500296918380838A819B8193838283211542
S1133360310529F4F0936209E09361093DC0E90154
S1133370FB83EA8349915991C40FD51FEC17FD07CC
S113338061F480819181840F951F0296E9019983EC
S11333908883828193819B838A83E0E0F0E01296A4
S11333A08D919C911397009719F0FD01DC01F7CFE3
S11333B08D919C9111979D012E5F3F4F820F931F1A
S11333C020915F09309160092817390769F4309713
S11333D029F4109262091092610902C013821282C8
S11333E0B0936009A0935F09DF91CF9108956F9224
S11333F07F928F929F92AF92BF92CF92DF92EF9281
S1133400FF920F931F93CF93DF93009781F4CB0127
S1133410DF91CF911F910F91FF90EF90DF90CF90AC
S1133420BF90AF909F908F907F906F90BFCEFC0124
S1133430E60FF71F9C0122503109E217F30708F445
S1133440A5C0EC01D9010D911C911197061717071E
S1133450A8F00530110508F497C0C8010497861731
S1133460970708F491C002501109061B170B01932A
S113347011936D937C93CF0131DF86C05B01A01A59
S1133480B10A4C01800E911EA0916109B0916209AC
S1133490612C712CE12CF12C109709F446C08D910C
S11334A09C911197A815B905B1F56C0142E0C40EC1
S11334B0D11CCA14DB0478F14C018A189B086401FE
S11334C042E0C40ED11C1296BC9012971396AC9194
S11334D0B5E0CB16D10440F0B282A38391828082FE
S11334E0D9016D937C9309C00E5F1F4F800F911F0C
S11334F0F90191838083EB2DFA2FE114F10431F06B
S1133500D7011396FC93EE9312973EC0F093620991
S1133510E093610939C06816790608F43C017D011D
S113352012960D90BC91A02DB7CF80915F09909118
S1133530600988169906E1F466167706C8F4809146
S1133540000290910102009741F48DB79EB740911B
S1133550040250910502841B950BE817F907B0F497
S1133560F0936009E0935F09F901718360830CC0F3
S1133570CB011CDE7C01009749F0A801BE0117D0E5
S1133580CE01ACDEC70104C0CE0102C080E090E0F1
S1133590DF91CF911F910F91FF90EF90DF90CF902B
S11335A0BF90AF909F908F907F906F900895FB0194
S11335B0DC0102C001900D9241505040D8F70895AB
S11335C0FB01DC0101900D920020E1F7089511E068
S11335D0CCE0D1E000E005C0802FFE01C6DD2196DD
S11335E0011DCD30D10780E00807B1F7F894FFCF73
S11335F00000630920002B052B052B052B052B054B
S11336002B052B052B05FFFFFFFF68656C700D0074
S1133610636F6E6669670D00657869740D00736881
S11336206F770D007364206361726420696E666F46
S1133630726D6174696F6E730D002A2A2A2A2A2A10
S11336402A2A2A2A2A2A2A2A2A2A2A2A2A2A2A2AD6
S11336502A2A2A00417574686F72697A6564204168
S11336606363657373204F6E6C7920212100506170
S11336707373776F72643A00617364660D005375F7
S1133680636365737366756C6C79206C6F676765CB
S11336906420696E2E2E0046616C7365000A0D5518
S11336A0736572204D6F64653A000A0D4176616955
S11336B06C61626C6520636F6D6D616E647320660E
S11336C06F7220746869732070726F6D70743A0A37
S11336D00D202D2073686F770D0A202D20636F6EE7
S11336E06669672028746F20656E7465722074683B
S11336F06520636F6E66696775726174696F6E20A9
S11337006D6F6465290A0D000A0D53686F77204DAB
S11337106F64653A00202D20736420636172642015
S1133720696E666F726D6174696F6E730A0D006401
S11337306174612E747874000A0D417661696C615C
S1133740626C6520636F6D6D616E647320666F7269
S113375020746869732070726F6D70743A0A0D205A
S11337602D20657869740A0D002A2A2A556E6B6E1D
S11337706F776E20636F6D6D616E642C20656E745F
S11337806572202768656C702720666F72206D6FE4
S1133790726520696E666F726D6174696F6E7321F4
S11337A02A2A2A000A0D436F6E666967757261746E
S11337B0696F6E204D6F64653A000A0D4176616948
S11337C06C61626C6520636F6D6D616E64732066FD
S11337D06F7220746869732070726F6D70743A0A26
S11337E00D202D207365740A0D202D2064656C65F1
S11337F074650A0D202D2065786974202867657426
S1133800206261636B20746F2075736572206D6F25
S11338106465290A0D006E6F20636172642061760D
S113382061696C61626C6521004361726420747922
S113383070653A20005344310053443200534448E5
S11338404300556E6B6E6F776E00436F756C64202A
S11338506E6F742066696E642046415431362F467B
S11338604154333220706172746974696F6E2E0A28
S11338704D616B65207375726520796F7527766568
S113388020666F726D61747465642074686520636A
S1133890617264000A566F6C756D65207479706589
S11338A02069732046415400566F6C756D65207312
S11338B0697A6520286279746573293A2000566F05
S11338C06C756D652073697A6520284B627974651F
S11338D073293A2000566F6C756D652073697A659B
S11338E020284D6279746573293A200046696C6515
S11338F07320666F756E64206F6E20746865206334
S113390061726420286E616D652C20646174652089
S1133910616E642073697A6520696E2062797465CA
S113392073293A2000696E697469616C697A6174FB
S1133930696F6E206661696C656421004572726FFF
S113394072206F70656E696E673A2000496E697403
S113395069616C697A6174696F6E206661696C650E
S113396064210046696C6520646F65736E2774205A
S11339706578697374210046696C656E616D653A9A
S113398020004572726F72206F70656E696E6700F9
S113399000000000DC0252046F02280341025B02B3
S11339A04D020D0A006E616E00696E66006F7666E8
S11339B000000000007B089108AE03AD082E09CA80
S11339C008D30800000000B1125204AE03B1030092
S9030000FC
